{
  "_format": "hh-sol-artifact-1",
  "contractName": "MockLzEndpoint",
  "sourceName": "contracts/MockLzEndpoint.sol",
  "abi": [
    {
      "anonymous": false,
      "inputs": [
        {
          "indexed": false,
          "internalType": "uint16",
          "name": "dstChainId",
          "type": "uint16"
        },
        {
          "indexed": false,
          "internalType": "bytes",
          "name": "dstAddress",
          "type": "bytes"
        },
        {
          "indexed": false,
          "internalType": "bytes",
          "name": "payload",
          "type": "bytes"
        }
      ],
      "name": "LzMessageSent",
      "type": "event"
    },
    {
      "inputs": [
        {
          "internalType": "uint16",
          "name": "_dstChainId",
          "type": "uint16"
        },
        {
          "internalType": "address",
          "name": "_userApplication",
          "type": "address"
        },
        {
          "internalType": "bytes",
          "name": "_payload",
          "type": "bytes"
        },
        {
          "internalType": "bool",
          "name": "_payInZRO",
          "type": "bool"
        },
        {
          "internalType": "bytes",
          "name": "_adapterParam",
          "type": "bytes"
        }
      ],
      "name": "estimateFees",
      "outputs": [
        {
          "internalType": "uint256",
          "name": "nativeFee",
          "type": "uint256"
        },
        {
          "internalType": "uint256",
          "name": "zroFee",
          "type": "uint256"
        }
      ],
      "stateMutability": "view",
      "type": "function"
    },
    {
      "inputs": [],
      "name": "lastDstAddress",
      "outputs": [
        {
          "internalType": "bytes",
          "name": "",
          "type": "bytes"
        }
      ],
      "stateMutability": "view",
      "type": "function"
    },
    {
      "inputs": [],
      "name": "lastDstChainId",
      "outputs": [
        {
          "internalType": "uint16",
          "name": "",
          "type": "uint16"
        }
      ],
      "stateMutability": "view",
      "type": "function"
    },
    {
      "inputs": [],
      "name": "lastPayload",
      "outputs": [
        {
          "internalType": "bytes",
          "name": "",
          "type": "bytes"
        }
      ],
      "stateMutability": "view",
      "type": "function"
    },
    {
      "inputs": [
        {
          "internalType": "uint16",
          "name": "_dstChainId",
          "type": "uint16"
        },
        {
          "internalType": "bytes",
          "name": "_destination",
          "type": "bytes"
        },
        {
          "internalType": "bytes",
          "name": "_payload",
          "type": "bytes"
        },
        {
          "internalType": "address payable",
          "name": "_refundAddress",
          "type": "address"
        },
        {
          "internalType": "address",
          "name": "_zroPaymentAddress",
          "type": "address"
        },
        {
          "internalType": "bytes",
          "name": "_adapterParams",
          "type": "bytes"
        }
      ],
      "name": "send",
      "outputs": [],
      "stateMutability": "payable",
      "type": "function"
    }
  ],
  "bytecode": "0x608060405234801561001057600080fd5b50610b19806100206000396000f3fe60806040526004361061004a5760003560e01c806340a7bb101461004f5780634cc2aa3c1461008d578063a23b21e5146100b8578063c5803100146100e3578063e4b3978a146100ff575b600080fd5b34801561005b57600080fd5b5061007660048036038101906100719190610441565b61012a565b604051610084929190610516565b60405180910390f35b34801561009957600080fd5b506100a2610147565b6040516100af91906105cf565b60405180910390f35b3480156100c457600080fd5b506100cd6101d5565b6040516100da91906105cf565b60405180910390f35b6100fd60048036038101906100f8919061062f565b610263565b005b34801561010b57600080fd5b506101146102ee565b604051610121919061072d565b60405180910390f35b600080662386f26fc1000060009150915097509795505050505050565b6000805461015490610777565b80601f016020809104026020016040519081016040528092919081815260200182805461018090610777565b80156101cd5780601f106101a2576101008083540402835291602001916101cd565b820191906000526020600020905b8154815290600101906020018083116101b057829003601f168201915b505050505081565b600280546101e290610777565b80601f016020809104026020016040519081016040528092919081815260200182805461020e90610777565b801561025b5780601f106102305761010080835404028352916020019161025b565b820191906000526020600020905b81548152906001019060200180831161023e57829003601f168201915b505050505081565b88600160006101000a81548161ffff021916908361ffff16021790555087876002918261029192919061098e565b508585600091826102a392919061098e565b507f6f18642634d08099c75ef0466df6f3ac19744ea950a5d0c153aa6313af77994189898989896040516102db959493929190610a9a565b60405180910390a1505050505050505050565b600160009054906101000a900461ffff1681565b600080fd5b600080fd5b600061ffff82169050919050565b6103238161030c565b811461032e57600080fd5b50565b6000813590506103408161031a565b92915050565b600073ffffffffffffffffffffffffffffffffffffffff82169050919050565b600061037182610346565b9050919050565b61038181610366565b811461038c57600080fd5b50565b60008135905061039e81610378565b92915050565b600080fd5b600080fd5b600080fd5b60008083601f8401126103c9576103c86103a4565b5b8235905067ffffffffffffffff8111156103e6576103e56103a9565b5b602083019150836001820283011115610402576104016103ae565b5b9250929050565b60008115159050919050565b61041e81610409565b811461042957600080fd5b50565b60008135905061043b81610415565b92915050565b600080600080600080600060a0888a0312156104605761045f610302565b5b600061046e8a828b01610331565b975050602061047f8a828b0161038f565b965050604088013567ffffffffffffffff8111156104a05761049f610307565b5b6104ac8a828b016103b3565b955095505060606104bf8a828b0161042c565b935050608088013567ffffffffffffffff8111156104e0576104df610307565b5b6104ec8a828b016103b3565b925092505092959891949750929550565b6000819050919050565b610510816104fd565b82525050565b600060408201905061052b6000830185610507565b6105386020830184610507565b9392505050565b600081519050919050565b600082825260208201905092915050565b60005b8381101561057957808201518184015260208101905061055e565b60008484015250505050565b6000601f19601f8301169050919050565b60006105a18261053f565b6105ab818561054a565b93506105bb81856020860161055b565b6105c481610585565b840191505092915050565b600060208201905081810360008301526105e98184610596565b905092915050565b60006105fc82610346565b9050919050565b61060c816105f1565b811461061757600080fd5b50565b60008135905061062981610603565b92915050565b600080600080600080600080600060c08a8c03121561065157610650610302565b5b600061065f8c828d01610331565b99505060208a013567ffffffffffffffff8111156106805761067f610307565b5b61068c8c828d016103b3565b985098505060408a013567ffffffffffffffff8111156106af576106ae610307565b5b6106bb8c828d016103b3565b965096505060606106ce8c828d0161061a565b94505060806106df8c828d0161038f565b93505060a08a013567ffffffffffffffff811115610700576106ff610307565b5b61070c8c828d016103b3565b92509250509295985092959850929598565b6107278161030c565b82525050565b6000602082019050610742600083018461071e565b92915050565b7f4e487b7100000000000000000000000000000000000000000000000000000000600052602260045260246000fd5b6000600282049050600182168061078f57607f821691505b6020821081036107a2576107a1610748565b5b50919050565b600082905092915050565b7f4e487b7100000000000000000000000000000000000000000000000000000000600052604160045260246000fd5b60008190508160005260206000209050919050565b60006020601f8301049050919050565b600082821b905092915050565b6000600883026108447fffffffffffffffffffffffffffffffffffffffffffffffffffffffffffffffff82610807565b61084e8683610807565b95508019841693508086168417925050509392505050565b6000819050919050565b600061088b610886610881846104fd565b610866565b6104fd565b9050919050565b6000819050919050565b6108a583610870565b6108b96108b182610892565b848454610814565b825550505050565b600090565b6108ce6108c1565b6108d981848461089c565b505050565b5b818110156108fd576108f26000826108c6565b6001810190506108df565b5050565b601f82111561094257610913816107e2565b61091c846107f7565b8101602085101561092b578190505b61093f610937856107f7565b8301826108de565b50505b505050565b600082821c905092915050565b600061096560001984600802610947565b1980831691505092915050565b600061097e8383610954565b9150826002028217905092915050565b61099883836107a8565b67ffffffffffffffff8111156109b1576109b06107b3565b5b6109bb8254610777565b6109c6828285610901565b6000601f8311600181146109f557600084156109e3578287013590505b6109ed8582610972565b865550610a55565b601f198416610a03866107e2565b60005b82811015610a2b57848901358255600182019150602085019450602081019050610a06565b86831015610a485784890135610a44601f891682610954565b8355505b6001600288020188555050505b50505050505050565b82818337600083830152505050565b6000610a79838561054a565b9350610a86838584610a5e565b610a8f83610585565b840190509392505050565b6000606082019050610aaf600083018861071e565b8181036020830152610ac2818688610a6d565b90508181036040830152610ad7818486610a6d565b9050969550505050505056fea264697066735822122036d45dc756a77d773482011dd93aa00ed92fd8e698ca4c7c0e5d665e0944476864736f6c63430008140033",
  "linkReferences": {},
  "deployedLinkReferences": {}
}