{
  "_format": "hh-sol-artifact-1",
  "contractName": "OmnichainIdentityLinker",
  "sourceName": "contracts/OmnichainIdentityLinker.sol",
  "abi": [
    {
      "inputs": [
        {
          "internalType": "address",
          "name": "_lzEndpoint",
          "type": "address"
        },
        {
          "internalType": "address",
          "name": "_delegate",
          "type": "address"
        }
      ],
      "stateMutability": "nonpayable",
      "type": "constructor"
    },
    {
      "inputs": [],
      "name": "InvalidDelegate",
      "type": "error"
    },
    {
      "inputs": [],
      "name": "InvalidEndpointCall",
      "type": "error"
    },
    {
      "inputs": [],
      "name": "LzTokenUnavailable",
      "type": "error"
    },
    {
      "inputs": [
        {
          "internalType": "uint32",
          "name": "eid",
          "type": "uint32"
        }
      ],
      "name": "NoPeer",
      "type": "error"
    },
    {
      "inputs": [
        {
          "internalType": "uint256",
          "name": "msgValue",
          "type": "uint256"
        }
      ],
      "name": "NotEnoughNative",
      "type": "error"
    },
    {
      "inputs": [
        {
          "internalType": "address",
          "name": "addr",
          "type": "address"
        }
      ],
      "name": "OnlyEndpoint",
      "type": "error"
    },
    {
      "inputs": [
        {
          "internalType": "uint32",
          "name": "eid",
          "type": "uint32"
        },
        {
          "internalType": "bytes32",
          "name": "sender",
          "type": "bytes32"
        }
      ],
      "name": "OnlyPeer",
      "type": "error"
    },
    {
      "anonymous": false,
      "inputs": [
        {
          "indexed": false,
          "internalType": "address",
          "name": "evmAddress",
          "type": "address"
        },
        {
          "indexed": false,
          "internalType": "bytes",
          "name": "solanaAddress",
          "type": "bytes"
        },
        {
          "indexed": false,
          "internalType": "uint256",
          "name": "timestamp",
          "type": "uint256"
        }
      ],
      "name": "IdentityLinked",
      "type": "event"
    },
    {
      "anonymous": false,
      "inputs": [
        {
          "indexed": true,
          "internalType": "address",
          "name": "previousOwner",
          "type": "address"
        },
        {
          "indexed": true,
          "internalType": "address",
          "name": "newOwner",
          "type": "address"
        }
      ],
      "name": "OwnershipTransferred",
      "type": "event"
    },
    {
      "anonymous": false,
      "inputs": [
        {
          "indexed": false,
          "internalType": "uint32",
          "name": "eid",
          "type": "uint32"
        },
        {
          "indexed": false,
          "internalType": "bytes32",
          "name": "peer",
          "type": "bytes32"
        }
      ],
      "name": "PeerSet",
      "type": "event"
    },
    {
      "inputs": [],
      "name": "SOLANA_CHAIN_ID",
      "outputs": [
        {
          "internalType": "uint32",
          "name": "",
          "type": "uint32"
        }
      ],
      "stateMutability": "view",
      "type": "function"
    },
    {
      "inputs": [
        {
          "components": [
            {
              "internalType": "uint32",
              "name": "srcEid",
              "type": "uint32"
            },
            {
              "internalType": "bytes32",
              "name": "sender",
              "type": "bytes32"
            },
            {
              "internalType": "uint64",
              "name": "nonce",
              "type": "uint64"
            }
          ],
          "internalType": "struct Origin",
          "name": "origin",
          "type": "tuple"
        }
      ],
      "name": "allowInitializePath",
      "outputs": [
        {
          "internalType": "bool",
          "name": "",
          "type": "bool"
        }
      ],
      "stateMutability": "view",
      "type": "function"
    },
    {
      "inputs": [],
      "name": "endpoint",
      "outputs": [
        {
          "internalType": "contract ILayerZeroEndpointV2",
          "name": "",
          "type": "address"
        }
      ],
      "stateMutability": "view",
      "type": "function"
    },
    {
      "inputs": [],
      "name": "gasLimit",
      "outputs": [
        {
          "internalType": "uint256",
          "name": "",
          "type": "uint256"
        }
      ],
      "stateMutability": "view",
      "type": "function"
    },
    {
      "inputs": [
        {
          "internalType": "address",
          "name": "_evmAddress",
          "type": "address"
        }
      ],
      "name": "getLinkedAddresses",
      "outputs": [
        {
          "internalType": "bytes[]",
          "name": "",
          "type": "bytes[]"
        }
      ],
      "stateMutability": "view",
      "type": "function"
    },
    {
      "inputs": [
        {
          "internalType": "address",
          "name": "_evmAddress",
          "type": "address"
        }
      ],
      "name": "getLinkedAddressesAsStrings",
      "outputs": [
        {
          "internalType": "string[]",
          "name": "",
          "type": "string[]"
        }
      ],
      "stateMutability": "view",
      "type": "function"
    },
    {
      "inputs": [
        {
          "components": [
            {
              "internalType": "uint32",
              "name": "srcEid",
              "type": "uint32"
            },
            {
              "internalType": "bytes32",
              "name": "sender",
              "type": "bytes32"
            },
            {
              "internalType": "uint64",
              "name": "nonce",
              "type": "uint64"
            }
          ],
          "internalType": "struct Origin",
          "name": "",
          "type": "tuple"
        },
        {
          "internalType": "bytes",
          "name": "",
          "type": "bytes"
        },
        {
          "internalType": "address",
          "name": "_sender",
          "type": "address"
        }
      ],
      "name": "isComposeMsgSender",
      "outputs": [
        {
          "internalType": "bool",
          "name": "",
          "type": "bool"
        }
      ],
      "stateMutability": "view",
      "type": "function"
    },
    {
      "inputs": [
        {
          "internalType": "string",
          "name": "_solanaAddress",
          "type": "string"
        }
      ],
      "name": "linkAddress",
      "outputs": [],
      "stateMutability": "payable",
      "type": "function"
    },
    {
      "inputs": [
        {
          "internalType": "address",
          "name": "",
          "type": "address"
        },
        {
          "internalType": "uint256",
          "name": "",
          "type": "uint256"
        }
      ],
      "name": "linkedSolanaAddresses",
      "outputs": [
        {
          "internalType": "bytes",
          "name": "",
          "type": "bytes"
        }
      ],
      "stateMutability": "view",
      "type": "function"
    },
    {
      "inputs": [
        {
          "components": [
            {
              "internalType": "uint32",
              "name": "srcEid",
              "type": "uint32"
            },
            {
              "internalType": "bytes32",
              "name": "sender",
              "type": "bytes32"
            },
            {
              "internalType": "uint64",
              "name": "nonce",
              "type": "uint64"
            }
          ],
          "internalType": "struct Origin",
          "name": "_origin",
          "type": "tuple"
        },
        {
          "internalType": "bytes32",
          "name": "_guid",
          "type": "bytes32"
        },
        {
          "internalType": "bytes",
          "name": "_message",
          "type": "bytes"
        },
        {
          "internalType": "address",
          "name": "_executor",
          "type": "address"
        },
        {
          "internalType": "bytes",
          "name": "_extraData",
          "type": "bytes"
        }
      ],
      "name": "lzReceive",
      "outputs": [],
      "stateMutability": "payable",
      "type": "function"
    },
    {
      "inputs": [
        {
          "internalType": "uint32",
          "name": "",
          "type": "uint32"
        },
        {
          "internalType": "bytes32",
          "name": "",
          "type": "bytes32"
        }
      ],
      "name": "nextNonce",
      "outputs": [
        {
          "internalType": "uint64",
          "name": "nonce",
          "type": "uint64"
        }
      ],
      "stateMutability": "view",
      "type": "function"
    },
    {
      "inputs": [],
      "name": "oAppVersion",
      "outputs": [
        {
          "internalType": "uint64",
          "name": "senderVersion",
          "type": "uint64"
        },
        {
          "internalType": "uint64",
          "name": "receiverVersion",
          "type": "uint64"
        }
      ],
      "stateMutability": "pure",
      "type": "function"
    },
    {
      "inputs": [],
      "name": "owner",
      "outputs": [
        {
          "internalType": "address",
          "name": "",
          "type": "address"
        }
      ],
      "stateMutability": "view",
      "type": "function"
    },
    {
      "inputs": [
        {
          "internalType": "uint32",
          "name": "eid",
          "type": "uint32"
        }
      ],
      "name": "peers",
      "outputs": [
        {
          "internalType": "bytes32",
          "name": "peer",
          "type": "bytes32"
        }
      ],
      "stateMutability": "view",
      "type": "function"
    },
    {
      "inputs": [
        {
          "internalType": "string",
          "name": "_solanaAddress",
          "type": "string"
        }
      ],
      "name": "quoteLinkAddress",
      "outputs": [
        {
          "internalType": "uint256",
          "name": "",
          "type": "uint256"
        }
      ],
      "stateMutability": "view",
      "type": "function"
    },
    {
      "inputs": [
        {
          "internalType": "string",
          "name": "_solanaAddress",
          "type": "string"
        }
      ],
      "name": "quoteLinkFee",
      "outputs": [
        {
          "components": [
            {
              "internalType": "uint256",
              "name": "nativeFee",
              "type": "uint256"
            },
            {
              "internalType": "uint256",
              "name": "lzTokenFee",
              "type": "uint256"
            }
          ],
          "internalType": "struct MessagingFee",
          "name": "fee",
          "type": "tuple"
        }
      ],
      "stateMutability": "view",
      "type": "function"
    },
    {
      "inputs": [],
      "name": "renounceOwnership",
      "outputs": [],
      "stateMutability": "nonpayable",
      "type": "function"
    },
    {
      "inputs": [
        {
          "internalType": "address",
          "name": "_delegate",
          "type": "address"
        }
      ],
      "name": "setDelegate",
      "outputs": [],
      "stateMutability": "nonpayable",
      "type": "function"
    },
    {
      "inputs": [
        {
          "internalType": "uint256",
          "name": "_gasLimit",
          "type": "uint256"
        }
      ],
      "name": "setGasLimit",
      "outputs": [],
      "stateMutability": "nonpayable",
      "type": "function"
    },
    {
      "inputs": [
        {
          "internalType": "uint32",
          "name": "_eid",
          "type": "uint32"
        },
        {
          "internalType": "bytes32",
          "name": "_peer",
          "type": "bytes32"
        }
      ],
      "name": "setPeer",
      "outputs": [],
      "stateMutability": "nonpayable",
      "type": "function"
    },
    {
      "inputs": [
        {
          "internalType": "address",
          "name": "newOwner",
          "type": "address"
        }
      ],
      "name": "transferOwnership",
      "outputs": [],
      "stateMutability": "nonpayable",
      "type": "function"
    },
    {
      "inputs": [],
      "name": "withdraw",
      "outputs": [],
      "stateMutability": "nonpayable",
      "type": "function"
    }
  ],
  "bytecode": "0x60a060405262030d406002553480156200001857600080fd5b50604051620038ee380380620038ee83398181016040528101906200003e9190620002b0565b8181818162000062620000566200017a60201b60201c565b6200018260201b60201c565b8173ffffffffffffffffffffffffffffffffffffffff1660808173ffffffffffffffffffffffffffffffffffffffff1681525050600073ffffffffffffffffffffffffffffffffffffffff168173ffffffffffffffffffffffffffffffffffffffff1603620000fd576040517fb586360400000000000000000000000000000000000000000000000000000000815260040160405180910390fd5b60805173ffffffffffffffffffffffffffffffffffffffff1663ca5eb5e1826040518263ffffffff1660e01b81526004016200013a919062000308565b600060405180830381600087803b1580156200015557600080fd5b505af11580156200016a573d6000803e3d6000fd5b5050505050505050505062000325565b600033905090565b60008060009054906101000a900473ffffffffffffffffffffffffffffffffffffffff169050816000806101000a81548173ffffffffffffffffffffffffffffffffffffffff021916908373ffffffffffffffffffffffffffffffffffffffff1602179055508173ffffffffffffffffffffffffffffffffffffffff168173ffffffffffffffffffffffffffffffffffffffff167f8be0079c531659141344cd1fd0a4f28419497f9722a3daafe3b4186f6b6457e060405160405180910390a35050565b600080fd5b600073ffffffffffffffffffffffffffffffffffffffff82169050919050565b600062000278826200024b565b9050919050565b6200028a816200026b565b81146200029657600080fd5b50565b600081519050620002aa816200027f565b92915050565b60008060408385031215620002ca57620002c962000246565b5b6000620002da8582860162000299565b9250506020620002ed8582860162000299565b9150509250929050565b62000302816200026b565b82525050565b60006020820190506200031f6000830184620002f7565b92915050565b6080516135836200036b600039600081816105600152818161095c01528181610e3d01528181611498015281816115a701528181611882015261197d01526135836000f3fe6080604052600436106101355760003560e01c806382413eac116100ab578063bf3f3de91161006f578063bf3f3de914610421578063ca5eb5e11461045e578063ee7d72b414610487578063f2fde38b146104b0578063f68016b7146104d9578063ff7bd03d1461050457610135565b806382413eac146103025780638da5cb5b1461033f5780639541618c1461036a578063a6451163146103a7578063bb0b6a53146103e457610135565b80633ccfd60b116100fd5780633ccfd60b146101f257806356368126146102095780635e280f1114610246578063715018a6146102715780637954c58f146102885780637d25a05e146102c557610135565b8063067bd07a1461013a57806313137d651461016557806317442b7014610181578063306fed73146101ad5780633400288b146101c9575b600080fd5b34801561014657600080fd5b5061014f610541565b60405161015c9190611d5b565b60405180910390f35b61017f600480360381019061017a9190611ea7565b610547565b005b34801561018d57600080fd5b50610196610669565b6040516101a4929190611f86565b60405180910390f35b6101c760048036038101906101c291906120f0565b610678565b005b3480156101d557600080fd5b506101f060048036038101906101eb9190612165565b610808565b005b3480156101fe57600080fd5b5061020761081e565b005b34801561021557600080fd5b50610230600480360381019061022b91906120f0565b6108dc565b60405161023d91906121ed565b60405180910390f35b34801561025257600080fd5b5061025b61095a565b6040516102689190612267565b60405180910390f35b34801561027d57600080fd5b5061028661097e565b005b34801561029457600080fd5b506102af60048036038101906102aa91906122ae565b610992565b6040516102bc919061236d565b60405180910390f35b3480156102d157600080fd5b506102ec60048036038101906102e79190612165565b610a4b565b6040516102f9919061238f565b60405180910390f35b34801561030e57600080fd5b50610329600480360381019061032491906123aa565b610a53565b6040516103369190612439565b60405180910390f35b34801561034b57600080fd5b50610354610a8e565b6040516103619190612463565b60405180910390f35b34801561037657600080fd5b50610391600480360381019061038c919061247e565b610ab7565b60405161039e91906125b7565b60405180910390f35b3480156103b357600080fd5b506103ce60048036038101906103c9919061247e565b610bcf565b6040516103db91906126f0565b60405180910390f35b3480156103f057600080fd5b5061040b60048036038101906104069190612712565b610d9a565b604051610418919061274e565b60405180910390f35b34801561042d57600080fd5b50610448600480360381019061044391906120f0565b610db2565b6040516104559190612778565b60405180910390f35b34801561046a57600080fd5b506104856004803603810190610480919061247e565b610e33565b005b34801561049357600080fd5b506104ae60048036038101906104a99190612793565b610ec9565b005b3480156104bc57600080fd5b506104d760048036038101906104d2919061247e565b610edb565b005b3480156104e557600080fd5b506104ee610f5e565b6040516104fb9190612778565b60405180910390f35b34801561051057600080fd5b5061052b600480360381019061052691906127c0565b610f64565b6040516105389190612439565b60405180910390f35b619ce881565b3373ffffffffffffffffffffffffffffffffffffffff167f000000000000000000000000000000000000000000000000000000000000000073ffffffffffffffffffffffffffffffffffffffff16146105d757336040517f91ac5e4f0000000000000000000000000000000000000000000000000000000081526004016105ce9190612463565b60405180910390fd5b86602001356105f78860000160208101906105f29190612712565b610fa5565b146106515786600001602081019061060f9190612712565b87602001356040517fc26bebcc0000000000000000000000000000000000000000000000000000000081526004016106489291906127ed565b60405180910390fd5b6106608787878787878761101a565b50505050505050565b60008060016002915091509091565b600061068333611023565b905060006106904261132e565b905060008284836040516020016106a99392919061289e565b60405160208183030381529060405290506000819050600360003373ffffffffffffffffffffffffffffffffffffffff1673ffffffffffffffffffffffffffffffffffffffff168152602001908152602001600020859080600181540180825580915050600190039060005260206000200160009091909190915090816107309190612ae7565b507f15b1a221748794744cd2960e23ab851c4e6b2b22fbabe81f3404e15eebf0af1633864260405161076493929190612bb9565b60405180910390a160006040518060200160405280600081525090506000610791619ce88484600061148e565b905080600001513410156107da576040517f08c379a00000000000000000000000000000000000000000000000000000000081526004016107d190612c54565b60405180910390fd5b6107fe619ce884846040518060400160405280348152602001600081525033611571565b5050505050505050565b61081061168d565b61081a828261170b565b5050565b61082661168d565b6000610830610a8e565b73ffffffffffffffffffffffffffffffffffffffff164760405161085390612ca5565b60006040518083038185875af1925050503d8060008114610890576040519150601f19603f3d011682016040523d82523d6000602084013e610895565b606091505b50509050806108d9576040517f08c379a00000000000000000000000000000000000000000000000000000000081526004016108d090612d06565b60405180910390fd5b50565b6108e4611cee565b60006108ef33611023565b905060006108fc4261132e565b905060008285836040516020016109159392919061289e565b60405160208183030381529060405290506000819050600060405180602001604052806000815250905061094e619ce88383600061148e565b95505050505050919050565b7f000000000000000000000000000000000000000000000000000000000000000081565b61098661168d565b610990600061176c565b565b600360205281600052604060002081815481106109ae57600080fd5b906000526020600020016000915091505080546109ca90612914565b80601f01602080910402602001604051908101604052809291908181526020018280546109f690612914565b8015610a435780601f10610a1857610100808354040283529160200191610a43565b820191906000526020600020905b815481529060010190602001808311610a2657829003601f168201915b505050505081565b600092915050565b60003073ffffffffffffffffffffffffffffffffffffffff168273ffffffffffffffffffffffffffffffffffffffff16149050949350505050565b60008060009054906101000a900473ffffffffffffffffffffffffffffffffffffffff16905090565b6060600360008373ffffffffffffffffffffffffffffffffffffffff1673ffffffffffffffffffffffffffffffffffffffff168152602001908152602001600020805480602002602001604051908101604052809291908181526020016000905b82821015610bc4578382906000526020600020018054610b3790612914565b80601f0160208091040260200160405190810160405280929190818152602001828054610b6390612914565b8015610bb05780601f10610b8557610100808354040283529160200191610bb0565b820191906000526020600020905b815481529060010190602001808311610b9357829003601f168201915b505050505081526020019060010190610b18565b505050509050919050565b60606000600360008473ffffffffffffffffffffffffffffffffffffffff1673ffffffffffffffffffffffffffffffffffffffff168152602001908152602001600020805480602002602001604051908101604052809291908181526020016000905b82821015610cde578382906000526020600020018054610c5190612914565b80601f0160208091040260200160405190810160405280929190818152602001828054610c7d90612914565b8015610cca5780601f10610c9f57610100808354040283529160200191610cca565b820191906000526020600020905b815481529060010190602001808311610cad57829003601f168201915b505050505081526020019060010190610c32565b5050505090506000815167ffffffffffffffff811115610d0157610d00611fc5565b5b604051908082528060200260200182016040528015610d3457816020015b6060815260200190600190039081610d1f5790505b50905060005b8251811015610d8f57828181518110610d5657610d55612d26565b5b6020026020010151828281518110610d7157610d70612d26565b5b60200260200101819052508080610d8790612d84565b915050610d3a565b508092505050919050565b60016020528060005260406000206000915090505481565b600080610dbe33611023565b90506000610dcb4261132e565b90506000828583604051602001610de49392919061289e565b6040516020818303038152906040529050600081905060006040518060200160405280600081525090506000610e1f619ce88484600061148e565b905080600001519650505050505050919050565b610e3b61168d565b7f000000000000000000000000000000000000000000000000000000000000000073ffffffffffffffffffffffffffffffffffffffff1663ca5eb5e1826040518263ffffffff1660e01b8152600401610e949190612463565b600060405180830381600087803b158015610eae57600080fd5b505af1158015610ec2573d6000803e3d6000fd5b5050505050565b610ed161168d565b8060028190555050565b610ee361168d565b600073ffffffffffffffffffffffffffffffffffffffff168173ffffffffffffffffffffffffffffffffffffffff1603610f52576040517f08c379a0000000000000000000000000000000000000000000000000000000008152600401610f4990612e3e565b60405180910390fd5b610f5b8161176c565b50565b60025481565b6000816020013560016000846000016020810190610f829190612712565b63ffffffff1663ffffffff16815260200190815260200160002054149050919050565b600080600160008463ffffffff1663ffffffff1681526020019081526020016000205490506000801b810361101157826040517ff6ff4fb70000000000000000000000000000000000000000000000000000000081526004016110089190611d5b565b60405180910390fd5b80915050919050565b50505050505050565b606060008273ffffffffffffffffffffffffffffffffffffffff1660001b905060006040518060400160405280601081526020017f303132333435363738396162636465660000000000000000000000000000000081525090506000602a67ffffffffffffffff81111561109a57611099611fc5565b5b6040519080825280601f01601f1916602001820160405280156110cc5781602001600182028036833780820191505090505b5090507f30000000000000000000000000000000000000000000000000000000000000008160008151811061110457611103612d26565b5b60200101907effffffffffffffffffffffffffffffffffffffffffffffffffffffffffffff1916908160001a9053507f78000000000000000000000000000000000000000000000000000000000000008160018151811061116857611167612d26565b5b60200101907effffffffffffffffffffffffffffffffffffffffffffffffffffffffffffff1916908160001a90535060005b60148110156113225782600485600c846111b49190612e5e565b602081106111c5576111c4612d26565b5b1a60f81b7effffffffffffffffffffffffffffffffffffffffffffffffffffffffffffff1916901c60f81c60ff168151811061120457611203612d26565b5b602001015160f81c60f81b8260028361121d9190612e92565b60026112299190612e5e565b8151811061123a57611239612d26565b5b60200101907effffffffffffffffffffffffffffffffffffffffffffffffffffffffffffff1916908160001a90535082600f60f81b85600c8461127d9190612e5e565b6020811061128e5761128d612d26565b5b1a60f81b1660f81c60ff16815181106112aa576112a9612d26565b5b602001015160f81c60f81b826002836112c39190612e92565b60036112cf9190612e5e565b815181106112e0576112df612d26565b5b60200101907effffffffffffffffffffffffffffffffffffffffffffffffffffffffffffff1916908160001a905350808061131a90612d84565b91505061119a565b50809350505050919050565b606060008203611375576040518060400160405280600181526020017f30000000000000000000000000000000000000000000000000000000000000008152509050611489565b600082905060005b600082146113a757808061139090612d84565b915050600a826113a09190612f03565b915061137d565b60008167ffffffffffffffff8111156113c3576113c2611fc5565b5b6040519080825280601f01601f1916602001820160405280156113f55781602001600182028036833780820191505090505b5090505b600085146114825760018261140e9190612f34565b9150600a8561141d9190612f68565b60306114299190612e5e565b60f81b81838151811061143f5761143e612d26565b5b60200101907effffffffffffffffffffffffffffffffffffffffffffffffffffffffffffff1916908160001a905350600a8561147b9190612f03565b94506113f9565b8093505050505b919050565b611496611cee565b7f000000000000000000000000000000000000000000000000000000000000000073ffffffffffffffffffffffffffffffffffffffff1663ddc28c586040518060a001604052808863ffffffff1681526020016114f289610fa5565b8152602001878152602001868152602001851515815250306040518363ffffffff1660e01b8152600401611527929190613043565b6040805180830381865afa158015611543573d6000803e3d6000fd5b505050506040513d601f19601f8201168201806040525081019061156791906130dd565b9050949350505050565b611579611d08565b60006115888460000151611830565b90506000846020015111156115a5576115a4846020015161187e565b5b7f000000000000000000000000000000000000000000000000000000000000000073ffffffffffffffffffffffffffffffffffffffff16632637a450826040518060a001604052808b63ffffffff1681526020016116028c610fa5565b81526020018a815260200189815260200160008960200151111515815250866040518463ffffffff1660e01b815260040161163e929190613043565b60806040518083038185885af115801561165c573d6000803e3d6000fd5b50505050506040513d601f19601f8201168201806040525081019061168191906131af565b91505095945050505050565b6116956119c8565b73ffffffffffffffffffffffffffffffffffffffff166116b3610a8e565b73ffffffffffffffffffffffffffffffffffffffff1614611709576040517f08c379a000000000000000000000000000000000000000000000000000000000815260040161170090613228565b60405180910390fd5b565b80600160008463ffffffff1663ffffffff168152602001908152602001600020819055507f238399d427b947898edb290f5ff0f9109849b1c3ba196a42e35f00c50a54b98b82826040516117609291906127ed565b60405180910390a15050565b60008060009054906101000a900473ffffffffffffffffffffffffffffffffffffffff169050816000806101000a81548173ffffffffffffffffffffffffffffffffffffffff021916908373ffffffffffffffffffffffffffffffffffffffff1602179055508173ffffffffffffffffffffffffffffffffffffffff168173ffffffffffffffffffffffffffffffffffffffff167f8be0079c531659141344cd1fd0a4f28419497f9722a3daafe3b4186f6b6457e060405160405180910390a35050565b600081341461187657346040517f9f70412000000000000000000000000000000000000000000000000000000000815260040161186d9190612778565b60405180910390fd5b819050919050565b60007f000000000000000000000000000000000000000000000000000000000000000073ffffffffffffffffffffffffffffffffffffffff1663e4fe1d946040518163ffffffff1660e01b8152600401602060405180830381865afa1580156118eb573d6000803e3d6000fd5b505050506040513d601f19601f8201168201806040525081019061190f919061325d565b9050600073ffffffffffffffffffffffffffffffffffffffff168173ffffffffffffffffffffffffffffffffffffffff1603611977576040517f5373352a00000000000000000000000000000000000000000000000000000000815260040160405180910390fd5b6119c4337f0000000000000000000000000000000000000000000000000000000000000000848473ffffffffffffffffffffffffffffffffffffffff166119d0909392919063ffffffff16565b5050565b600033905090565b611a53846323b872dd60e01b8585856040516024016119f19392919061328a565b604051602081830303815290604052907bffffffffffffffffffffffffffffffffffffffffffffffffffffffff19166020820180517bffffffffffffffffffffffffffffffffffffffffffffffffffffffff8381831617835250505050611a59565b50505050565b6000611abb826040518060400160405280602081526020017f5361666545524332303a206c6f772d6c6576656c2063616c6c206661696c65648152508573ffffffffffffffffffffffffffffffffffffffff16611b219092919063ffffffff16565b9050600081511480611add575080806020019051810190611adc91906132ed565b5b611b1c576040517f08c379a0000000000000000000000000000000000000000000000000000000008152600401611b139061338c565b60405180910390fd5b505050565b6060611b308484600085611b39565b90509392505050565b606082471015611b7e576040517f08c379a0000000000000000000000000000000000000000000000000000000008152600401611b759061341e565b60405180910390fd5b6000808673ffffffffffffffffffffffffffffffffffffffff168587604051611ba7919061346f565b60006040518083038185875af1925050503d8060008114611be4576040519150601f19603f3d011682016040523d82523d6000602084013e611be9565b606091505b5091509150611bfa87838387611c06565b92505050949350505050565b60608315611c68576000835103611c6057611c2085611c7b565b611c5f576040517f08c379a0000000000000000000000000000000000000000000000000000000008152600401611c56906134d2565b60405180910390fd5b5b829050611c73565b611c728383611c9e565b5b949350505050565b6000808273ffffffffffffffffffffffffffffffffffffffff163b119050919050565b600082511115611cb15781518083602001fd5b806040517f08c379a0000000000000000000000000000000000000000000000000000000008152600401611ce5919061352b565b60405180910390fd5b604051806040016040528060008152602001600081525090565b604051806060016040528060008019168152602001600067ffffffffffffffff168152602001611d36611cee565b81525090565b600063ffffffff82169050919050565b611d5581611d3c565b82525050565b6000602082019050611d706000830184611d4c565b92915050565b6000604051905090565b600080fd5b600080fd5b600080fd5b600060608284031215611da557611da4611d8a565b5b81905092915050565b6000819050919050565b611dc181611dae565b8114611dcc57600080fd5b50565b600081359050611dde81611db8565b92915050565b600080fd5b600080fd5b600080fd5b60008083601f840112611e0957611e08611de4565b5b8235905067ffffffffffffffff811115611e2657611e25611de9565b5b602083019150836001820283011115611e4257611e41611dee565b5b9250929050565b600073ffffffffffffffffffffffffffffffffffffffff82169050919050565b6000611e7482611e49565b9050919050565b611e8481611e69565b8114611e8f57600080fd5b50565b600081359050611ea181611e7b565b92915050565b600080600080600080600060e0888a031215611ec657611ec5611d80565b5b6000611ed48a828b01611d8f565b9750506060611ee58a828b01611dcf565b965050608088013567ffffffffffffffff811115611f0657611f05611d85565b5b611f128a828b01611df3565b955095505060a0611f258a828b01611e92565b93505060c088013567ffffffffffffffff811115611f4657611f45611d85565b5b611f528a828b01611df3565b925092505092959891949750929550565b600067ffffffffffffffff82169050919050565b611f8081611f63565b82525050565b6000604082019050611f9b6000830185611f77565b611fa86020830184611f77565b9392505050565b600080fd5b6000601f19601f8301169050919050565b7f4e487b7100000000000000000000000000000000000000000000000000000000600052604160045260246000fd5b611ffd82611fb4565b810181811067ffffffffffffffff8211171561201c5761201b611fc5565b5b80604052505050565b600061202f611d76565b905061203b8282611ff4565b919050565b600067ffffffffffffffff82111561205b5761205a611fc5565b5b61206482611fb4565b9050602081019050919050565b82818337600083830152505050565b600061209361208e84612040565b612025565b9050828152602081018484840111156120af576120ae611faf565b5b6120ba848285612071565b509392505050565b600082601f8301126120d7576120d6611de4565b5b81356120e7848260208601612080565b91505092915050565b60006020828403121561210657612105611d80565b5b600082013567ffffffffffffffff81111561212457612123611d85565b5b612130848285016120c2565b91505092915050565b61214281611d3c565b811461214d57600080fd5b50565b60008135905061215f81612139565b92915050565b6000806040838503121561217c5761217b611d80565b5b600061218a85828601612150565b925050602061219b85828601611dcf565b9150509250929050565b6000819050919050565b6121b8816121a5565b82525050565b6040820160008201516121d460008501826121af565b5060208201516121e760208501826121af565b50505050565b600060408201905061220260008301846121be565b92915050565b6000819050919050565b600061222d61222861222384611e49565b612208565b611e49565b9050919050565b600061223f82612212565b9050919050565b600061225182612234565b9050919050565b61226181612246565b82525050565b600060208201905061227c6000830184612258565b92915050565b61228b816121a5565b811461229657600080fd5b50565b6000813590506122a881612282565b92915050565b600080604083850312156122c5576122c4611d80565b5b60006122d385828601611e92565b92505060206122e485828601612299565b9150509250929050565b600081519050919050565b600082825260208201905092915050565b60005b8381101561232857808201518184015260208101905061230d565b60008484015250505050565b600061233f826122ee565b61234981856122f9565b935061235981856020860161230a565b61236281611fb4565b840191505092915050565b600060208201905081810360008301526123878184612334565b905092915050565b60006020820190506123a46000830184611f77565b92915050565b60008060008060a085870312156123c4576123c3611d80565b5b60006123d287828801611d8f565b945050606085013567ffffffffffffffff8111156123f3576123f2611d85565b5b6123ff87828801611df3565b9350935050608061241287828801611e92565b91505092959194509250565b60008115159050919050565b6124338161241e565b82525050565b600060208201905061244e600083018461242a565b92915050565b61245d81611e69565b82525050565b60006020820190506124786000830184612454565b92915050565b60006020828403121561249457612493611d80565b5b60006124a284828501611e92565b91505092915050565b600081519050919050565b600082825260208201905092915050565b6000819050602082019050919050565b600082825260208201905092915050565b60006124f3826122ee565b6124fd81856124d7565b935061250d81856020860161230a565b61251681611fb4565b840191505092915050565b600061252d83836124e8565b905092915050565b6000602082019050919050565b600061254d826124ab565b61255781856124b6565b935083602082028501612569856124c7565b8060005b858110156125a557848403895281516125868582612521565b945061259183612535565b925060208a0199505060018101905061256d565b50829750879550505050505092915050565b600060208201905081810360008301526125d18184612542565b905092915050565b600081519050919050565b600082825260208201905092915050565b6000819050602082019050919050565b600081519050919050565b600082825260208201905092915050565b600061262c82612605565b6126368185612610565b935061264681856020860161230a565b61264f81611fb4565b840191505092915050565b60006126668383612621565b905092915050565b6000602082019050919050565b6000612686826125d9565b61269081856125e4565b9350836020820285016126a2856125f5565b8060005b858110156126de57848403895281516126bf858261265a565b94506126ca8361266e565b925060208a019950506001810190506126a6565b50829750879550505050505092915050565b6000602082019050818103600083015261270a818461267b565b905092915050565b60006020828403121561272857612727611d80565b5b600061273684828501612150565b91505092915050565b61274881611dae565b82525050565b6000602082019050612763600083018461273f565b92915050565b612772816121a5565b82525050565b600060208201905061278d6000830184612769565b92915050565b6000602082840312156127a9576127a8611d80565b5b60006127b784828501612299565b91505092915050565b6000606082840312156127d6576127d5611d80565b5b60006127e484828501611d8f565b91505092915050565b60006040820190506128026000830185611d4c565b61280f602083018461273f565b9392505050565b600081905092915050565b600061282c82612605565b6128368185612816565b935061284681856020860161230a565b80840191505092915050565b7f2c00000000000000000000000000000000000000000000000000000000000000600082015250565b6000612888600183612816565b915061289382612852565b600182019050919050565b60006128aa8286612821565b91506128b58261287b565b91506128c18285612821565b91506128cc8261287b565b91506128d88284612821565b9150819050949350505050565b7f4e487b7100000000000000000000000000000000000000000000000000000000600052602260045260246000fd5b6000600282049050600182168061292c57607f821691505b60208210810361293f5761293e6128e5565b5b50919050565b60008190508160005260206000209050919050565b60006020601f8301049050919050565b600082821b905092915050565b6000600883026129a77fffffffffffffffffffffffffffffffffffffffffffffffffffffffffffffffff8261296a565b6129b1868361296a565b95508019841693508086168417925050509392505050565b60006129e46129df6129da846121a5565b612208565b6121a5565b9050919050565b6000819050919050565b6129fe836129c9565b612a12612a0a826129eb565b848454612977565b825550505050565b600090565b612a27612a1a565b612a328184846129f5565b505050565b5b81811015612a5657612a4b600082612a1f565b600181019050612a38565b5050565b601f821115612a9b57612a6c81612945565b612a758461295a565b81016020851015612a84578190505b612a98612a908561295a565b830182612a37565b50505b505050565b600082821c905092915050565b6000612abe60001984600802612aa0565b1980831691505092915050565b6000612ad78383612aad565b9150826002028217905092915050565b612af0826122ee565b67ffffffffffffffff811115612b0957612b08611fc5565b5b612b138254612914565b612b1e828285612a5a565b600060209050601f831160018114612b515760008415612b3f578287015190505b612b498582612acb565b865550612bb1565b601f198416612b5f86612945565b60005b82811015612b8757848901518255600182019150602085019450602081019050612b62565b86831015612ba45784890151612ba0601f891682612aad565b8355505b6001600288020188555050505b505050505050565b6000606082019050612bce6000830186612454565b8181036020830152612be08185612334565b9050612bef6040830184612769565b949350505050565b600082825260208201905092915050565b7f496e73756666696369656e742066656500000000000000000000000000000000600082015250565b6000612c3e601083612bf7565b9150612c4982612c08565b602082019050919050565b60006020820190508181036000830152612c6d81612c31565b9050919050565b600081905092915050565b50565b6000612c8f600083612c74565b9150612c9a82612c7f565b600082019050919050565b6000612cb082612c82565b9150819050919050565b7f5472616e73666572206661696c65640000000000000000000000000000000000600082015250565b6000612cf0600f83612bf7565b9150612cfb82612cba565b602082019050919050565b60006020820190508181036000830152612d1f81612ce3565b9050919050565b7f4e487b7100000000000000000000000000000000000000000000000000000000600052603260045260246000fd5b7f4e487b7100000000000000000000000000000000000000000000000000000000600052601160045260246000fd5b6000612d8f826121a5565b91507fffffffffffffffffffffffffffffffffffffffffffffffffffffffffffffffff8203612dc157612dc0612d55565b5b600182019050919050565b7f4f776e61626c653a206e6577206f776e657220697320746865207a65726f206160008201527f6464726573730000000000000000000000000000000000000000000000000000602082015250565b6000612e28602683612bf7565b9150612e3382612dcc565b604082019050919050565b60006020820190508181036000830152612e5781612e1b565b9050919050565b6000612e69826121a5565b9150612e74836121a5565b9250828201905080821115612e8c57612e8b612d55565b5b92915050565b6000612e9d826121a5565b9150612ea8836121a5565b9250828202612eb6816121a5565b91508282048414831517612ecd57612ecc612d55565b5b5092915050565b7f4e487b7100000000000000000000000000000000000000000000000000000000600052601260045260246000fd5b6000612f0e826121a5565b9150612f19836121a5565b925082612f2957612f28612ed4565b5b828204905092915050565b6000612f3f826121a5565b9150612f4a836121a5565b9250828203905081811115612f6257612f61612d55565b5b92915050565b6000612f73826121a5565b9150612f7e836121a5565b925082612f8e57612f8d612ed4565b5b828206905092915050565b612fa281611d3c565b82525050565b612fb181611dae565b82525050565b612fc08161241e565b82525050565b600060a083016000830151612fde6000860182612f99565b506020830151612ff16020860182612fa8565b506040830151848203604086015261300982826124e8565b9150506060830151848203606086015261302382826124e8565b91505060808301516130386080860182612fb7565b508091505092915050565b6000604082019050818103600083015261305d8185612fc6565b905061306c6020830184612454565b9392505050565b600080fd5b60008151905061308781612282565b92915050565b6000604082840312156130a3576130a2613073565b5b6130ad6040612025565b905060006130bd84828501613078565b60008301525060206130d184828501613078565b60208301525092915050565b6000604082840312156130f3576130f2611d80565b5b60006131018482850161308d565b91505092915050565b60008151905061311981611db8565b92915050565b61312881611f63565b811461313357600080fd5b50565b6000815190506131458161311f565b92915050565b60006080828403121561316157613160613073565b5b61316b6060612025565b9050600061317b8482850161310a565b600083015250602061318f84828501613136565b60208301525060406131a38482850161308d565b60408301525092915050565b6000608082840312156131c5576131c4611d80565b5b60006131d38482850161314b565b91505092915050565b7f4f776e61626c653a2063616c6c6572206973206e6f7420746865206f776e6572600082015250565b6000613212602083612bf7565b915061321d826131dc565b602082019050919050565b6000602082019050818103600083015261324181613205565b9050919050565b60008151905061325781611e7b565b92915050565b60006020828403121561327357613272611d80565b5b600061328184828501613248565b91505092915050565b600060608201905061329f6000830186612454565b6132ac6020830185612454565b6132b96040830184612769565b949350505050565b6132ca8161241e565b81146132d557600080fd5b50565b6000815190506132e7816132c1565b92915050565b60006020828403121561330357613302611d80565b5b6000613311848285016132d8565b91505092915050565b7f5361666545524332303a204552433230206f7065726174696f6e20646964206e60008201527f6f74207375636365656400000000000000000000000000000000000000000000602082015250565b6000613376602a83612bf7565b91506133818261331a565b604082019050919050565b600060208201905081810360008301526133a581613369565b9050919050565b7f416464726573733a20696e73756666696369656e742062616c616e636520666f60008201527f722063616c6c0000000000000000000000000000000000000000000000000000602082015250565b6000613408602683612bf7565b9150613413826133ac565b604082019050919050565b60006020820190508181036000830152613437816133fb565b9050919050565b6000613449826122ee565b6134538185612c74565b935061346381856020860161230a565b80840191505092915050565b600061347b828461343e565b915081905092915050565b7f416464726573733a2063616c6c20746f206e6f6e2d636f6e7472616374000000600082015250565b60006134bc601d83612bf7565b91506134c782613486565b602082019050919050565b600060208201905081810360008301526134eb816134af565b9050919050565b60006134fd82612605565b6135078185612bf7565b935061351781856020860161230a565b61352081611fb4565b840191505092915050565b6000602082019050818103600083015261354581846134f2565b90509291505056fea2646970667358221220bc08015208c347a2def374e4a6062ab7ca70869e11aadbfd65f401e0bd98cd4864736f6c63430008140033",
  "linkReferences": {},
  "deployedLinkReferences": {}
}