{
  "_format": "hh-sol-artifact-1",
  "contractName": "OmnichainIdentityLinker",
  "sourceName": "contracts/OmnichainIdentityLinker.sol",
  "abi": [
    {
      "inputs": [
        {
          "internalType": "address",
          "name": "_lzEndpoint",
          "type": "address"
        },
        {
          "internalType": "address",
          "name": "_delegate",
          "type": "address"
        }
      ],
      "stateMutability": "nonpayable",
      "type": "constructor"
    },
    {
      "inputs": [],
      "name": "InvalidDelegate",
      "type": "error"
    },
    {
      "inputs": [],
      "name": "InvalidEndpointCall",
      "type": "error"
    },
    {
      "inputs": [
        {
          "internalType": "uint16",
          "name": "optionType",
          "type": "uint16"
        }
      ],
      "name": "InvalidOptionType",
      "type": "error"
    },
    {
      "inputs": [],
      "name": "LzTokenUnavailable",
      "type": "error"
    },
    {
      "inputs": [
        {
          "internalType": "uint32",
          "name": "eid",
          "type": "uint32"
        }
      ],
      "name": "NoPeer",
      "type": "error"
    },
    {
      "inputs": [
        {
          "internalType": "uint256",
          "name": "msgValue",
          "type": "uint256"
        }
      ],
      "name": "NotEnoughNative",
      "type": "error"
    },
    {
      "inputs": [
        {
          "internalType": "address",
          "name": "addr",
          "type": "address"
        }
      ],
      "name": "OnlyEndpoint",
      "type": "error"
    },
    {
      "inputs": [
        {
          "internalType": "uint32",
          "name": "eid",
          "type": "uint32"
        },
        {
          "internalType": "bytes32",
          "name": "sender",
          "type": "bytes32"
        }
      ],
      "name": "OnlyPeer",
      "type": "error"
    },
    {
      "anonymous": false,
      "inputs": [
        {
          "indexed": false,
          "internalType": "address",
          "name": "evmAddress",
          "type": "address"
        },
        {
          "indexed": false,
          "internalType": "bytes",
          "name": "solanaAddress",
          "type": "bytes"
        },
        {
          "indexed": false,
          "internalType": "uint256",
          "name": "timestamp",
          "type": "uint256"
        }
      ],
      "name": "IdentityLinked",
      "type": "event"
    },
    {
      "anonymous": false,
      "inputs": [
        {
          "indexed": true,
          "internalType": "address",
          "name": "previousOwner",
          "type": "address"
        },
        {
          "indexed": true,
          "internalType": "address",
          "name": "newOwner",
          "type": "address"
        }
      ],
      "name": "OwnershipTransferred",
      "type": "event"
    },
    {
      "anonymous": false,
      "inputs": [
        {
          "indexed": false,
          "internalType": "uint32",
          "name": "eid",
          "type": "uint32"
        },
        {
          "indexed": false,
          "internalType": "bytes32",
          "name": "peer",
          "type": "bytes32"
        }
      ],
      "name": "PeerSet",
      "type": "event"
    },
    {
      "inputs": [],
      "name": "SOLANA_CHAIN_ID",
      "outputs": [
        {
          "internalType": "uint32",
          "name": "",
          "type": "uint32"
        }
      ],
      "stateMutability": "view",
      "type": "function"
    },
    {
      "inputs": [
        {
          "components": [
            {
              "internalType": "uint32",
              "name": "srcEid",
              "type": "uint32"
            },
            {
              "internalType": "bytes32",
              "name": "sender",
              "type": "bytes32"
            },
            {
              "internalType": "uint64",
              "name": "nonce",
              "type": "uint64"
            }
          ],
          "internalType": "struct Origin",
          "name": "origin",
          "type": "tuple"
        }
      ],
      "name": "allowInitializePath",
      "outputs": [
        {
          "internalType": "bool",
          "name": "",
          "type": "bool"
        }
      ],
      "stateMutability": "view",
      "type": "function"
    },
    {
      "inputs": [],
      "name": "endpoint",
      "outputs": [
        {
          "internalType": "contract ILayerZeroEndpointV2",
          "name": "",
          "type": "address"
        }
      ],
      "stateMutability": "view",
      "type": "function"
    },
    {
      "inputs": [],
      "name": "gasLimit",
      "outputs": [
        {
          "internalType": "uint256",
          "name": "",
          "type": "uint256"
        }
      ],
      "stateMutability": "view",
      "type": "function"
    },
    {
      "inputs": [
        {
          "internalType": "address",
          "name": "_evmAddress",
          "type": "address"
        }
      ],
      "name": "getLinkedAddresses",
      "outputs": [
        {
          "internalType": "bytes[]",
          "name": "",
          "type": "bytes[]"
        }
      ],
      "stateMutability": "view",
      "type": "function"
    },
    {
      "inputs": [
        {
          "internalType": "address",
          "name": "_evmAddress",
          "type": "address"
        }
      ],
      "name": "getLinkedAddressesAsStrings",
      "outputs": [
        {
          "internalType": "string[]",
          "name": "",
          "type": "string[]"
        }
      ],
      "stateMutability": "view",
      "type": "function"
    },
    {
      "inputs": [
        {
          "components": [
            {
              "internalType": "uint32",
              "name": "srcEid",
              "type": "uint32"
            },
            {
              "internalType": "bytes32",
              "name": "sender",
              "type": "bytes32"
            },
            {
              "internalType": "uint64",
              "name": "nonce",
              "type": "uint64"
            }
          ],
          "internalType": "struct Origin",
          "name": "",
          "type": "tuple"
        },
        {
          "internalType": "bytes",
          "name": "",
          "type": "bytes"
        },
        {
          "internalType": "address",
          "name": "_sender",
          "type": "address"
        }
      ],
      "name": "isComposeMsgSender",
      "outputs": [
        {
          "internalType": "bool",
          "name": "",
          "type": "bool"
        }
      ],
      "stateMutability": "view",
      "type": "function"
    },
    {
      "inputs": [
        {
          "internalType": "string",
          "name": "_solanaAddress",
          "type": "string"
        }
      ],
      "name": "linkAddress",
      "outputs": [],
      "stateMutability": "payable",
      "type": "function"
    },
    {
      "inputs": [
        {
          "internalType": "address",
          "name": "",
          "type": "address"
        },
        {
          "internalType": "uint256",
          "name": "",
          "type": "uint256"
        }
      ],
      "name": "linkedSolanaAddresses",
      "outputs": [
        {
          "internalType": "bytes",
          "name": "",
          "type": "bytes"
        }
      ],
      "stateMutability": "view",
      "type": "function"
    },
    {
      "inputs": [
        {
          "components": [
            {
              "internalType": "uint32",
              "name": "srcEid",
              "type": "uint32"
            },
            {
              "internalType": "bytes32",
              "name": "sender",
              "type": "bytes32"
            },
            {
              "internalType": "uint64",
              "name": "nonce",
              "type": "uint64"
            }
          ],
          "internalType": "struct Origin",
          "name": "_origin",
          "type": "tuple"
        },
        {
          "internalType": "bytes32",
          "name": "_guid",
          "type": "bytes32"
        },
        {
          "internalType": "bytes",
          "name": "_message",
          "type": "bytes"
        },
        {
          "internalType": "address",
          "name": "_executor",
          "type": "address"
        },
        {
          "internalType": "bytes",
          "name": "_extraData",
          "type": "bytes"
        }
      ],
      "name": "lzReceive",
      "outputs": [],
      "stateMutability": "payable",
      "type": "function"
    },
    {
      "inputs": [
        {
          "internalType": "uint32",
          "name": "",
          "type": "uint32"
        },
        {
          "internalType": "bytes32",
          "name": "",
          "type": "bytes32"
        }
      ],
      "name": "nextNonce",
      "outputs": [
        {
          "internalType": "uint64",
          "name": "nonce",
          "type": "uint64"
        }
      ],
      "stateMutability": "view",
      "type": "function"
    },
    {
      "inputs": [],
      "name": "oAppVersion",
      "outputs": [
        {
          "internalType": "uint64",
          "name": "senderVersion",
          "type": "uint64"
        },
        {
          "internalType": "uint64",
          "name": "receiverVersion",
          "type": "uint64"
        }
      ],
      "stateMutability": "pure",
      "type": "function"
    },
    {
      "inputs": [],
      "name": "owner",
      "outputs": [
        {
          "internalType": "address",
          "name": "",
          "type": "address"
        }
      ],
      "stateMutability": "view",
      "type": "function"
    },
    {
      "inputs": [
        {
          "internalType": "uint32",
          "name": "eid",
          "type": "uint32"
        }
      ],
      "name": "peers",
      "outputs": [
        {
          "internalType": "bytes32",
          "name": "peer",
          "type": "bytes32"
        }
      ],
      "stateMutability": "view",
      "type": "function"
    },
    {
      "inputs": [
        {
          "internalType": "string",
          "name": "_solanaAddress",
          "type": "string"
        }
      ],
      "name": "quoteLinkAddress",
      "outputs": [
        {
          "internalType": "uint256",
          "name": "",
          "type": "uint256"
        }
      ],
      "stateMutability": "view",
      "type": "function"
    },
    {
      "inputs": [
        {
          "internalType": "string",
          "name": "_solanaAddress",
          "type": "string"
        }
      ],
      "name": "quoteLinkFee",
      "outputs": [
        {
          "components": [
            {
              "internalType": "uint256",
              "name": "nativeFee",
              "type": "uint256"
            },
            {
              "internalType": "uint256",
              "name": "lzTokenFee",
              "type": "uint256"
            }
          ],
          "internalType": "struct MessagingFee",
          "name": "fee",
          "type": "tuple"
        }
      ],
      "stateMutability": "view",
      "type": "function"
    },
    {
      "inputs": [],
      "name": "renounceOwnership",
      "outputs": [],
      "stateMutability": "nonpayable",
      "type": "function"
    },
    {
      "inputs": [
        {
          "internalType": "address",
          "name": "_delegate",
          "type": "address"
        }
      ],
      "name": "setDelegate",
      "outputs": [],
      "stateMutability": "nonpayable",
      "type": "function"
    },
    {
      "inputs": [
        {
          "internalType": "uint256",
          "name": "_gasLimit",
          "type": "uint256"
        }
      ],
      "name": "setGasLimit",
      "outputs": [],
      "stateMutability": "nonpayable",
      "type": "function"
    },
    {
      "inputs": [
        {
          "internalType": "uint32",
          "name": "_eid",
          "type": "uint32"
        },
        {
          "internalType": "bytes32",
          "name": "_peer",
          "type": "bytes32"
        }
      ],
      "name": "setPeer",
      "outputs": [],
      "stateMutability": "nonpayable",
      "type": "function"
    },
    {
      "inputs": [
        {
          "internalType": "address",
          "name": "newOwner",
          "type": "address"
        }
      ],
      "name": "transferOwnership",
      "outputs": [],
      "stateMutability": "nonpayable",
      "type": "function"
    },
    {
      "inputs": [],
      "name": "withdraw",
      "outputs": [],
      "stateMutability": "nonpayable",
      "type": "function"
    }
  ],
  "bytecode": "0x60a060405262030d406002553480156200001857600080fd5b5060405162003ea238038062003ea283398181016040528101906200003e9190620002b0565b8181818162000062620000566200017a60201b60201c565b6200018260201b60201c565b8173ffffffffffffffffffffffffffffffffffffffff1660808173ffffffffffffffffffffffffffffffffffffffff1681525050600073ffffffffffffffffffffffffffffffffffffffff168173ffffffffffffffffffffffffffffffffffffffff1603620000fd576040517fb586360400000000000000000000000000000000000000000000000000000000815260040160405180910390fd5b60805173ffffffffffffffffffffffffffffffffffffffff1663ca5eb5e1826040518263ffffffff1660e01b81526004016200013a919062000308565b600060405180830381600087803b1580156200015557600080fd5b505af11580156200016a573d6000803e3d6000fd5b5050505050505050505062000325565b600033905090565b60008060009054906101000a900473ffffffffffffffffffffffffffffffffffffffff169050816000806101000a81548173ffffffffffffffffffffffffffffffffffffffff021916908373ffffffffffffffffffffffffffffffffffffffff1602179055508173ffffffffffffffffffffffffffffffffffffffff168173ffffffffffffffffffffffffffffffffffffffff167f8be0079c531659141344cd1fd0a4f28419497f9722a3daafe3b4186f6b6457e060405160405180910390a35050565b600080fd5b600073ffffffffffffffffffffffffffffffffffffffff82169050919050565b600062000278826200024b565b9050919050565b6200028a816200026b565b81146200029657600080fd5b50565b600081519050620002aa816200027f565b92915050565b60008060408385031215620002ca57620002c962000246565b5b6000620002da8582860162000299565b9250506020620002ed8582860162000299565b9150509250929050565b62000302816200026b565b82525050565b60006020820190506200031f6000830184620002f7565b92915050565b608051613b376200036b600039600081816105600152818161096c01528181610e5d0152818161157b0152818161168a01528181611af50152611bf00152613b376000f3fe6080604052600436106101355760003560e01c806382413eac116100ab578063bf3f3de91161006f578063bf3f3de914610421578063ca5eb5e11461045e578063ee7d72b414610487578063f2fde38b146104b0578063f68016b7146104d9578063ff7bd03d1461050457610135565b806382413eac146103025780638da5cb5b1461033f5780639541618c1461036a578063a6451163146103a7578063bb0b6a53146103e457610135565b80633ccfd60b116100fd5780633ccfd60b146101f257806356368126146102095780635e280f1114610246578063715018a6146102715780637954c58f146102885780637d25a05e146102c557610135565b8063067bd07a1461013a57806313137d651461016557806317442b7014610181578063306fed73146101ad5780633400288b146101c9575b600080fd5b34801561014657600080fd5b5061014f610541565b60405161015c919061201f565b60405180910390f35b61017f600480360381019061017a919061216b565b610547565b005b34801561018d57600080fd5b50610196610669565b6040516101a492919061224a565b60405180910390f35b6101c760048036038101906101c291906123b4565b610678565b005b3480156101d557600080fd5b506101f060048036038101906101eb9190612429565b610818565b005b3480156101fe57600080fd5b5061020761082e565b005b34801561021557600080fd5b50610230600480360381019061022b91906123b4565b6108ec565b60405161023d91906124b1565b60405180910390f35b34801561025257600080fd5b5061025b61096a565b604051610268919061252b565b60405180910390f35b34801561027d57600080fd5b5061028661098e565b005b34801561029457600080fd5b506102af60048036038101906102aa9190612572565b6109a2565b6040516102bc9190612631565b60405180910390f35b3480156102d157600080fd5b506102ec60048036038101906102e79190612429565b610a5b565b6040516102f99190612653565b60405180910390f35b34801561030e57600080fd5b506103296004803603810190610324919061266e565b610a63565b60405161033691906126fd565b60405180910390f35b34801561034b57600080fd5b50610354610a9e565b6040516103619190612727565b60405180910390f35b34801561037657600080fd5b50610391600480360381019061038c9190612742565b610ac7565b60405161039e919061287b565b60405180910390f35b3480156103b357600080fd5b506103ce60048036038101906103c99190612742565b610bdf565b6040516103db91906129b4565b60405180910390f35b3480156103f057600080fd5b5061040b600480360381019061040691906129d6565b610daa565b6040516104189190612a12565b60405180910390f35b34801561042d57600080fd5b50610448600480360381019061044391906123b4565b610dc2565b6040516104559190612a3c565b60405180910390f35b34801561046a57600080fd5b5061048560048036038101906104809190612742565b610e53565b005b34801561049357600080fd5b506104ae60048036038101906104a99190612a57565b610ee9565b005b3480156104bc57600080fd5b506104d760048036038101906104d29190612742565b610efb565b005b3480156104e557600080fd5b506104ee610f7e565b6040516104fb9190612a3c565b60405180910390f35b34801561051057600080fd5b5061052b60048036038101906105269190612a84565b610f84565b60405161053891906126fd565b60405180910390f35b619ce881565b3373ffffffffffffffffffffffffffffffffffffffff167f000000000000000000000000000000000000000000000000000000000000000073ffffffffffffffffffffffffffffffffffffffff16146105d757336040517f91ac5e4f0000000000000000000000000000000000000000000000000000000081526004016105ce9190612727565b60405180910390fd5b86602001356105f78860000160208101906105f291906129d6565b610fc5565b146106515786600001602081019061060f91906129d6565b87602001356040517fc26bebcc000000000000000000000000000000000000000000000000000000008152600401610648929190612ab1565b60405180910390fd5b6106608787878787878761103a565b50505050505050565b60008060016002915091509091565b600061068333611043565b905060006106904261134e565b905060008284836040516020016106a993929190612b62565b60405160208183030381529060405290506000819050600360003373ffffffffffffffffffffffffffffffffffffffff1673ffffffffffffffffffffffffffffffffffffffff168152602001908152602001600020859080600181540180825580915050600190039060005260206000200160009091909190915090816107309190612dab565b507f15b1a221748794744cd2960e23ab851c4e6b2b22fbabe81f3404e15eebf0af1633864260405161076493929190612e7d565b60405180910390a1600061078e62030d40600061077f6114ae565b6114d69092919063ffffffff16565b905060006107a1619ce884846000611571565b905080600001513410156107ea576040517f08c379a00000000000000000000000000000000000000000000000000000000081526004016107e190612f18565b60405180910390fd5b61080e619ce884846040518060400160405280348152602001600081525033611654565b5050505050505050565b610820611770565b61082a82826117ee565b5050565b610836611770565b6000610840610a9e565b73ffffffffffffffffffffffffffffffffffffffff164760405161086390612f69565b60006040518083038185875af1925050503d80600081146108a0576040519150601f19603f3d011682016040523d82523d6000602084013e6108a5565b606091505b50509050806108e9576040517f08c379a00000000000000000000000000000000000000000000000000000000081526004016108e090612fca565b60405180910390fd5b50565b6108f4611fb2565b60006108ff33611043565b9050600061090c4261134e565b9050600082858360405160200161092593929190612b62565b60405160208183030381529060405290506000819050600060405180602001604052806000815250905061095e619ce883836000611571565b95505050505050919050565b7f000000000000000000000000000000000000000000000000000000000000000081565b610996611770565b6109a0600061184f565b565b600360205281600052604060002081815481106109be57600080fd5b906000526020600020016000915091505080546109da90612bd8565b80601f0160208091040260200160405190810160405280929190818152602001828054610a0690612bd8565b8015610a535780601f10610a2857610100808354040283529160200191610a53565b820191906000526020600020905b815481529060010190602001808311610a3657829003601f168201915b505050505081565b600092915050565b60003073ffffffffffffffffffffffffffffffffffffffff168273ffffffffffffffffffffffffffffffffffffffff16149050949350505050565b60008060009054906101000a900473ffffffffffffffffffffffffffffffffffffffff16905090565b6060600360008373ffffffffffffffffffffffffffffffffffffffff1673ffffffffffffffffffffffffffffffffffffffff168152602001908152602001600020805480602002602001604051908101604052809291908181526020016000905b82821015610bd4578382906000526020600020018054610b4790612bd8565b80601f0160208091040260200160405190810160405280929190818152602001828054610b7390612bd8565b8015610bc05780601f10610b9557610100808354040283529160200191610bc0565b820191906000526020600020905b815481529060010190602001808311610ba357829003601f168201915b505050505081526020019060010190610b28565b505050509050919050565b60606000600360008473ffffffffffffffffffffffffffffffffffffffff1673ffffffffffffffffffffffffffffffffffffffff168152602001908152602001600020805480602002602001604051908101604052809291908181526020016000905b82821015610cee578382906000526020600020018054610c6190612bd8565b80601f0160208091040260200160405190810160405280929190818152602001828054610c8d90612bd8565b8015610cda5780601f10610caf57610100808354040283529160200191610cda565b820191906000526020600020905b815481529060010190602001808311610cbd57829003601f168201915b505050505081526020019060010190610c42565b5050505090506000815167ffffffffffffffff811115610d1157610d10612289565b5b604051908082528060200260200182016040528015610d4457816020015b6060815260200190600190039081610d2f5790505b50905060005b8251811015610d9f57828181518110610d6657610d65612fea565b5b6020026020010151828281518110610d8157610d80612fea565b5b60200260200101819052508080610d9790613048565b915050610d4a565b508092505050919050565b60016020528060005260406000206000915090505481565b600080610dce33611043565b90506000610ddb4261134e565b90506000828583604051602001610df493929190612b62565b604051602081830303815290604052905060008190506000610e2c62030d406000610e1d6114ae565b6114d69092919063ffffffff16565b90506000610e3f619ce884846000611571565b905080600001519650505050505050919050565b610e5b611770565b7f000000000000000000000000000000000000000000000000000000000000000073ffffffffffffffffffffffffffffffffffffffff1663ca5eb5e1826040518263ffffffff1660e01b8152600401610eb49190612727565b600060405180830381600087803b158015610ece57600080fd5b505af1158015610ee2573d6000803e3d6000fd5b5050505050565b610ef1611770565b8060028190555050565b610f03611770565b600073ffffffffffffffffffffffffffffffffffffffff168173ffffffffffffffffffffffffffffffffffffffff1603610f72576040517f08c379a0000000000000000000000000000000000000000000000000000000008152600401610f6990613102565b60405180910390fd5b610f7b8161184f565b50565b60025481565b6000816020013560016000846000016020810190610fa291906129d6565b63ffffffff1663ffffffff16815260200190815260200160002054149050919050565b600080600160008463ffffffff1663ffffffff1681526020019081526020016000205490506000801b810361103157826040517ff6ff4fb7000000000000000000000000000000000000000000000000000000008152600401611028919061201f565b60405180910390fd5b80915050919050565b50505050505050565b606060008273ffffffffffffffffffffffffffffffffffffffff1660001b905060006040518060400160405280601081526020017f303132333435363738396162636465660000000000000000000000000000000081525090506000602a67ffffffffffffffff8111156110ba576110b9612289565b5b6040519080825280601f01601f1916602001820160405280156110ec5781602001600182028036833780820191505090505b5090507f30000000000000000000000000000000000000000000000000000000000000008160008151811061112457611123612fea565b5b60200101907effffffffffffffffffffffffffffffffffffffffffffffffffffffffffffff1916908160001a9053507f78000000000000000000000000000000000000000000000000000000000000008160018151811061118857611187612fea565b5b60200101907effffffffffffffffffffffffffffffffffffffffffffffffffffffffffffff1916908160001a90535060005b60148110156113425782600485600c846111d49190613122565b602081106111e5576111e4612fea565b5b1a60f81b7effffffffffffffffffffffffffffffffffffffffffffffffffffffffffffff1916901c60f81c60ff168151811061122457611223612fea565b5b602001015160f81c60f81b8260028361123d9190613156565b60026112499190613122565b8151811061125a57611259612fea565b5b60200101907effffffffffffffffffffffffffffffffffffffffffffffffffffffffffffff1916908160001a90535082600f60f81b85600c8461129d9190613122565b602081106112ae576112ad612fea565b5b1a60f81b1660f81c60ff16815181106112ca576112c9612fea565b5b602001015160f81c60f81b826002836112e39190613156565b60036112ef9190613122565b81518110611300576112ff612fea565b5b60200101907effffffffffffffffffffffffffffffffffffffffffffffffffffffffffffff1916908160001a905350808061133a90613048565b9150506111ba565b50809350505050919050565b606060008203611395576040518060400160405280600181526020017f300000000000000000000000000000000000000000000000000000000000000081525090506114a9565b600082905060005b600082146113c75780806113b090613048565b915050600a826113c091906131c7565b915061139d565b60008167ffffffffffffffff8111156113e3576113e2612289565b5b6040519080825280601f01601f1916602001820160405280156114155781602001600182028036833780820191505090505b5090505b600085146114a25760018261142e91906131f8565b9150600a8561143d919061322c565b60306114499190613122565b60f81b81838151811061145f5761145e612fea565b5b60200101907effffffffffffffffffffffffffffffffffffffffffffffffffffffffffffff1916908160001a905350600a8561149b91906131c7565b9450611419565b8093505050505b919050565b606060036040516020016114c291906132a1565b604051602081830303815290604052905090565b606083600361ffff166114f360008361191390919063ffffffff16565b61ffff161461154c5761151060008261191390919063ffffffff16565b6040517f3a51740d00000000000000000000000000000000000000000000000000000000815260040161154391906132cb565b60405180910390fd5b6000611558858561197a565b9050611566866001836119e6565b925050509392505050565b611579611fb2565b7f000000000000000000000000000000000000000000000000000000000000000073ffffffffffffffffffffffffffffffffffffffff1663ddc28c586040518060a001604052808863ffffffff1681526020016115d589610fc5565b8152602001878152602001868152602001851515815250306040518363ffffffff1660e01b815260040161160a929190613390565b6040805180830381865afa158015611626573d6000803e3d6000fd5b505050506040513d601f19601f8201168201806040525081019061164a919061342a565b9050949350505050565b61165c611fcc565b600061166b8460000151611aa3565b9050600084602001511115611688576116878460200151611af1565b5b7f000000000000000000000000000000000000000000000000000000000000000073ffffffffffffffffffffffffffffffffffffffff16632637a450826040518060a001604052808b63ffffffff1681526020016116e58c610fc5565b81526020018a815260200189815260200160008960200151111515815250866040518463ffffffff1660e01b8152600401611721929190613390565b60806040518083038185885af115801561173f573d6000803e3d6000fd5b50505050506040513d601f19601f8201168201806040525081019061176491906134fc565b91505095945050505050565b611778611c3b565b73ffffffffffffffffffffffffffffffffffffffff16611796610a9e565b73ffffffffffffffffffffffffffffffffffffffff16146117ec576040517f08c379a00000000000000000000000000000000000000000000000000000000081526004016117e390613575565b60405180910390fd5b565b80600160008463ffffffff1663ffffffff168152602001908152602001600020819055507f238399d427b947898edb290f5ff0f9109849b1c3ba196a42e35f00c50a54b98b8282604051611843929190612ab1565b60405180910390a15050565b60008060009054906101000a900473ffffffffffffffffffffffffffffffffffffffff169050816000806101000a81548173ffffffffffffffffffffffffffffffffffffffff021916908373ffffffffffffffffffffffffffffffffffffffff1602179055508173ffffffffffffffffffffffffffffffffffffffff168173ffffffffffffffffffffffffffffffffffffffff167f8be0079c531659141344cd1fd0a4f28419497f9722a3daafe3b4186f6b6457e060405160405180910390a35050565b60006002826119229190613122565b83511015611965576040517f08c379a000000000000000000000000000000000000000000000000000000000815260040161195c906135e1565b60405180910390fd5b60008260028501015190508091505092915050565b60606000826fffffffffffffffffffffffffffffffff16146119bd5782826040516020016119a9929190613653565b6040516020818303038152906040526119de565b826040516020016119ce919061367f565b6040516020818303038152906040525b905092915050565b606083600361ffff16611a0360008361191390919063ffffffff16565b61ffff1614611a5c57611a2060008261191390919063ffffffff16565b6040517f3a51740d000000000000000000000000000000000000000000000000000000008152600401611a5391906132cb565b60405180910390fd5b84600180611a6a8651611c43565b611a74919061369a565b8686604051602001611a8a959493929190613744565b6040516020818303038152906040529150509392505050565b6000813414611ae957346040517f9f704120000000000000000000000000000000000000000000000000000000008152600401611ae09190612a3c565b60405180910390fd5b819050919050565b60007f000000000000000000000000000000000000000000000000000000000000000073ffffffffffffffffffffffffffffffffffffffff1663e4fe1d946040518163ffffffff1660e01b8152600401602060405180830381865afa158015611b5e573d6000803e3d6000fd5b505050506040513d601f19601f82011682018060405250810190611b8291906137b0565b9050600073ffffffffffffffffffffffffffffffffffffffff168173ffffffffffffffffffffffffffffffffffffffff1603611bea576040517f5373352a00000000000000000000000000000000000000000000000000000000815260040160405180910390fd5b611c37337f0000000000000000000000000000000000000000000000000000000000000000848473ffffffffffffffffffffffffffffffffffffffff16611c94909392919063ffffffff16565b5050565b600033905090565b600061ffff8016821115611c8c576040517f08c379a0000000000000000000000000000000000000000000000000000000008152600401611c839061384f565b60405180910390fd5b819050919050565b611d17846323b872dd60e01b858585604051602401611cb59392919061386f565b604051602081830303815290604052907bffffffffffffffffffffffffffffffffffffffffffffffffffffffff19166020820180517bffffffffffffffffffffffffffffffffffffffffffffffffffffffff8381831617835250505050611d1d565b50505050565b6000611d7f826040518060400160405280602081526020017f5361666545524332303a206c6f772d6c6576656c2063616c6c206661696c65648152508573ffffffffffffffffffffffffffffffffffffffff16611de59092919063ffffffff16565b9050600081511480611da1575080806020019051810190611da091906138d2565b5b611de0576040517f08c379a0000000000000000000000000000000000000000000000000000000008152600401611dd790613971565b60405180910390fd5b505050565b6060611df48484600085611dfd565b90509392505050565b606082471015611e42576040517f08c379a0000000000000000000000000000000000000000000000000000000008152600401611e3990613a03565b60405180910390fd5b6000808673ffffffffffffffffffffffffffffffffffffffff168587604051611e6b9190613a23565b60006040518083038185875af1925050503d8060008114611ea8576040519150601f19603f3d011682016040523d82523d6000602084013e611ead565b606091505b5091509150611ebe87838387611eca565b92505050949350505050565b60608315611f2c576000835103611f2457611ee485611f3f565b611f23576040517f08c379a0000000000000000000000000000000000000000000000000000000008152600401611f1a90613a86565b60405180910390fd5b5b829050611f37565b611f368383611f62565b5b949350505050565b6000808273ffffffffffffffffffffffffffffffffffffffff163b119050919050565b600082511115611f755781518083602001fd5b806040517f08c379a0000000000000000000000000000000000000000000000000000000008152600401611fa99190613adf565b60405180910390fd5b604051806040016040528060008152602001600081525090565b604051806060016040528060008019168152602001600067ffffffffffffffff168152602001611ffa611fb2565b81525090565b600063ffffffff82169050919050565b61201981612000565b82525050565b60006020820190506120346000830184612010565b92915050565b6000604051905090565b600080fd5b600080fd5b600080fd5b6000606082840312156120695761206861204e565b5b81905092915050565b6000819050919050565b61208581612072565b811461209057600080fd5b50565b6000813590506120a28161207c565b92915050565b600080fd5b600080fd5b600080fd5b60008083601f8401126120cd576120cc6120a8565b5b8235905067ffffffffffffffff8111156120ea576120e96120ad565b5b602083019150836001820283011115612106576121056120b2565b5b9250929050565b600073ffffffffffffffffffffffffffffffffffffffff82169050919050565b60006121388261210d565b9050919050565b6121488161212d565b811461215357600080fd5b50565b6000813590506121658161213f565b92915050565b600080600080600080600060e0888a03121561218a57612189612044565b5b60006121988a828b01612053565b97505060606121a98a828b01612093565b965050608088013567ffffffffffffffff8111156121ca576121c9612049565b5b6121d68a828b016120b7565b955095505060a06121e98a828b01612156565b93505060c088013567ffffffffffffffff81111561220a57612209612049565b5b6122168a828b016120b7565b925092505092959891949750929550565b600067ffffffffffffffff82169050919050565b61224481612227565b82525050565b600060408201905061225f600083018561223b565b61226c602083018461223b565b9392505050565b600080fd5b6000601f19601f8301169050919050565b7f4e487b7100000000000000000000000000000000000000000000000000000000600052604160045260246000fd5b6122c182612278565b810181811067ffffffffffffffff821117156122e0576122df612289565b5b80604052505050565b60006122f361203a565b90506122ff82826122b8565b919050565b600067ffffffffffffffff82111561231f5761231e612289565b5b61232882612278565b9050602081019050919050565b82818337600083830152505050565b600061235761235284612304565b6122e9565b90508281526020810184848401111561237357612372612273565b5b61237e848285612335565b509392505050565b600082601f83011261239b5761239a6120a8565b5b81356123ab848260208601612344565b91505092915050565b6000602082840312156123ca576123c9612044565b5b600082013567ffffffffffffffff8111156123e8576123e7612049565b5b6123f484828501612386565b91505092915050565b61240681612000565b811461241157600080fd5b50565b600081359050612423816123fd565b92915050565b600080604083850312156124405761243f612044565b5b600061244e85828601612414565b925050602061245f85828601612093565b9150509250929050565b6000819050919050565b61247c81612469565b82525050565b6040820160008201516124986000850182612473565b5060208201516124ab6020850182612473565b50505050565b60006040820190506124c66000830184612482565b92915050565b6000819050919050565b60006124f16124ec6124e78461210d565b6124cc565b61210d565b9050919050565b6000612503826124d6565b9050919050565b6000612515826124f8565b9050919050565b6125258161250a565b82525050565b6000602082019050612540600083018461251c565b92915050565b61254f81612469565b811461255a57600080fd5b50565b60008135905061256c81612546565b92915050565b6000806040838503121561258957612588612044565b5b600061259785828601612156565b92505060206125a88582860161255d565b9150509250929050565b600081519050919050565b600082825260208201905092915050565b60005b838110156125ec5780820151818401526020810190506125d1565b60008484015250505050565b6000612603826125b2565b61260d81856125bd565b935061261d8185602086016125ce565b61262681612278565b840191505092915050565b6000602082019050818103600083015261264b81846125f8565b905092915050565b6000602082019050612668600083018461223b565b92915050565b60008060008060a0858703121561268857612687612044565b5b600061269687828801612053565b945050606085013567ffffffffffffffff8111156126b7576126b6612049565b5b6126c3878288016120b7565b935093505060806126d687828801612156565b91505092959194509250565b60008115159050919050565b6126f7816126e2565b82525050565b600060208201905061271260008301846126ee565b92915050565b6127218161212d565b82525050565b600060208201905061273c6000830184612718565b92915050565b60006020828403121561275857612757612044565b5b600061276684828501612156565b91505092915050565b600081519050919050565b600082825260208201905092915050565b6000819050602082019050919050565b600082825260208201905092915050565b60006127b7826125b2565b6127c1818561279b565b93506127d18185602086016125ce565b6127da81612278565b840191505092915050565b60006127f183836127ac565b905092915050565b6000602082019050919050565b60006128118261276f565b61281b818561277a565b93508360208202850161282d8561278b565b8060005b85811015612869578484038952815161284a85826127e5565b9450612855836127f9565b925060208a01995050600181019050612831565b50829750879550505050505092915050565b600060208201905081810360008301526128958184612806565b905092915050565b600081519050919050565b600082825260208201905092915050565b6000819050602082019050919050565b600081519050919050565b600082825260208201905092915050565b60006128f0826128c9565b6128fa81856128d4565b935061290a8185602086016125ce565b61291381612278565b840191505092915050565b600061292a83836128e5565b905092915050565b6000602082019050919050565b600061294a8261289d565b61295481856128a8565b935083602082028501612966856128b9565b8060005b858110156129a25784840389528151612983858261291e565b945061298e83612932565b925060208a0199505060018101905061296a565b50829750879550505050505092915050565b600060208201905081810360008301526129ce818461293f565b905092915050565b6000602082840312156129ec576129eb612044565b5b60006129fa84828501612414565b91505092915050565b612a0c81612072565b82525050565b6000602082019050612a276000830184612a03565b92915050565b612a3681612469565b82525050565b6000602082019050612a516000830184612a2d565b92915050565b600060208284031215612a6d57612a6c612044565b5b6000612a7b8482850161255d565b91505092915050565b600060608284031215612a9a57612a99612044565b5b6000612aa884828501612053565b91505092915050565b6000604082019050612ac66000830185612010565b612ad36020830184612a03565b9392505050565b600081905092915050565b6000612af0826128c9565b612afa8185612ada565b9350612b0a8185602086016125ce565b80840191505092915050565b7f2c00000000000000000000000000000000000000000000000000000000000000600082015250565b6000612b4c600183612ada565b9150612b5782612b16565b600182019050919050565b6000612b6e8286612ae5565b9150612b7982612b3f565b9150612b858285612ae5565b9150612b9082612b3f565b9150612b9c8284612ae5565b9150819050949350505050565b7f4e487b7100000000000000000000000000000000000000000000000000000000600052602260045260246000fd5b60006002820490506001821680612bf057607f821691505b602082108103612c0357612c02612ba9565b5b50919050565b60008190508160005260206000209050919050565b60006020601f8301049050919050565b600082821b905092915050565b600060088302612c6b7fffffffffffffffffffffffffffffffffffffffffffffffffffffffffffffffff82612c2e565b612c758683612c2e565b95508019841693508086168417925050509392505050565b6000612ca8612ca3612c9e84612469565b6124cc565b612469565b9050919050565b6000819050919050565b612cc283612c8d565b612cd6612cce82612caf565b848454612c3b565b825550505050565b600090565b612ceb612cde565b612cf6818484612cb9565b505050565b5b81811015612d1a57612d0f600082612ce3565b600181019050612cfc565b5050565b601f821115612d5f57612d3081612c09565b612d3984612c1e565b81016020851015612d48578190505b612d5c612d5485612c1e565b830182612cfb565b50505b505050565b600082821c905092915050565b6000612d8260001984600802612d64565b1980831691505092915050565b6000612d9b8383612d71565b9150826002028217905092915050565b612db4826125b2565b67ffffffffffffffff811115612dcd57612dcc612289565b5b612dd78254612bd8565b612de2828285612d1e565b600060209050601f831160018114612e155760008415612e03578287015190505b612e0d8582612d8f565b865550612e75565b601f198416612e2386612c09565b60005b82811015612e4b57848901518255600182019150602085019450602081019050612e26565b86831015612e685784890151612e64601f891682612d71565b8355505b6001600288020188555050505b505050505050565b6000606082019050612e926000830186612718565b8181036020830152612ea481856125f8565b9050612eb36040830184612a2d565b949350505050565b600082825260208201905092915050565b7f496e73756666696369656e742066656500000000000000000000000000000000600082015250565b6000612f02601083612ebb565b9150612f0d82612ecc565b602082019050919050565b60006020820190508181036000830152612f3181612ef5565b9050919050565b600081905092915050565b50565b6000612f53600083612f38565b9150612f5e82612f43565b600082019050919050565b6000612f7482612f46565b9150819050919050565b7f5472616e73666572206661696c65640000000000000000000000000000000000600082015250565b6000612fb4600f83612ebb565b9150612fbf82612f7e565b602082019050919050565b60006020820190508181036000830152612fe381612fa7565b9050919050565b7f4e487b7100000000000000000000000000000000000000000000000000000000600052603260045260246000fd5b7f4e487b7100000000000000000000000000000000000000000000000000000000600052601160045260246000fd5b600061305382612469565b91507fffffffffffffffffffffffffffffffffffffffffffffffffffffffffffffffff820361308557613084613019565b5b600182019050919050565b7f4f776e61626c653a206e6577206f776e657220697320746865207a65726f206160008201527f6464726573730000000000000000000000000000000000000000000000000000602082015250565b60006130ec602683612ebb565b91506130f782613090565b604082019050919050565b6000602082019050818103600083015261311b816130df565b9050919050565b600061312d82612469565b915061313883612469565b92508282019050808211156131505761314f613019565b5b92915050565b600061316182612469565b915061316c83612469565b925082820261317a81612469565b9150828204841483151761319157613190613019565b5b5092915050565b7f4e487b7100000000000000000000000000000000000000000000000000000000600052601260045260246000fd5b60006131d282612469565b91506131dd83612469565b9250826131ed576131ec613198565b5b828204905092915050565b600061320382612469565b915061320e83612469565b925082820390508181111561322657613225613019565b5b92915050565b600061323782612469565b915061324283612469565b92508261325257613251613198565b5b828206905092915050565b600061ffff82169050919050565b60008160f01b9050919050565b60006132838261326b565b9050919050565b61329b6132968261325d565b613278565b82525050565b60006132ad828461328a565b60028201915081905092915050565b6132c58161325d565b82525050565b60006020820190506132e060008301846132bc565b92915050565b6132ef81612000565b82525050565b6132fe81612072565b82525050565b61330d816126e2565b82525050565b600060a08301600083015161332b60008601826132e6565b50602083015161333e60208601826132f5565b506040830151848203604086015261335682826127ac565b9150506060830151848203606086015261337082826127ac565b91505060808301516133856080860182613304565b508091505092915050565b600060408201905081810360008301526133aa8185613313565b90506133b96020830184612718565b9392505050565b600080fd5b6000815190506133d481612546565b92915050565b6000604082840312156133f0576133ef6133c0565b5b6133fa60406122e9565b9050600061340a848285016133c5565b600083015250602061341e848285016133c5565b60208301525092915050565b6000604082840312156134405761343f612044565b5b600061344e848285016133da565b91505092915050565b6000815190506134668161207c565b92915050565b61347581612227565b811461348057600080fd5b50565b6000815190506134928161346c565b92915050565b6000608082840312156134ae576134ad6133c0565b5b6134b860606122e9565b905060006134c884828501613457565b60008301525060206134dc84828501613483565b60208301525060406134f0848285016133da565b60408301525092915050565b60006080828403121561351257613511612044565b5b600061352084828501613498565b91505092915050565b7f4f776e61626c653a2063616c6c6572206973206e6f7420746865206f776e6572600082015250565b600061355f602083612ebb565b915061356a82613529565b602082019050919050565b6000602082019050818103600083015261358e81613552565b9050919050565b7f746f55696e7431365f6f75744f66426f756e6473000000000000000000000000600082015250565b60006135cb601483612ebb565b91506135d682613595565b602082019050919050565b600060208201905081810360008301526135fa816135be565b9050919050565b60006fffffffffffffffffffffffffffffffff82169050919050565b60008160801b9050919050565b60006136358261361d565b9050919050565b61364d61364882613601565b61362a565b82525050565b600061365f828561363c565b60108201915061366f828461363c565b6010820191508190509392505050565b600061368b828461363c565b60108201915081905092915050565b60006136a58261325d565b91506136b08361325d565b9250828201905061ffff8111156136ca576136c9613019565b5b92915050565b60006136db826125b2565b6136e58185612f38565b93506136f58185602086016125ce565b80840191505092915050565b600060ff82169050919050565b60008160f81b9050919050565b60006137268261370e565b9050919050565b61373e61373982613701565b61371b565b82525050565b600061375082886136d0565b915061375c828761372d565b60018201915061376c828661328a565b60028201915061377c828561372d565b60018201915061378c82846136d0565b91508190509695505050505050565b6000815190506137aa8161213f565b92915050565b6000602082840312156137c6576137c5612044565b5b60006137d48482850161379b565b91505092915050565b7f53616665436173743a2076616c756520646f65736e27742066697420696e203160008201527f3620626974730000000000000000000000000000000000000000000000000000602082015250565b6000613839602683612ebb565b9150613844826137dd565b604082019050919050565b600060208201905081810360008301526138688161382c565b9050919050565b60006060820190506138846000830186612718565b6138916020830185612718565b61389e6040830184612a2d565b949350505050565b6138af816126e2565b81146138ba57600080fd5b50565b6000815190506138cc816138a6565b92915050565b6000602082840312156138e8576138e7612044565b5b60006138f6848285016138bd565b91505092915050565b7f5361666545524332303a204552433230206f7065726174696f6e20646964206e60008201527f6f74207375636365656400000000000000000000000000000000000000000000602082015250565b600061395b602a83612ebb565b9150613966826138ff565b604082019050919050565b6000602082019050818103600083015261398a8161394e565b9050919050565b7f416464726573733a20696e73756666696369656e742062616c616e636520666f60008201527f722063616c6c0000000000000000000000000000000000000000000000000000602082015250565b60006139ed602683612ebb565b91506139f882613991565b604082019050919050565b60006020820190508181036000830152613a1c816139e0565b9050919050565b6000613a2f82846136d0565b915081905092915050565b7f416464726573733a2063616c6c20746f206e6f6e2d636f6e7472616374000000600082015250565b6000613a70601d83612ebb565b9150613a7b82613a3a565b602082019050919050565b60006020820190508181036000830152613a9f81613a63565b9050919050565b6000613ab1826128c9565b613abb8185612ebb565b9350613acb8185602086016125ce565b613ad481612278565b840191505092915050565b60006020820190508181036000830152613af98184613aa6565b90509291505056fea264697066735822122042b656186216a5e304a5e80e8dce671a9f4bd0cab26faa0d2ec065435915c96c64736f6c63430008140033",
  "linkReferences": {},
  "deployedLinkReferences": {}
}