{
  "_format": "hh-sol-artifact-1",
  "contractName": "OmnichainIdentityLinker",
  "sourceName": "contracts/OmnichainIdentityLinker.sol",
  "abi": [
    {
      "inputs": [
        {
          "internalType": "address",
          "name": "_lzEndpoint",
          "type": "address"
        },
        {
          "internalType": "address",
          "name": "_delegate",
          "type": "address"
        }
      ],
      "stateMutability": "nonpayable",
      "type": "constructor"
    },
    {
      "inputs": [],
      "name": "InvalidDelegate",
      "type": "error"
    },
    {
      "inputs": [],
      "name": "InvalidEndpointCall",
      "type": "error"
    },
    {
      "inputs": [],
      "name": "LzTokenUnavailable",
      "type": "error"
    },
    {
      "inputs": [
        {
          "internalType": "uint32",
          "name": "eid",
          "type": "uint32"
        }
      ],
      "name": "NoPeer",
      "type": "error"
    },
    {
      "inputs": [
        {
          "internalType": "uint256",
          "name": "msgValue",
          "type": "uint256"
        }
      ],
      "name": "NotEnoughNative",
      "type": "error"
    },
    {
      "inputs": [
        {
          "internalType": "address",
          "name": "addr",
          "type": "address"
        }
      ],
      "name": "OnlyEndpoint",
      "type": "error"
    },
    {
      "inputs": [
        {
          "internalType": "uint32",
          "name": "eid",
          "type": "uint32"
        },
        {
          "internalType": "bytes32",
          "name": "sender",
          "type": "bytes32"
        }
      ],
      "name": "OnlyPeer",
      "type": "error"
    },
    {
      "anonymous": false,
      "inputs": [
        {
          "indexed": false,
          "internalType": "address",
          "name": "evmAddress",
          "type": "address"
        },
        {
          "indexed": false,
          "internalType": "bytes",
          "name": "solanaAddress",
          "type": "bytes"
        },
        {
          "indexed": false,
          "internalType": "uint256",
          "name": "timestamp",
          "type": "uint256"
        }
      ],
      "name": "IdentityLinked",
      "type": "event"
    },
    {
      "anonymous": false,
      "inputs": [
        {
          "indexed": true,
          "internalType": "address",
          "name": "previousOwner",
          "type": "address"
        },
        {
          "indexed": true,
          "internalType": "address",
          "name": "newOwner",
          "type": "address"
        }
      ],
      "name": "OwnershipTransferred",
      "type": "event"
    },
    {
      "anonymous": false,
      "inputs": [
        {
          "indexed": false,
          "internalType": "uint32",
          "name": "eid",
          "type": "uint32"
        },
        {
          "indexed": false,
          "internalType": "bytes32",
          "name": "peer",
          "type": "bytes32"
        }
      ],
      "name": "PeerSet",
      "type": "event"
    },
    {
      "inputs": [],
      "name": "SOLANA_CHAIN_ID",
      "outputs": [
        {
          "internalType": "uint32",
          "name": "",
          "type": "uint32"
        }
      ],
      "stateMutability": "view",
      "type": "function"
    },
    {
      "inputs": [
        {
          "components": [
            {
              "internalType": "uint32",
              "name": "srcEid",
              "type": "uint32"
            },
            {
              "internalType": "bytes32",
              "name": "sender",
              "type": "bytes32"
            },
            {
              "internalType": "uint64",
              "name": "nonce",
              "type": "uint64"
            }
          ],
          "internalType": "struct Origin",
          "name": "origin",
          "type": "tuple"
        }
      ],
      "name": "allowInitializePath",
      "outputs": [
        {
          "internalType": "bool",
          "name": "",
          "type": "bool"
        }
      ],
      "stateMutability": "view",
      "type": "function"
    },
    {
      "inputs": [],
      "name": "endpoint",
      "outputs": [
        {
          "internalType": "contract ILayerZeroEndpointV2",
          "name": "",
          "type": "address"
        }
      ],
      "stateMutability": "view",
      "type": "function"
    },
    {
      "inputs": [],
      "name": "gasLimit",
      "outputs": [
        {
          "internalType": "uint256",
          "name": "",
          "type": "uint256"
        }
      ],
      "stateMutability": "view",
      "type": "function"
    },
    {
      "inputs": [
        {
          "internalType": "address",
          "name": "_evmAddress",
          "type": "address"
        }
      ],
      "name": "getLinkedAddresses",
      "outputs": [
        {
          "internalType": "bytes[]",
          "name": "",
          "type": "bytes[]"
        }
      ],
      "stateMutability": "view",
      "type": "function"
    },
    {
      "inputs": [
        {
          "internalType": "address",
          "name": "_evmAddress",
          "type": "address"
        }
      ],
      "name": "getLinkedAddressesAsStrings",
      "outputs": [
        {
          "internalType": "string[]",
          "name": "",
          "type": "string[]"
        }
      ],
      "stateMutability": "view",
      "type": "function"
    },
    {
      "inputs": [
        {
          "components": [
            {
              "internalType": "uint32",
              "name": "srcEid",
              "type": "uint32"
            },
            {
              "internalType": "bytes32",
              "name": "sender",
              "type": "bytes32"
            },
            {
              "internalType": "uint64",
              "name": "nonce",
              "type": "uint64"
            }
          ],
          "internalType": "struct Origin",
          "name": "",
          "type": "tuple"
        },
        {
          "internalType": "bytes",
          "name": "",
          "type": "bytes"
        },
        {
          "internalType": "address",
          "name": "_sender",
          "type": "address"
        }
      ],
      "name": "isComposeMsgSender",
      "outputs": [
        {
          "internalType": "bool",
          "name": "",
          "type": "bool"
        }
      ],
      "stateMutability": "view",
      "type": "function"
    },
    {
      "inputs": [
        {
          "internalType": "string",
          "name": "_solanaAddress",
          "type": "string"
        }
      ],
      "name": "linkAddress",
      "outputs": [],
      "stateMutability": "payable",
      "type": "function"
    },
    {
      "inputs": [
        {
          "internalType": "address",
          "name": "",
          "type": "address"
        },
        {
          "internalType": "uint256",
          "name": "",
          "type": "uint256"
        }
      ],
      "name": "linkedSolanaAddresses",
      "outputs": [
        {
          "internalType": "bytes",
          "name": "",
          "type": "bytes"
        }
      ],
      "stateMutability": "view",
      "type": "function"
    },
    {
      "inputs": [
        {
          "components": [
            {
              "internalType": "uint32",
              "name": "srcEid",
              "type": "uint32"
            },
            {
              "internalType": "bytes32",
              "name": "sender",
              "type": "bytes32"
            },
            {
              "internalType": "uint64",
              "name": "nonce",
              "type": "uint64"
            }
          ],
          "internalType": "struct Origin",
          "name": "_origin",
          "type": "tuple"
        },
        {
          "internalType": "bytes32",
          "name": "_guid",
          "type": "bytes32"
        },
        {
          "internalType": "bytes",
          "name": "_message",
          "type": "bytes"
        },
        {
          "internalType": "address",
          "name": "_executor",
          "type": "address"
        },
        {
          "internalType": "bytes",
          "name": "_extraData",
          "type": "bytes"
        }
      ],
      "name": "lzReceive",
      "outputs": [],
      "stateMutability": "payable",
      "type": "function"
    },
    {
      "inputs": [
        {
          "internalType": "uint32",
          "name": "",
          "type": "uint32"
        },
        {
          "internalType": "bytes32",
          "name": "",
          "type": "bytes32"
        }
      ],
      "name": "nextNonce",
      "outputs": [
        {
          "internalType": "uint64",
          "name": "nonce",
          "type": "uint64"
        }
      ],
      "stateMutability": "view",
      "type": "function"
    },
    {
      "inputs": [],
      "name": "oAppVersion",
      "outputs": [
        {
          "internalType": "uint64",
          "name": "senderVersion",
          "type": "uint64"
        },
        {
          "internalType": "uint64",
          "name": "receiverVersion",
          "type": "uint64"
        }
      ],
      "stateMutability": "pure",
      "type": "function"
    },
    {
      "inputs": [],
      "name": "owner",
      "outputs": [
        {
          "internalType": "address",
          "name": "",
          "type": "address"
        }
      ],
      "stateMutability": "view",
      "type": "function"
    },
    {
      "inputs": [
        {
          "internalType": "uint32",
          "name": "eid",
          "type": "uint32"
        }
      ],
      "name": "peers",
      "outputs": [
        {
          "internalType": "bytes32",
          "name": "peer",
          "type": "bytes32"
        }
      ],
      "stateMutability": "view",
      "type": "function"
    },
    {
      "inputs": [
        {
          "internalType": "string",
          "name": "_solanaAddress",
          "type": "string"
        }
      ],
      "name": "quoteLinkFee",
      "outputs": [
        {
          "components": [
            {
              "internalType": "uint256",
              "name": "nativeFee",
              "type": "uint256"
            },
            {
              "internalType": "uint256",
              "name": "lzTokenFee",
              "type": "uint256"
            }
          ],
          "internalType": "struct MessagingFee",
          "name": "fee",
          "type": "tuple"
        }
      ],
      "stateMutability": "view",
      "type": "function"
    },
    {
      "inputs": [],
      "name": "renounceOwnership",
      "outputs": [],
      "stateMutability": "nonpayable",
      "type": "function"
    },
    {
      "inputs": [
        {
          "internalType": "address",
          "name": "_delegate",
          "type": "address"
        }
      ],
      "name": "setDelegate",
      "outputs": [],
      "stateMutability": "nonpayable",
      "type": "function"
    },
    {
      "inputs": [
        {
          "internalType": "uint256",
          "name": "_gasLimit",
          "type": "uint256"
        }
      ],
      "name": "setGasLimit",
      "outputs": [],
      "stateMutability": "nonpayable",
      "type": "function"
    },
    {
      "inputs": [
        {
          "internalType": "uint32",
          "name": "_eid",
          "type": "uint32"
        },
        {
          "internalType": "bytes32",
          "name": "_peer",
          "type": "bytes32"
        }
      ],
      "name": "setPeer",
      "outputs": [],
      "stateMutability": "nonpayable",
      "type": "function"
    },
    {
      "inputs": [
        {
          "internalType": "address",
          "name": "newOwner",
          "type": "address"
        }
      ],
      "name": "transferOwnership",
      "outputs": [],
      "stateMutability": "nonpayable",
      "type": "function"
    },
    {
      "inputs": [],
      "name": "withdraw",
      "outputs": [],
      "stateMutability": "nonpayable",
      "type": "function"
    }
  ],
  "bytecode": "0x60a060405262030d406002553480156200001857600080fd5b50604051620038253803806200382583398181016040528101906200003e9190620002b0565b8181818162000062620000566200017a60201b60201c565b6200018260201b60201c565b8173ffffffffffffffffffffffffffffffffffffffff1660808173ffffffffffffffffffffffffffffffffffffffff1681525050600073ffffffffffffffffffffffffffffffffffffffff168173ffffffffffffffffffffffffffffffffffffffff1603620000fd576040517fb586360400000000000000000000000000000000000000000000000000000000815260040160405180910390fd5b60805173ffffffffffffffffffffffffffffffffffffffff1663ca5eb5e1826040518263ffffffff1660e01b81526004016200013a919062000308565b600060405180830381600087803b1580156200015557600080fd5b505af11580156200016a573d6000803e3d6000fd5b5050505050505050505062000325565b600033905090565b60008060009054906101000a900473ffffffffffffffffffffffffffffffffffffffff169050816000806101000a81548173ffffffffffffffffffffffffffffffffffffffff021916908373ffffffffffffffffffffffffffffffffffffffff1602179055508173ffffffffffffffffffffffffffffffffffffffff168173ffffffffffffffffffffffffffffffffffffffff167f8be0079c531659141344cd1fd0a4f28419497f9722a3daafe3b4186f6b6457e060405160405180910390a35050565b600080fd5b600073ffffffffffffffffffffffffffffffffffffffff82169050919050565b600062000278826200024b565b9050919050565b6200028a816200026b565b81146200029657600080fd5b50565b600081519050620002aa816200027f565b92915050565b60008060408385031215620002ca57620002c962000246565b5b6000620002da8582860162000299565b9250506020620002ed8582860162000299565b9150509250929050565b62000302816200026b565b82525050565b60006020820190506200031f6000830184620002f7565b92915050565b6080516134ba6200036b600039600081816105180152818161091401528181610d74015281816113cf015281816114de015281816117b901526118b401526134ba6000f3fe60806040526004361061012a5760003560e01c80637d25a05e116100ab578063bb0b6a531161006f578063bb0b6a53146103d9578063ca5eb5e114610416578063ee7d72b41461043f578063f2fde38b14610468578063f68016b714610491578063ff7bd03d146104bc5761012a565b80637d25a05e146102ba57806382413eac146102f75780638da5cb5b146103345780639541618c1461035f578063a64511631461039c5761012a565b80633ccfd60b116100f25780633ccfd60b146101e757806356368126146101fe5780635e280f111461023b578063715018a6146102665780637954c58f1461027d5761012a565b8063067bd07a1461012f57806313137d651461015a57806317442b7014610176578063306fed73146101a25780633400288b146101be575b600080fd5b34801561013b57600080fd5b506101446104f9565b6040516101519190611c92565b60405180910390f35b610174600480360381019061016f9190611dde565b6104ff565b005b34801561018257600080fd5b5061018b610621565b604051610199929190611ebd565b60405180910390f35b6101bc60048036038101906101b79190612027565b610630565b005b3480156101ca57600080fd5b506101e560048036038101906101e0919061209c565b6107c0565b005b3480156101f357600080fd5b506101fc6107d6565b005b34801561020a57600080fd5b5061022560048036038101906102209190612027565b610894565b6040516102329190612124565b60405180910390f35b34801561024757600080fd5b50610250610912565b60405161025d919061219e565b60405180910390f35b34801561027257600080fd5b5061027b610936565b005b34801561028957600080fd5b506102a4600480360381019061029f91906121e5565b61094a565b6040516102b191906122a4565b60405180910390f35b3480156102c657600080fd5b506102e160048036038101906102dc919061209c565b610a03565b6040516102ee91906122c6565b60405180910390f35b34801561030357600080fd5b5061031e600480360381019061031991906122e1565b610a0b565b60405161032b9190612370565b60405180910390f35b34801561034057600080fd5b50610349610a46565b604051610356919061239a565b60405180910390f35b34801561036b57600080fd5b50610386600480360381019061038191906123b5565b610a6f565b60405161039391906124ee565b60405180910390f35b3480156103a857600080fd5b506103c360048036038101906103be91906123b5565b610b87565b6040516103d09190612627565b60405180910390f35b3480156103e557600080fd5b5061040060048036038101906103fb9190612649565b610d52565b60405161040d9190612685565b60405180910390f35b34801561042257600080fd5b5061043d600480360381019061043891906123b5565b610d6a565b005b34801561044b57600080fd5b50610466600480360381019061046191906126a0565b610e00565b005b34801561047457600080fd5b5061048f600480360381019061048a91906123b5565b610e12565b005b34801561049d57600080fd5b506104a6610e95565b6040516104b391906126dc565b60405180910390f35b3480156104c857600080fd5b506104e360048036038101906104de91906126f7565b610e9b565b6040516104f09190612370565b60405180910390f35b6175d881565b3373ffffffffffffffffffffffffffffffffffffffff167f000000000000000000000000000000000000000000000000000000000000000073ffffffffffffffffffffffffffffffffffffffff161461058f57336040517f91ac5e4f000000000000000000000000000000000000000000000000000000008152600401610586919061239a565b60405180910390fd5b86602001356105af8860000160208101906105aa9190612649565b610edc565b14610609578660000160208101906105c79190612649565b87602001356040517fc26bebcc000000000000000000000000000000000000000000000000000000008152600401610600929190612724565b60405180910390fd5b61061887878787878787610f51565b50505050505050565b60008060016002915091509091565b600061063b33610f5a565b9050600061064842611265565b90506000828483604051602001610661939291906127d5565b60405160208183030381529060405290506000819050600360003373ffffffffffffffffffffffffffffffffffffffff1673ffffffffffffffffffffffffffffffffffffffff168152602001908152602001600020859080600181540180825580915050600190039060005260206000200160009091909190915090816106e89190612a1e565b507f15b1a221748794744cd2960e23ab851c4e6b2b22fbabe81f3404e15eebf0af1633864260405161071c93929190612af0565b60405180910390a1600060405180602001604052806000815250905060006107496175d8848460006113c5565b90508060000151341015610792576040517f08c379a000000000000000000000000000000000000000000000000000000000815260040161078990612b8b565b60405180910390fd5b6107b66175d8848460405180604001604052803481526020016000815250336114a8565b5050505050505050565b6107c86115c4565b6107d28282611642565b5050565b6107de6115c4565b60006107e8610a46565b73ffffffffffffffffffffffffffffffffffffffff164760405161080b90612bdc565b60006040518083038185875af1925050503d8060008114610848576040519150601f19603f3d011682016040523d82523d6000602084013e61084d565b606091505b5050905080610891576040517f08c379a000000000000000000000000000000000000000000000000000000000815260040161088890612c3d565b60405180910390fd5b50565b61089c611c25565b60006108a733610f5a565b905060006108b442611265565b905060008285836040516020016108cd939291906127d5565b6040516020818303038152906040529050600081905060006040518060200160405280600081525090506109066175d8838360006113c5565b95505050505050919050565b7f000000000000000000000000000000000000000000000000000000000000000081565b61093e6115c4565b61094860006116a3565b565b6003602052816000526040600020818154811061096657600080fd5b906000526020600020016000915091505080546109829061284b565b80601f01602080910402602001604051908101604052809291908181526020018280546109ae9061284b565b80156109fb5780601f106109d0576101008083540402835291602001916109fb565b820191906000526020600020905b8154815290600101906020018083116109de57829003601f168201915b505050505081565b600092915050565b60003073ffffffffffffffffffffffffffffffffffffffff168273ffffffffffffffffffffffffffffffffffffffff16149050949350505050565b60008060009054906101000a900473ffffffffffffffffffffffffffffffffffffffff16905090565b6060600360008373ffffffffffffffffffffffffffffffffffffffff1673ffffffffffffffffffffffffffffffffffffffff168152602001908152602001600020805480602002602001604051908101604052809291908181526020016000905b82821015610b7c578382906000526020600020018054610aef9061284b565b80601f0160208091040260200160405190810160405280929190818152602001828054610b1b9061284b565b8015610b685780601f10610b3d57610100808354040283529160200191610b68565b820191906000526020600020905b815481529060010190602001808311610b4b57829003601f168201915b505050505081526020019060010190610ad0565b505050509050919050565b60606000600360008473ffffffffffffffffffffffffffffffffffffffff1673ffffffffffffffffffffffffffffffffffffffff168152602001908152602001600020805480602002602001604051908101604052809291908181526020016000905b82821015610c96578382906000526020600020018054610c099061284b565b80601f0160208091040260200160405190810160405280929190818152602001828054610c359061284b565b8015610c825780601f10610c5757610100808354040283529160200191610c82565b820191906000526020600020905b815481529060010190602001808311610c6557829003601f168201915b505050505081526020019060010190610bea565b5050505090506000815167ffffffffffffffff811115610cb957610cb8611efc565b5b604051908082528060200260200182016040528015610cec57816020015b6060815260200190600190039081610cd75790505b50905060005b8251811015610d4757828181518110610d0e57610d0d612c5d565b5b6020026020010151828281518110610d2957610d28612c5d565b5b60200260200101819052508080610d3f90612cbb565b915050610cf2565b508092505050919050565b60016020528060005260406000206000915090505481565b610d726115c4565b7f000000000000000000000000000000000000000000000000000000000000000073ffffffffffffffffffffffffffffffffffffffff1663ca5eb5e1826040518263ffffffff1660e01b8152600401610dcb919061239a565b600060405180830381600087803b158015610de557600080fd5b505af1158015610df9573d6000803e3d6000fd5b5050505050565b610e086115c4565b8060028190555050565b610e1a6115c4565b600073ffffffffffffffffffffffffffffffffffffffff168173ffffffffffffffffffffffffffffffffffffffff1603610e89576040517f08c379a0000000000000000000000000000000000000000000000000000000008152600401610e8090612d75565b60405180910390fd5b610e92816116a3565b50565b60025481565b6000816020013560016000846000016020810190610eb99190612649565b63ffffffff1663ffffffff16815260200190815260200160002054149050919050565b600080600160008463ffffffff1663ffffffff1681526020019081526020016000205490506000801b8103610f4857826040517ff6ff4fb7000000000000000000000000000000000000000000000000000000008152600401610f3f9190611c92565b60405180910390fd5b80915050919050565b50505050505050565b606060008273ffffffffffffffffffffffffffffffffffffffff1660001b905060006040518060400160405280601081526020017f303132333435363738396162636465660000000000000000000000000000000081525090506000602a67ffffffffffffffff811115610fd157610fd0611efc565b5b6040519080825280601f01601f1916602001820160405280156110035781602001600182028036833780820191505090505b5090507f30000000000000000000000000000000000000000000000000000000000000008160008151811061103b5761103a612c5d565b5b60200101907effffffffffffffffffffffffffffffffffffffffffffffffffffffffffffff1916908160001a9053507f78000000000000000000000000000000000000000000000000000000000000008160018151811061109f5761109e612c5d565b5b60200101907effffffffffffffffffffffffffffffffffffffffffffffffffffffffffffff1916908160001a90535060005b60148110156112595782600485600c846110eb9190612d95565b602081106110fc576110fb612c5d565b5b1a60f81b7effffffffffffffffffffffffffffffffffffffffffffffffffffffffffffff1916901c60f81c60ff168151811061113b5761113a612c5d565b5b602001015160f81c60f81b826002836111549190612dc9565b60026111609190612d95565b8151811061117157611170612c5d565b5b60200101907effffffffffffffffffffffffffffffffffffffffffffffffffffffffffffff1916908160001a90535082600f60f81b85600c846111b49190612d95565b602081106111c5576111c4612c5d565b5b1a60f81b1660f81c60ff16815181106111e1576111e0612c5d565b5b602001015160f81c60f81b826002836111fa9190612dc9565b60036112069190612d95565b8151811061121757611216612c5d565b5b60200101907effffffffffffffffffffffffffffffffffffffffffffffffffffffffffffff1916908160001a905350808061125190612cbb565b9150506110d1565b50809350505050919050565b6060600082036112ac576040518060400160405280600181526020017f300000000000000000000000000000000000000000000000000000000000000081525090506113c0565b600082905060005b600082146112de5780806112c790612cbb565b915050600a826112d79190612e3a565b91506112b4565b60008167ffffffffffffffff8111156112fa576112f9611efc565b5b6040519080825280601f01601f19166020018201604052801561132c5781602001600182028036833780820191505090505b5090505b600085146113b9576001826113459190612e6b565b9150600a856113549190612e9f565b60306113609190612d95565b60f81b81838151811061137657611375612c5d565b5b60200101907effffffffffffffffffffffffffffffffffffffffffffffffffffffffffffff1916908160001a905350600a856113b29190612e3a565b9450611330565b8093505050505b919050565b6113cd611c25565b7f000000000000000000000000000000000000000000000000000000000000000073ffffffffffffffffffffffffffffffffffffffff1663ddc28c586040518060a001604052808863ffffffff16815260200161142989610edc565b8152602001878152602001868152602001851515815250306040518363ffffffff1660e01b815260040161145e929190612f7a565b6040805180830381865afa15801561147a573d6000803e3d6000fd5b505050506040513d601f19601f8201168201806040525081019061149e9190613014565b9050949350505050565b6114b0611c3f565b60006114bf8460000151611767565b90506000846020015111156114dc576114db84602001516117b5565b5b7f000000000000000000000000000000000000000000000000000000000000000073ffffffffffffffffffffffffffffffffffffffff16632637a450826040518060a001604052808b63ffffffff1681526020016115398c610edc565b81526020018a815260200189815260200160008960200151111515815250866040518463ffffffff1660e01b8152600401611575929190612f7a565b60806040518083038185885af1158015611593573d6000803e3d6000fd5b50505050506040513d601f19601f820116820180604052508101906115b891906130e6565b91505095945050505050565b6115cc6118ff565b73ffffffffffffffffffffffffffffffffffffffff166115ea610a46565b73ffffffffffffffffffffffffffffffffffffffff1614611640576040517f08c379a00000000000000000000000000000000000000000000000000000000081526004016116379061315f565b60405180910390fd5b565b80600160008463ffffffff1663ffffffff168152602001908152602001600020819055507f238399d427b947898edb290f5ff0f9109849b1c3ba196a42e35f00c50a54b98b8282604051611697929190612724565b60405180910390a15050565b60008060009054906101000a900473ffffffffffffffffffffffffffffffffffffffff169050816000806101000a81548173ffffffffffffffffffffffffffffffffffffffff021916908373ffffffffffffffffffffffffffffffffffffffff1602179055508173ffffffffffffffffffffffffffffffffffffffff168173ffffffffffffffffffffffffffffffffffffffff167f8be0079c531659141344cd1fd0a4f28419497f9722a3daafe3b4186f6b6457e060405160405180910390a35050565b60008134146117ad57346040517f9f7041200000000000000000000000000000000000000000000000000000000081526004016117a491906126dc565b60405180910390fd5b819050919050565b60007f000000000000000000000000000000000000000000000000000000000000000073ffffffffffffffffffffffffffffffffffffffff1663e4fe1d946040518163ffffffff1660e01b8152600401602060405180830381865afa158015611822573d6000803e3d6000fd5b505050506040513d601f19601f820116820180604052508101906118469190613194565b9050600073ffffffffffffffffffffffffffffffffffffffff168173ffffffffffffffffffffffffffffffffffffffff16036118ae576040517f5373352a00000000000000000000000000000000000000000000000000000000815260040160405180910390fd5b6118fb337f0000000000000000000000000000000000000000000000000000000000000000848473ffffffffffffffffffffffffffffffffffffffff16611907909392919063ffffffff16565b5050565b600033905090565b61198a846323b872dd60e01b858585604051602401611928939291906131c1565b604051602081830303815290604052907bffffffffffffffffffffffffffffffffffffffffffffffffffffffff19166020820180517bffffffffffffffffffffffffffffffffffffffffffffffffffffffff8381831617835250505050611990565b50505050565b60006119f2826040518060400160405280602081526020017f5361666545524332303a206c6f772d6c6576656c2063616c6c206661696c65648152508573ffffffffffffffffffffffffffffffffffffffff16611a589092919063ffffffff16565b9050600081511480611a14575080806020019051810190611a139190613224565b5b611a53576040517f08c379a0000000000000000000000000000000000000000000000000000000008152600401611a4a906132c3565b60405180910390fd5b505050565b6060611a678484600085611a70565b90509392505050565b606082471015611ab5576040517f08c379a0000000000000000000000000000000000000000000000000000000008152600401611aac90613355565b60405180910390fd5b6000808673ffffffffffffffffffffffffffffffffffffffff168587604051611ade91906133a6565b60006040518083038185875af1925050503d8060008114611b1b576040519150601f19603f3d011682016040523d82523d6000602084013e611b20565b606091505b5091509150611b3187838387611b3d565b92505050949350505050565b60608315611b9f576000835103611b9757611b5785611bb2565b611b96576040517f08c379a0000000000000000000000000000000000000000000000000000000008152600401611b8d90613409565b60405180910390fd5b5b829050611baa565b611ba98383611bd5565b5b949350505050565b6000808273ffffffffffffffffffffffffffffffffffffffff163b119050919050565b600082511115611be85781518083602001fd5b806040517f08c379a0000000000000000000000000000000000000000000000000000000008152600401611c1c9190613462565b60405180910390fd5b604051806040016040528060008152602001600081525090565b604051806060016040528060008019168152602001600067ffffffffffffffff168152602001611c6d611c25565b81525090565b600063ffffffff82169050919050565b611c8c81611c73565b82525050565b6000602082019050611ca76000830184611c83565b92915050565b6000604051905090565b600080fd5b600080fd5b600080fd5b600060608284031215611cdc57611cdb611cc1565b5b81905092915050565b6000819050919050565b611cf881611ce5565b8114611d0357600080fd5b50565b600081359050611d1581611cef565b92915050565b600080fd5b600080fd5b600080fd5b60008083601f840112611d4057611d3f611d1b565b5b8235905067ffffffffffffffff811115611d5d57611d5c611d20565b5b602083019150836001820283011115611d7957611d78611d25565b5b9250929050565b600073ffffffffffffffffffffffffffffffffffffffff82169050919050565b6000611dab82611d80565b9050919050565b611dbb81611da0565b8114611dc657600080fd5b50565b600081359050611dd881611db2565b92915050565b600080600080600080600060e0888a031215611dfd57611dfc611cb7565b5b6000611e0b8a828b01611cc6565b9750506060611e1c8a828b01611d06565b965050608088013567ffffffffffffffff811115611e3d57611e3c611cbc565b5b611e498a828b01611d2a565b955095505060a0611e5c8a828b01611dc9565b93505060c088013567ffffffffffffffff811115611e7d57611e7c611cbc565b5b611e898a828b01611d2a565b925092505092959891949750929550565b600067ffffffffffffffff82169050919050565b611eb781611e9a565b82525050565b6000604082019050611ed26000830185611eae565b611edf6020830184611eae565b9392505050565b600080fd5b6000601f19601f8301169050919050565b7f4e487b7100000000000000000000000000000000000000000000000000000000600052604160045260246000fd5b611f3482611eeb565b810181811067ffffffffffffffff82111715611f5357611f52611efc565b5b80604052505050565b6000611f66611cad565b9050611f728282611f2b565b919050565b600067ffffffffffffffff821115611f9257611f91611efc565b5b611f9b82611eeb565b9050602081019050919050565b82818337600083830152505050565b6000611fca611fc584611f77565b611f5c565b905082815260208101848484011115611fe657611fe5611ee6565b5b611ff1848285611fa8565b509392505050565b600082601f83011261200e5761200d611d1b565b5b813561201e848260208601611fb7565b91505092915050565b60006020828403121561203d5761203c611cb7565b5b600082013567ffffffffffffffff81111561205b5761205a611cbc565b5b61206784828501611ff9565b91505092915050565b61207981611c73565b811461208457600080fd5b50565b60008135905061209681612070565b92915050565b600080604083850312156120b3576120b2611cb7565b5b60006120c185828601612087565b92505060206120d285828601611d06565b9150509250929050565b6000819050919050565b6120ef816120dc565b82525050565b60408201600082015161210b60008501826120e6565b50602082015161211e60208501826120e6565b50505050565b600060408201905061213960008301846120f5565b92915050565b6000819050919050565b600061216461215f61215a84611d80565b61213f565b611d80565b9050919050565b600061217682612149565b9050919050565b60006121888261216b565b9050919050565b6121988161217d565b82525050565b60006020820190506121b3600083018461218f565b92915050565b6121c2816120dc565b81146121cd57600080fd5b50565b6000813590506121df816121b9565b92915050565b600080604083850312156121fc576121fb611cb7565b5b600061220a85828601611dc9565b925050602061221b858286016121d0565b9150509250929050565b600081519050919050565b600082825260208201905092915050565b60005b8381101561225f578082015181840152602081019050612244565b60008484015250505050565b600061227682612225565b6122808185612230565b9350612290818560208601612241565b61229981611eeb565b840191505092915050565b600060208201905081810360008301526122be818461226b565b905092915050565b60006020820190506122db6000830184611eae565b92915050565b60008060008060a085870312156122fb576122fa611cb7565b5b600061230987828801611cc6565b945050606085013567ffffffffffffffff81111561232a57612329611cbc565b5b61233687828801611d2a565b9350935050608061234987828801611dc9565b91505092959194509250565b60008115159050919050565b61236a81612355565b82525050565b60006020820190506123856000830184612361565b92915050565b61239481611da0565b82525050565b60006020820190506123af600083018461238b565b92915050565b6000602082840312156123cb576123ca611cb7565b5b60006123d984828501611dc9565b91505092915050565b600081519050919050565b600082825260208201905092915050565b6000819050602082019050919050565b600082825260208201905092915050565b600061242a82612225565b612434818561240e565b9350612444818560208601612241565b61244d81611eeb565b840191505092915050565b6000612464838361241f565b905092915050565b6000602082019050919050565b6000612484826123e2565b61248e81856123ed565b9350836020820285016124a0856123fe565b8060005b858110156124dc57848403895281516124bd8582612458565b94506124c88361246c565b925060208a019950506001810190506124a4565b50829750879550505050505092915050565b600060208201905081810360008301526125088184612479565b905092915050565b600081519050919050565b600082825260208201905092915050565b6000819050602082019050919050565b600081519050919050565b600082825260208201905092915050565b60006125638261253c565b61256d8185612547565b935061257d818560208601612241565b61258681611eeb565b840191505092915050565b600061259d8383612558565b905092915050565b6000602082019050919050565b60006125bd82612510565b6125c7818561251b565b9350836020820285016125d98561252c565b8060005b8581101561261557848403895281516125f68582612591565b9450612601836125a5565b925060208a019950506001810190506125dd565b50829750879550505050505092915050565b6000602082019050818103600083015261264181846125b2565b905092915050565b60006020828403121561265f5761265e611cb7565b5b600061266d84828501612087565b91505092915050565b61267f81611ce5565b82525050565b600060208201905061269a6000830184612676565b92915050565b6000602082840312156126b6576126b5611cb7565b5b60006126c4848285016121d0565b91505092915050565b6126d6816120dc565b82525050565b60006020820190506126f160008301846126cd565b92915050565b60006060828403121561270d5761270c611cb7565b5b600061271b84828501611cc6565b91505092915050565b60006040820190506127396000830185611c83565b6127466020830184612676565b9392505050565b600081905092915050565b60006127638261253c565b61276d818561274d565b935061277d818560208601612241565b80840191505092915050565b7f2c00000000000000000000000000000000000000000000000000000000000000600082015250565b60006127bf60018361274d565b91506127ca82612789565b600182019050919050565b60006127e18286612758565b91506127ec826127b2565b91506127f88285612758565b9150612803826127b2565b915061280f8284612758565b9150819050949350505050565b7f4e487b7100000000000000000000000000000000000000000000000000000000600052602260045260246000fd5b6000600282049050600182168061286357607f821691505b6020821081036128765761287561281c565b5b50919050565b60008190508160005260206000209050919050565b60006020601f8301049050919050565b600082821b905092915050565b6000600883026128de7fffffffffffffffffffffffffffffffffffffffffffffffffffffffffffffffff826128a1565b6128e886836128a1565b95508019841693508086168417925050509392505050565b600061291b612916612911846120dc565b61213f565b6120dc565b9050919050565b6000819050919050565b61293583612900565b61294961294182612922565b8484546128ae565b825550505050565b600090565b61295e612951565b61296981848461292c565b505050565b5b8181101561298d57612982600082612956565b60018101905061296f565b5050565b601f8211156129d2576129a38161287c565b6129ac84612891565b810160208510156129bb578190505b6129cf6129c785612891565b83018261296e565b50505b505050565b600082821c905092915050565b60006129f5600019846008026129d7565b1980831691505092915050565b6000612a0e83836129e4565b9150826002028217905092915050565b612a2782612225565b67ffffffffffffffff811115612a4057612a3f611efc565b5b612a4a825461284b565b612a55828285612991565b600060209050601f831160018114612a885760008415612a76578287015190505b612a808582612a02565b865550612ae8565b601f198416612a968661287c565b60005b82811015612abe57848901518255600182019150602085019450602081019050612a99565b86831015612adb5784890151612ad7601f8916826129e4565b8355505b6001600288020188555050505b505050505050565b6000606082019050612b05600083018661238b565b8181036020830152612b17818561226b565b9050612b2660408301846126cd565b949350505050565b600082825260208201905092915050565b7f496e73756666696369656e742066656500000000000000000000000000000000600082015250565b6000612b75601083612b2e565b9150612b8082612b3f565b602082019050919050565b60006020820190508181036000830152612ba481612b68565b9050919050565b600081905092915050565b50565b6000612bc6600083612bab565b9150612bd182612bb6565b600082019050919050565b6000612be782612bb9565b9150819050919050565b7f5472616e73666572206661696c65640000000000000000000000000000000000600082015250565b6000612c27600f83612b2e565b9150612c3282612bf1565b602082019050919050565b60006020820190508181036000830152612c5681612c1a565b9050919050565b7f4e487b7100000000000000000000000000000000000000000000000000000000600052603260045260246000fd5b7f4e487b7100000000000000000000000000000000000000000000000000000000600052601160045260246000fd5b6000612cc6826120dc565b91507fffffffffffffffffffffffffffffffffffffffffffffffffffffffffffffffff8203612cf857612cf7612c8c565b5b600182019050919050565b7f4f776e61626c653a206e6577206f776e657220697320746865207a65726f206160008201527f6464726573730000000000000000000000000000000000000000000000000000602082015250565b6000612d5f602683612b2e565b9150612d6a82612d03565b604082019050919050565b60006020820190508181036000830152612d8e81612d52565b9050919050565b6000612da0826120dc565b9150612dab836120dc565b9250828201905080821115612dc357612dc2612c8c565b5b92915050565b6000612dd4826120dc565b9150612ddf836120dc565b9250828202612ded816120dc565b91508282048414831517612e0457612e03612c8c565b5b5092915050565b7f4e487b7100000000000000000000000000000000000000000000000000000000600052601260045260246000fd5b6000612e45826120dc565b9150612e50836120dc565b925082612e6057612e5f612e0b565b5b828204905092915050565b6000612e76826120dc565b9150612e81836120dc565b9250828203905081811115612e9957612e98612c8c565b5b92915050565b6000612eaa826120dc565b9150612eb5836120dc565b925082612ec557612ec4612e0b565b5b828206905092915050565b612ed981611c73565b82525050565b612ee881611ce5565b82525050565b612ef781612355565b82525050565b600060a083016000830151612f156000860182612ed0565b506020830151612f286020860182612edf565b5060408301518482036040860152612f40828261241f565b91505060608301518482036060860152612f5a828261241f565b9150506080830151612f6f6080860182612eee565b508091505092915050565b60006040820190508181036000830152612f948185612efd565b9050612fa3602083018461238b565b9392505050565b600080fd5b600081519050612fbe816121b9565b92915050565b600060408284031215612fda57612fd9612faa565b5b612fe46040611f5c565b90506000612ff484828501612faf565b600083015250602061300884828501612faf565b60208301525092915050565b60006040828403121561302a57613029611cb7565b5b600061303884828501612fc4565b91505092915050565b60008151905061305081611cef565b92915050565b61305f81611e9a565b811461306a57600080fd5b50565b60008151905061307c81613056565b92915050565b60006080828403121561309857613097612faa565b5b6130a26060611f5c565b905060006130b284828501613041565b60008301525060206130c68482850161306d565b60208301525060406130da84828501612fc4565b60408301525092915050565b6000608082840312156130fc576130fb611cb7565b5b600061310a84828501613082565b91505092915050565b7f4f776e61626c653a2063616c6c6572206973206e6f7420746865206f776e6572600082015250565b6000613149602083612b2e565b915061315482613113565b602082019050919050565b600060208201905081810360008301526131788161313c565b9050919050565b60008151905061318e81611db2565b92915050565b6000602082840312156131aa576131a9611cb7565b5b60006131b88482850161317f565b91505092915050565b60006060820190506131d6600083018661238b565b6131e3602083018561238b565b6131f060408301846126cd565b949350505050565b61320181612355565b811461320c57600080fd5b50565b60008151905061321e816131f8565b92915050565b60006020828403121561323a57613239611cb7565b5b60006132488482850161320f565b91505092915050565b7f5361666545524332303a204552433230206f7065726174696f6e20646964206e60008201527f6f74207375636365656400000000000000000000000000000000000000000000602082015250565b60006132ad602a83612b2e565b91506132b882613251565b604082019050919050565b600060208201905081810360008301526132dc816132a0565b9050919050565b7f416464726573733a20696e73756666696369656e742062616c616e636520666f60008201527f722063616c6c0000000000000000000000000000000000000000000000000000602082015250565b600061333f602683612b2e565b915061334a826132e3565b604082019050919050565b6000602082019050818103600083015261336e81613332565b9050919050565b600061338082612225565b61338a8185612bab565b935061339a818560208601612241565b80840191505092915050565b60006133b28284613375565b915081905092915050565b7f416464726573733a2063616c6c20746f206e6f6e2d636f6e7472616374000000600082015250565b60006133f3601d83612b2e565b91506133fe826133bd565b602082019050919050565b60006020820190508181036000830152613422816133e6565b9050919050565b60006134348261253c565b61343e8185612b2e565b935061344e818560208601612241565b61345781611eeb565b840191505092915050565b6000602082019050818103600083015261347c8184613429565b90509291505056fea2646970667358221220d80d36658b908feb1849363821f5da3debfe6ffdae1e89299b3cbd74deba9d7564736f6c63430008140033",
  "linkReferences": {},
  "deployedLinkReferences": {}
}