{"contracts/OmnichainIdentityLinker.sol":{"OmnichainIdentityLinker":{"abi":[{"inputs":[{"internalType":"address","name":"_lzEndpoint","type":"address"},{"internalType":"address","name":"_delegate","type":"address"}],"stateMutability":"nonpayable","type":"constructor"},{"inputs":[],"name":"InvalidDelegate","type":"error"},{"inputs":[],"name":"InvalidEndpointCall","type":"error"},{"inputs":[],"name":"LzTokenUnavailable","type":"error"},{"inputs":[{"internalType":"uint32","name":"eid","type":"uint32"}],"name":"NoPeer","type":"error"},{"inputs":[{"internalType":"uint256","name":"msgValue","type":"uint256"}],"name":"NotEnoughNative","type":"error"},{"inputs":[{"internalType":"address","name":"addr","type":"address"}],"name":"OnlyEndpoint","type":"error"},{"inputs":[{"internalType":"uint32","name":"eid","type":"uint32"},{"internalType":"bytes32","name":"sender","type":"bytes32"}],"name":"OnlyPeer","type":"error"},{"anonymous":false,"inputs":[{"indexed":false,"internalType":"address","name":"evmAddress","type":"address"},{"indexed":false,"internalType":"bytes","name":"solanaAddress","type":"bytes"},{"indexed":false,"internalType":"uint256","name":"timestamp","type":"uint256"}],"name":"IdentityLinked","type":"event"},{"anonymous":false,"inputs":[{"indexed":true,"internalType":"address","name":"previousOwner","type":"address"},{"indexed":true,"internalType":"address","name":"newOwner","type":"address"}],"name":"OwnershipTransferred","type":"event"},{"anonymous":false,"inputs":[{"indexed":false,"internalType":"uint32","name":"eid","type":"uint32"},{"indexed":false,"internalType":"bytes32","name":"peer","type":"bytes32"}],"name":"PeerSet","type":"event"},{"inputs":[],"name":"SOLANA_CHAIN_ID","outputs":[{"internalType":"uint32","name":"","type":"uint32"}],"stateMutability":"view","type":"function"},{"inputs":[{"components":[{"internalType":"uint32","name":"srcEid","type":"uint32"},{"internalType":"bytes32","name":"sender","type":"bytes32"},{"internalType":"uint64","name":"nonce","type":"uint64"}],"internalType":"struct Origin","name":"origin","type":"tuple"}],"name":"allowInitializePath","outputs":[{"internalType":"bool","name":"","type":"bool"}],"stateMutability":"view","type":"function"},{"inputs":[],"name":"endpoint","outputs":[{"internalType":"contract ILayerZeroEndpointV2","name":"","type":"address"}],"stateMutability":"view","type":"function"},{"inputs":[],"name":"gasLimit","outputs":[{"internalType":"uint256","name":"","type":"uint256"}],"stateMutability":"view","type":"function"},{"inputs":[{"internalType":"address","name":"_evmAddress","type":"address"}],"name":"getLinkedAddresses","outputs":[{"internalType":"bytes[]","name":"","type":"bytes[]"}],"stateMutability":"view","type":"function"},{"inputs":[{"internalType":"address","name":"_evmAddress","type":"address"}],"name":"getLinkedAddressesAsStrings","outputs":[{"internalType":"string[]","name":"","type":"string[]"}],"stateMutability":"view","type":"function"},{"inputs":[{"components":[{"internalType":"uint32","name":"srcEid","type":"uint32"},{"internalType":"bytes32","name":"sender","type":"bytes32"},{"internalType":"uint64","name":"nonce","type":"uint64"}],"internalType":"struct Origin","name":"","type":"tuple"},{"internalType":"bytes","name":"","type":"bytes"},{"internalType":"address","name":"_sender","type":"address"}],"name":"isComposeMsgSender","outputs":[{"internalType":"bool","name":"","type":"bool"}],"stateMutability":"view","type":"function"},{"inputs":[{"internalType":"string","name":"_solanaAddress","type":"string"}],"name":"linkAddress","outputs":[],"stateMutability":"payable","type":"function"},{"inputs":[{"internalType":"address","name":"","type":"address"},{"internalType":"uint256","name":"","type":"uint256"}],"name":"linkedSolanaAddresses","outputs":[{"internalType":"bytes","name":"","type":"bytes"}],"stateMutability":"view","type":"function"},{"inputs":[{"components":[{"internalType":"uint32","name":"srcEid","type":"uint32"},{"internalType":"bytes32","name":"sender","type":"bytes32"},{"internalType":"uint64","name":"nonce","type":"uint64"}],"internalType":"struct Origin","name":"_origin","type":"tuple"},{"internalType":"bytes32","name":"_guid","type":"bytes32"},{"internalType":"bytes","name":"_message","type":"bytes"},{"internalType":"address","name":"_executor","type":"address"},{"internalType":"bytes","name":"_extraData","type":"bytes"}],"name":"lzReceive","outputs":[],"stateMutability":"payable","type":"function"},{"inputs":[{"internalType":"uint32","name":"","type":"uint32"},{"internalType":"bytes32","name":"","type":"bytes32"}],"name":"nextNonce","outputs":[{"internalType":"uint64","name":"nonce","type":"uint64"}],"stateMutability":"view","type":"function"},{"inputs":[],"name":"oAppVersion","outputs":[{"internalType":"uint64","name":"senderVersion","type":"uint64"},{"internalType":"uint64","name":"receiverVersion","type":"uint64"}],"stateMutability":"pure","type":"function"},{"inputs":[],"name":"owner","outputs":[{"internalType":"address","name":"","type":"address"}],"stateMutability":"view","type":"function"},{"inputs":[{"internalType":"uint32","name":"eid","type":"uint32"}],"name":"peers","outputs":[{"internalType":"bytes32","name":"peer","type":"bytes32"}],"stateMutability":"view","type":"function"},{"inputs":[{"internalType":"string","name":"_solanaAddress","type":"string"}],"name":"quoteLinkAddress","outputs":[{"internalType":"uint256","name":"","type":"uint256"}],"stateMutability":"view","type":"function"},{"inputs":[{"internalType":"string","name":"_solanaAddress","type":"string"}],"name":"quoteLinkFee","outputs":[{"components":[{"internalType":"uint256","name":"nativeFee","type":"uint256"},{"internalType":"uint256","name":"lzTokenFee","type":"uint256"}],"internalType":"struct MessagingFee","name":"fee","type":"tuple"}],"stateMutability":"view","type":"function"},{"inputs":[],"name":"renounceOwnership","outputs":[],"stateMutability":"nonpayable","type":"function"},{"inputs":[{"internalType":"address","name":"_delegate","type":"address"}],"name":"setDelegate","outputs":[],"stateMutability":"nonpayable","type":"function"},{"inputs":[{"internalType":"uint256","name":"_gasLimit","type":"uint256"}],"name":"setGasLimit","outputs":[],"stateMutability":"nonpayable","type":"function"},{"inputs":[{"internalType":"uint32","name":"_eid","type":"uint32"},{"internalType":"bytes32","name":"_peer","type":"bytes32"}],"name":"setPeer","outputs":[],"stateMutability":"nonpayable","type":"function"},{"inputs":[{"internalType":"address","name":"newOwner","type":"address"}],"name":"transferOwnership","outputs":[],"stateMutability":"nonpayable","type":"function"},{"inputs":[],"name":"withdraw","outputs":[],"stateMutability":"nonpayable","type":"function"}],"devdoc":{"details":"Contract for linking EVM addresses to Solana addresses via LayerZero V2 This contract sends messages from EVM chains to a Solana OApp","kind":"dev","methods":{"allowInitializePath((uint32,bytes32,uint64))":{"details":"This indicates to the endpoint that the OApp has enabled msgs for this particular path to be received.This defaults to assuming if a peer has been set, its initialized. Can be overridden by the OApp if there is other logic to determine this.","params":{"origin":"The origin information containing the source endpoint and sender address."},"returns":{"_0":"Whether the path has been initialized."}},"getLinkedAddresses(address)":{"details":"Get linked Solana addresses for an EVM address","params":{"_evmAddress":"The EVM address to check"},"returns":{"_0":"Array of linked Solana addresses as bytes"}},"getLinkedAddressesAsStrings(address)":{"details":"Get linked Solana addresses for an EVM address as strings","params":{"_evmAddress":"The EVM address to check"},"returns":{"_0":"Array of linked Solana addresses as strings"}},"isComposeMsgSender((uint32,bytes32,uint64),bytes,address)":{"details":"_origin The origin information containing the source endpoint and sender address.  - srcEid: The source chain endpoint ID.  - sender: The sender address on the src chain.  - nonce: The nonce of the message._message The lzReceive payload.Applications can optionally choose to implement separate composeMsg senders that are NOT the bridging layer.The default sender IS the OAppReceiver implementer.","params":{"_sender":"The sender address."},"returns":{"_0":"isSender Is a valid sender."}},"linkAddress(string)":{"details":"Link the sender's EVM address to a Solana address","params":{"_solanaAddress":"Solana address as string"}},"lzReceive((uint32,bytes32,uint64),bytes32,bytes,address,bytes)":{"details":"Entry point for receiving messages or packets from the endpoint.Entry point for receiving msg/packet from the LayerZero endpoint.","params":{"_executor":"The address of the executor for the received message.","_extraData":"Additional arbitrary data provided by the corresponding executor.","_guid":"The unique identifier for the received LayerZero message.","_message":"The payload of the received message.","_origin":"The origin information containing the source endpoint and sender address.  - srcEid: The source chain endpoint ID.  - sender: The sender address on the src chain.  - nonce: The nonce of the message."}},"nextNonce(uint32,bytes32)":{"details":"_srcEid The source endpoint ID._sender The sender address.The path nonce starts from 1. If 0 is returned it means that there is NO nonce ordered enforcement.Is required by the off-chain executor to determine the OApp expects msg execution is ordered.This is also enforced by the OApp.By default this is NOT enabled. ie. nextNonce is hardcoded to return 0.","returns":{"nonce":"The next nonce."}},"oAppVersion()":{"returns":{"receiverVersion":"The version of the OAppReceiver.sol implementation.","senderVersion":"The version of the OAppSender.sol implementation."}},"owner()":{"details":"Returns the address of the current owner."},"quoteLinkAddress(string)":{"details":"Quote the fee for linking an address","params":{"_solanaAddress":"Solana address as string"},"returns":{"_0":"Fee required for the cross-chain message"}},"quoteLinkFee(string)":{"details":"Quote the fee for sending a message to Solana","params":{"_solanaAddress":"The Solana address to link"},"returns":{"fee":"The estimated messaging fee"}},"renounceOwnership()":{"details":"Leaves the contract without owner. It will not be possible to call `onlyOwner` functions. Can only be called by the current owner. NOTE: Renouncing ownership will leave the contract without an owner, thereby disabling any functionality that is only available to the owner."},"setDelegate(address)":{"details":"Only the owner/admin of the OApp can call this function.Provides the ability for a delegate to set configs, on behalf of the OApp, directly on the Endpoint contract.","params":{"_delegate":"The address of the delegate to be set."}},"setGasLimit(uint256)":{"details":"Update the gas limit for cross-chain calls","params":{"_gasLimit":"New gas limit"}},"setPeer(uint32,bytes32)":{"details":"Only the owner/admin of the OApp can call this function.Indicates that the peer is trusted to send LayerZero messages to this OApp.Set this to bytes32(0) to remove the peer address.Peer is a bytes32 to accommodate non-evm chains.","params":{"_eid":"The endpoint ID.","_peer":"The address of the peer to be associated with the corresponding endpoint."}},"transferOwnership(address)":{"details":"Transfers ownership of the contract to a new account (`newOwner`). Can only be called by the current owner."},"withdraw()":{"details":"Withdraw any stuck funds (admin function)"}},"title":"OmnichainIdentityLinker","version":1},"evm":{"bytecode":{"linkReferences":{},"object":"60a060405262030d406002553480156200001857600080fd5b50604051620038ee380380620038ee83398181016040528101906200003e9190620002b0565b8181818162000062620000566200017a60201b60201c565b6200018260201b60201c565b8173ffffffffffffffffffffffffffffffffffffffff1660808173ffffffffffffffffffffffffffffffffffffffff1681525050600073ffffffffffffffffffffffffffffffffffffffff168173ffffffffffffffffffffffffffffffffffffffff1603620000fd576040517fb586360400000000000000000000000000000000000000000000000000000000815260040160405180910390fd5b60805173ffffffffffffffffffffffffffffffffffffffff1663ca5eb5e1826040518263ffffffff1660e01b81526004016200013a919062000308565b600060405180830381600087803b1580156200015557600080fd5b505af11580156200016a573d6000803e3d6000fd5b5050505050505050505062000325565b600033905090565b60008060009054906101000a900473ffffffffffffffffffffffffffffffffffffffff169050816000806101000a81548173ffffffffffffffffffffffffffffffffffffffff021916908373ffffffffffffffffffffffffffffffffffffffff1602179055508173ffffffffffffffffffffffffffffffffffffffff168173ffffffffffffffffffffffffffffffffffffffff167f8be0079c531659141344cd1fd0a4f28419497f9722a3daafe3b4186f6b6457e060405160405180910390a35050565b600080fd5b600073ffffffffffffffffffffffffffffffffffffffff82169050919050565b600062000278826200024b565b9050919050565b6200028a816200026b565b81146200029657600080fd5b50565b600081519050620002aa816200027f565b92915050565b60008060408385031215620002ca57620002c962000246565b5b6000620002da8582860162000299565b9250506020620002ed8582860162000299565b9150509250929050565b62000302816200026b565b82525050565b60006020820190506200031f6000830184620002f7565b92915050565b6080516135836200036b600039600081816105600152818161095c01528181610e3d01528181611498015281816115a701528181611882015261197d01526135836000f3fe6080604052600436106101355760003560e01c806382413eac116100ab578063bf3f3de91161006f578063bf3f3de914610421578063ca5eb5e11461045e578063ee7d72b414610487578063f2fde38b146104b0578063f68016b7146104d9578063ff7bd03d1461050457610135565b806382413eac146103025780638da5cb5b1461033f5780639541618c1461036a578063a6451163146103a7578063bb0b6a53146103e457610135565b80633ccfd60b116100fd5780633ccfd60b146101f257806356368126146102095780635e280f1114610246578063715018a6146102715780637954c58f146102885780637d25a05e146102c557610135565b8063067bd07a1461013a57806313137d651461016557806317442b7014610181578063306fed73146101ad5780633400288b146101c9575b600080fd5b34801561014657600080fd5b5061014f610541565b60405161015c9190611d5b565b60405180910390f35b61017f600480360381019061017a9190611ea7565b610547565b005b34801561018d57600080fd5b50610196610669565b6040516101a4929190611f86565b60405180910390f35b6101c760048036038101906101c291906120f0565b610678565b005b3480156101d557600080fd5b506101f060048036038101906101eb9190612165565b610808565b005b3480156101fe57600080fd5b5061020761081e565b005b34801561021557600080fd5b50610230600480360381019061022b91906120f0565b6108dc565b60405161023d91906121ed565b60405180910390f35b34801561025257600080fd5b5061025b61095a565b6040516102689190612267565b60405180910390f35b34801561027d57600080fd5b5061028661097e565b005b34801561029457600080fd5b506102af60048036038101906102aa91906122ae565b610992565b6040516102bc919061236d565b60405180910390f35b3480156102d157600080fd5b506102ec60048036038101906102e79190612165565b610a4b565b6040516102f9919061238f565b60405180910390f35b34801561030e57600080fd5b50610329600480360381019061032491906123aa565b610a53565b6040516103369190612439565b60405180910390f35b34801561034b57600080fd5b50610354610a8e565b6040516103619190612463565b60405180910390f35b34801561037657600080fd5b50610391600480360381019061038c919061247e565b610ab7565b60405161039e91906125b7565b60405180910390f35b3480156103b357600080fd5b506103ce60048036038101906103c9919061247e565b610bcf565b6040516103db91906126f0565b60405180910390f35b3480156103f057600080fd5b5061040b60048036038101906104069190612712565b610d9a565b604051610418919061274e565b60405180910390f35b34801561042d57600080fd5b50610448600480360381019061044391906120f0565b610db2565b6040516104559190612778565b60405180910390f35b34801561046a57600080fd5b506104856004803603810190610480919061247e565b610e33565b005b34801561049357600080fd5b506104ae60048036038101906104a99190612793565b610ec9565b005b3480156104bc57600080fd5b506104d760048036038101906104d2919061247e565b610edb565b005b3480156104e557600080fd5b506104ee610f5e565b6040516104fb9190612778565b60405180910390f35b34801561051057600080fd5b5061052b600480360381019061052691906127c0565b610f64565b6040516105389190612439565b60405180910390f35b619ce881565b3373ffffffffffffffffffffffffffffffffffffffff167f000000000000000000000000000000000000000000000000000000000000000073ffffffffffffffffffffffffffffffffffffffff16146105d757336040517f91ac5e4f0000000000000000000000000000000000000000000000000000000081526004016105ce9190612463565b60405180910390fd5b86602001356105f78860000160208101906105f29190612712565b610fa5565b146106515786600001602081019061060f9190612712565b87602001356040517fc26bebcc0000000000000000000000000000000000000000000000000000000081526004016106489291906127ed565b60405180910390fd5b6106608787878787878761101a565b50505050505050565b60008060016002915091509091565b600061068333611023565b905060006106904261132e565b905060008284836040516020016106a99392919061289e565b60405160208183030381529060405290506000819050600360003373ffffffffffffffffffffffffffffffffffffffff1673ffffffffffffffffffffffffffffffffffffffff168152602001908152602001600020859080600181540180825580915050600190039060005260206000200160009091909190915090816107309190612ae7565b507f15b1a221748794744cd2960e23ab851c4e6b2b22fbabe81f3404e15eebf0af1633864260405161076493929190612bb9565b60405180910390a160006040518060200160405280600081525090506000610791619ce88484600061148e565b905080600001513410156107da576040517f08c379a00000000000000000000000000000000000000000000000000000000081526004016107d190612c54565b60405180910390fd5b6107fe619ce884846040518060400160405280348152602001600081525033611571565b5050505050505050565b61081061168d565b61081a828261170b565b5050565b61082661168d565b6000610830610a8e565b73ffffffffffffffffffffffffffffffffffffffff164760405161085390612ca5565b60006040518083038185875af1925050503d8060008114610890576040519150601f19603f3d011682016040523d82523d6000602084013e610895565b606091505b50509050806108d9576040517f08c379a00000000000000000000000000000000000000000000000000000000081526004016108d090612d06565b60405180910390fd5b50565b6108e4611cee565b60006108ef33611023565b905060006108fc4261132e565b905060008285836040516020016109159392919061289e565b60405160208183030381529060405290506000819050600060405180602001604052806000815250905061094e619ce88383600061148e565b95505050505050919050565b7f000000000000000000000000000000000000000000000000000000000000000081565b61098661168d565b610990600061176c565b565b600360205281600052604060002081815481106109ae57600080fd5b906000526020600020016000915091505080546109ca90612914565b80601f01602080910402602001604051908101604052809291908181526020018280546109f690612914565b8015610a435780601f10610a1857610100808354040283529160200191610a43565b820191906000526020600020905b815481529060010190602001808311610a2657829003601f168201915b505050505081565b600092915050565b60003073ffffffffffffffffffffffffffffffffffffffff168273ffffffffffffffffffffffffffffffffffffffff16149050949350505050565b60008060009054906101000a900473ffffffffffffffffffffffffffffffffffffffff16905090565b6060600360008373ffffffffffffffffffffffffffffffffffffffff1673ffffffffffffffffffffffffffffffffffffffff168152602001908152602001600020805480602002602001604051908101604052809291908181526020016000905b82821015610bc4578382906000526020600020018054610b3790612914565b80601f0160208091040260200160405190810160405280929190818152602001828054610b6390612914565b8015610bb05780601f10610b8557610100808354040283529160200191610bb0565b820191906000526020600020905b815481529060010190602001808311610b9357829003601f168201915b505050505081526020019060010190610b18565b505050509050919050565b60606000600360008473ffffffffffffffffffffffffffffffffffffffff1673ffffffffffffffffffffffffffffffffffffffff168152602001908152602001600020805480602002602001604051908101604052809291908181526020016000905b82821015610cde578382906000526020600020018054610c5190612914565b80601f0160208091040260200160405190810160405280929190818152602001828054610c7d90612914565b8015610cca5780601f10610c9f57610100808354040283529160200191610cca565b820191906000526020600020905b815481529060010190602001808311610cad57829003601f168201915b505050505081526020019060010190610c32565b5050505090506000815167ffffffffffffffff811115610d0157610d00611fc5565b5b604051908082528060200260200182016040528015610d3457816020015b6060815260200190600190039081610d1f5790505b50905060005b8251811015610d8f57828181518110610d5657610d55612d26565b5b6020026020010151828281518110610d7157610d70612d26565b5b60200260200101819052508080610d8790612d84565b915050610d3a565b508092505050919050565b60016020528060005260406000206000915090505481565b600080610dbe33611023565b90506000610dcb4261132e565b90506000828583604051602001610de49392919061289e565b6040516020818303038152906040529050600081905060006040518060200160405280600081525090506000610e1f619ce88484600061148e565b905080600001519650505050505050919050565b610e3b61168d565b7f000000000000000000000000000000000000000000000000000000000000000073ffffffffffffffffffffffffffffffffffffffff1663ca5eb5e1826040518263ffffffff1660e01b8152600401610e949190612463565b600060405180830381600087803b158015610eae57600080fd5b505af1158015610ec2573d6000803e3d6000fd5b5050505050565b610ed161168d565b8060028190555050565b610ee361168d565b600073ffffffffffffffffffffffffffffffffffffffff168173ffffffffffffffffffffffffffffffffffffffff1603610f52576040517f08c379a0000000000000000000000000000000000000000000000000000000008152600401610f4990612e3e565b60405180910390fd5b610f5b8161176c565b50565b60025481565b6000816020013560016000846000016020810190610f829190612712565b63ffffffff1663ffffffff16815260200190815260200160002054149050919050565b600080600160008463ffffffff1663ffffffff1681526020019081526020016000205490506000801b810361101157826040517ff6ff4fb70000000000000000000000000000000000000000000000000000000081526004016110089190611d5b565b60405180910390fd5b80915050919050565b50505050505050565b606060008273ffffffffffffffffffffffffffffffffffffffff1660001b905060006040518060400160405280601081526020017f303132333435363738396162636465660000000000000000000000000000000081525090506000602a67ffffffffffffffff81111561109a57611099611fc5565b5b6040519080825280601f01601f1916602001820160405280156110cc5781602001600182028036833780820191505090505b5090507f30000000000000000000000000000000000000000000000000000000000000008160008151811061110457611103612d26565b5b60200101907effffffffffffffffffffffffffffffffffffffffffffffffffffffffffffff1916908160001a9053507f78000000000000000000000000000000000000000000000000000000000000008160018151811061116857611167612d26565b5b60200101907effffffffffffffffffffffffffffffffffffffffffffffffffffffffffffff1916908160001a90535060005b60148110156113225782600485600c846111b49190612e5e565b602081106111c5576111c4612d26565b5b1a60f81b7effffffffffffffffffffffffffffffffffffffffffffffffffffffffffffff1916901c60f81c60ff168151811061120457611203612d26565b5b602001015160f81c60f81b8260028361121d9190612e92565b60026112299190612e5e565b8151811061123a57611239612d26565b5b60200101907effffffffffffffffffffffffffffffffffffffffffffffffffffffffffffff1916908160001a90535082600f60f81b85600c8461127d9190612e5e565b6020811061128e5761128d612d26565b5b1a60f81b1660f81c60ff16815181106112aa576112a9612d26565b5b602001015160f81c60f81b826002836112c39190612e92565b60036112cf9190612e5e565b815181106112e0576112df612d26565b5b60200101907effffffffffffffffffffffffffffffffffffffffffffffffffffffffffffff1916908160001a905350808061131a90612d84565b91505061119a565b50809350505050919050565b606060008203611375576040518060400160405280600181526020017f30000000000000000000000000000000000000000000000000000000000000008152509050611489565b600082905060005b600082146113a757808061139090612d84565b915050600a826113a09190612f03565b915061137d565b60008167ffffffffffffffff8111156113c3576113c2611fc5565b5b6040519080825280601f01601f1916602001820160405280156113f55781602001600182028036833780820191505090505b5090505b600085146114825760018261140e9190612f34565b9150600a8561141d9190612f68565b60306114299190612e5e565b60f81b81838151811061143f5761143e612d26565b5b60200101907effffffffffffffffffffffffffffffffffffffffffffffffffffffffffffff1916908160001a905350600a8561147b9190612f03565b94506113f9565b8093505050505b919050565b611496611cee565b7f000000000000000000000000000000000000000000000000000000000000000073ffffffffffffffffffffffffffffffffffffffff1663ddc28c586040518060a001604052808863ffffffff1681526020016114f289610fa5565b8152602001878152602001868152602001851515815250306040518363ffffffff1660e01b8152600401611527929190613043565b6040805180830381865afa158015611543573d6000803e3d6000fd5b505050506040513d601f19601f8201168201806040525081019061156791906130dd565b9050949350505050565b611579611d08565b60006115888460000151611830565b90506000846020015111156115a5576115a4846020015161187e565b5b7f000000000000000000000000000000000000000000000000000000000000000073ffffffffffffffffffffffffffffffffffffffff16632637a450826040518060a001604052808b63ffffffff1681526020016116028c610fa5565b81526020018a815260200189815260200160008960200151111515815250866040518463ffffffff1660e01b815260040161163e929190613043565b60806040518083038185885af115801561165c573d6000803e3d6000fd5b50505050506040513d601f19601f8201168201806040525081019061168191906131af565b91505095945050505050565b6116956119c8565b73ffffffffffffffffffffffffffffffffffffffff166116b3610a8e565b73ffffffffffffffffffffffffffffffffffffffff1614611709576040517f08c379a000000000000000000000000000000000000000000000000000000000815260040161170090613228565b60405180910390fd5b565b80600160008463ffffffff1663ffffffff168152602001908152602001600020819055507f238399d427b947898edb290f5ff0f9109849b1c3ba196a42e35f00c50a54b98b82826040516117609291906127ed565b60405180910390a15050565b60008060009054906101000a900473ffffffffffffffffffffffffffffffffffffffff169050816000806101000a81548173ffffffffffffffffffffffffffffffffffffffff021916908373ffffffffffffffffffffffffffffffffffffffff1602179055508173ffffffffffffffffffffffffffffffffffffffff168173ffffffffffffffffffffffffffffffffffffffff167f8be0079c531659141344cd1fd0a4f28419497f9722a3daafe3b4186f6b6457e060405160405180910390a35050565b600081341461187657346040517f9f70412000000000000000000000000000000000000000000000000000000000815260040161186d9190612778565b60405180910390fd5b819050919050565b60007f000000000000000000000000000000000000000000000000000000000000000073ffffffffffffffffffffffffffffffffffffffff1663e4fe1d946040518163ffffffff1660e01b8152600401602060405180830381865afa1580156118eb573d6000803e3d6000fd5b505050506040513d601f19601f8201168201806040525081019061190f919061325d565b9050600073ffffffffffffffffffffffffffffffffffffffff168173ffffffffffffffffffffffffffffffffffffffff1603611977576040517f5373352a00000000000000000000000000000000000000000000000000000000815260040160405180910390fd5b6119c4337f0000000000000000000000000000000000000000000000000000000000000000848473ffffffffffffffffffffffffffffffffffffffff166119d0909392919063ffffffff16565b5050565b600033905090565b611a53846323b872dd60e01b8585856040516024016119f19392919061328a565b604051602081830303815290604052907bffffffffffffffffffffffffffffffffffffffffffffffffffffffff19166020820180517bffffffffffffffffffffffffffffffffffffffffffffffffffffffff8381831617835250505050611a59565b50505050565b6000611abb826040518060400160405280602081526020017f5361666545524332303a206c6f772d6c6576656c2063616c6c206661696c65648152508573ffffffffffffffffffffffffffffffffffffffff16611b219092919063ffffffff16565b9050600081511480611add575080806020019051810190611adc91906132ed565b5b611b1c576040517f08c379a0000000000000000000000000000000000000000000000000000000008152600401611b139061338c565b60405180910390fd5b505050565b6060611b308484600085611b39565b90509392505050565b606082471015611b7e576040517f08c379a0000000000000000000000000000000000000000000000000000000008152600401611b759061341e565b60405180910390fd5b6000808673ffffffffffffffffffffffffffffffffffffffff168587604051611ba7919061346f565b60006040518083038185875af1925050503d8060008114611be4576040519150601f19603f3d011682016040523d82523d6000602084013e611be9565b606091505b5091509150611bfa87838387611c06565b92505050949350505050565b60608315611c68576000835103611c6057611c2085611c7b565b611c5f576040517f08c379a0000000000000000000000000000000000000000000000000000000008152600401611c56906134d2565b60405180910390fd5b5b829050611c73565b611c728383611c9e565b5b949350505050565b6000808273ffffffffffffffffffffffffffffffffffffffff163b119050919050565b600082511115611cb15781518083602001fd5b806040517f08c379a0000000000000000000000000000000000000000000000000000000008152600401611ce5919061352b565b60405180910390fd5b604051806040016040528060008152602001600081525090565b604051806060016040528060008019168152602001600067ffffffffffffffff168152602001611d36611cee565b81525090565b600063ffffffff82169050919050565b611d5581611d3c565b82525050565b6000602082019050611d706000830184611d4c565b92915050565b6000604051905090565b600080fd5b600080fd5b600080fd5b600060608284031215611da557611da4611d8a565b5b81905092915050565b6000819050919050565b611dc181611dae565b8114611dcc57600080fd5b50565b600081359050611dde81611db8565b92915050565b600080fd5b600080fd5b600080fd5b60008083601f840112611e0957611e08611de4565b5b8235905067ffffffffffffffff811115611e2657611e25611de9565b5b602083019150836001820283011115611e4257611e41611dee565b5b9250929050565b600073ffffffffffffffffffffffffffffffffffffffff82169050919050565b6000611e7482611e49565b9050919050565b611e8481611e69565b8114611e8f57600080fd5b50565b600081359050611ea181611e7b565b92915050565b600080600080600080600060e0888a031215611ec657611ec5611d80565b5b6000611ed48a828b01611d8f565b9750506060611ee58a828b01611dcf565b965050608088013567ffffffffffffffff811115611f0657611f05611d85565b5b611f128a828b01611df3565b955095505060a0611f258a828b01611e92565b93505060c088013567ffffffffffffffff811115611f4657611f45611d85565b5b611f528a828b01611df3565b925092505092959891949750929550565b600067ffffffffffffffff82169050919050565b611f8081611f63565b82525050565b6000604082019050611f9b6000830185611f77565b611fa86020830184611f77565b9392505050565b600080fd5b6000601f19601f8301169050919050565b7f4e487b7100000000000000000000000000000000000000000000000000000000600052604160045260246000fd5b611ffd82611fb4565b810181811067ffffffffffffffff8211171561201c5761201b611fc5565b5b80604052505050565b600061202f611d76565b905061203b8282611ff4565b919050565b600067ffffffffffffffff82111561205b5761205a611fc5565b5b61206482611fb4565b9050602081019050919050565b82818337600083830152505050565b600061209361208e84612040565b612025565b9050828152602081018484840111156120af576120ae611faf565b5b6120ba848285612071565b509392505050565b600082601f8301126120d7576120d6611de4565b5b81356120e7848260208601612080565b91505092915050565b60006020828403121561210657612105611d80565b5b600082013567ffffffffffffffff81111561212457612123611d85565b5b612130848285016120c2565b91505092915050565b61214281611d3c565b811461214d57600080fd5b50565b60008135905061215f81612139565b92915050565b6000806040838503121561217c5761217b611d80565b5b600061218a85828601612150565b925050602061219b85828601611dcf565b9150509250929050565b6000819050919050565b6121b8816121a5565b82525050565b6040820160008201516121d460008501826121af565b5060208201516121e760208501826121af565b50505050565b600060408201905061220260008301846121be565b92915050565b6000819050919050565b600061222d61222861222384611e49565b612208565b611e49565b9050919050565b600061223f82612212565b9050919050565b600061225182612234565b9050919050565b61226181612246565b82525050565b600060208201905061227c6000830184612258565b92915050565b61228b816121a5565b811461229657600080fd5b50565b6000813590506122a881612282565b92915050565b600080604083850312156122c5576122c4611d80565b5b60006122d385828601611e92565b92505060206122e485828601612299565b9150509250929050565b600081519050919050565b600082825260208201905092915050565b60005b8381101561232857808201518184015260208101905061230d565b60008484015250505050565b600061233f826122ee565b61234981856122f9565b935061235981856020860161230a565b61236281611fb4565b840191505092915050565b600060208201905081810360008301526123878184612334565b905092915050565b60006020820190506123a46000830184611f77565b92915050565b60008060008060a085870312156123c4576123c3611d80565b5b60006123d287828801611d8f565b945050606085013567ffffffffffffffff8111156123f3576123f2611d85565b5b6123ff87828801611df3565b9350935050608061241287828801611e92565b91505092959194509250565b60008115159050919050565b6124338161241e565b82525050565b600060208201905061244e600083018461242a565b92915050565b61245d81611e69565b82525050565b60006020820190506124786000830184612454565b92915050565b60006020828403121561249457612493611d80565b5b60006124a284828501611e92565b91505092915050565b600081519050919050565b600082825260208201905092915050565b6000819050602082019050919050565b600082825260208201905092915050565b60006124f3826122ee565b6124fd81856124d7565b935061250d81856020860161230a565b61251681611fb4565b840191505092915050565b600061252d83836124e8565b905092915050565b6000602082019050919050565b600061254d826124ab565b61255781856124b6565b935083602082028501612569856124c7565b8060005b858110156125a557848403895281516125868582612521565b945061259183612535565b925060208a0199505060018101905061256d565b50829750879550505050505092915050565b600060208201905081810360008301526125d18184612542565b905092915050565b600081519050919050565b600082825260208201905092915050565b6000819050602082019050919050565b600081519050919050565b600082825260208201905092915050565b600061262c82612605565b6126368185612610565b935061264681856020860161230a565b61264f81611fb4565b840191505092915050565b60006126668383612621565b905092915050565b6000602082019050919050565b6000612686826125d9565b61269081856125e4565b9350836020820285016126a2856125f5565b8060005b858110156126de57848403895281516126bf858261265a565b94506126ca8361266e565b925060208a019950506001810190506126a6565b50829750879550505050505092915050565b6000602082019050818103600083015261270a818461267b565b905092915050565b60006020828403121561272857612727611d80565b5b600061273684828501612150565b91505092915050565b61274881611dae565b82525050565b6000602082019050612763600083018461273f565b92915050565b612772816121a5565b82525050565b600060208201905061278d6000830184612769565b92915050565b6000602082840312156127a9576127a8611d80565b5b60006127b784828501612299565b91505092915050565b6000606082840312156127d6576127d5611d80565b5b60006127e484828501611d8f565b91505092915050565b60006040820190506128026000830185611d4c565b61280f602083018461273f565b9392505050565b600081905092915050565b600061282c82612605565b6128368185612816565b935061284681856020860161230a565b80840191505092915050565b7f2c00000000000000000000000000000000000000000000000000000000000000600082015250565b6000612888600183612816565b915061289382612852565b600182019050919050565b60006128aa8286612821565b91506128b58261287b565b91506128c18285612821565b91506128cc8261287b565b91506128d88284612821565b9150819050949350505050565b7f4e487b7100000000000000000000000000000000000000000000000000000000600052602260045260246000fd5b6000600282049050600182168061292c57607f821691505b60208210810361293f5761293e6128e5565b5b50919050565b60008190508160005260206000209050919050565b60006020601f8301049050919050565b600082821b905092915050565b6000600883026129a77fffffffffffffffffffffffffffffffffffffffffffffffffffffffffffffffff8261296a565b6129b1868361296a565b95508019841693508086168417925050509392505050565b60006129e46129df6129da846121a5565b612208565b6121a5565b9050919050565b6000819050919050565b6129fe836129c9565b612a12612a0a826129eb565b848454612977565b825550505050565b600090565b612a27612a1a565b612a328184846129f5565b505050565b5b81811015612a5657612a4b600082612a1f565b600181019050612a38565b5050565b601f821115612a9b57612a6c81612945565b612a758461295a565b81016020851015612a84578190505b612a98612a908561295a565b830182612a37565b50505b505050565b600082821c905092915050565b6000612abe60001984600802612aa0565b1980831691505092915050565b6000612ad78383612aad565b9150826002028217905092915050565b612af0826122ee565b67ffffffffffffffff811115612b0957612b08611fc5565b5b612b138254612914565b612b1e828285612a5a565b600060209050601f831160018114612b515760008415612b3f578287015190505b612b498582612acb565b865550612bb1565b601f198416612b5f86612945565b60005b82811015612b8757848901518255600182019150602085019450602081019050612b62565b86831015612ba45784890151612ba0601f891682612aad565b8355505b6001600288020188555050505b505050505050565b6000606082019050612bce6000830186612454565b8181036020830152612be08185612334565b9050612bef6040830184612769565b949350505050565b600082825260208201905092915050565b7f496e73756666696369656e742066656500000000000000000000000000000000600082015250565b6000612c3e601083612bf7565b9150612c4982612c08565b602082019050919050565b60006020820190508181036000830152612c6d81612c31565b9050919050565b600081905092915050565b50565b6000612c8f600083612c74565b9150612c9a82612c7f565b600082019050919050565b6000612cb082612c82565b9150819050919050565b7f5472616e73666572206661696c65640000000000000000000000000000000000600082015250565b6000612cf0600f83612bf7565b9150612cfb82612cba565b602082019050919050565b60006020820190508181036000830152612d1f81612ce3565b9050919050565b7f4e487b7100000000000000000000000000000000000000000000000000000000600052603260045260246000fd5b7f4e487b7100000000000000000000000000000000000000000000000000000000600052601160045260246000fd5b6000612d8f826121a5565b91507fffffffffffffffffffffffffffffffffffffffffffffffffffffffffffffffff8203612dc157612dc0612d55565b5b600182019050919050565b7f4f776e61626c653a206e6577206f776e657220697320746865207a65726f206160008201527f6464726573730000000000000000000000000000000000000000000000000000602082015250565b6000612e28602683612bf7565b9150612e3382612dcc565b604082019050919050565b60006020820190508181036000830152612e5781612e1b565b9050919050565b6000612e69826121a5565b9150612e74836121a5565b9250828201905080821115612e8c57612e8b612d55565b5b92915050565b6000612e9d826121a5565b9150612ea8836121a5565b9250828202612eb6816121a5565b91508282048414831517612ecd57612ecc612d55565b5b5092915050565b7f4e487b7100000000000000000000000000000000000000000000000000000000600052601260045260246000fd5b6000612f0e826121a5565b9150612f19836121a5565b925082612f2957612f28612ed4565b5b828204905092915050565b6000612f3f826121a5565b9150612f4a836121a5565b9250828203905081811115612f6257612f61612d55565b5b92915050565b6000612f73826121a5565b9150612f7e836121a5565b925082612f8e57612f8d612ed4565b5b828206905092915050565b612fa281611d3c565b82525050565b612fb181611dae565b82525050565b612fc08161241e565b82525050565b600060a083016000830151612fde6000860182612f99565b506020830151612ff16020860182612fa8565b506040830151848203604086015261300982826124e8565b9150506060830151848203606086015261302382826124e8565b91505060808301516130386080860182612fb7565b508091505092915050565b6000604082019050818103600083015261305d8185612fc6565b905061306c6020830184612454565b9392505050565b600080fd5b60008151905061308781612282565b92915050565b6000604082840312156130a3576130a2613073565b5b6130ad6040612025565b905060006130bd84828501613078565b60008301525060206130d184828501613078565b60208301525092915050565b6000604082840312156130f3576130f2611d80565b5b60006131018482850161308d565b91505092915050565b60008151905061311981611db8565b92915050565b61312881611f63565b811461313357600080fd5b50565b6000815190506131458161311f565b92915050565b60006080828403121561316157613160613073565b5b61316b6060612025565b9050600061317b8482850161310a565b600083015250602061318f84828501613136565b60208301525060406131a38482850161308d565b60408301525092915050565b6000608082840312156131c5576131c4611d80565b5b60006131d38482850161314b565b91505092915050565b7f4f776e61626c653a2063616c6c6572206973206e6f7420746865206f776e6572600082015250565b6000613212602083612bf7565b915061321d826131dc565b602082019050919050565b6000602082019050818103600083015261324181613205565b9050919050565b60008151905061325781611e7b565b92915050565b60006020828403121561327357613272611d80565b5b600061328184828501613248565b91505092915050565b600060608201905061329f6000830186612454565b6132ac6020830185612454565b6132b96040830184612769565b949350505050565b6132ca8161241e565b81146132d557600080fd5b50565b6000815190506132e7816132c1565b92915050565b60006020828403121561330357613302611d80565b5b6000613311848285016132d8565b91505092915050565b7f5361666545524332303a204552433230206f7065726174696f6e20646964206e60008201527f6f74207375636365656400000000000000000000000000000000000000000000602082015250565b6000613376602a83612bf7565b91506133818261331a565b604082019050919050565b600060208201905081810360008301526133a581613369565b9050919050565b7f416464726573733a20696e73756666696369656e742062616c616e636520666f60008201527f722063616c6c0000000000000000000000000000000000000000000000000000602082015250565b6000613408602683612bf7565b9150613413826133ac565b604082019050919050565b60006020820190508181036000830152613437816133fb565b9050919050565b6000613449826122ee565b6134538185612c74565b935061346381856020860161230a565b80840191505092915050565b600061347b828461343e565b915081905092915050565b7f416464726573733a2063616c6c20746f206e6f6e2d636f6e7472616374000000600082015250565b60006134bc601d83612bf7565b91506134c782613486565b602082019050919050565b600060208201905081810360008301526134eb816134af565b9050919050565b60006134fd82612605565b6135078185612bf7565b935061351781856020860161230a565b61352081611fb4565b840191505092915050565b6000602082019050818103600083015261354581846134f2565b90509291505056fea2646970667358221220bc08015208c347a2def374e4a6062ab7ca70869e11aadbfd65f401e0bd98cd4864736f6c63430008140033","opcodes":"PUSH1 0xA0 PUSH1 0x40 MSTORE PUSH3 0x30D40 PUSH1 0x2 SSTORE CALLVALUE DUP1 ISZERO PUSH3 0x18 JUMPI PUSH1 0x0 DUP1 REVERT JUMPDEST POP PUSH1 0x40 MLOAD PUSH3 0x38EE CODESIZE SUB DUP1 PUSH3 0x38EE DUP4 CODECOPY DUP2 DUP2 ADD PUSH1 0x40 MSTORE DUP2 ADD SWAP1 PUSH3 0x3E SWAP2 SWAP1 PUSH3 0x2B0 JUMP JUMPDEST DUP2 DUP2 DUP2 DUP2 PUSH3 0x62 PUSH3 0x56 PUSH3 0x17A PUSH1 0x20 SHL PUSH1 0x20 SHR JUMP JUMPDEST PUSH3 0x182 PUSH1 0x20 SHL PUSH1 0x20 SHR JUMP JUMPDEST DUP2 PUSH20 0xFFFFFFFFFFFFFFFFFFFFFFFFFFFFFFFFFFFFFFFF AND PUSH1 0x80 DUP2 PUSH20 0xFFFFFFFFFFFFFFFFFFFFFFFFFFFFFFFFFFFFFFFF AND DUP2 MSTORE POP POP PUSH1 0x0 PUSH20 0xFFFFFFFFFFFFFFFFFFFFFFFFFFFFFFFFFFFFFFFF AND DUP2 PUSH20 0xFFFFFFFFFFFFFFFFFFFFFFFFFFFFFFFFFFFFFFFF AND SUB PUSH3 0xFD JUMPI PUSH1 0x40 MLOAD PUSH32 0xB586360400000000000000000000000000000000000000000000000000000000 DUP2 MSTORE PUSH1 0x4 ADD PUSH1 0x40 MLOAD DUP1 SWAP2 SUB SWAP1 REVERT JUMPDEST PUSH1 0x80 MLOAD PUSH20 0xFFFFFFFFFFFFFFFFFFFFFFFFFFFFFFFFFFFFFFFF AND PUSH4 0xCA5EB5E1 DUP3 PUSH1 0x40 MLOAD DUP3 PUSH4 0xFFFFFFFF AND PUSH1 0xE0 SHL DUP2 MSTORE PUSH1 0x4 ADD PUSH3 0x13A SWAP2 SWAP1 PUSH3 0x308 JUMP JUMPDEST PUSH1 0x0 PUSH1 0x40 MLOAD DUP1 DUP4 SUB DUP2 PUSH1 0x0 DUP8 DUP1 EXTCODESIZE ISZERO DUP1 ISZERO PUSH3 0x155 JUMPI PUSH1 0x0 DUP1 REVERT JUMPDEST POP GAS CALL ISZERO DUP1 ISZERO PUSH3 0x16A JUMPI RETURNDATASIZE PUSH1 0x0 DUP1 RETURNDATACOPY RETURNDATASIZE PUSH1 0x0 REVERT JUMPDEST POP POP POP POP POP POP POP POP POP POP PUSH3 0x325 JUMP JUMPDEST PUSH1 0x0 CALLER SWAP1 POP SWAP1 JUMP JUMPDEST PUSH1 0x0 DUP1 PUSH1 0x0 SWAP1 SLOAD SWAP1 PUSH2 0x100 EXP SWAP1 DIV PUSH20 0xFFFFFFFFFFFFFFFFFFFFFFFFFFFFFFFFFFFFFFFF AND SWAP1 POP DUP2 PUSH1 0x0 DUP1 PUSH2 0x100 EXP DUP2 SLOAD DUP2 PUSH20 0xFFFFFFFFFFFFFFFFFFFFFFFFFFFFFFFFFFFFFFFF MUL NOT AND SWAP1 DUP4 PUSH20 0xFFFFFFFFFFFFFFFFFFFFFFFFFFFFFFFFFFFFFFFF AND MUL OR SWAP1 SSTORE POP DUP2 PUSH20 0xFFFFFFFFFFFFFFFFFFFFFFFFFFFFFFFFFFFFFFFF AND DUP2 PUSH20 0xFFFFFFFFFFFFFFFFFFFFFFFFFFFFFFFFFFFFFFFF AND PUSH32 0x8BE0079C531659141344CD1FD0A4F28419497F9722A3DAAFE3B4186F6B6457E0 PUSH1 0x40 MLOAD PUSH1 0x40 MLOAD DUP1 SWAP2 SUB SWAP1 LOG3 POP POP JUMP JUMPDEST PUSH1 0x0 DUP1 REVERT JUMPDEST PUSH1 0x0 PUSH20 0xFFFFFFFFFFFFFFFFFFFFFFFFFFFFFFFFFFFFFFFF DUP3 AND SWAP1 POP SWAP2 SWAP1 POP JUMP JUMPDEST PUSH1 0x0 PUSH3 0x278 DUP3 PUSH3 0x24B JUMP JUMPDEST SWAP1 POP SWAP2 SWAP1 POP JUMP JUMPDEST PUSH3 0x28A DUP2 PUSH3 0x26B JUMP JUMPDEST DUP2 EQ PUSH3 0x296 JUMPI PUSH1 0x0 DUP1 REVERT JUMPDEST POP JUMP JUMPDEST PUSH1 0x0 DUP2 MLOAD SWAP1 POP PUSH3 0x2AA DUP2 PUSH3 0x27F JUMP JUMPDEST SWAP3 SWAP2 POP POP JUMP JUMPDEST PUSH1 0x0 DUP1 PUSH1 0x40 DUP4 DUP6 SUB SLT ISZERO PUSH3 0x2CA JUMPI PUSH3 0x2C9 PUSH3 0x246 JUMP JUMPDEST JUMPDEST PUSH1 0x0 PUSH3 0x2DA DUP6 DUP3 DUP7 ADD PUSH3 0x299 JUMP JUMPDEST SWAP3 POP POP PUSH1 0x20 PUSH3 0x2ED DUP6 DUP3 DUP7 ADD PUSH3 0x299 JUMP JUMPDEST SWAP2 POP POP SWAP3 POP SWAP3 SWAP1 POP JUMP JUMPDEST PUSH3 0x302 DUP2 PUSH3 0x26B JUMP JUMPDEST DUP3 MSTORE POP POP JUMP JUMPDEST PUSH1 0x0 PUSH1 0x20 DUP3 ADD SWAP1 POP PUSH3 0x31F PUSH1 0x0 DUP4 ADD DUP5 PUSH3 0x2F7 JUMP JUMPDEST SWAP3 SWAP2 POP POP JUMP JUMPDEST PUSH1 0x80 MLOAD PUSH2 0x3583 PUSH3 0x36B PUSH1 0x0 CODECOPY PUSH1 0x0 DUP2 DUP2 PUSH2 0x560 ADD MSTORE DUP2 DUP2 PUSH2 0x95C ADD MSTORE DUP2 DUP2 PUSH2 0xE3D ADD MSTORE DUP2 DUP2 PUSH2 0x1498 ADD MSTORE DUP2 DUP2 PUSH2 0x15A7 ADD MSTORE DUP2 DUP2 PUSH2 0x1882 ADD MSTORE PUSH2 0x197D ADD MSTORE PUSH2 0x3583 PUSH1 0x0 RETURN INVALID PUSH1 0x80 PUSH1 0x40 MSTORE PUSH1 0x4 CALLDATASIZE LT PUSH2 0x135 JUMPI PUSH1 0x0 CALLDATALOAD PUSH1 0xE0 SHR DUP1 PUSH4 0x82413EAC GT PUSH2 0xAB JUMPI DUP1 PUSH4 0xBF3F3DE9 GT PUSH2 0x6F JUMPI DUP1 PUSH4 0xBF3F3DE9 EQ PUSH2 0x421 JUMPI DUP1 PUSH4 0xCA5EB5E1 EQ PUSH2 0x45E JUMPI DUP1 PUSH4 0xEE7D72B4 EQ PUSH2 0x487 JUMPI DUP1 PUSH4 0xF2FDE38B EQ PUSH2 0x4B0 JUMPI DUP1 PUSH4 0xF68016B7 EQ PUSH2 0x4D9 JUMPI DUP1 PUSH4 0xFF7BD03D EQ PUSH2 0x504 JUMPI PUSH2 0x135 JUMP JUMPDEST DUP1 PUSH4 0x82413EAC EQ PUSH2 0x302 JUMPI DUP1 PUSH4 0x8DA5CB5B EQ PUSH2 0x33F JUMPI DUP1 PUSH4 0x9541618C EQ PUSH2 0x36A JUMPI DUP1 PUSH4 0xA6451163 EQ PUSH2 0x3A7 JUMPI DUP1 PUSH4 0xBB0B6A53 EQ PUSH2 0x3E4 JUMPI PUSH2 0x135 JUMP JUMPDEST DUP1 PUSH4 0x3CCFD60B GT PUSH2 0xFD JUMPI DUP1 PUSH4 0x3CCFD60B EQ PUSH2 0x1F2 JUMPI DUP1 PUSH4 0x56368126 EQ PUSH2 0x209 JUMPI DUP1 PUSH4 0x5E280F11 EQ PUSH2 0x246 JUMPI DUP1 PUSH4 0x715018A6 EQ PUSH2 0x271 JUMPI DUP1 PUSH4 0x7954C58F EQ PUSH2 0x288 JUMPI DUP1 PUSH4 0x7D25A05E EQ PUSH2 0x2C5 JUMPI PUSH2 0x135 JUMP JUMPDEST DUP1 PUSH4 0x67BD07A EQ PUSH2 0x13A JUMPI DUP1 PUSH4 0x13137D65 EQ PUSH2 0x165 JUMPI DUP1 PUSH4 0x17442B70 EQ PUSH2 0x181 JUMPI DUP1 PUSH4 0x306FED73 EQ PUSH2 0x1AD JUMPI DUP1 PUSH4 0x3400288B EQ PUSH2 0x1C9 JUMPI JUMPDEST PUSH1 0x0 DUP1 REVERT JUMPDEST CALLVALUE DUP1 ISZERO PUSH2 0x146 JUMPI PUSH1 0x0 DUP1 REVERT JUMPDEST POP PUSH2 0x14F PUSH2 0x541 JUMP JUMPDEST PUSH1 0x40 MLOAD PUSH2 0x15C SWAP2 SWAP1 PUSH2 0x1D5B JUMP JUMPDEST PUSH1 0x40 MLOAD DUP1 SWAP2 SUB SWAP1 RETURN JUMPDEST PUSH2 0x17F PUSH1 0x4 DUP1 CALLDATASIZE SUB DUP2 ADD SWAP1 PUSH2 0x17A SWAP2 SWAP1 PUSH2 0x1EA7 JUMP JUMPDEST PUSH2 0x547 JUMP JUMPDEST STOP JUMPDEST CALLVALUE DUP1 ISZERO PUSH2 0x18D JUMPI PUSH1 0x0 DUP1 REVERT JUMPDEST POP PUSH2 0x196 PUSH2 0x669 JUMP JUMPDEST PUSH1 0x40 MLOAD PUSH2 0x1A4 SWAP3 SWAP2 SWAP1 PUSH2 0x1F86 JUMP JUMPDEST PUSH1 0x40 MLOAD DUP1 SWAP2 SUB SWAP1 RETURN JUMPDEST PUSH2 0x1C7 PUSH1 0x4 DUP1 CALLDATASIZE SUB DUP2 ADD SWAP1 PUSH2 0x1C2 SWAP2 SWAP1 PUSH2 0x20F0 JUMP JUMPDEST PUSH2 0x678 JUMP JUMPDEST STOP JUMPDEST CALLVALUE DUP1 ISZERO PUSH2 0x1D5 JUMPI PUSH1 0x0 DUP1 REVERT JUMPDEST POP PUSH2 0x1F0 PUSH1 0x4 DUP1 CALLDATASIZE SUB DUP2 ADD SWAP1 PUSH2 0x1EB SWAP2 SWAP1 PUSH2 0x2165 JUMP JUMPDEST PUSH2 0x808 JUMP JUMPDEST STOP JUMPDEST CALLVALUE DUP1 ISZERO PUSH2 0x1FE JUMPI PUSH1 0x0 DUP1 REVERT JUMPDEST POP PUSH2 0x207 PUSH2 0x81E JUMP JUMPDEST STOP JUMPDEST CALLVALUE DUP1 ISZERO PUSH2 0x215 JUMPI PUSH1 0x0 DUP1 REVERT JUMPDEST POP PUSH2 0x230 PUSH1 0x4 DUP1 CALLDATASIZE SUB DUP2 ADD SWAP1 PUSH2 0x22B SWAP2 SWAP1 PUSH2 0x20F0 JUMP JUMPDEST PUSH2 0x8DC JUMP JUMPDEST PUSH1 0x40 MLOAD PUSH2 0x23D SWAP2 SWAP1 PUSH2 0x21ED JUMP JUMPDEST PUSH1 0x40 MLOAD DUP1 SWAP2 SUB SWAP1 RETURN JUMPDEST CALLVALUE DUP1 ISZERO PUSH2 0x252 JUMPI PUSH1 0x0 DUP1 REVERT JUMPDEST POP PUSH2 0x25B PUSH2 0x95A JUMP JUMPDEST PUSH1 0x40 MLOAD PUSH2 0x268 SWAP2 SWAP1 PUSH2 0x2267 JUMP JUMPDEST PUSH1 0x40 MLOAD DUP1 SWAP2 SUB SWAP1 RETURN JUMPDEST CALLVALUE DUP1 ISZERO PUSH2 0x27D JUMPI PUSH1 0x0 DUP1 REVERT JUMPDEST POP PUSH2 0x286 PUSH2 0x97E JUMP JUMPDEST STOP JUMPDEST CALLVALUE DUP1 ISZERO PUSH2 0x294 JUMPI PUSH1 0x0 DUP1 REVERT JUMPDEST POP PUSH2 0x2AF PUSH1 0x4 DUP1 CALLDATASIZE SUB DUP2 ADD SWAP1 PUSH2 0x2AA SWAP2 SWAP1 PUSH2 0x22AE JUMP JUMPDEST PUSH2 0x992 JUMP JUMPDEST PUSH1 0x40 MLOAD PUSH2 0x2BC SWAP2 SWAP1 PUSH2 0x236D JUMP JUMPDEST PUSH1 0x40 MLOAD DUP1 SWAP2 SUB SWAP1 RETURN JUMPDEST CALLVALUE DUP1 ISZERO PUSH2 0x2D1 JUMPI PUSH1 0x0 DUP1 REVERT JUMPDEST POP PUSH2 0x2EC PUSH1 0x4 DUP1 CALLDATASIZE SUB DUP2 ADD SWAP1 PUSH2 0x2E7 SWAP2 SWAP1 PUSH2 0x2165 JUMP JUMPDEST PUSH2 0xA4B JUMP JUMPDEST PUSH1 0x40 MLOAD PUSH2 0x2F9 SWAP2 SWAP1 PUSH2 0x238F JUMP JUMPDEST PUSH1 0x40 MLOAD DUP1 SWAP2 SUB SWAP1 RETURN JUMPDEST CALLVALUE DUP1 ISZERO PUSH2 0x30E JUMPI PUSH1 0x0 DUP1 REVERT JUMPDEST POP PUSH2 0x329 PUSH1 0x4 DUP1 CALLDATASIZE SUB DUP2 ADD SWAP1 PUSH2 0x324 SWAP2 SWAP1 PUSH2 0x23AA JUMP JUMPDEST PUSH2 0xA53 JUMP JUMPDEST PUSH1 0x40 MLOAD PUSH2 0x336 SWAP2 SWAP1 PUSH2 0x2439 JUMP JUMPDEST PUSH1 0x40 MLOAD DUP1 SWAP2 SUB SWAP1 RETURN JUMPDEST CALLVALUE DUP1 ISZERO PUSH2 0x34B JUMPI PUSH1 0x0 DUP1 REVERT JUMPDEST POP PUSH2 0x354 PUSH2 0xA8E JUMP JUMPDEST PUSH1 0x40 MLOAD PUSH2 0x361 SWAP2 SWAP1 PUSH2 0x2463 JUMP JUMPDEST PUSH1 0x40 MLOAD DUP1 SWAP2 SUB SWAP1 RETURN JUMPDEST CALLVALUE DUP1 ISZERO PUSH2 0x376 JUMPI PUSH1 0x0 DUP1 REVERT JUMPDEST POP PUSH2 0x391 PUSH1 0x4 DUP1 CALLDATASIZE SUB DUP2 ADD SWAP1 PUSH2 0x38C SWAP2 SWAP1 PUSH2 0x247E JUMP JUMPDEST PUSH2 0xAB7 JUMP JUMPDEST PUSH1 0x40 MLOAD PUSH2 0x39E SWAP2 SWAP1 PUSH2 0x25B7 JUMP JUMPDEST PUSH1 0x40 MLOAD DUP1 SWAP2 SUB SWAP1 RETURN JUMPDEST CALLVALUE DUP1 ISZERO PUSH2 0x3B3 JUMPI PUSH1 0x0 DUP1 REVERT JUMPDEST POP PUSH2 0x3CE PUSH1 0x4 DUP1 CALLDATASIZE SUB DUP2 ADD SWAP1 PUSH2 0x3C9 SWAP2 SWAP1 PUSH2 0x247E JUMP JUMPDEST PUSH2 0xBCF JUMP JUMPDEST PUSH1 0x40 MLOAD PUSH2 0x3DB SWAP2 SWAP1 PUSH2 0x26F0 JUMP JUMPDEST PUSH1 0x40 MLOAD DUP1 SWAP2 SUB SWAP1 RETURN JUMPDEST CALLVALUE DUP1 ISZERO PUSH2 0x3F0 JUMPI PUSH1 0x0 DUP1 REVERT JUMPDEST POP PUSH2 0x40B PUSH1 0x4 DUP1 CALLDATASIZE SUB DUP2 ADD SWAP1 PUSH2 0x406 SWAP2 SWAP1 PUSH2 0x2712 JUMP JUMPDEST PUSH2 0xD9A JUMP JUMPDEST PUSH1 0x40 MLOAD PUSH2 0x418 SWAP2 SWAP1 PUSH2 0x274E JUMP JUMPDEST PUSH1 0x40 MLOAD DUP1 SWAP2 SUB SWAP1 RETURN JUMPDEST CALLVALUE DUP1 ISZERO PUSH2 0x42D JUMPI PUSH1 0x0 DUP1 REVERT JUMPDEST POP PUSH2 0x448 PUSH1 0x4 DUP1 CALLDATASIZE SUB DUP2 ADD SWAP1 PUSH2 0x443 SWAP2 SWAP1 PUSH2 0x20F0 JUMP JUMPDEST PUSH2 0xDB2 JUMP JUMPDEST PUSH1 0x40 MLOAD PUSH2 0x455 SWAP2 SWAP1 PUSH2 0x2778 JUMP JUMPDEST PUSH1 0x40 MLOAD DUP1 SWAP2 SUB SWAP1 RETURN JUMPDEST CALLVALUE DUP1 ISZERO PUSH2 0x46A JUMPI PUSH1 0x0 DUP1 REVERT JUMPDEST POP PUSH2 0x485 PUSH1 0x4 DUP1 CALLDATASIZE SUB DUP2 ADD SWAP1 PUSH2 0x480 SWAP2 SWAP1 PUSH2 0x247E JUMP JUMPDEST PUSH2 0xE33 JUMP JUMPDEST STOP JUMPDEST CALLVALUE DUP1 ISZERO PUSH2 0x493 JUMPI PUSH1 0x0 DUP1 REVERT JUMPDEST POP PUSH2 0x4AE PUSH1 0x4 DUP1 CALLDATASIZE SUB DUP2 ADD SWAP1 PUSH2 0x4A9 SWAP2 SWAP1 PUSH2 0x2793 JUMP JUMPDEST PUSH2 0xEC9 JUMP JUMPDEST STOP JUMPDEST CALLVALUE DUP1 ISZERO PUSH2 0x4BC JUMPI PUSH1 0x0 DUP1 REVERT JUMPDEST POP PUSH2 0x4D7 PUSH1 0x4 DUP1 CALLDATASIZE SUB DUP2 ADD SWAP1 PUSH2 0x4D2 SWAP2 SWAP1 PUSH2 0x247E JUMP JUMPDEST PUSH2 0xEDB JUMP JUMPDEST STOP JUMPDEST CALLVALUE DUP1 ISZERO PUSH2 0x4E5 JUMPI PUSH1 0x0 DUP1 REVERT JUMPDEST POP PUSH2 0x4EE PUSH2 0xF5E JUMP JUMPDEST PUSH1 0x40 MLOAD PUSH2 0x4FB SWAP2 SWAP1 PUSH2 0x2778 JUMP JUMPDEST PUSH1 0x40 MLOAD DUP1 SWAP2 SUB SWAP1 RETURN JUMPDEST CALLVALUE DUP1 ISZERO PUSH2 0x510 JUMPI PUSH1 0x0 DUP1 REVERT JUMPDEST POP PUSH2 0x52B PUSH1 0x4 DUP1 CALLDATASIZE SUB DUP2 ADD SWAP1 PUSH2 0x526 SWAP2 SWAP1 PUSH2 0x27C0 JUMP JUMPDEST PUSH2 0xF64 JUMP JUMPDEST PUSH1 0x40 MLOAD PUSH2 0x538 SWAP2 SWAP1 PUSH2 0x2439 JUMP JUMPDEST PUSH1 0x40 MLOAD DUP1 SWAP2 SUB SWAP1 RETURN JUMPDEST PUSH2 0x9CE8 DUP2 JUMP JUMPDEST CALLER PUSH20 0xFFFFFFFFFFFFFFFFFFFFFFFFFFFFFFFFFFFFFFFF AND PUSH32 0x0 PUSH20 0xFFFFFFFFFFFFFFFFFFFFFFFFFFFFFFFFFFFFFFFF AND EQ PUSH2 0x5D7 JUMPI CALLER PUSH1 0x40 MLOAD PUSH32 0x91AC5E4F00000000000000000000000000000000000000000000000000000000 DUP2 MSTORE PUSH1 0x4 ADD PUSH2 0x5CE SWAP2 SWAP1 PUSH2 0x2463 JUMP JUMPDEST PUSH1 0x40 MLOAD DUP1 SWAP2 SUB SWAP1 REVERT JUMPDEST DUP7 PUSH1 0x20 ADD CALLDATALOAD PUSH2 0x5F7 DUP9 PUSH1 0x0 ADD PUSH1 0x20 DUP2 ADD SWAP1 PUSH2 0x5F2 SWAP2 SWAP1 PUSH2 0x2712 JUMP JUMPDEST PUSH2 0xFA5 JUMP JUMPDEST EQ PUSH2 0x651 JUMPI DUP7 PUSH1 0x0 ADD PUSH1 0x20 DUP2 ADD SWAP1 PUSH2 0x60F SWAP2 SWAP1 PUSH2 0x2712 JUMP JUMPDEST DUP8 PUSH1 0x20 ADD CALLDATALOAD PUSH1 0x40 MLOAD PUSH32 0xC26BEBCC00000000000000000000000000000000000000000000000000000000 DUP2 MSTORE PUSH1 0x4 ADD PUSH2 0x648 SWAP3 SWAP2 SWAP1 PUSH2 0x27ED JUMP JUMPDEST PUSH1 0x40 MLOAD DUP1 SWAP2 SUB SWAP1 REVERT JUMPDEST PUSH2 0x660 DUP8 DUP8 DUP8 DUP8 DUP8 DUP8 DUP8 PUSH2 0x101A JUMP JUMPDEST POP POP POP POP POP POP POP JUMP JUMPDEST PUSH1 0x0 DUP1 PUSH1 0x1 PUSH1 0x2 SWAP2 POP SWAP2 POP SWAP1 SWAP2 JUMP JUMPDEST PUSH1 0x0 PUSH2 0x683 CALLER PUSH2 0x1023 JUMP JUMPDEST SWAP1 POP PUSH1 0x0 PUSH2 0x690 TIMESTAMP PUSH2 0x132E JUMP JUMPDEST SWAP1 POP PUSH1 0x0 DUP3 DUP5 DUP4 PUSH1 0x40 MLOAD PUSH1 0x20 ADD PUSH2 0x6A9 SWAP4 SWAP3 SWAP2 SWAP1 PUSH2 0x289E JUMP JUMPDEST PUSH1 0x40 MLOAD PUSH1 0x20 DUP2 DUP4 SUB SUB DUP2 MSTORE SWAP1 PUSH1 0x40 MSTORE SWAP1 POP PUSH1 0x0 DUP2 SWAP1 POP PUSH1 0x3 PUSH1 0x0 CALLER PUSH20 0xFFFFFFFFFFFFFFFFFFFFFFFFFFFFFFFFFFFFFFFF AND PUSH20 0xFFFFFFFFFFFFFFFFFFFFFFFFFFFFFFFFFFFFFFFF AND DUP2 MSTORE PUSH1 0x20 ADD SWAP1 DUP2 MSTORE PUSH1 0x20 ADD PUSH1 0x0 KECCAK256 DUP6 SWAP1 DUP1 PUSH1 0x1 DUP2 SLOAD ADD DUP1 DUP3 SSTORE DUP1 SWAP2 POP POP PUSH1 0x1 SWAP1 SUB SWAP1 PUSH1 0x0 MSTORE PUSH1 0x20 PUSH1 0x0 KECCAK256 ADD PUSH1 0x0 SWAP1 SWAP2 SWAP1 SWAP2 SWAP1 SWAP2 POP SWAP1 DUP2 PUSH2 0x730 SWAP2 SWAP1 PUSH2 0x2AE7 JUMP JUMPDEST POP PUSH32 0x15B1A221748794744CD2960E23AB851C4E6B2B22FBABE81F3404E15EEBF0AF16 CALLER DUP7 TIMESTAMP PUSH1 0x40 MLOAD PUSH2 0x764 SWAP4 SWAP3 SWAP2 SWAP1 PUSH2 0x2BB9 JUMP JUMPDEST PUSH1 0x40 MLOAD DUP1 SWAP2 SUB SWAP1 LOG1 PUSH1 0x0 PUSH1 0x40 MLOAD DUP1 PUSH1 0x20 ADD PUSH1 0x40 MSTORE DUP1 PUSH1 0x0 DUP2 MSTORE POP SWAP1 POP PUSH1 0x0 PUSH2 0x791 PUSH2 0x9CE8 DUP5 DUP5 PUSH1 0x0 PUSH2 0x148E JUMP JUMPDEST SWAP1 POP DUP1 PUSH1 0x0 ADD MLOAD CALLVALUE LT ISZERO PUSH2 0x7DA JUMPI PUSH1 0x40 MLOAD PUSH32 0x8C379A000000000000000000000000000000000000000000000000000000000 DUP2 MSTORE PUSH1 0x4 ADD PUSH2 0x7D1 SWAP1 PUSH2 0x2C54 JUMP JUMPDEST PUSH1 0x40 MLOAD DUP1 SWAP2 SUB SWAP1 REVERT JUMPDEST PUSH2 0x7FE PUSH2 0x9CE8 DUP5 DUP5 PUSH1 0x40 MLOAD DUP1 PUSH1 0x40 ADD PUSH1 0x40 MSTORE DUP1 CALLVALUE DUP2 MSTORE PUSH1 0x20 ADD PUSH1 0x0 DUP2 MSTORE POP CALLER PUSH2 0x1571 JUMP JUMPDEST POP POP POP POP POP POP POP POP JUMP JUMPDEST PUSH2 0x810 PUSH2 0x168D JUMP JUMPDEST PUSH2 0x81A DUP3 DUP3 PUSH2 0x170B JUMP JUMPDEST POP POP JUMP JUMPDEST PUSH2 0x826 PUSH2 0x168D JUMP JUMPDEST PUSH1 0x0 PUSH2 0x830 PUSH2 0xA8E JUMP JUMPDEST PUSH20 0xFFFFFFFFFFFFFFFFFFFFFFFFFFFFFFFFFFFFFFFF AND SELFBALANCE PUSH1 0x40 MLOAD PUSH2 0x853 SWAP1 PUSH2 0x2CA5 JUMP JUMPDEST PUSH1 0x0 PUSH1 0x40 MLOAD DUP1 DUP4 SUB DUP2 DUP6 DUP8 GAS CALL SWAP3 POP POP POP RETURNDATASIZE DUP1 PUSH1 0x0 DUP2 EQ PUSH2 0x890 JUMPI PUSH1 0x40 MLOAD SWAP2 POP PUSH1 0x1F NOT PUSH1 0x3F RETURNDATASIZE ADD AND DUP3 ADD PUSH1 0x40 MSTORE RETURNDATASIZE DUP3 MSTORE RETURNDATASIZE PUSH1 0x0 PUSH1 0x20 DUP5 ADD RETURNDATACOPY PUSH2 0x895 JUMP JUMPDEST PUSH1 0x60 SWAP2 POP JUMPDEST POP POP SWAP1 POP DUP1 PUSH2 0x8D9 JUMPI PUSH1 0x40 MLOAD PUSH32 0x8C379A000000000000000000000000000000000000000000000000000000000 DUP2 MSTORE PUSH1 0x4 ADD PUSH2 0x8D0 SWAP1 PUSH2 0x2D06 JUMP JUMPDEST PUSH1 0x40 MLOAD DUP1 SWAP2 SUB SWAP1 REVERT JUMPDEST POP JUMP JUMPDEST PUSH2 0x8E4 PUSH2 0x1CEE JUMP JUMPDEST PUSH1 0x0 PUSH2 0x8EF CALLER PUSH2 0x1023 JUMP JUMPDEST SWAP1 POP PUSH1 0x0 PUSH2 0x8FC TIMESTAMP PUSH2 0x132E JUMP JUMPDEST SWAP1 POP PUSH1 0x0 DUP3 DUP6 DUP4 PUSH1 0x40 MLOAD PUSH1 0x20 ADD PUSH2 0x915 SWAP4 SWAP3 SWAP2 SWAP1 PUSH2 0x289E JUMP JUMPDEST PUSH1 0x40 MLOAD PUSH1 0x20 DUP2 DUP4 SUB SUB DUP2 MSTORE SWAP1 PUSH1 0x40 MSTORE SWAP1 POP PUSH1 0x0 DUP2 SWAP1 POP PUSH1 0x0 PUSH1 0x40 MLOAD DUP1 PUSH1 0x20 ADD PUSH1 0x40 MSTORE DUP1 PUSH1 0x0 DUP2 MSTORE POP SWAP1 POP PUSH2 0x94E PUSH2 0x9CE8 DUP4 DUP4 PUSH1 0x0 PUSH2 0x148E JUMP JUMPDEST SWAP6 POP POP POP POP POP POP SWAP2 SWAP1 POP JUMP JUMPDEST PUSH32 0x0 DUP2 JUMP JUMPDEST PUSH2 0x986 PUSH2 0x168D JUMP JUMPDEST PUSH2 0x990 PUSH1 0x0 PUSH2 0x176C JUMP JUMPDEST JUMP JUMPDEST PUSH1 0x3 PUSH1 0x20 MSTORE DUP2 PUSH1 0x0 MSTORE PUSH1 0x40 PUSH1 0x0 KECCAK256 DUP2 DUP2 SLOAD DUP2 LT PUSH2 0x9AE JUMPI PUSH1 0x0 DUP1 REVERT JUMPDEST SWAP1 PUSH1 0x0 MSTORE PUSH1 0x20 PUSH1 0x0 KECCAK256 ADD PUSH1 0x0 SWAP2 POP SWAP2 POP POP DUP1 SLOAD PUSH2 0x9CA SWAP1 PUSH2 0x2914 JUMP JUMPDEST DUP1 PUSH1 0x1F ADD PUSH1 0x20 DUP1 SWAP2 DIV MUL PUSH1 0x20 ADD PUSH1 0x40 MLOAD SWAP1 DUP2 ADD PUSH1 0x40 MSTORE DUP1 SWAP3 SWAP2 SWAP1 DUP2 DUP2 MSTORE PUSH1 0x20 ADD DUP3 DUP1 SLOAD PUSH2 0x9F6 SWAP1 PUSH2 0x2914 JUMP JUMPDEST DUP1 ISZERO PUSH2 0xA43 JUMPI DUP1 PUSH1 0x1F LT PUSH2 0xA18 JUMPI PUSH2 0x100 DUP1 DUP4 SLOAD DIV MUL DUP4 MSTORE SWAP2 PUSH1 0x20 ADD SWAP2 PUSH2 0xA43 JUMP JUMPDEST DUP3 ADD SWAP2 SWAP1 PUSH1 0x0 MSTORE PUSH1 0x20 PUSH1 0x0 KECCAK256 SWAP1 JUMPDEST DUP2 SLOAD DUP2 MSTORE SWAP1 PUSH1 0x1 ADD SWAP1 PUSH1 0x20 ADD DUP1 DUP4 GT PUSH2 0xA26 JUMPI DUP3 SWAP1 SUB PUSH1 0x1F AND DUP3 ADD SWAP2 JUMPDEST POP POP POP POP POP DUP2 JUMP JUMPDEST PUSH1 0x0 SWAP3 SWAP2 POP POP JUMP JUMPDEST PUSH1 0x0 ADDRESS PUSH20 0xFFFFFFFFFFFFFFFFFFFFFFFFFFFFFFFFFFFFFFFF AND DUP3 PUSH20 0xFFFFFFFFFFFFFFFFFFFFFFFFFFFFFFFFFFFFFFFF AND EQ SWAP1 POP SWAP5 SWAP4 POP POP POP POP JUMP JUMPDEST PUSH1 0x0 DUP1 PUSH1 0x0 SWAP1 SLOAD SWAP1 PUSH2 0x100 EXP SWAP1 DIV PUSH20 0xFFFFFFFFFFFFFFFFFFFFFFFFFFFFFFFFFFFFFFFF AND SWAP1 POP SWAP1 JUMP JUMPDEST PUSH1 0x60 PUSH1 0x3 PUSH1 0x0 DUP4 PUSH20 0xFFFFFFFFFFFFFFFFFFFFFFFFFFFFFFFFFFFFFFFF AND PUSH20 0xFFFFFFFFFFFFFFFFFFFFFFFFFFFFFFFFFFFFFFFF AND DUP2 MSTORE PUSH1 0x20 ADD SWAP1 DUP2 MSTORE PUSH1 0x20 ADD PUSH1 0x0 KECCAK256 DUP1 SLOAD DUP1 PUSH1 0x20 MUL PUSH1 0x20 ADD PUSH1 0x40 MLOAD SWAP1 DUP2 ADD PUSH1 0x40 MSTORE DUP1 SWAP3 SWAP2 SWAP1 DUP2 DUP2 MSTORE PUSH1 0x20 ADD PUSH1 0x0 SWAP1 JUMPDEST DUP3 DUP3 LT ISZERO PUSH2 0xBC4 JUMPI DUP4 DUP3 SWAP1 PUSH1 0x0 MSTORE PUSH1 0x20 PUSH1 0x0 KECCAK256 ADD DUP1 SLOAD PUSH2 0xB37 SWAP1 PUSH2 0x2914 JUMP JUMPDEST DUP1 PUSH1 0x1F ADD PUSH1 0x20 DUP1 SWAP2 DIV MUL PUSH1 0x20 ADD PUSH1 0x40 MLOAD SWAP1 DUP2 ADD PUSH1 0x40 MSTORE DUP1 SWAP3 SWAP2 SWAP1 DUP2 DUP2 MSTORE PUSH1 0x20 ADD DUP3 DUP1 SLOAD PUSH2 0xB63 SWAP1 PUSH2 0x2914 JUMP JUMPDEST DUP1 ISZERO PUSH2 0xBB0 JUMPI DUP1 PUSH1 0x1F LT PUSH2 0xB85 JUMPI PUSH2 0x100 DUP1 DUP4 SLOAD DIV MUL DUP4 MSTORE SWAP2 PUSH1 0x20 ADD SWAP2 PUSH2 0xBB0 JUMP JUMPDEST DUP3 ADD SWAP2 SWAP1 PUSH1 0x0 MSTORE PUSH1 0x20 PUSH1 0x0 KECCAK256 SWAP1 JUMPDEST DUP2 SLOAD DUP2 MSTORE SWAP1 PUSH1 0x1 ADD SWAP1 PUSH1 0x20 ADD DUP1 DUP4 GT PUSH2 0xB93 JUMPI DUP3 SWAP1 SUB PUSH1 0x1F AND DUP3 ADD SWAP2 JUMPDEST POP POP POP POP POP DUP2 MSTORE PUSH1 0x20 ADD SWAP1 PUSH1 0x1 ADD SWAP1 PUSH2 0xB18 JUMP JUMPDEST POP POP POP POP SWAP1 POP SWAP2 SWAP1 POP JUMP JUMPDEST PUSH1 0x60 PUSH1 0x0 PUSH1 0x3 PUSH1 0x0 DUP5 PUSH20 0xFFFFFFFFFFFFFFFFFFFFFFFFFFFFFFFFFFFFFFFF AND PUSH20 0xFFFFFFFFFFFFFFFFFFFFFFFFFFFFFFFFFFFFFFFF AND DUP2 MSTORE PUSH1 0x20 ADD SWAP1 DUP2 MSTORE PUSH1 0x20 ADD PUSH1 0x0 KECCAK256 DUP1 SLOAD DUP1 PUSH1 0x20 MUL PUSH1 0x20 ADD PUSH1 0x40 MLOAD SWAP1 DUP2 ADD PUSH1 0x40 MSTORE DUP1 SWAP3 SWAP2 SWAP1 DUP2 DUP2 MSTORE PUSH1 0x20 ADD PUSH1 0x0 SWAP1 JUMPDEST DUP3 DUP3 LT ISZERO PUSH2 0xCDE JUMPI DUP4 DUP3 SWAP1 PUSH1 0x0 MSTORE PUSH1 0x20 PUSH1 0x0 KECCAK256 ADD DUP1 SLOAD PUSH2 0xC51 SWAP1 PUSH2 0x2914 JUMP JUMPDEST DUP1 PUSH1 0x1F ADD PUSH1 0x20 DUP1 SWAP2 DIV MUL PUSH1 0x20 ADD PUSH1 0x40 MLOAD SWAP1 DUP2 ADD PUSH1 0x40 MSTORE DUP1 SWAP3 SWAP2 SWAP1 DUP2 DUP2 MSTORE PUSH1 0x20 ADD DUP3 DUP1 SLOAD PUSH2 0xC7D SWAP1 PUSH2 0x2914 JUMP JUMPDEST DUP1 ISZERO PUSH2 0xCCA JUMPI DUP1 PUSH1 0x1F LT PUSH2 0xC9F JUMPI PUSH2 0x100 DUP1 DUP4 SLOAD DIV MUL DUP4 MSTORE SWAP2 PUSH1 0x20 ADD SWAP2 PUSH2 0xCCA JUMP JUMPDEST DUP3 ADD SWAP2 SWAP1 PUSH1 0x0 MSTORE PUSH1 0x20 PUSH1 0x0 KECCAK256 SWAP1 JUMPDEST DUP2 SLOAD DUP2 MSTORE SWAP1 PUSH1 0x1 ADD SWAP1 PUSH1 0x20 ADD DUP1 DUP4 GT PUSH2 0xCAD JUMPI DUP3 SWAP1 SUB PUSH1 0x1F AND DUP3 ADD SWAP2 JUMPDEST POP POP POP POP POP DUP2 MSTORE PUSH1 0x20 ADD SWAP1 PUSH1 0x1 ADD SWAP1 PUSH2 0xC32 JUMP JUMPDEST POP POP POP POP SWAP1 POP PUSH1 0x0 DUP2 MLOAD PUSH8 0xFFFFFFFFFFFFFFFF DUP2 GT ISZERO PUSH2 0xD01 JUMPI PUSH2 0xD00 PUSH2 0x1FC5 JUMP JUMPDEST JUMPDEST PUSH1 0x40 MLOAD SWAP1 DUP1 DUP3 MSTORE DUP1 PUSH1 0x20 MUL PUSH1 0x20 ADD DUP3 ADD PUSH1 0x40 MSTORE DUP1 ISZERO PUSH2 0xD34 JUMPI DUP2 PUSH1 0x20 ADD JUMPDEST PUSH1 0x60 DUP2 MSTORE PUSH1 0x20 ADD SWAP1 PUSH1 0x1 SWAP1 SUB SWAP1 DUP2 PUSH2 0xD1F JUMPI SWAP1 POP JUMPDEST POP SWAP1 POP PUSH1 0x0 JUMPDEST DUP3 MLOAD DUP2 LT ISZERO PUSH2 0xD8F JUMPI DUP3 DUP2 DUP2 MLOAD DUP2 LT PUSH2 0xD56 JUMPI PUSH2 0xD55 PUSH2 0x2D26 JUMP JUMPDEST JUMPDEST PUSH1 0x20 MUL PUSH1 0x20 ADD ADD MLOAD DUP3 DUP3 DUP2 MLOAD DUP2 LT PUSH2 0xD71 JUMPI PUSH2 0xD70 PUSH2 0x2D26 JUMP JUMPDEST JUMPDEST PUSH1 0x20 MUL PUSH1 0x20 ADD ADD DUP2 SWAP1 MSTORE POP DUP1 DUP1 PUSH2 0xD87 SWAP1 PUSH2 0x2D84 JUMP JUMPDEST SWAP2 POP POP PUSH2 0xD3A JUMP JUMPDEST POP DUP1 SWAP3 POP POP POP SWAP2 SWAP1 POP JUMP JUMPDEST PUSH1 0x1 PUSH1 0x20 MSTORE DUP1 PUSH1 0x0 MSTORE PUSH1 0x40 PUSH1 0x0 KECCAK256 PUSH1 0x0 SWAP2 POP SWAP1 POP SLOAD DUP2 JUMP JUMPDEST PUSH1 0x0 DUP1 PUSH2 0xDBE CALLER PUSH2 0x1023 JUMP JUMPDEST SWAP1 POP PUSH1 0x0 PUSH2 0xDCB TIMESTAMP PUSH2 0x132E JUMP JUMPDEST SWAP1 POP PUSH1 0x0 DUP3 DUP6 DUP4 PUSH1 0x40 MLOAD PUSH1 0x20 ADD PUSH2 0xDE4 SWAP4 SWAP3 SWAP2 SWAP1 PUSH2 0x289E JUMP JUMPDEST PUSH1 0x40 MLOAD PUSH1 0x20 DUP2 DUP4 SUB SUB DUP2 MSTORE SWAP1 PUSH1 0x40 MSTORE SWAP1 POP PUSH1 0x0 DUP2 SWAP1 POP PUSH1 0x0 PUSH1 0x40 MLOAD DUP1 PUSH1 0x20 ADD PUSH1 0x40 MSTORE DUP1 PUSH1 0x0 DUP2 MSTORE POP SWAP1 POP PUSH1 0x0 PUSH2 0xE1F PUSH2 0x9CE8 DUP5 DUP5 PUSH1 0x0 PUSH2 0x148E JUMP JUMPDEST SWAP1 POP DUP1 PUSH1 0x0 ADD MLOAD SWAP7 POP POP POP POP POP POP POP SWAP2 SWAP1 POP JUMP JUMPDEST PUSH2 0xE3B PUSH2 0x168D JUMP JUMPDEST PUSH32 0x0 PUSH20 0xFFFFFFFFFFFFFFFFFFFFFFFFFFFFFFFFFFFFFFFF AND PUSH4 0xCA5EB5E1 DUP3 PUSH1 0x40 MLOAD DUP3 PUSH4 0xFFFFFFFF AND PUSH1 0xE0 SHL DUP2 MSTORE PUSH1 0x4 ADD PUSH2 0xE94 SWAP2 SWAP1 PUSH2 0x2463 JUMP JUMPDEST PUSH1 0x0 PUSH1 0x40 MLOAD DUP1 DUP4 SUB DUP2 PUSH1 0x0 DUP8 DUP1 EXTCODESIZE ISZERO DUP1 ISZERO PUSH2 0xEAE JUMPI PUSH1 0x0 DUP1 REVERT JUMPDEST POP GAS CALL ISZERO DUP1 ISZERO PUSH2 0xEC2 JUMPI RETURNDATASIZE PUSH1 0x0 DUP1 RETURNDATACOPY RETURNDATASIZE PUSH1 0x0 REVERT JUMPDEST POP POP POP POP POP JUMP JUMPDEST PUSH2 0xED1 PUSH2 0x168D JUMP JUMPDEST DUP1 PUSH1 0x2 DUP2 SWAP1 SSTORE POP POP JUMP JUMPDEST PUSH2 0xEE3 PUSH2 0x168D JUMP JUMPDEST PUSH1 0x0 PUSH20 0xFFFFFFFFFFFFFFFFFFFFFFFFFFFFFFFFFFFFFFFF AND DUP2 PUSH20 0xFFFFFFFFFFFFFFFFFFFFFFFFFFFFFFFFFFFFFFFF AND SUB PUSH2 0xF52 JUMPI PUSH1 0x40 MLOAD PUSH32 0x8C379A000000000000000000000000000000000000000000000000000000000 DUP2 MSTORE PUSH1 0x4 ADD PUSH2 0xF49 SWAP1 PUSH2 0x2E3E JUMP JUMPDEST PUSH1 0x40 MLOAD DUP1 SWAP2 SUB SWAP1 REVERT JUMPDEST PUSH2 0xF5B DUP2 PUSH2 0x176C JUMP JUMPDEST POP JUMP JUMPDEST PUSH1 0x2 SLOAD DUP2 JUMP JUMPDEST PUSH1 0x0 DUP2 PUSH1 0x20 ADD CALLDATALOAD PUSH1 0x1 PUSH1 0x0 DUP5 PUSH1 0x0 ADD PUSH1 0x20 DUP2 ADD SWAP1 PUSH2 0xF82 SWAP2 SWAP1 PUSH2 0x2712 JUMP JUMPDEST PUSH4 0xFFFFFFFF AND PUSH4 0xFFFFFFFF AND DUP2 MSTORE PUSH1 0x20 ADD SWAP1 DUP2 MSTORE PUSH1 0x20 ADD PUSH1 0x0 KECCAK256 SLOAD EQ SWAP1 POP SWAP2 SWAP1 POP JUMP JUMPDEST PUSH1 0x0 DUP1 PUSH1 0x1 PUSH1 0x0 DUP5 PUSH4 0xFFFFFFFF AND PUSH4 0xFFFFFFFF AND DUP2 MSTORE PUSH1 0x20 ADD SWAP1 DUP2 MSTORE PUSH1 0x20 ADD PUSH1 0x0 KECCAK256 SLOAD SWAP1 POP PUSH1 0x0 DUP1 SHL DUP2 SUB PUSH2 0x1011 JUMPI DUP3 PUSH1 0x40 MLOAD PUSH32 0xF6FF4FB700000000000000000000000000000000000000000000000000000000 DUP2 MSTORE PUSH1 0x4 ADD PUSH2 0x1008 SWAP2 SWAP1 PUSH2 0x1D5B JUMP JUMPDEST PUSH1 0x40 MLOAD DUP1 SWAP2 SUB SWAP1 REVERT JUMPDEST DUP1 SWAP2 POP POP SWAP2 SWAP1 POP JUMP JUMPDEST POP POP POP POP POP POP POP JUMP JUMPDEST PUSH1 0x60 PUSH1 0x0 DUP3 PUSH20 0xFFFFFFFFFFFFFFFFFFFFFFFFFFFFFFFFFFFFFFFF AND PUSH1 0x0 SHL SWAP1 POP PUSH1 0x0 PUSH1 0x40 MLOAD DUP1 PUSH1 0x40 ADD PUSH1 0x40 MSTORE DUP1 PUSH1 0x10 DUP2 MSTORE PUSH1 0x20 ADD PUSH32 0x3031323334353637383961626364656600000000000000000000000000000000 DUP2 MSTORE POP SWAP1 POP PUSH1 0x0 PUSH1 0x2A PUSH8 0xFFFFFFFFFFFFFFFF DUP2 GT ISZERO PUSH2 0x109A JUMPI PUSH2 0x1099 PUSH2 0x1FC5 JUMP JUMPDEST JUMPDEST PUSH1 0x40 MLOAD SWAP1 DUP1 DUP3 MSTORE DUP1 PUSH1 0x1F ADD PUSH1 0x1F NOT AND PUSH1 0x20 ADD DUP3 ADD PUSH1 0x40 MSTORE DUP1 ISZERO PUSH2 0x10CC JUMPI DUP2 PUSH1 0x20 ADD PUSH1 0x1 DUP3 MUL DUP1 CALLDATASIZE DUP4 CALLDATACOPY DUP1 DUP3 ADD SWAP2 POP POP SWAP1 POP JUMPDEST POP SWAP1 POP PUSH32 0x3000000000000000000000000000000000000000000000000000000000000000 DUP2 PUSH1 0x0 DUP2 MLOAD DUP2 LT PUSH2 0x1104 JUMPI PUSH2 0x1103 PUSH2 0x2D26 JUMP JUMPDEST JUMPDEST PUSH1 0x20 ADD ADD SWAP1 PUSH31 0xFFFFFFFFFFFFFFFFFFFFFFFFFFFFFFFFFFFFFFFFFFFFFFFFFFFFFFFFFFFFFF NOT AND SWAP1 DUP2 PUSH1 0x0 BYTE SWAP1 MSTORE8 POP PUSH32 0x7800000000000000000000000000000000000000000000000000000000000000 DUP2 PUSH1 0x1 DUP2 MLOAD DUP2 LT PUSH2 0x1168 JUMPI PUSH2 0x1167 PUSH2 0x2D26 JUMP JUMPDEST JUMPDEST PUSH1 0x20 ADD ADD SWAP1 PUSH31 0xFFFFFFFFFFFFFFFFFFFFFFFFFFFFFFFFFFFFFFFFFFFFFFFFFFFFFFFFFFFFFF NOT AND SWAP1 DUP2 PUSH1 0x0 BYTE SWAP1 MSTORE8 POP PUSH1 0x0 JUMPDEST PUSH1 0x14 DUP2 LT ISZERO PUSH2 0x1322 JUMPI DUP3 PUSH1 0x4 DUP6 PUSH1 0xC DUP5 PUSH2 0x11B4 SWAP2 SWAP1 PUSH2 0x2E5E JUMP JUMPDEST PUSH1 0x20 DUP2 LT PUSH2 0x11C5 JUMPI PUSH2 0x11C4 PUSH2 0x2D26 JUMP JUMPDEST JUMPDEST BYTE PUSH1 0xF8 SHL PUSH31 0xFFFFFFFFFFFFFFFFFFFFFFFFFFFFFFFFFFFFFFFFFFFFFFFFFFFFFFFFFFFFFF NOT AND SWAP1 SHR PUSH1 0xF8 SHR PUSH1 0xFF AND DUP2 MLOAD DUP2 LT PUSH2 0x1204 JUMPI PUSH2 0x1203 PUSH2 0x2D26 JUMP JUMPDEST JUMPDEST PUSH1 0x20 ADD ADD MLOAD PUSH1 0xF8 SHR PUSH1 0xF8 SHL DUP3 PUSH1 0x2 DUP4 PUSH2 0x121D SWAP2 SWAP1 PUSH2 0x2E92 JUMP JUMPDEST PUSH1 0x2 PUSH2 0x1229 SWAP2 SWAP1 PUSH2 0x2E5E JUMP JUMPDEST DUP2 MLOAD DUP2 LT PUSH2 0x123A JUMPI PUSH2 0x1239 PUSH2 0x2D26 JUMP JUMPDEST JUMPDEST PUSH1 0x20 ADD ADD SWAP1 PUSH31 0xFFFFFFFFFFFFFFFFFFFFFFFFFFFFFFFFFFFFFFFFFFFFFFFFFFFFFFFFFFFFFF NOT AND SWAP1 DUP2 PUSH1 0x0 BYTE SWAP1 MSTORE8 POP DUP3 PUSH1 0xF PUSH1 0xF8 SHL DUP6 PUSH1 0xC DUP5 PUSH2 0x127D SWAP2 SWAP1 PUSH2 0x2E5E JUMP JUMPDEST PUSH1 0x20 DUP2 LT PUSH2 0x128E JUMPI PUSH2 0x128D PUSH2 0x2D26 JUMP JUMPDEST JUMPDEST BYTE PUSH1 0xF8 SHL AND PUSH1 0xF8 SHR PUSH1 0xFF AND DUP2 MLOAD DUP2 LT PUSH2 0x12AA JUMPI PUSH2 0x12A9 PUSH2 0x2D26 JUMP JUMPDEST JUMPDEST PUSH1 0x20 ADD ADD MLOAD PUSH1 0xF8 SHR PUSH1 0xF8 SHL DUP3 PUSH1 0x2 DUP4 PUSH2 0x12C3 SWAP2 SWAP1 PUSH2 0x2E92 JUMP JUMPDEST PUSH1 0x3 PUSH2 0x12CF SWAP2 SWAP1 PUSH2 0x2E5E JUMP JUMPDEST DUP2 MLOAD DUP2 LT PUSH2 0x12E0 JUMPI PUSH2 0x12DF PUSH2 0x2D26 JUMP JUMPDEST JUMPDEST PUSH1 0x20 ADD ADD SWAP1 PUSH31 0xFFFFFFFFFFFFFFFFFFFFFFFFFFFFFFFFFFFFFFFFFFFFFFFFFFFFFFFFFFFFFF NOT AND SWAP1 DUP2 PUSH1 0x0 BYTE SWAP1 MSTORE8 POP DUP1 DUP1 PUSH2 0x131A SWAP1 PUSH2 0x2D84 JUMP JUMPDEST SWAP2 POP POP PUSH2 0x119A JUMP JUMPDEST POP DUP1 SWAP4 POP POP POP POP SWAP2 SWAP1 POP JUMP JUMPDEST PUSH1 0x60 PUSH1 0x0 DUP3 SUB PUSH2 0x1375 JUMPI PUSH1 0x40 MLOAD DUP1 PUSH1 0x40 ADD PUSH1 0x40 MSTORE DUP1 PUSH1 0x1 DUP2 MSTORE PUSH1 0x20 ADD PUSH32 0x3000000000000000000000000000000000000000000000000000000000000000 DUP2 MSTORE POP SWAP1 POP PUSH2 0x1489 JUMP JUMPDEST PUSH1 0x0 DUP3 SWAP1 POP PUSH1 0x0 JUMPDEST PUSH1 0x0 DUP3 EQ PUSH2 0x13A7 JUMPI DUP1 DUP1 PUSH2 0x1390 SWAP1 PUSH2 0x2D84 JUMP JUMPDEST SWAP2 POP POP PUSH1 0xA DUP3 PUSH2 0x13A0 SWAP2 SWAP1 PUSH2 0x2F03 JUMP JUMPDEST SWAP2 POP PUSH2 0x137D JUMP JUMPDEST PUSH1 0x0 DUP2 PUSH8 0xFFFFFFFFFFFFFFFF DUP2 GT ISZERO PUSH2 0x13C3 JUMPI PUSH2 0x13C2 PUSH2 0x1FC5 JUMP JUMPDEST JUMPDEST PUSH1 0x40 MLOAD SWAP1 DUP1 DUP3 MSTORE DUP1 PUSH1 0x1F ADD PUSH1 0x1F NOT AND PUSH1 0x20 ADD DUP3 ADD PUSH1 0x40 MSTORE DUP1 ISZERO PUSH2 0x13F5 JUMPI DUP2 PUSH1 0x20 ADD PUSH1 0x1 DUP3 MUL DUP1 CALLDATASIZE DUP4 CALLDATACOPY DUP1 DUP3 ADD SWAP2 POP POP SWAP1 POP JUMPDEST POP SWAP1 POP JUMPDEST PUSH1 0x0 DUP6 EQ PUSH2 0x1482 JUMPI PUSH1 0x1 DUP3 PUSH2 0x140E SWAP2 SWAP1 PUSH2 0x2F34 JUMP JUMPDEST SWAP2 POP PUSH1 0xA DUP6 PUSH2 0x141D SWAP2 SWAP1 PUSH2 0x2F68 JUMP JUMPDEST PUSH1 0x30 PUSH2 0x1429 SWAP2 SWAP1 PUSH2 0x2E5E JUMP JUMPDEST PUSH1 0xF8 SHL DUP2 DUP4 DUP2 MLOAD DUP2 LT PUSH2 0x143F JUMPI PUSH2 0x143E PUSH2 0x2D26 JUMP JUMPDEST JUMPDEST PUSH1 0x20 ADD ADD SWAP1 PUSH31 0xFFFFFFFFFFFFFFFFFFFFFFFFFFFFFFFFFFFFFFFFFFFFFFFFFFFFFFFFFFFFFF NOT AND SWAP1 DUP2 PUSH1 0x0 BYTE SWAP1 MSTORE8 POP PUSH1 0xA DUP6 PUSH2 0x147B SWAP2 SWAP1 PUSH2 0x2F03 JUMP JUMPDEST SWAP5 POP PUSH2 0x13F9 JUMP JUMPDEST DUP1 SWAP4 POP POP POP POP JUMPDEST SWAP2 SWAP1 POP JUMP JUMPDEST PUSH2 0x1496 PUSH2 0x1CEE JUMP JUMPDEST PUSH32 0x0 PUSH20 0xFFFFFFFFFFFFFFFFFFFFFFFFFFFFFFFFFFFFFFFF AND PUSH4 0xDDC28C58 PUSH1 0x40 MLOAD DUP1 PUSH1 0xA0 ADD PUSH1 0x40 MSTORE DUP1 DUP9 PUSH4 0xFFFFFFFF AND DUP2 MSTORE PUSH1 0x20 ADD PUSH2 0x14F2 DUP10 PUSH2 0xFA5 JUMP JUMPDEST DUP2 MSTORE PUSH1 0x20 ADD DUP8 DUP2 MSTORE PUSH1 0x20 ADD DUP7 DUP2 MSTORE PUSH1 0x20 ADD DUP6 ISZERO ISZERO DUP2 MSTORE POP ADDRESS PUSH1 0x40 MLOAD DUP4 PUSH4 0xFFFFFFFF AND PUSH1 0xE0 SHL DUP2 MSTORE PUSH1 0x4 ADD PUSH2 0x1527 SWAP3 SWAP2 SWAP1 PUSH2 0x3043 JUMP JUMPDEST PUSH1 0x40 DUP1 MLOAD DUP1 DUP4 SUB DUP2 DUP7 GAS STATICCALL ISZERO DUP1 ISZERO PUSH2 0x1543 JUMPI RETURNDATASIZE PUSH1 0x0 DUP1 RETURNDATACOPY RETURNDATASIZE PUSH1 0x0 REVERT JUMPDEST POP POP POP POP PUSH1 0x40 MLOAD RETURNDATASIZE PUSH1 0x1F NOT PUSH1 0x1F DUP3 ADD AND DUP3 ADD DUP1 PUSH1 0x40 MSTORE POP DUP2 ADD SWAP1 PUSH2 0x1567 SWAP2 SWAP1 PUSH2 0x30DD JUMP JUMPDEST SWAP1 POP SWAP5 SWAP4 POP POP POP POP JUMP JUMPDEST PUSH2 0x1579 PUSH2 0x1D08 JUMP JUMPDEST PUSH1 0x0 PUSH2 0x1588 DUP5 PUSH1 0x0 ADD MLOAD PUSH2 0x1830 JUMP JUMPDEST SWAP1 POP PUSH1 0x0 DUP5 PUSH1 0x20 ADD MLOAD GT ISZERO PUSH2 0x15A5 JUMPI PUSH2 0x15A4 DUP5 PUSH1 0x20 ADD MLOAD PUSH2 0x187E JUMP JUMPDEST JUMPDEST PUSH32 0x0 PUSH20 0xFFFFFFFFFFFFFFFFFFFFFFFFFFFFFFFFFFFFFFFF AND PUSH4 0x2637A450 DUP3 PUSH1 0x40 MLOAD DUP1 PUSH1 0xA0 ADD PUSH1 0x40 MSTORE DUP1 DUP12 PUSH4 0xFFFFFFFF AND DUP2 MSTORE PUSH1 0x20 ADD PUSH2 0x1602 DUP13 PUSH2 0xFA5 JUMP JUMPDEST DUP2 MSTORE PUSH1 0x20 ADD DUP11 DUP2 MSTORE PUSH1 0x20 ADD DUP10 DUP2 MSTORE PUSH1 0x20 ADD PUSH1 0x0 DUP10 PUSH1 0x20 ADD MLOAD GT ISZERO ISZERO DUP2 MSTORE POP DUP7 PUSH1 0x40 MLOAD DUP5 PUSH4 0xFFFFFFFF AND PUSH1 0xE0 SHL DUP2 MSTORE PUSH1 0x4 ADD PUSH2 0x163E SWAP3 SWAP2 SWAP1 PUSH2 0x3043 JUMP JUMPDEST PUSH1 0x80 PUSH1 0x40 MLOAD DUP1 DUP4 SUB DUP2 DUP6 DUP9 GAS CALL ISZERO DUP1 ISZERO PUSH2 0x165C JUMPI RETURNDATASIZE PUSH1 0x0 DUP1 RETURNDATACOPY RETURNDATASIZE PUSH1 0x0 REVERT JUMPDEST POP POP POP POP POP PUSH1 0x40 MLOAD RETURNDATASIZE PUSH1 0x1F NOT PUSH1 0x1F DUP3 ADD AND DUP3 ADD DUP1 PUSH1 0x40 MSTORE POP DUP2 ADD SWAP1 PUSH2 0x1681 SWAP2 SWAP1 PUSH2 0x31AF JUMP JUMPDEST SWAP2 POP POP SWAP6 SWAP5 POP POP POP POP POP JUMP JUMPDEST PUSH2 0x1695 PUSH2 0x19C8 JUMP JUMPDEST PUSH20 0xFFFFFFFFFFFFFFFFFFFFFFFFFFFFFFFFFFFFFFFF AND PUSH2 0x16B3 PUSH2 0xA8E JUMP JUMPDEST PUSH20 0xFFFFFFFFFFFFFFFFFFFFFFFFFFFFFFFFFFFFFFFF AND EQ PUSH2 0x1709 JUMPI PUSH1 0x40 MLOAD PUSH32 0x8C379A000000000000000000000000000000000000000000000000000000000 DUP2 MSTORE PUSH1 0x4 ADD PUSH2 0x1700 SWAP1 PUSH2 0x3228 JUMP JUMPDEST PUSH1 0x40 MLOAD DUP1 SWAP2 SUB SWAP1 REVERT JUMPDEST JUMP JUMPDEST DUP1 PUSH1 0x1 PUSH1 0x0 DUP5 PUSH4 0xFFFFFFFF AND PUSH4 0xFFFFFFFF AND DUP2 MSTORE PUSH1 0x20 ADD SWAP1 DUP2 MSTORE PUSH1 0x20 ADD PUSH1 0x0 KECCAK256 DUP2 SWAP1 SSTORE POP PUSH32 0x238399D427B947898EDB290F5FF0F9109849B1C3BA196A42E35F00C50A54B98B DUP3 DUP3 PUSH1 0x40 MLOAD PUSH2 0x1760 SWAP3 SWAP2 SWAP1 PUSH2 0x27ED JUMP JUMPDEST PUSH1 0x40 MLOAD DUP1 SWAP2 SUB SWAP1 LOG1 POP POP JUMP JUMPDEST PUSH1 0x0 DUP1 PUSH1 0x0 SWAP1 SLOAD SWAP1 PUSH2 0x100 EXP SWAP1 DIV PUSH20 0xFFFFFFFFFFFFFFFFFFFFFFFFFFFFFFFFFFFFFFFF AND SWAP1 POP DUP2 PUSH1 0x0 DUP1 PUSH2 0x100 EXP DUP2 SLOAD DUP2 PUSH20 0xFFFFFFFFFFFFFFFFFFFFFFFFFFFFFFFFFFFFFFFF MUL NOT AND SWAP1 DUP4 PUSH20 0xFFFFFFFFFFFFFFFFFFFFFFFFFFFFFFFFFFFFFFFF AND MUL OR SWAP1 SSTORE POP DUP2 PUSH20 0xFFFFFFFFFFFFFFFFFFFFFFFFFFFFFFFFFFFFFFFF AND DUP2 PUSH20 0xFFFFFFFFFFFFFFFFFFFFFFFFFFFFFFFFFFFFFFFF AND PUSH32 0x8BE0079C531659141344CD1FD0A4F28419497F9722A3DAAFE3B4186F6B6457E0 PUSH1 0x40 MLOAD PUSH1 0x40 MLOAD DUP1 SWAP2 SUB SWAP1 LOG3 POP POP JUMP JUMPDEST PUSH1 0x0 DUP2 CALLVALUE EQ PUSH2 0x1876 JUMPI CALLVALUE PUSH1 0x40 MLOAD PUSH32 0x9F70412000000000000000000000000000000000000000000000000000000000 DUP2 MSTORE PUSH1 0x4 ADD PUSH2 0x186D SWAP2 SWAP1 PUSH2 0x2778 JUMP JUMPDEST PUSH1 0x40 MLOAD DUP1 SWAP2 SUB SWAP1 REVERT JUMPDEST DUP2 SWAP1 POP SWAP2 SWAP1 POP JUMP JUMPDEST PUSH1 0x0 PUSH32 0x0 PUSH20 0xFFFFFFFFFFFFFFFFFFFFFFFFFFFFFFFFFFFFFFFF AND PUSH4 0xE4FE1D94 PUSH1 0x40 MLOAD DUP2 PUSH4 0xFFFFFFFF AND PUSH1 0xE0 SHL DUP2 MSTORE PUSH1 0x4 ADD PUSH1 0x20 PUSH1 0x40 MLOAD DUP1 DUP4 SUB DUP2 DUP7 GAS STATICCALL ISZERO DUP1 ISZERO PUSH2 0x18EB JUMPI RETURNDATASIZE PUSH1 0x0 DUP1 RETURNDATACOPY RETURNDATASIZE PUSH1 0x0 REVERT JUMPDEST POP POP POP POP PUSH1 0x40 MLOAD RETURNDATASIZE PUSH1 0x1F NOT PUSH1 0x1F DUP3 ADD AND DUP3 ADD DUP1 PUSH1 0x40 MSTORE POP DUP2 ADD SWAP1 PUSH2 0x190F SWAP2 SWAP1 PUSH2 0x325D JUMP JUMPDEST SWAP1 POP PUSH1 0x0 PUSH20 0xFFFFFFFFFFFFFFFFFFFFFFFFFFFFFFFFFFFFFFFF AND DUP2 PUSH20 0xFFFFFFFFFFFFFFFFFFFFFFFFFFFFFFFFFFFFFFFF AND SUB PUSH2 0x1977 JUMPI PUSH1 0x40 MLOAD PUSH32 0x5373352A00000000000000000000000000000000000000000000000000000000 DUP2 MSTORE PUSH1 0x4 ADD PUSH1 0x40 MLOAD DUP1 SWAP2 SUB SWAP1 REVERT JUMPDEST PUSH2 0x19C4 CALLER PUSH32 0x0 DUP5 DUP5 PUSH20 0xFFFFFFFFFFFFFFFFFFFFFFFFFFFFFFFFFFFFFFFF AND PUSH2 0x19D0 SWAP1 SWAP4 SWAP3 SWAP2 SWAP1 PUSH4 0xFFFFFFFF AND JUMP JUMPDEST POP POP JUMP JUMPDEST PUSH1 0x0 CALLER SWAP1 POP SWAP1 JUMP JUMPDEST PUSH2 0x1A53 DUP5 PUSH4 0x23B872DD PUSH1 0xE0 SHL DUP6 DUP6 DUP6 PUSH1 0x40 MLOAD PUSH1 0x24 ADD PUSH2 0x19F1 SWAP4 SWAP3 SWAP2 SWAP1 PUSH2 0x328A JUMP JUMPDEST PUSH1 0x40 MLOAD PUSH1 0x20 DUP2 DUP4 SUB SUB DUP2 MSTORE SWAP1 PUSH1 0x40 MSTORE SWAP1 PUSH28 0xFFFFFFFFFFFFFFFFFFFFFFFFFFFFFFFFFFFFFFFFFFFFFFFFFFFFFFFF NOT AND PUSH1 0x20 DUP3 ADD DUP1 MLOAD PUSH28 0xFFFFFFFFFFFFFFFFFFFFFFFFFFFFFFFFFFFFFFFFFFFFFFFFFFFFFFFF DUP4 DUP2 DUP4 AND OR DUP4 MSTORE POP POP POP POP PUSH2 0x1A59 JUMP JUMPDEST POP POP POP POP JUMP JUMPDEST PUSH1 0x0 PUSH2 0x1ABB DUP3 PUSH1 0x40 MLOAD DUP1 PUSH1 0x40 ADD PUSH1 0x40 MSTORE DUP1 PUSH1 0x20 DUP2 MSTORE PUSH1 0x20 ADD PUSH32 0x5361666545524332303A206C6F772D6C6576656C2063616C6C206661696C6564 DUP2 MSTORE POP DUP6 PUSH20 0xFFFFFFFFFFFFFFFFFFFFFFFFFFFFFFFFFFFFFFFF AND PUSH2 0x1B21 SWAP1 SWAP3 SWAP2 SWAP1 PUSH4 0xFFFFFFFF AND JUMP JUMPDEST SWAP1 POP PUSH1 0x0 DUP2 MLOAD EQ DUP1 PUSH2 0x1ADD JUMPI POP DUP1 DUP1 PUSH1 0x20 ADD SWAP1 MLOAD DUP2 ADD SWAP1 PUSH2 0x1ADC SWAP2 SWAP1 PUSH2 0x32ED JUMP JUMPDEST JUMPDEST PUSH2 0x1B1C JUMPI PUSH1 0x40 MLOAD PUSH32 0x8C379A000000000000000000000000000000000000000000000000000000000 DUP2 MSTORE PUSH1 0x4 ADD PUSH2 0x1B13 SWAP1 PUSH2 0x338C JUMP JUMPDEST PUSH1 0x40 MLOAD DUP1 SWAP2 SUB SWAP1 REVERT JUMPDEST POP POP POP JUMP JUMPDEST PUSH1 0x60 PUSH2 0x1B30 DUP5 DUP5 PUSH1 0x0 DUP6 PUSH2 0x1B39 JUMP JUMPDEST SWAP1 POP SWAP4 SWAP3 POP POP POP JUMP JUMPDEST PUSH1 0x60 DUP3 SELFBALANCE LT ISZERO PUSH2 0x1B7E JUMPI PUSH1 0x40 MLOAD PUSH32 0x8C379A000000000000000000000000000000000000000000000000000000000 DUP2 MSTORE PUSH1 0x4 ADD PUSH2 0x1B75 SWAP1 PUSH2 0x341E JUMP JUMPDEST PUSH1 0x40 MLOAD DUP1 SWAP2 SUB SWAP1 REVERT JUMPDEST PUSH1 0x0 DUP1 DUP7 PUSH20 0xFFFFFFFFFFFFFFFFFFFFFFFFFFFFFFFFFFFFFFFF AND DUP6 DUP8 PUSH1 0x40 MLOAD PUSH2 0x1BA7 SWAP2 SWAP1 PUSH2 0x346F JUMP JUMPDEST PUSH1 0x0 PUSH1 0x40 MLOAD DUP1 DUP4 SUB DUP2 DUP6 DUP8 GAS CALL SWAP3 POP POP POP RETURNDATASIZE DUP1 PUSH1 0x0 DUP2 EQ PUSH2 0x1BE4 JUMPI PUSH1 0x40 MLOAD SWAP2 POP PUSH1 0x1F NOT PUSH1 0x3F RETURNDATASIZE ADD AND DUP3 ADD PUSH1 0x40 MSTORE RETURNDATASIZE DUP3 MSTORE RETURNDATASIZE PUSH1 0x0 PUSH1 0x20 DUP5 ADD RETURNDATACOPY PUSH2 0x1BE9 JUMP JUMPDEST PUSH1 0x60 SWAP2 POP JUMPDEST POP SWAP2 POP SWAP2 POP PUSH2 0x1BFA DUP8 DUP4 DUP4 DUP8 PUSH2 0x1C06 JUMP JUMPDEST SWAP3 POP POP POP SWAP5 SWAP4 POP POP POP POP JUMP JUMPDEST PUSH1 0x60 DUP4 ISZERO PUSH2 0x1C68 JUMPI PUSH1 0x0 DUP4 MLOAD SUB PUSH2 0x1C60 JUMPI PUSH2 0x1C20 DUP6 PUSH2 0x1C7B JUMP JUMPDEST PUSH2 0x1C5F JUMPI PUSH1 0x40 MLOAD PUSH32 0x8C379A000000000000000000000000000000000000000000000000000000000 DUP2 MSTORE PUSH1 0x4 ADD PUSH2 0x1C56 SWAP1 PUSH2 0x34D2 JUMP JUMPDEST PUSH1 0x40 MLOAD DUP1 SWAP2 SUB SWAP1 REVERT JUMPDEST JUMPDEST DUP3 SWAP1 POP PUSH2 0x1C73 JUMP JUMPDEST PUSH2 0x1C72 DUP4 DUP4 PUSH2 0x1C9E JUMP JUMPDEST JUMPDEST SWAP5 SWAP4 POP POP POP POP JUMP JUMPDEST PUSH1 0x0 DUP1 DUP3 PUSH20 0xFFFFFFFFFFFFFFFFFFFFFFFFFFFFFFFFFFFFFFFF AND EXTCODESIZE GT SWAP1 POP SWAP2 SWAP1 POP JUMP JUMPDEST PUSH1 0x0 DUP3 MLOAD GT ISZERO PUSH2 0x1CB1 JUMPI DUP2 MLOAD DUP1 DUP4 PUSH1 0x20 ADD REVERT JUMPDEST DUP1 PUSH1 0x40 MLOAD PUSH32 0x8C379A000000000000000000000000000000000000000000000000000000000 DUP2 MSTORE PUSH1 0x4 ADD PUSH2 0x1CE5 SWAP2 SWAP1 PUSH2 0x352B JUMP JUMPDEST PUSH1 0x40 MLOAD DUP1 SWAP2 SUB SWAP1 REVERT JUMPDEST PUSH1 0x40 MLOAD DUP1 PUSH1 0x40 ADD PUSH1 0x40 MSTORE DUP1 PUSH1 0x0 DUP2 MSTORE PUSH1 0x20 ADD PUSH1 0x0 DUP2 MSTORE POP SWAP1 JUMP JUMPDEST PUSH1 0x40 MLOAD DUP1 PUSH1 0x60 ADD PUSH1 0x40 MSTORE DUP1 PUSH1 0x0 DUP1 NOT AND DUP2 MSTORE PUSH1 0x20 ADD PUSH1 0x0 PUSH8 0xFFFFFFFFFFFFFFFF AND DUP2 MSTORE PUSH1 0x20 ADD PUSH2 0x1D36 PUSH2 0x1CEE JUMP JUMPDEST DUP2 MSTORE POP SWAP1 JUMP JUMPDEST PUSH1 0x0 PUSH4 0xFFFFFFFF DUP3 AND SWAP1 POP SWAP2 SWAP1 POP JUMP JUMPDEST PUSH2 0x1D55 DUP2 PUSH2 0x1D3C JUMP JUMPDEST DUP3 MSTORE POP POP JUMP JUMPDEST PUSH1 0x0 PUSH1 0x20 DUP3 ADD SWAP1 POP PUSH2 0x1D70 PUSH1 0x0 DUP4 ADD DUP5 PUSH2 0x1D4C JUMP JUMPDEST SWAP3 SWAP2 POP POP JUMP JUMPDEST PUSH1 0x0 PUSH1 0x40 MLOAD SWAP1 POP SWAP1 JUMP JUMPDEST PUSH1 0x0 DUP1 REVERT JUMPDEST PUSH1 0x0 DUP1 REVERT JUMPDEST PUSH1 0x0 DUP1 REVERT JUMPDEST PUSH1 0x0 PUSH1 0x60 DUP3 DUP5 SUB SLT ISZERO PUSH2 0x1DA5 JUMPI PUSH2 0x1DA4 PUSH2 0x1D8A JUMP JUMPDEST JUMPDEST DUP2 SWAP1 POP SWAP3 SWAP2 POP POP JUMP JUMPDEST PUSH1 0x0 DUP2 SWAP1 POP SWAP2 SWAP1 POP JUMP JUMPDEST PUSH2 0x1DC1 DUP2 PUSH2 0x1DAE JUMP JUMPDEST DUP2 EQ PUSH2 0x1DCC JUMPI PUSH1 0x0 DUP1 REVERT JUMPDEST POP JUMP JUMPDEST PUSH1 0x0 DUP2 CALLDATALOAD SWAP1 POP PUSH2 0x1DDE DUP2 PUSH2 0x1DB8 JUMP JUMPDEST SWAP3 SWAP2 POP POP JUMP JUMPDEST PUSH1 0x0 DUP1 REVERT JUMPDEST PUSH1 0x0 DUP1 REVERT JUMPDEST PUSH1 0x0 DUP1 REVERT JUMPDEST PUSH1 0x0 DUP1 DUP4 PUSH1 0x1F DUP5 ADD SLT PUSH2 0x1E09 JUMPI PUSH2 0x1E08 PUSH2 0x1DE4 JUMP JUMPDEST JUMPDEST DUP3 CALLDATALOAD SWAP1 POP PUSH8 0xFFFFFFFFFFFFFFFF DUP2 GT ISZERO PUSH2 0x1E26 JUMPI PUSH2 0x1E25 PUSH2 0x1DE9 JUMP JUMPDEST JUMPDEST PUSH1 0x20 DUP4 ADD SWAP2 POP DUP4 PUSH1 0x1 DUP3 MUL DUP4 ADD GT ISZERO PUSH2 0x1E42 JUMPI PUSH2 0x1E41 PUSH2 0x1DEE JUMP JUMPDEST JUMPDEST SWAP3 POP SWAP3 SWAP1 POP JUMP JUMPDEST PUSH1 0x0 PUSH20 0xFFFFFFFFFFFFFFFFFFFFFFFFFFFFFFFFFFFFFFFF DUP3 AND SWAP1 POP SWAP2 SWAP1 POP JUMP JUMPDEST PUSH1 0x0 PUSH2 0x1E74 DUP3 PUSH2 0x1E49 JUMP JUMPDEST SWAP1 POP SWAP2 SWAP1 POP JUMP JUMPDEST PUSH2 0x1E84 DUP2 PUSH2 0x1E69 JUMP JUMPDEST DUP2 EQ PUSH2 0x1E8F JUMPI PUSH1 0x0 DUP1 REVERT JUMPDEST POP JUMP JUMPDEST PUSH1 0x0 DUP2 CALLDATALOAD SWAP1 POP PUSH2 0x1EA1 DUP2 PUSH2 0x1E7B JUMP JUMPDEST SWAP3 SWAP2 POP POP JUMP JUMPDEST PUSH1 0x0 DUP1 PUSH1 0x0 DUP1 PUSH1 0x0 DUP1 PUSH1 0x0 PUSH1 0xE0 DUP9 DUP11 SUB SLT ISZERO PUSH2 0x1EC6 JUMPI PUSH2 0x1EC5 PUSH2 0x1D80 JUMP JUMPDEST JUMPDEST PUSH1 0x0 PUSH2 0x1ED4 DUP11 DUP3 DUP12 ADD PUSH2 0x1D8F JUMP JUMPDEST SWAP8 POP POP PUSH1 0x60 PUSH2 0x1EE5 DUP11 DUP3 DUP12 ADD PUSH2 0x1DCF JUMP JUMPDEST SWAP7 POP POP PUSH1 0x80 DUP9 ADD CALLDATALOAD PUSH8 0xFFFFFFFFFFFFFFFF DUP2 GT ISZERO PUSH2 0x1F06 JUMPI PUSH2 0x1F05 PUSH2 0x1D85 JUMP JUMPDEST JUMPDEST PUSH2 0x1F12 DUP11 DUP3 DUP12 ADD PUSH2 0x1DF3 JUMP JUMPDEST SWAP6 POP SWAP6 POP POP PUSH1 0xA0 PUSH2 0x1F25 DUP11 DUP3 DUP12 ADD PUSH2 0x1E92 JUMP JUMPDEST SWAP4 POP POP PUSH1 0xC0 DUP9 ADD CALLDATALOAD PUSH8 0xFFFFFFFFFFFFFFFF DUP2 GT ISZERO PUSH2 0x1F46 JUMPI PUSH2 0x1F45 PUSH2 0x1D85 JUMP JUMPDEST JUMPDEST PUSH2 0x1F52 DUP11 DUP3 DUP12 ADD PUSH2 0x1DF3 JUMP JUMPDEST SWAP3 POP SWAP3 POP POP SWAP3 SWAP6 SWAP9 SWAP2 SWAP5 SWAP8 POP SWAP3 SWAP6 POP JUMP JUMPDEST PUSH1 0x0 PUSH8 0xFFFFFFFFFFFFFFFF DUP3 AND SWAP1 POP SWAP2 SWAP1 POP JUMP JUMPDEST PUSH2 0x1F80 DUP2 PUSH2 0x1F63 JUMP JUMPDEST DUP3 MSTORE POP POP JUMP JUMPDEST PUSH1 0x0 PUSH1 0x40 DUP3 ADD SWAP1 POP PUSH2 0x1F9B PUSH1 0x0 DUP4 ADD DUP6 PUSH2 0x1F77 JUMP JUMPDEST PUSH2 0x1FA8 PUSH1 0x20 DUP4 ADD DUP5 PUSH2 0x1F77 JUMP JUMPDEST SWAP4 SWAP3 POP POP POP JUMP JUMPDEST PUSH1 0x0 DUP1 REVERT JUMPDEST PUSH1 0x0 PUSH1 0x1F NOT PUSH1 0x1F DUP4 ADD AND SWAP1 POP SWAP2 SWAP1 POP JUMP JUMPDEST PUSH32 0x4E487B7100000000000000000000000000000000000000000000000000000000 PUSH1 0x0 MSTORE PUSH1 0x41 PUSH1 0x4 MSTORE PUSH1 0x24 PUSH1 0x0 REVERT JUMPDEST PUSH2 0x1FFD DUP3 PUSH2 0x1FB4 JUMP JUMPDEST DUP2 ADD DUP2 DUP2 LT PUSH8 0xFFFFFFFFFFFFFFFF DUP3 GT OR ISZERO PUSH2 0x201C JUMPI PUSH2 0x201B PUSH2 0x1FC5 JUMP JUMPDEST JUMPDEST DUP1 PUSH1 0x40 MSTORE POP POP POP JUMP JUMPDEST PUSH1 0x0 PUSH2 0x202F PUSH2 0x1D76 JUMP JUMPDEST SWAP1 POP PUSH2 0x203B DUP3 DUP3 PUSH2 0x1FF4 JUMP JUMPDEST SWAP2 SWAP1 POP JUMP JUMPDEST PUSH1 0x0 PUSH8 0xFFFFFFFFFFFFFFFF DUP3 GT ISZERO PUSH2 0x205B JUMPI PUSH2 0x205A PUSH2 0x1FC5 JUMP JUMPDEST JUMPDEST PUSH2 0x2064 DUP3 PUSH2 0x1FB4 JUMP JUMPDEST SWAP1 POP PUSH1 0x20 DUP2 ADD SWAP1 POP SWAP2 SWAP1 POP JUMP JUMPDEST DUP3 DUP2 DUP4 CALLDATACOPY PUSH1 0x0 DUP4 DUP4 ADD MSTORE POP POP POP JUMP JUMPDEST PUSH1 0x0 PUSH2 0x2093 PUSH2 0x208E DUP5 PUSH2 0x2040 JUMP JUMPDEST PUSH2 0x2025 JUMP JUMPDEST SWAP1 POP DUP3 DUP2 MSTORE PUSH1 0x20 DUP2 ADD DUP5 DUP5 DUP5 ADD GT ISZERO PUSH2 0x20AF JUMPI PUSH2 0x20AE PUSH2 0x1FAF JUMP JUMPDEST JUMPDEST PUSH2 0x20BA DUP5 DUP3 DUP6 PUSH2 0x2071 JUMP JUMPDEST POP SWAP4 SWAP3 POP POP POP JUMP JUMPDEST PUSH1 0x0 DUP3 PUSH1 0x1F DUP4 ADD SLT PUSH2 0x20D7 JUMPI PUSH2 0x20D6 PUSH2 0x1DE4 JUMP JUMPDEST JUMPDEST DUP2 CALLDATALOAD PUSH2 0x20E7 DUP5 DUP3 PUSH1 0x20 DUP7 ADD PUSH2 0x2080 JUMP JUMPDEST SWAP2 POP POP SWAP3 SWAP2 POP POP JUMP JUMPDEST PUSH1 0x0 PUSH1 0x20 DUP3 DUP5 SUB SLT ISZERO PUSH2 0x2106 JUMPI PUSH2 0x2105 PUSH2 0x1D80 JUMP JUMPDEST JUMPDEST PUSH1 0x0 DUP3 ADD CALLDATALOAD PUSH8 0xFFFFFFFFFFFFFFFF DUP2 GT ISZERO PUSH2 0x2124 JUMPI PUSH2 0x2123 PUSH2 0x1D85 JUMP JUMPDEST JUMPDEST PUSH2 0x2130 DUP5 DUP3 DUP6 ADD PUSH2 0x20C2 JUMP JUMPDEST SWAP2 POP POP SWAP3 SWAP2 POP POP JUMP JUMPDEST PUSH2 0x2142 DUP2 PUSH2 0x1D3C JUMP JUMPDEST DUP2 EQ PUSH2 0x214D JUMPI PUSH1 0x0 DUP1 REVERT JUMPDEST POP JUMP JUMPDEST PUSH1 0x0 DUP2 CALLDATALOAD SWAP1 POP PUSH2 0x215F DUP2 PUSH2 0x2139 JUMP JUMPDEST SWAP3 SWAP2 POP POP JUMP JUMPDEST PUSH1 0x0 DUP1 PUSH1 0x40 DUP4 DUP6 SUB SLT ISZERO PUSH2 0x217C JUMPI PUSH2 0x217B PUSH2 0x1D80 JUMP JUMPDEST JUMPDEST PUSH1 0x0 PUSH2 0x218A DUP6 DUP3 DUP7 ADD PUSH2 0x2150 JUMP JUMPDEST SWAP3 POP POP PUSH1 0x20 PUSH2 0x219B DUP6 DUP3 DUP7 ADD PUSH2 0x1DCF JUMP JUMPDEST SWAP2 POP POP SWAP3 POP SWAP3 SWAP1 POP JUMP JUMPDEST PUSH1 0x0 DUP2 SWAP1 POP SWAP2 SWAP1 POP JUMP JUMPDEST PUSH2 0x21B8 DUP2 PUSH2 0x21A5 JUMP JUMPDEST DUP3 MSTORE POP POP JUMP JUMPDEST PUSH1 0x40 DUP3 ADD PUSH1 0x0 DUP3 ADD MLOAD PUSH2 0x21D4 PUSH1 0x0 DUP6 ADD DUP3 PUSH2 0x21AF JUMP JUMPDEST POP PUSH1 0x20 DUP3 ADD MLOAD PUSH2 0x21E7 PUSH1 0x20 DUP6 ADD DUP3 PUSH2 0x21AF JUMP JUMPDEST POP POP POP POP JUMP JUMPDEST PUSH1 0x0 PUSH1 0x40 DUP3 ADD SWAP1 POP PUSH2 0x2202 PUSH1 0x0 DUP4 ADD DUP5 PUSH2 0x21BE JUMP JUMPDEST SWAP3 SWAP2 POP POP JUMP JUMPDEST PUSH1 0x0 DUP2 SWAP1 POP SWAP2 SWAP1 POP JUMP JUMPDEST PUSH1 0x0 PUSH2 0x222D PUSH2 0x2228 PUSH2 0x2223 DUP5 PUSH2 0x1E49 JUMP JUMPDEST PUSH2 0x2208 JUMP JUMPDEST PUSH2 0x1E49 JUMP JUMPDEST SWAP1 POP SWAP2 SWAP1 POP JUMP JUMPDEST PUSH1 0x0 PUSH2 0x223F DUP3 PUSH2 0x2212 JUMP JUMPDEST SWAP1 POP SWAP2 SWAP1 POP JUMP JUMPDEST PUSH1 0x0 PUSH2 0x2251 DUP3 PUSH2 0x2234 JUMP JUMPDEST SWAP1 POP SWAP2 SWAP1 POP JUMP JUMPDEST PUSH2 0x2261 DUP2 PUSH2 0x2246 JUMP JUMPDEST DUP3 MSTORE POP POP JUMP JUMPDEST PUSH1 0x0 PUSH1 0x20 DUP3 ADD SWAP1 POP PUSH2 0x227C PUSH1 0x0 DUP4 ADD DUP5 PUSH2 0x2258 JUMP JUMPDEST SWAP3 SWAP2 POP POP JUMP JUMPDEST PUSH2 0x228B DUP2 PUSH2 0x21A5 JUMP JUMPDEST DUP2 EQ PUSH2 0x2296 JUMPI PUSH1 0x0 DUP1 REVERT JUMPDEST POP JUMP JUMPDEST PUSH1 0x0 DUP2 CALLDATALOAD SWAP1 POP PUSH2 0x22A8 DUP2 PUSH2 0x2282 JUMP JUMPDEST SWAP3 SWAP2 POP POP JUMP JUMPDEST PUSH1 0x0 DUP1 PUSH1 0x40 DUP4 DUP6 SUB SLT ISZERO PUSH2 0x22C5 JUMPI PUSH2 0x22C4 PUSH2 0x1D80 JUMP JUMPDEST JUMPDEST PUSH1 0x0 PUSH2 0x22D3 DUP6 DUP3 DUP7 ADD PUSH2 0x1E92 JUMP JUMPDEST SWAP3 POP POP PUSH1 0x20 PUSH2 0x22E4 DUP6 DUP3 DUP7 ADD PUSH2 0x2299 JUMP JUMPDEST SWAP2 POP POP SWAP3 POP SWAP3 SWAP1 POP JUMP JUMPDEST PUSH1 0x0 DUP2 MLOAD SWAP1 POP SWAP2 SWAP1 POP JUMP JUMPDEST PUSH1 0x0 DUP3 DUP3 MSTORE PUSH1 0x20 DUP3 ADD SWAP1 POP SWAP3 SWAP2 POP POP JUMP JUMPDEST PUSH1 0x0 JUMPDEST DUP4 DUP2 LT ISZERO PUSH2 0x2328 JUMPI DUP1 DUP3 ADD MLOAD DUP2 DUP5 ADD MSTORE PUSH1 0x20 DUP2 ADD SWAP1 POP PUSH2 0x230D JUMP JUMPDEST PUSH1 0x0 DUP5 DUP5 ADD MSTORE POP POP POP POP JUMP JUMPDEST PUSH1 0x0 PUSH2 0x233F DUP3 PUSH2 0x22EE JUMP JUMPDEST PUSH2 0x2349 DUP2 DUP6 PUSH2 0x22F9 JUMP JUMPDEST SWAP4 POP PUSH2 0x2359 DUP2 DUP6 PUSH1 0x20 DUP7 ADD PUSH2 0x230A JUMP JUMPDEST PUSH2 0x2362 DUP2 PUSH2 0x1FB4 JUMP JUMPDEST DUP5 ADD SWAP2 POP POP SWAP3 SWAP2 POP POP JUMP JUMPDEST PUSH1 0x0 PUSH1 0x20 DUP3 ADD SWAP1 POP DUP2 DUP2 SUB PUSH1 0x0 DUP4 ADD MSTORE PUSH2 0x2387 DUP2 DUP5 PUSH2 0x2334 JUMP JUMPDEST SWAP1 POP SWAP3 SWAP2 POP POP JUMP JUMPDEST PUSH1 0x0 PUSH1 0x20 DUP3 ADD SWAP1 POP PUSH2 0x23A4 PUSH1 0x0 DUP4 ADD DUP5 PUSH2 0x1F77 JUMP JUMPDEST SWAP3 SWAP2 POP POP JUMP JUMPDEST PUSH1 0x0 DUP1 PUSH1 0x0 DUP1 PUSH1 0xA0 DUP6 DUP8 SUB SLT ISZERO PUSH2 0x23C4 JUMPI PUSH2 0x23C3 PUSH2 0x1D80 JUMP JUMPDEST JUMPDEST PUSH1 0x0 PUSH2 0x23D2 DUP8 DUP3 DUP9 ADD PUSH2 0x1D8F JUMP JUMPDEST SWAP5 POP POP PUSH1 0x60 DUP6 ADD CALLDATALOAD PUSH8 0xFFFFFFFFFFFFFFFF DUP2 GT ISZERO PUSH2 0x23F3 JUMPI PUSH2 0x23F2 PUSH2 0x1D85 JUMP JUMPDEST JUMPDEST PUSH2 0x23FF DUP8 DUP3 DUP9 ADD PUSH2 0x1DF3 JUMP JUMPDEST SWAP4 POP SWAP4 POP POP PUSH1 0x80 PUSH2 0x2412 DUP8 DUP3 DUP9 ADD PUSH2 0x1E92 JUMP JUMPDEST SWAP2 POP POP SWAP3 SWAP6 SWAP2 SWAP5 POP SWAP3 POP JUMP JUMPDEST PUSH1 0x0 DUP2 ISZERO ISZERO SWAP1 POP SWAP2 SWAP1 POP JUMP JUMPDEST PUSH2 0x2433 DUP2 PUSH2 0x241E JUMP JUMPDEST DUP3 MSTORE POP POP JUMP JUMPDEST PUSH1 0x0 PUSH1 0x20 DUP3 ADD SWAP1 POP PUSH2 0x244E PUSH1 0x0 DUP4 ADD DUP5 PUSH2 0x242A JUMP JUMPDEST SWAP3 SWAP2 POP POP JUMP JUMPDEST PUSH2 0x245D DUP2 PUSH2 0x1E69 JUMP JUMPDEST DUP3 MSTORE POP POP JUMP JUMPDEST PUSH1 0x0 PUSH1 0x20 DUP3 ADD SWAP1 POP PUSH2 0x2478 PUSH1 0x0 DUP4 ADD DUP5 PUSH2 0x2454 JUMP JUMPDEST SWAP3 SWAP2 POP POP JUMP JUMPDEST PUSH1 0x0 PUSH1 0x20 DUP3 DUP5 SUB SLT ISZERO PUSH2 0x2494 JUMPI PUSH2 0x2493 PUSH2 0x1D80 JUMP JUMPDEST JUMPDEST PUSH1 0x0 PUSH2 0x24A2 DUP5 DUP3 DUP6 ADD PUSH2 0x1E92 JUMP JUMPDEST SWAP2 POP POP SWAP3 SWAP2 POP POP JUMP JUMPDEST PUSH1 0x0 DUP2 MLOAD SWAP1 POP SWAP2 SWAP1 POP JUMP JUMPDEST PUSH1 0x0 DUP3 DUP3 MSTORE PUSH1 0x20 DUP3 ADD SWAP1 POP SWAP3 SWAP2 POP POP JUMP JUMPDEST PUSH1 0x0 DUP2 SWAP1 POP PUSH1 0x20 DUP3 ADD SWAP1 POP SWAP2 SWAP1 POP JUMP JUMPDEST PUSH1 0x0 DUP3 DUP3 MSTORE PUSH1 0x20 DUP3 ADD SWAP1 POP SWAP3 SWAP2 POP POP JUMP JUMPDEST PUSH1 0x0 PUSH2 0x24F3 DUP3 PUSH2 0x22EE JUMP JUMPDEST PUSH2 0x24FD DUP2 DUP6 PUSH2 0x24D7 JUMP JUMPDEST SWAP4 POP PUSH2 0x250D DUP2 DUP6 PUSH1 0x20 DUP7 ADD PUSH2 0x230A JUMP JUMPDEST PUSH2 0x2516 DUP2 PUSH2 0x1FB4 JUMP JUMPDEST DUP5 ADD SWAP2 POP POP SWAP3 SWAP2 POP POP JUMP JUMPDEST PUSH1 0x0 PUSH2 0x252D DUP4 DUP4 PUSH2 0x24E8 JUMP JUMPDEST SWAP1 POP SWAP3 SWAP2 POP POP JUMP JUMPDEST PUSH1 0x0 PUSH1 0x20 DUP3 ADD SWAP1 POP SWAP2 SWAP1 POP JUMP JUMPDEST PUSH1 0x0 PUSH2 0x254D DUP3 PUSH2 0x24AB JUMP JUMPDEST PUSH2 0x2557 DUP2 DUP6 PUSH2 0x24B6 JUMP JUMPDEST SWAP4 POP DUP4 PUSH1 0x20 DUP3 MUL DUP6 ADD PUSH2 0x2569 DUP6 PUSH2 0x24C7 JUMP JUMPDEST DUP1 PUSH1 0x0 JUMPDEST DUP6 DUP2 LT ISZERO PUSH2 0x25A5 JUMPI DUP5 DUP5 SUB DUP10 MSTORE DUP2 MLOAD PUSH2 0x2586 DUP6 DUP3 PUSH2 0x2521 JUMP JUMPDEST SWAP5 POP PUSH2 0x2591 DUP4 PUSH2 0x2535 JUMP JUMPDEST SWAP3 POP PUSH1 0x20 DUP11 ADD SWAP10 POP POP PUSH1 0x1 DUP2 ADD SWAP1 POP PUSH2 0x256D JUMP JUMPDEST POP DUP3 SWAP8 POP DUP8 SWAP6 POP POP POP POP POP POP SWAP3 SWAP2 POP POP JUMP JUMPDEST PUSH1 0x0 PUSH1 0x20 DUP3 ADD SWAP1 POP DUP2 DUP2 SUB PUSH1 0x0 DUP4 ADD MSTORE PUSH2 0x25D1 DUP2 DUP5 PUSH2 0x2542 JUMP JUMPDEST SWAP1 POP SWAP3 SWAP2 POP POP JUMP JUMPDEST PUSH1 0x0 DUP2 MLOAD SWAP1 POP SWAP2 SWAP1 POP JUMP JUMPDEST PUSH1 0x0 DUP3 DUP3 MSTORE PUSH1 0x20 DUP3 ADD SWAP1 POP SWAP3 SWAP2 POP POP JUMP JUMPDEST PUSH1 0x0 DUP2 SWAP1 POP PUSH1 0x20 DUP3 ADD SWAP1 POP SWAP2 SWAP1 POP JUMP JUMPDEST PUSH1 0x0 DUP2 MLOAD SWAP1 POP SWAP2 SWAP1 POP JUMP JUMPDEST PUSH1 0x0 DUP3 DUP3 MSTORE PUSH1 0x20 DUP3 ADD SWAP1 POP SWAP3 SWAP2 POP POP JUMP JUMPDEST PUSH1 0x0 PUSH2 0x262C DUP3 PUSH2 0x2605 JUMP JUMPDEST PUSH2 0x2636 DUP2 DUP6 PUSH2 0x2610 JUMP JUMPDEST SWAP4 POP PUSH2 0x2646 DUP2 DUP6 PUSH1 0x20 DUP7 ADD PUSH2 0x230A JUMP JUMPDEST PUSH2 0x264F DUP2 PUSH2 0x1FB4 JUMP JUMPDEST DUP5 ADD SWAP2 POP POP SWAP3 SWAP2 POP POP JUMP JUMPDEST PUSH1 0x0 PUSH2 0x2666 DUP4 DUP4 PUSH2 0x2621 JUMP JUMPDEST SWAP1 POP SWAP3 SWAP2 POP POP JUMP JUMPDEST PUSH1 0x0 PUSH1 0x20 DUP3 ADD SWAP1 POP SWAP2 SWAP1 POP JUMP JUMPDEST PUSH1 0x0 PUSH2 0x2686 DUP3 PUSH2 0x25D9 JUMP JUMPDEST PUSH2 0x2690 DUP2 DUP6 PUSH2 0x25E4 JUMP JUMPDEST SWAP4 POP DUP4 PUSH1 0x20 DUP3 MUL DUP6 ADD PUSH2 0x26A2 DUP6 PUSH2 0x25F5 JUMP JUMPDEST DUP1 PUSH1 0x0 JUMPDEST DUP6 DUP2 LT ISZERO PUSH2 0x26DE JUMPI DUP5 DUP5 SUB DUP10 MSTORE DUP2 MLOAD PUSH2 0x26BF DUP6 DUP3 PUSH2 0x265A JUMP JUMPDEST SWAP5 POP PUSH2 0x26CA DUP4 PUSH2 0x266E JUMP JUMPDEST SWAP3 POP PUSH1 0x20 DUP11 ADD SWAP10 POP POP PUSH1 0x1 DUP2 ADD SWAP1 POP PUSH2 0x26A6 JUMP JUMPDEST POP DUP3 SWAP8 POP DUP8 SWAP6 POP POP POP POP POP POP SWAP3 SWAP2 POP POP JUMP JUMPDEST PUSH1 0x0 PUSH1 0x20 DUP3 ADD SWAP1 POP DUP2 DUP2 SUB PUSH1 0x0 DUP4 ADD MSTORE PUSH2 0x270A DUP2 DUP5 PUSH2 0x267B JUMP JUMPDEST SWAP1 POP SWAP3 SWAP2 POP POP JUMP JUMPDEST PUSH1 0x0 PUSH1 0x20 DUP3 DUP5 SUB SLT ISZERO PUSH2 0x2728 JUMPI PUSH2 0x2727 PUSH2 0x1D80 JUMP JUMPDEST JUMPDEST PUSH1 0x0 PUSH2 0x2736 DUP5 DUP3 DUP6 ADD PUSH2 0x2150 JUMP JUMPDEST SWAP2 POP POP SWAP3 SWAP2 POP POP JUMP JUMPDEST PUSH2 0x2748 DUP2 PUSH2 0x1DAE JUMP JUMPDEST DUP3 MSTORE POP POP JUMP JUMPDEST PUSH1 0x0 PUSH1 0x20 DUP3 ADD SWAP1 POP PUSH2 0x2763 PUSH1 0x0 DUP4 ADD DUP5 PUSH2 0x273F JUMP JUMPDEST SWAP3 SWAP2 POP POP JUMP JUMPDEST PUSH2 0x2772 DUP2 PUSH2 0x21A5 JUMP JUMPDEST DUP3 MSTORE POP POP JUMP JUMPDEST PUSH1 0x0 PUSH1 0x20 DUP3 ADD SWAP1 POP PUSH2 0x278D PUSH1 0x0 DUP4 ADD DUP5 PUSH2 0x2769 JUMP JUMPDEST SWAP3 SWAP2 POP POP JUMP JUMPDEST PUSH1 0x0 PUSH1 0x20 DUP3 DUP5 SUB SLT ISZERO PUSH2 0x27A9 JUMPI PUSH2 0x27A8 PUSH2 0x1D80 JUMP JUMPDEST JUMPDEST PUSH1 0x0 PUSH2 0x27B7 DUP5 DUP3 DUP6 ADD PUSH2 0x2299 JUMP JUMPDEST SWAP2 POP POP SWAP3 SWAP2 POP POP JUMP JUMPDEST PUSH1 0x0 PUSH1 0x60 DUP3 DUP5 SUB SLT ISZERO PUSH2 0x27D6 JUMPI PUSH2 0x27D5 PUSH2 0x1D80 JUMP JUMPDEST JUMPDEST PUSH1 0x0 PUSH2 0x27E4 DUP5 DUP3 DUP6 ADD PUSH2 0x1D8F JUMP JUMPDEST SWAP2 POP POP SWAP3 SWAP2 POP POP JUMP JUMPDEST PUSH1 0x0 PUSH1 0x40 DUP3 ADD SWAP1 POP PUSH2 0x2802 PUSH1 0x0 DUP4 ADD DUP6 PUSH2 0x1D4C JUMP JUMPDEST PUSH2 0x280F PUSH1 0x20 DUP4 ADD DUP5 PUSH2 0x273F JUMP JUMPDEST SWAP4 SWAP3 POP POP POP JUMP JUMPDEST PUSH1 0x0 DUP2 SWAP1 POP SWAP3 SWAP2 POP POP JUMP JUMPDEST PUSH1 0x0 PUSH2 0x282C DUP3 PUSH2 0x2605 JUMP JUMPDEST PUSH2 0x2836 DUP2 DUP6 PUSH2 0x2816 JUMP JUMPDEST SWAP4 POP PUSH2 0x2846 DUP2 DUP6 PUSH1 0x20 DUP7 ADD PUSH2 0x230A JUMP JUMPDEST DUP1 DUP5 ADD SWAP2 POP POP SWAP3 SWAP2 POP POP JUMP JUMPDEST PUSH32 0x2C00000000000000000000000000000000000000000000000000000000000000 PUSH1 0x0 DUP3 ADD MSTORE POP JUMP JUMPDEST PUSH1 0x0 PUSH2 0x2888 PUSH1 0x1 DUP4 PUSH2 0x2816 JUMP JUMPDEST SWAP2 POP PUSH2 0x2893 DUP3 PUSH2 0x2852 JUMP JUMPDEST PUSH1 0x1 DUP3 ADD SWAP1 POP SWAP2 SWAP1 POP JUMP JUMPDEST PUSH1 0x0 PUSH2 0x28AA DUP3 DUP7 PUSH2 0x2821 JUMP JUMPDEST SWAP2 POP PUSH2 0x28B5 DUP3 PUSH2 0x287B JUMP JUMPDEST SWAP2 POP PUSH2 0x28C1 DUP3 DUP6 PUSH2 0x2821 JUMP JUMPDEST SWAP2 POP PUSH2 0x28CC DUP3 PUSH2 0x287B JUMP JUMPDEST SWAP2 POP PUSH2 0x28D8 DUP3 DUP5 PUSH2 0x2821 JUMP JUMPDEST SWAP2 POP DUP2 SWAP1 POP SWAP5 SWAP4 POP POP POP POP JUMP JUMPDEST PUSH32 0x4E487B7100000000000000000000000000000000000000000000000000000000 PUSH1 0x0 MSTORE PUSH1 0x22 PUSH1 0x4 MSTORE PUSH1 0x24 PUSH1 0x0 REVERT JUMPDEST PUSH1 0x0 PUSH1 0x2 DUP3 DIV SWAP1 POP PUSH1 0x1 DUP3 AND DUP1 PUSH2 0x292C JUMPI PUSH1 0x7F DUP3 AND SWAP2 POP JUMPDEST PUSH1 0x20 DUP3 LT DUP2 SUB PUSH2 0x293F JUMPI PUSH2 0x293E PUSH2 0x28E5 JUMP JUMPDEST JUMPDEST POP SWAP2 SWAP1 POP JUMP JUMPDEST PUSH1 0x0 DUP2 SWAP1 POP DUP2 PUSH1 0x0 MSTORE PUSH1 0x20 PUSH1 0x0 KECCAK256 SWAP1 POP SWAP2 SWAP1 POP JUMP JUMPDEST PUSH1 0x0 PUSH1 0x20 PUSH1 0x1F DUP4 ADD DIV SWAP1 POP SWAP2 SWAP1 POP JUMP JUMPDEST PUSH1 0x0 DUP3 DUP3 SHL SWAP1 POP SWAP3 SWAP2 POP POP JUMP JUMPDEST PUSH1 0x0 PUSH1 0x8 DUP4 MUL PUSH2 0x29A7 PUSH32 0xFFFFFFFFFFFFFFFFFFFFFFFFFFFFFFFFFFFFFFFFFFFFFFFFFFFFFFFFFFFFFFFF DUP3 PUSH2 0x296A JUMP JUMPDEST PUSH2 0x29B1 DUP7 DUP4 PUSH2 0x296A JUMP JUMPDEST SWAP6 POP DUP1 NOT DUP5 AND SWAP4 POP DUP1 DUP7 AND DUP5 OR SWAP3 POP POP POP SWAP4 SWAP3 POP POP POP JUMP JUMPDEST PUSH1 0x0 PUSH2 0x29E4 PUSH2 0x29DF PUSH2 0x29DA DUP5 PUSH2 0x21A5 JUMP JUMPDEST PUSH2 0x2208 JUMP JUMPDEST PUSH2 0x21A5 JUMP JUMPDEST SWAP1 POP SWAP2 SWAP1 POP JUMP JUMPDEST PUSH1 0x0 DUP2 SWAP1 POP SWAP2 SWAP1 POP JUMP JUMPDEST PUSH2 0x29FE DUP4 PUSH2 0x29C9 JUMP JUMPDEST PUSH2 0x2A12 PUSH2 0x2A0A DUP3 PUSH2 0x29EB JUMP JUMPDEST DUP5 DUP5 SLOAD PUSH2 0x2977 JUMP JUMPDEST DUP3 SSTORE POP POP POP POP JUMP JUMPDEST PUSH1 0x0 SWAP1 JUMP JUMPDEST PUSH2 0x2A27 PUSH2 0x2A1A JUMP JUMPDEST PUSH2 0x2A32 DUP2 DUP5 DUP5 PUSH2 0x29F5 JUMP JUMPDEST POP POP POP JUMP JUMPDEST JUMPDEST DUP2 DUP2 LT ISZERO PUSH2 0x2A56 JUMPI PUSH2 0x2A4B PUSH1 0x0 DUP3 PUSH2 0x2A1F JUMP JUMPDEST PUSH1 0x1 DUP2 ADD SWAP1 POP PUSH2 0x2A38 JUMP JUMPDEST POP POP JUMP JUMPDEST PUSH1 0x1F DUP3 GT ISZERO PUSH2 0x2A9B JUMPI PUSH2 0x2A6C DUP2 PUSH2 0x2945 JUMP JUMPDEST PUSH2 0x2A75 DUP5 PUSH2 0x295A JUMP JUMPDEST DUP2 ADD PUSH1 0x20 DUP6 LT ISZERO PUSH2 0x2A84 JUMPI DUP2 SWAP1 POP JUMPDEST PUSH2 0x2A98 PUSH2 0x2A90 DUP6 PUSH2 0x295A JUMP JUMPDEST DUP4 ADD DUP3 PUSH2 0x2A37 JUMP JUMPDEST POP POP JUMPDEST POP POP POP JUMP JUMPDEST PUSH1 0x0 DUP3 DUP3 SHR SWAP1 POP SWAP3 SWAP2 POP POP JUMP JUMPDEST PUSH1 0x0 PUSH2 0x2ABE PUSH1 0x0 NOT DUP5 PUSH1 0x8 MUL PUSH2 0x2AA0 JUMP JUMPDEST NOT DUP1 DUP4 AND SWAP2 POP POP SWAP3 SWAP2 POP POP JUMP JUMPDEST PUSH1 0x0 PUSH2 0x2AD7 DUP4 DUP4 PUSH2 0x2AAD JUMP JUMPDEST SWAP2 POP DUP3 PUSH1 0x2 MUL DUP3 OR SWAP1 POP SWAP3 SWAP2 POP POP JUMP JUMPDEST PUSH2 0x2AF0 DUP3 PUSH2 0x22EE JUMP JUMPDEST PUSH8 0xFFFFFFFFFFFFFFFF DUP2 GT ISZERO PUSH2 0x2B09 JUMPI PUSH2 0x2B08 PUSH2 0x1FC5 JUMP JUMPDEST JUMPDEST PUSH2 0x2B13 DUP3 SLOAD PUSH2 0x2914 JUMP JUMPDEST PUSH2 0x2B1E DUP3 DUP3 DUP6 PUSH2 0x2A5A JUMP JUMPDEST PUSH1 0x0 PUSH1 0x20 SWAP1 POP PUSH1 0x1F DUP4 GT PUSH1 0x1 DUP2 EQ PUSH2 0x2B51 JUMPI PUSH1 0x0 DUP5 ISZERO PUSH2 0x2B3F JUMPI DUP3 DUP8 ADD MLOAD SWAP1 POP JUMPDEST PUSH2 0x2B49 DUP6 DUP3 PUSH2 0x2ACB JUMP JUMPDEST DUP7 SSTORE POP PUSH2 0x2BB1 JUMP JUMPDEST PUSH1 0x1F NOT DUP5 AND PUSH2 0x2B5F DUP7 PUSH2 0x2945 JUMP JUMPDEST PUSH1 0x0 JUMPDEST DUP3 DUP2 LT ISZERO PUSH2 0x2B87 JUMPI DUP5 DUP10 ADD MLOAD DUP3 SSTORE PUSH1 0x1 DUP3 ADD SWAP2 POP PUSH1 0x20 DUP6 ADD SWAP5 POP PUSH1 0x20 DUP2 ADD SWAP1 POP PUSH2 0x2B62 JUMP JUMPDEST DUP7 DUP4 LT ISZERO PUSH2 0x2BA4 JUMPI DUP5 DUP10 ADD MLOAD PUSH2 0x2BA0 PUSH1 0x1F DUP10 AND DUP3 PUSH2 0x2AAD JUMP JUMPDEST DUP4 SSTORE POP JUMPDEST PUSH1 0x1 PUSH1 0x2 DUP9 MUL ADD DUP9 SSTORE POP POP POP JUMPDEST POP POP POP POP POP POP JUMP JUMPDEST PUSH1 0x0 PUSH1 0x60 DUP3 ADD SWAP1 POP PUSH2 0x2BCE PUSH1 0x0 DUP4 ADD DUP7 PUSH2 0x2454 JUMP JUMPDEST DUP2 DUP2 SUB PUSH1 0x20 DUP4 ADD MSTORE PUSH2 0x2BE0 DUP2 DUP6 PUSH2 0x2334 JUMP JUMPDEST SWAP1 POP PUSH2 0x2BEF PUSH1 0x40 DUP4 ADD DUP5 PUSH2 0x2769 JUMP JUMPDEST SWAP5 SWAP4 POP POP POP POP JUMP JUMPDEST PUSH1 0x0 DUP3 DUP3 MSTORE PUSH1 0x20 DUP3 ADD SWAP1 POP SWAP3 SWAP2 POP POP JUMP JUMPDEST PUSH32 0x496E73756666696369656E742066656500000000000000000000000000000000 PUSH1 0x0 DUP3 ADD MSTORE POP JUMP JUMPDEST PUSH1 0x0 PUSH2 0x2C3E PUSH1 0x10 DUP4 PUSH2 0x2BF7 JUMP JUMPDEST SWAP2 POP PUSH2 0x2C49 DUP3 PUSH2 0x2C08 JUMP JUMPDEST PUSH1 0x20 DUP3 ADD SWAP1 POP SWAP2 SWAP1 POP JUMP JUMPDEST PUSH1 0x0 PUSH1 0x20 DUP3 ADD SWAP1 POP DUP2 DUP2 SUB PUSH1 0x0 DUP4 ADD MSTORE PUSH2 0x2C6D DUP2 PUSH2 0x2C31 JUMP JUMPDEST SWAP1 POP SWAP2 SWAP1 POP JUMP JUMPDEST PUSH1 0x0 DUP2 SWAP1 POP SWAP3 SWAP2 POP POP JUMP JUMPDEST POP JUMP JUMPDEST PUSH1 0x0 PUSH2 0x2C8F PUSH1 0x0 DUP4 PUSH2 0x2C74 JUMP JUMPDEST SWAP2 POP PUSH2 0x2C9A DUP3 PUSH2 0x2C7F JUMP JUMPDEST PUSH1 0x0 DUP3 ADD SWAP1 POP SWAP2 SWAP1 POP JUMP JUMPDEST PUSH1 0x0 PUSH2 0x2CB0 DUP3 PUSH2 0x2C82 JUMP JUMPDEST SWAP2 POP DUP2 SWAP1 POP SWAP2 SWAP1 POP JUMP JUMPDEST PUSH32 0x5472616E73666572206661696C65640000000000000000000000000000000000 PUSH1 0x0 DUP3 ADD MSTORE POP JUMP JUMPDEST PUSH1 0x0 PUSH2 0x2CF0 PUSH1 0xF DUP4 PUSH2 0x2BF7 JUMP JUMPDEST SWAP2 POP PUSH2 0x2CFB DUP3 PUSH2 0x2CBA JUMP JUMPDEST PUSH1 0x20 DUP3 ADD SWAP1 POP SWAP2 SWAP1 POP JUMP JUMPDEST PUSH1 0x0 PUSH1 0x20 DUP3 ADD SWAP1 POP DUP2 DUP2 SUB PUSH1 0x0 DUP4 ADD MSTORE PUSH2 0x2D1F DUP2 PUSH2 0x2CE3 JUMP JUMPDEST SWAP1 POP SWAP2 SWAP1 POP JUMP JUMPDEST PUSH32 0x4E487B7100000000000000000000000000000000000000000000000000000000 PUSH1 0x0 MSTORE PUSH1 0x32 PUSH1 0x4 MSTORE PUSH1 0x24 PUSH1 0x0 REVERT JUMPDEST PUSH32 0x4E487B7100000000000000000000000000000000000000000000000000000000 PUSH1 0x0 MSTORE PUSH1 0x11 PUSH1 0x4 MSTORE PUSH1 0x24 PUSH1 0x0 REVERT JUMPDEST PUSH1 0x0 PUSH2 0x2D8F DUP3 PUSH2 0x21A5 JUMP JUMPDEST SWAP2 POP PUSH32 0xFFFFFFFFFFFFFFFFFFFFFFFFFFFFFFFFFFFFFFFFFFFFFFFFFFFFFFFFFFFFFFFF DUP3 SUB PUSH2 0x2DC1 JUMPI PUSH2 0x2DC0 PUSH2 0x2D55 JUMP JUMPDEST JUMPDEST PUSH1 0x1 DUP3 ADD SWAP1 POP SWAP2 SWAP1 POP JUMP JUMPDEST PUSH32 0x4F776E61626C653A206E6577206F776E657220697320746865207A65726F2061 PUSH1 0x0 DUP3 ADD MSTORE PUSH32 0x6464726573730000000000000000000000000000000000000000000000000000 PUSH1 0x20 DUP3 ADD MSTORE POP JUMP JUMPDEST PUSH1 0x0 PUSH2 0x2E28 PUSH1 0x26 DUP4 PUSH2 0x2BF7 JUMP JUMPDEST SWAP2 POP PUSH2 0x2E33 DUP3 PUSH2 0x2DCC JUMP JUMPDEST PUSH1 0x40 DUP3 ADD SWAP1 POP SWAP2 SWAP1 POP JUMP JUMPDEST PUSH1 0x0 PUSH1 0x20 DUP3 ADD SWAP1 POP DUP2 DUP2 SUB PUSH1 0x0 DUP4 ADD MSTORE PUSH2 0x2E57 DUP2 PUSH2 0x2E1B JUMP JUMPDEST SWAP1 POP SWAP2 SWAP1 POP JUMP JUMPDEST PUSH1 0x0 PUSH2 0x2E69 DUP3 PUSH2 0x21A5 JUMP JUMPDEST SWAP2 POP PUSH2 0x2E74 DUP4 PUSH2 0x21A5 JUMP JUMPDEST SWAP3 POP DUP3 DUP3 ADD SWAP1 POP DUP1 DUP3 GT ISZERO PUSH2 0x2E8C JUMPI PUSH2 0x2E8B PUSH2 0x2D55 JUMP JUMPDEST JUMPDEST SWAP3 SWAP2 POP POP JUMP JUMPDEST PUSH1 0x0 PUSH2 0x2E9D DUP3 PUSH2 0x21A5 JUMP JUMPDEST SWAP2 POP PUSH2 0x2EA8 DUP4 PUSH2 0x21A5 JUMP JUMPDEST SWAP3 POP DUP3 DUP3 MUL PUSH2 0x2EB6 DUP2 PUSH2 0x21A5 JUMP JUMPDEST SWAP2 POP DUP3 DUP3 DIV DUP5 EQ DUP4 ISZERO OR PUSH2 0x2ECD JUMPI PUSH2 0x2ECC PUSH2 0x2D55 JUMP JUMPDEST JUMPDEST POP SWAP3 SWAP2 POP POP JUMP JUMPDEST PUSH32 0x4E487B7100000000000000000000000000000000000000000000000000000000 PUSH1 0x0 MSTORE PUSH1 0x12 PUSH1 0x4 MSTORE PUSH1 0x24 PUSH1 0x0 REVERT JUMPDEST PUSH1 0x0 PUSH2 0x2F0E DUP3 PUSH2 0x21A5 JUMP JUMPDEST SWAP2 POP PUSH2 0x2F19 DUP4 PUSH2 0x21A5 JUMP JUMPDEST SWAP3 POP DUP3 PUSH2 0x2F29 JUMPI PUSH2 0x2F28 PUSH2 0x2ED4 JUMP JUMPDEST JUMPDEST DUP3 DUP3 DIV SWAP1 POP SWAP3 SWAP2 POP POP JUMP JUMPDEST PUSH1 0x0 PUSH2 0x2F3F DUP3 PUSH2 0x21A5 JUMP JUMPDEST SWAP2 POP PUSH2 0x2F4A DUP4 PUSH2 0x21A5 JUMP JUMPDEST SWAP3 POP DUP3 DUP3 SUB SWAP1 POP DUP2 DUP2 GT ISZERO PUSH2 0x2F62 JUMPI PUSH2 0x2F61 PUSH2 0x2D55 JUMP JUMPDEST JUMPDEST SWAP3 SWAP2 POP POP JUMP JUMPDEST PUSH1 0x0 PUSH2 0x2F73 DUP3 PUSH2 0x21A5 JUMP JUMPDEST SWAP2 POP PUSH2 0x2F7E DUP4 PUSH2 0x21A5 JUMP JUMPDEST SWAP3 POP DUP3 PUSH2 0x2F8E JUMPI PUSH2 0x2F8D PUSH2 0x2ED4 JUMP JUMPDEST JUMPDEST DUP3 DUP3 MOD SWAP1 POP SWAP3 SWAP2 POP POP JUMP JUMPDEST PUSH2 0x2FA2 DUP2 PUSH2 0x1D3C JUMP JUMPDEST DUP3 MSTORE POP POP JUMP JUMPDEST PUSH2 0x2FB1 DUP2 PUSH2 0x1DAE JUMP JUMPDEST DUP3 MSTORE POP POP JUMP JUMPDEST PUSH2 0x2FC0 DUP2 PUSH2 0x241E JUMP JUMPDEST DUP3 MSTORE POP POP JUMP JUMPDEST PUSH1 0x0 PUSH1 0xA0 DUP4 ADD PUSH1 0x0 DUP4 ADD MLOAD PUSH2 0x2FDE PUSH1 0x0 DUP7 ADD DUP3 PUSH2 0x2F99 JUMP JUMPDEST POP PUSH1 0x20 DUP4 ADD MLOAD PUSH2 0x2FF1 PUSH1 0x20 DUP7 ADD DUP3 PUSH2 0x2FA8 JUMP JUMPDEST POP PUSH1 0x40 DUP4 ADD MLOAD DUP5 DUP3 SUB PUSH1 0x40 DUP7 ADD MSTORE PUSH2 0x3009 DUP3 DUP3 PUSH2 0x24E8 JUMP JUMPDEST SWAP2 POP POP PUSH1 0x60 DUP4 ADD MLOAD DUP5 DUP3 SUB PUSH1 0x60 DUP7 ADD MSTORE PUSH2 0x3023 DUP3 DUP3 PUSH2 0x24E8 JUMP JUMPDEST SWAP2 POP POP PUSH1 0x80 DUP4 ADD MLOAD PUSH2 0x3038 PUSH1 0x80 DUP7 ADD DUP3 PUSH2 0x2FB7 JUMP JUMPDEST POP DUP1 SWAP2 POP POP SWAP3 SWAP2 POP POP JUMP JUMPDEST PUSH1 0x0 PUSH1 0x40 DUP3 ADD SWAP1 POP DUP2 DUP2 SUB PUSH1 0x0 DUP4 ADD MSTORE PUSH2 0x305D DUP2 DUP6 PUSH2 0x2FC6 JUMP JUMPDEST SWAP1 POP PUSH2 0x306C PUSH1 0x20 DUP4 ADD DUP5 PUSH2 0x2454 JUMP JUMPDEST SWAP4 SWAP3 POP POP POP JUMP JUMPDEST PUSH1 0x0 DUP1 REVERT JUMPDEST PUSH1 0x0 DUP2 MLOAD SWAP1 POP PUSH2 0x3087 DUP2 PUSH2 0x2282 JUMP JUMPDEST SWAP3 SWAP2 POP POP JUMP JUMPDEST PUSH1 0x0 PUSH1 0x40 DUP3 DUP5 SUB SLT ISZERO PUSH2 0x30A3 JUMPI PUSH2 0x30A2 PUSH2 0x3073 JUMP JUMPDEST JUMPDEST PUSH2 0x30AD PUSH1 0x40 PUSH2 0x2025 JUMP JUMPDEST SWAP1 POP PUSH1 0x0 PUSH2 0x30BD DUP5 DUP3 DUP6 ADD PUSH2 0x3078 JUMP JUMPDEST PUSH1 0x0 DUP4 ADD MSTORE POP PUSH1 0x20 PUSH2 0x30D1 DUP5 DUP3 DUP6 ADD PUSH2 0x3078 JUMP JUMPDEST PUSH1 0x20 DUP4 ADD MSTORE POP SWAP3 SWAP2 POP POP JUMP JUMPDEST PUSH1 0x0 PUSH1 0x40 DUP3 DUP5 SUB SLT ISZERO PUSH2 0x30F3 JUMPI PUSH2 0x30F2 PUSH2 0x1D80 JUMP JUMPDEST JUMPDEST PUSH1 0x0 PUSH2 0x3101 DUP5 DUP3 DUP6 ADD PUSH2 0x308D JUMP JUMPDEST SWAP2 POP POP SWAP3 SWAP2 POP POP JUMP JUMPDEST PUSH1 0x0 DUP2 MLOAD SWAP1 POP PUSH2 0x3119 DUP2 PUSH2 0x1DB8 JUMP JUMPDEST SWAP3 SWAP2 POP POP JUMP JUMPDEST PUSH2 0x3128 DUP2 PUSH2 0x1F63 JUMP JUMPDEST DUP2 EQ PUSH2 0x3133 JUMPI PUSH1 0x0 DUP1 REVERT JUMPDEST POP JUMP JUMPDEST PUSH1 0x0 DUP2 MLOAD SWAP1 POP PUSH2 0x3145 DUP2 PUSH2 0x311F JUMP JUMPDEST SWAP3 SWAP2 POP POP JUMP JUMPDEST PUSH1 0x0 PUSH1 0x80 DUP3 DUP5 SUB SLT ISZERO PUSH2 0x3161 JUMPI PUSH2 0x3160 PUSH2 0x3073 JUMP JUMPDEST JUMPDEST PUSH2 0x316B PUSH1 0x60 PUSH2 0x2025 JUMP JUMPDEST SWAP1 POP PUSH1 0x0 PUSH2 0x317B DUP5 DUP3 DUP6 ADD PUSH2 0x310A JUMP JUMPDEST PUSH1 0x0 DUP4 ADD MSTORE POP PUSH1 0x20 PUSH2 0x318F DUP5 DUP3 DUP6 ADD PUSH2 0x3136 JUMP JUMPDEST PUSH1 0x20 DUP4 ADD MSTORE POP PUSH1 0x40 PUSH2 0x31A3 DUP5 DUP3 DUP6 ADD PUSH2 0x308D JUMP JUMPDEST PUSH1 0x40 DUP4 ADD MSTORE POP SWAP3 SWAP2 POP POP JUMP JUMPDEST PUSH1 0x0 PUSH1 0x80 DUP3 DUP5 SUB SLT ISZERO PUSH2 0x31C5 JUMPI PUSH2 0x31C4 PUSH2 0x1D80 JUMP JUMPDEST JUMPDEST PUSH1 0x0 PUSH2 0x31D3 DUP5 DUP3 DUP6 ADD PUSH2 0x314B JUMP JUMPDEST SWAP2 POP POP SWAP3 SWAP2 POP POP JUMP JUMPDEST PUSH32 0x4F776E61626C653A2063616C6C6572206973206E6F7420746865206F776E6572 PUSH1 0x0 DUP3 ADD MSTORE POP JUMP JUMPDEST PUSH1 0x0 PUSH2 0x3212 PUSH1 0x20 DUP4 PUSH2 0x2BF7 JUMP JUMPDEST SWAP2 POP PUSH2 0x321D DUP3 PUSH2 0x31DC JUMP JUMPDEST PUSH1 0x20 DUP3 ADD SWAP1 POP SWAP2 SWAP1 POP JUMP JUMPDEST PUSH1 0x0 PUSH1 0x20 DUP3 ADD SWAP1 POP DUP2 DUP2 SUB PUSH1 0x0 DUP4 ADD MSTORE PUSH2 0x3241 DUP2 PUSH2 0x3205 JUMP JUMPDEST SWAP1 POP SWAP2 SWAP1 POP JUMP JUMPDEST PUSH1 0x0 DUP2 MLOAD SWAP1 POP PUSH2 0x3257 DUP2 PUSH2 0x1E7B JUMP JUMPDEST SWAP3 SWAP2 POP POP JUMP JUMPDEST PUSH1 0x0 PUSH1 0x20 DUP3 DUP5 SUB SLT ISZERO PUSH2 0x3273 JUMPI PUSH2 0x3272 PUSH2 0x1D80 JUMP JUMPDEST JUMPDEST PUSH1 0x0 PUSH2 0x3281 DUP5 DUP3 DUP6 ADD PUSH2 0x3248 JUMP JUMPDEST SWAP2 POP POP SWAP3 SWAP2 POP POP JUMP JUMPDEST PUSH1 0x0 PUSH1 0x60 DUP3 ADD SWAP1 POP PUSH2 0x329F PUSH1 0x0 DUP4 ADD DUP7 PUSH2 0x2454 JUMP JUMPDEST PUSH2 0x32AC PUSH1 0x20 DUP4 ADD DUP6 PUSH2 0x2454 JUMP JUMPDEST PUSH2 0x32B9 PUSH1 0x40 DUP4 ADD DUP5 PUSH2 0x2769 JUMP JUMPDEST SWAP5 SWAP4 POP POP POP POP JUMP JUMPDEST PUSH2 0x32CA DUP2 PUSH2 0x241E JUMP JUMPDEST DUP2 EQ PUSH2 0x32D5 JUMPI PUSH1 0x0 DUP1 REVERT JUMPDEST POP JUMP JUMPDEST PUSH1 0x0 DUP2 MLOAD SWAP1 POP PUSH2 0x32E7 DUP2 PUSH2 0x32C1 JUMP JUMPDEST SWAP3 SWAP2 POP POP JUMP JUMPDEST PUSH1 0x0 PUSH1 0x20 DUP3 DUP5 SUB SLT ISZERO PUSH2 0x3303 JUMPI PUSH2 0x3302 PUSH2 0x1D80 JUMP JUMPDEST JUMPDEST PUSH1 0x0 PUSH2 0x3311 DUP5 DUP3 DUP6 ADD PUSH2 0x32D8 JUMP JUMPDEST SWAP2 POP POP SWAP3 SWAP2 POP POP JUMP JUMPDEST PUSH32 0x5361666545524332303A204552433230206F7065726174696F6E20646964206E PUSH1 0x0 DUP3 ADD MSTORE PUSH32 0x6F74207375636365656400000000000000000000000000000000000000000000 PUSH1 0x20 DUP3 ADD MSTORE POP JUMP JUMPDEST PUSH1 0x0 PUSH2 0x3376 PUSH1 0x2A DUP4 PUSH2 0x2BF7 JUMP JUMPDEST SWAP2 POP PUSH2 0x3381 DUP3 PUSH2 0x331A JUMP JUMPDEST PUSH1 0x40 DUP3 ADD SWAP1 POP SWAP2 SWAP1 POP JUMP JUMPDEST PUSH1 0x0 PUSH1 0x20 DUP3 ADD SWAP1 POP DUP2 DUP2 SUB PUSH1 0x0 DUP4 ADD MSTORE PUSH2 0x33A5 DUP2 PUSH2 0x3369 JUMP JUMPDEST SWAP1 POP SWAP2 SWAP1 POP JUMP JUMPDEST PUSH32 0x416464726573733A20696E73756666696369656E742062616C616E636520666F PUSH1 0x0 DUP3 ADD MSTORE PUSH32 0x722063616C6C0000000000000000000000000000000000000000000000000000 PUSH1 0x20 DUP3 ADD MSTORE POP JUMP JUMPDEST PUSH1 0x0 PUSH2 0x3408 PUSH1 0x26 DUP4 PUSH2 0x2BF7 JUMP JUMPDEST SWAP2 POP PUSH2 0x3413 DUP3 PUSH2 0x33AC JUMP JUMPDEST PUSH1 0x40 DUP3 ADD SWAP1 POP SWAP2 SWAP1 POP JUMP JUMPDEST PUSH1 0x0 PUSH1 0x20 DUP3 ADD SWAP1 POP DUP2 DUP2 SUB PUSH1 0x0 DUP4 ADD MSTORE PUSH2 0x3437 DUP2 PUSH2 0x33FB JUMP JUMPDEST SWAP1 POP SWAP2 SWAP1 POP JUMP JUMPDEST PUSH1 0x0 PUSH2 0x3449 DUP3 PUSH2 0x22EE JUMP JUMPDEST PUSH2 0x3453 DUP2 DUP6 PUSH2 0x2C74 JUMP JUMPDEST SWAP4 POP PUSH2 0x3463 DUP2 DUP6 PUSH1 0x20 DUP7 ADD PUSH2 0x230A JUMP JUMPDEST DUP1 DUP5 ADD SWAP2 POP POP SWAP3 SWAP2 POP POP JUMP JUMPDEST PUSH1 0x0 PUSH2 0x347B DUP3 DUP5 PUSH2 0x343E JUMP JUMPDEST SWAP2 POP DUP2 SWAP1 POP SWAP3 SWAP2 POP POP JUMP JUMPDEST PUSH32 0x416464726573733A2063616C6C20746F206E6F6E2D636F6E7472616374000000 PUSH1 0x0 DUP3 ADD MSTORE POP JUMP JUMPDEST PUSH1 0x0 PUSH2 0x34BC PUSH1 0x1D DUP4 PUSH2 0x2BF7 JUMP JUMPDEST SWAP2 POP PUSH2 0x34C7 DUP3 PUSH2 0x3486 JUMP JUMPDEST PUSH1 0x20 DUP3 ADD SWAP1 POP SWAP2 SWAP1 POP JUMP JUMPDEST PUSH1 0x0 PUSH1 0x20 DUP3 ADD SWAP1 POP DUP2 DUP2 SUB PUSH1 0x0 DUP4 ADD MSTORE PUSH2 0x34EB DUP2 PUSH2 0x34AF JUMP JUMPDEST SWAP1 POP SWAP2 SWAP1 POP JUMP JUMPDEST PUSH1 0x0 PUSH2 0x34FD DUP3 PUSH2 0x2605 JUMP JUMPDEST PUSH2 0x3507 DUP2 DUP6 PUSH2 0x2BF7 JUMP JUMPDEST SWAP4 POP PUSH2 0x3517 DUP2 DUP6 PUSH1 0x20 DUP7 ADD PUSH2 0x230A JUMP JUMPDEST PUSH2 0x3520 DUP2 PUSH2 0x1FB4 JUMP JUMPDEST DUP5 ADD SWAP2 POP POP SWAP3 SWAP2 POP POP JUMP JUMPDEST PUSH1 0x0 PUSH1 0x20 DUP3 ADD SWAP1 POP DUP2 DUP2 SUB PUSH1 0x0 DUP4 ADD MSTORE PUSH2 0x3545 DUP2 DUP5 PUSH2 0x34F2 JUMP JUMPDEST SWAP1 POP SWAP3 SWAP2 POP POP JUMP INVALID LOG2 PUSH5 0x6970667358 0x22 SLT KECCAK256 0xBC ADDMOD ADD MSTORE ADDMOD 0xC3 SELFBALANCE LOG2 0xDE RETURN PUSH21 0xE4A6062AB7CA70869E11AADBFD65F401E0BD98CD48 PUSH5 0x736F6C6343 STOP ADDMOD EQ STOP CALLER "},"gasEstimates":{"creation":{"codeDepositCost":"2739800","executionCost":"infinite","totalCost":"infinite"},"external":{"SOLANA_CHAIN_ID()":"359","allowInitializePath((uint32,bytes32,uint64))":"3143","endpoint()":"infinite","gasLimit()":"2539","getLinkedAddresses(address)":"infinite","getLinkedAddressesAsStrings(address)":"infinite","isComposeMsgSender((uint32,bytes32,uint64),bytes,address)":"1045","linkAddress(string)":"infinite","linkedSolanaAddresses(address,uint256)":"infinite","lzReceive((uint32,bytes32,uint64),bytes32,bytes,address,bytes)":"infinite","nextNonce(uint32,bytes32)":"912","oAppVersion()":"infinite","owner()":"2567","peers(uint32)":"2882","quoteLinkAddress(string)":"infinite","quoteLinkFee(string)":"infinite","renounceOwnership()":"30487","setDelegate(address)":"infinite","setGasLimit(uint256)":"24850","setPeer(uint32,bytes32)":"infinite","transferOwnership(address)":"30832","withdraw()":"infinite"},"internal":{"_lzReceive(struct Origin calldata,bytes32,bytes calldata,address,bytes calldata)":"23","addressToString(address)":"infinite","uint256ToString(uint256)":"infinite"}},"methodIdentifiers":{"SOLANA_CHAIN_ID()":"067bd07a","allowInitializePath((uint32,bytes32,uint64))":"ff7bd03d","endpoint()":"5e280f11","gasLimit()":"f68016b7","getLinkedAddresses(address)":"9541618c","getLinkedAddressesAsStrings(address)":"a6451163","isComposeMsgSender((uint32,bytes32,uint64),bytes,address)":"82413eac","linkAddress(string)":"306fed73","linkedSolanaAddresses(address,uint256)":"7954c58f","lzReceive((uint32,bytes32,uint64),bytes32,bytes,address,bytes)":"13137d65","nextNonce(uint32,bytes32)":"7d25a05e","oAppVersion()":"17442b70","owner()":"8da5cb5b","peers(uint32)":"bb0b6a53","quoteLinkAddress(string)":"bf3f3de9","quoteLinkFee(string)":"56368126","renounceOwnership()":"715018a6","setDelegate(address)":"ca5eb5e1","setGasLimit(uint256)":"ee7d72b4","setPeer(uint32,bytes32)":"3400288b","transferOwnership(address)":"f2fde38b","withdraw()":"3ccfd60b"}},"storageLayout":{"storage":[{"astId":1326,"contract":"contracts/OmnichainIdentityLinker.sol:OmnichainIdentityLinker","label":"_owner","offset":0,"slot":"0","type":"t_address"},{"astId":785,"contract":"contracts/OmnichainIdentityLinker.sol:OmnichainIdentityLinker","label":"peers","offset":0,"slot":"1","type":"t_mapping(t_uint32,t_bytes32)"},{"astId":2293,"contract":"contracts/OmnichainIdentityLinker.sol:OmnichainIdentityLinker","label":"gasLimit","offset":0,"slot":"2","type":"t_uint256"},{"astId":2298,"contract":"contracts/OmnichainIdentityLinker.sol:OmnichainIdentityLinker","label":"linkedSolanaAddresses","offset":0,"slot":"3","type":"t_mapping(t_address,t_array(t_bytes_storage)dyn_storage)"}],"types":{"t_address":{"encoding":"inplace","label":"address","numberOfBytes":"20"},"t_array(t_bytes_storage)dyn_storage":{"base":"t_bytes_storage","encoding":"dynamic_array","label":"bytes[]","numberOfBytes":"32"},"t_bytes32":{"encoding":"inplace","label":"bytes32","numberOfBytes":"32"},"t_bytes_storage":{"encoding":"bytes","label":"bytes","numberOfBytes":"32"},"t_mapping(t_address,t_array(t_bytes_storage)dyn_storage)":{"encoding":"mapping","key":"t_address","label":"mapping(address => bytes[])","numberOfBytes":"32","value":"t_array(t_bytes_storage)dyn_storage"},"t_mapping(t_uint32,t_bytes32)":{"encoding":"mapping","key":"t_uint32","label":"mapping(uint32 => bytes32)","numberOfBytes":"32","value":"t_bytes32"},"t_uint256":{"encoding":"inplace","label":"uint256","numberOfBytes":"32"},"t_uint32":{"encoding":"inplace","label":"uint32","numberOfBytes":"4"}}},"userdoc":{"kind":"user","methods":{"allowInitializePath((uint32,bytes32,uint64))":{"notice":"Checks if the path initialization is allowed based on the provided origin."},"endpoint()":{"notice":"Retrieves the LayerZero endpoint associated with the OApp."},"isComposeMsgSender((uint32,bytes32,uint64),bytes,address)":{"notice":"Indicates whether an address is an approved composeMsg sender to the Endpoint."},"nextNonce(uint32,bytes32)":{"notice":"Retrieves the next nonce for a given source endpoint and sender address."},"oAppVersion()":{"notice":"Retrieves the OApp version information."},"peers(uint32)":{"notice":"Retrieves the peer (OApp) associated with a corresponding endpoint."},"setDelegate(address)":{"notice":"Sets the delegate address for the OApp."},"setPeer(uint32,bytes32)":{"notice":"Sets the peer address (OApp instance) for a corresponding endpoint."}},"version":1}}}}