{"contracts/OmnichainIdentityLinker.sol":{"OmnichainIdentityLinker":{"abi":[{"inputs":[{"internalType":"address","name":"_lzEndpoint","type":"address"},{"internalType":"address","name":"_delegate","type":"address"}],"stateMutability":"nonpayable","type":"constructor"},{"inputs":[],"name":"InvalidDelegate","type":"error"},{"inputs":[],"name":"InvalidEndpointCall","type":"error"},{"inputs":[{"internalType":"uint16","name":"optionType","type":"uint16"}],"name":"InvalidOptionType","type":"error"},{"inputs":[],"name":"LzTokenUnavailable","type":"error"},{"inputs":[{"internalType":"uint32","name":"eid","type":"uint32"}],"name":"NoPeer","type":"error"},{"inputs":[{"internalType":"uint256","name":"msgValue","type":"uint256"}],"name":"NotEnoughNative","type":"error"},{"inputs":[{"internalType":"address","name":"addr","type":"address"}],"name":"OnlyEndpoint","type":"error"},{"inputs":[{"internalType":"uint32","name":"eid","type":"uint32"},{"internalType":"bytes32","name":"sender","type":"bytes32"}],"name":"OnlyPeer","type":"error"},{"anonymous":false,"inputs":[{"indexed":false,"internalType":"address","name":"evmAddress","type":"address"},{"indexed":false,"internalType":"bytes","name":"solanaAddress","type":"bytes"},{"indexed":false,"internalType":"uint256","name":"timestamp","type":"uint256"}],"name":"IdentityLinked","type":"event"},{"anonymous":false,"inputs":[{"indexed":true,"internalType":"address","name":"previousOwner","type":"address"},{"indexed":true,"internalType":"address","name":"newOwner","type":"address"}],"name":"OwnershipTransferred","type":"event"},{"anonymous":false,"inputs":[{"indexed":false,"internalType":"uint32","name":"eid","type":"uint32"},{"indexed":false,"internalType":"bytes32","name":"peer","type":"bytes32"}],"name":"PeerSet","type":"event"},{"inputs":[],"name":"SOLANA_CHAIN_ID","outputs":[{"internalType":"uint32","name":"","type":"uint32"}],"stateMutability":"view","type":"function"},{"inputs":[{"components":[{"internalType":"uint32","name":"srcEid","type":"uint32"},{"internalType":"bytes32","name":"sender","type":"bytes32"},{"internalType":"uint64","name":"nonce","type":"uint64"}],"internalType":"struct Origin","name":"origin","type":"tuple"}],"name":"allowInitializePath","outputs":[{"internalType":"bool","name":"","type":"bool"}],"stateMutability":"view","type":"function"},{"inputs":[],"name":"endpoint","outputs":[{"internalType":"contract ILayerZeroEndpointV2","name":"","type":"address"}],"stateMutability":"view","type":"function"},{"inputs":[],"name":"gasLimit","outputs":[{"internalType":"uint256","name":"","type":"uint256"}],"stateMutability":"view","type":"function"},{"inputs":[{"internalType":"address","name":"_evmAddress","type":"address"}],"name":"getLinkedAddresses","outputs":[{"internalType":"bytes[]","name":"","type":"bytes[]"}],"stateMutability":"view","type":"function"},{"inputs":[{"internalType":"address","name":"_evmAddress","type":"address"}],"name":"getLinkedAddressesAsStrings","outputs":[{"internalType":"string[]","name":"","type":"string[]"}],"stateMutability":"view","type":"function"},{"inputs":[{"components":[{"internalType":"uint32","name":"srcEid","type":"uint32"},{"internalType":"bytes32","name":"sender","type":"bytes32"},{"internalType":"uint64","name":"nonce","type":"uint64"}],"internalType":"struct Origin","name":"","type":"tuple"},{"internalType":"bytes","name":"","type":"bytes"},{"internalType":"address","name":"_sender","type":"address"}],"name":"isComposeMsgSender","outputs":[{"internalType":"bool","name":"","type":"bool"}],"stateMutability":"view","type":"function"},{"inputs":[{"internalType":"string","name":"_solanaAddress","type":"string"}],"name":"linkAddress","outputs":[],"stateMutability":"payable","type":"function"},{"inputs":[{"internalType":"address","name":"","type":"address"},{"internalType":"uint256","name":"","type":"uint256"}],"name":"linkedSolanaAddresses","outputs":[{"internalType":"bytes","name":"","type":"bytes"}],"stateMutability":"view","type":"function"},{"inputs":[{"components":[{"internalType":"uint32","name":"srcEid","type":"uint32"},{"internalType":"bytes32","name":"sender","type":"bytes32"},{"internalType":"uint64","name":"nonce","type":"uint64"}],"internalType":"struct Origin","name":"_origin","type":"tuple"},{"internalType":"bytes32","name":"_guid","type":"bytes32"},{"internalType":"bytes","name":"_message","type":"bytes"},{"internalType":"address","name":"_executor","type":"address"},{"internalType":"bytes","name":"_extraData","type":"bytes"}],"name":"lzReceive","outputs":[],"stateMutability":"payable","type":"function"},{"inputs":[{"internalType":"uint32","name":"","type":"uint32"},{"internalType":"bytes32","name":"","type":"bytes32"}],"name":"nextNonce","outputs":[{"internalType":"uint64","name":"nonce","type":"uint64"}],"stateMutability":"view","type":"function"},{"inputs":[],"name":"oAppVersion","outputs":[{"internalType":"uint64","name":"senderVersion","type":"uint64"},{"internalType":"uint64","name":"receiverVersion","type":"uint64"}],"stateMutability":"pure","type":"function"},{"inputs":[],"name":"owner","outputs":[{"internalType":"address","name":"","type":"address"}],"stateMutability":"view","type":"function"},{"inputs":[{"internalType":"uint32","name":"eid","type":"uint32"}],"name":"peers","outputs":[{"internalType":"bytes32","name":"peer","type":"bytes32"}],"stateMutability":"view","type":"function"},{"inputs":[{"internalType":"string","name":"_solanaAddress","type":"string"}],"name":"quoteLinkAddress","outputs":[{"internalType":"uint256","name":"","type":"uint256"}],"stateMutability":"view","type":"function"},{"inputs":[{"internalType":"string","name":"_solanaAddress","type":"string"}],"name":"quoteLinkFee","outputs":[{"components":[{"internalType":"uint256","name":"nativeFee","type":"uint256"},{"internalType":"uint256","name":"lzTokenFee","type":"uint256"}],"internalType":"struct MessagingFee","name":"fee","type":"tuple"}],"stateMutability":"view","type":"function"},{"inputs":[],"name":"renounceOwnership","outputs":[],"stateMutability":"nonpayable","type":"function"},{"inputs":[{"internalType":"address","name":"_delegate","type":"address"}],"name":"setDelegate","outputs":[],"stateMutability":"nonpayable","type":"function"},{"inputs":[{"internalType":"uint256","name":"_gasLimit","type":"uint256"}],"name":"setGasLimit","outputs":[],"stateMutability":"nonpayable","type":"function"},{"inputs":[{"internalType":"uint32","name":"_eid","type":"uint32"},{"internalType":"bytes32","name":"_peer","type":"bytes32"}],"name":"setPeer","outputs":[],"stateMutability":"nonpayable","type":"function"},{"inputs":[{"internalType":"address","name":"newOwner","type":"address"}],"name":"transferOwnership","outputs":[],"stateMutability":"nonpayable","type":"function"},{"inputs":[],"name":"withdraw","outputs":[],"stateMutability":"nonpayable","type":"function"}],"devdoc":{"details":"Contract for linking EVM addresses to Solana addresses via LayerZero V2 This contract sends messages from EVM chains to a Solana OApp","kind":"dev","methods":{"allowInitializePath((uint32,bytes32,uint64))":{"details":"This indicates to the endpoint that the OApp has enabled msgs for this particular path to be received.This defaults to assuming if a peer has been set, its initialized. Can be overridden by the OApp if there is other logic to determine this.","params":{"origin":"The origin information containing the source endpoint and sender address."},"returns":{"_0":"Whether the path has been initialized."}},"getLinkedAddresses(address)":{"details":"Get linked Solana addresses for an EVM address","params":{"_evmAddress":"The EVM address to check"},"returns":{"_0":"Array of linked Solana addresses as bytes"}},"getLinkedAddressesAsStrings(address)":{"details":"Get linked Solana addresses for an EVM address as strings","params":{"_evmAddress":"The EVM address to check"},"returns":{"_0":"Array of linked Solana addresses as strings"}},"isComposeMsgSender((uint32,bytes32,uint64),bytes,address)":{"details":"_origin The origin information containing the source endpoint and sender address.  - srcEid: The source chain endpoint ID.  - sender: The sender address on the src chain.  - nonce: The nonce of the message._message The lzReceive payload.Applications can optionally choose to implement separate composeMsg senders that are NOT the bridging layer.The default sender IS the OAppReceiver implementer.","params":{"_sender":"The sender address."},"returns":{"_0":"isSender Is a valid sender."}},"linkAddress(string)":{"details":"Link the sender's EVM address to a Solana address","params":{"_solanaAddress":"Solana address as string"}},"lzReceive((uint32,bytes32,uint64),bytes32,bytes,address,bytes)":{"details":"Entry point for receiving messages or packets from the endpoint.Entry point for receiving msg/packet from the LayerZero endpoint.","params":{"_executor":"The address of the executor for the received message.","_extraData":"Additional arbitrary data provided by the corresponding executor.","_guid":"The unique identifier for the received LayerZero message.","_message":"The payload of the received message.","_origin":"The origin information containing the source endpoint and sender address.  - srcEid: The source chain endpoint ID.  - sender: The sender address on the src chain.  - nonce: The nonce of the message."}},"nextNonce(uint32,bytes32)":{"details":"_srcEid The source endpoint ID._sender The sender address.The path nonce starts from 1. If 0 is returned it means that there is NO nonce ordered enforcement.Is required by the off-chain executor to determine the OApp expects msg execution is ordered.This is also enforced by the OApp.By default this is NOT enabled. ie. nextNonce is hardcoded to return 0.","returns":{"nonce":"The next nonce."}},"oAppVersion()":{"returns":{"receiverVersion":"The version of the OAppReceiver.sol implementation.","senderVersion":"The version of the OAppSender.sol implementation."}},"owner()":{"details":"Returns the address of the current owner."},"quoteLinkAddress(string)":{"details":"Quote the fee for linking an address","params":{"_solanaAddress":"Solana address as string"},"returns":{"_0":"Fee required for the cross-chain message"}},"quoteLinkFee(string)":{"details":"Quote the fee for sending a message to Solana","params":{"_solanaAddress":"The Solana address to link"},"returns":{"fee":"The estimated messaging fee"}},"renounceOwnership()":{"details":"Leaves the contract without owner. It will not be possible to call `onlyOwner` functions. Can only be called by the current owner. NOTE: Renouncing ownership will leave the contract without an owner, thereby disabling any functionality that is only available to the owner."},"setDelegate(address)":{"details":"Only the owner/admin of the OApp can call this function.Provides the ability for a delegate to set configs, on behalf of the OApp, directly on the Endpoint contract.","params":{"_delegate":"The address of the delegate to be set."}},"setGasLimit(uint256)":{"details":"Update the gas limit for cross-chain calls","params":{"_gasLimit":"New gas limit"}},"setPeer(uint32,bytes32)":{"details":"Only the owner/admin of the OApp can call this function.Indicates that the peer is trusted to send LayerZero messages to this OApp.Set this to bytes32(0) to remove the peer address.Peer is a bytes32 to accommodate non-evm chains.","params":{"_eid":"The endpoint ID.","_peer":"The address of the peer to be associated with the corresponding endpoint."}},"transferOwnership(address)":{"details":"Transfers ownership of the contract to a new account (`newOwner`). Can only be called by the current owner."},"withdraw()":{"details":"Withdraw any stuck funds (admin function)"}},"title":"OmnichainIdentityLinker","version":1},"evm":{"bytecode":{"linkReferences":{},"object":"60a060405262030d406002553480156200001857600080fd5b5060405162003ea238038062003ea283398181016040528101906200003e9190620002b0565b8181818162000062620000566200017a60201b60201c565b6200018260201b60201c565b8173ffffffffffffffffffffffffffffffffffffffff1660808173ffffffffffffffffffffffffffffffffffffffff1681525050600073ffffffffffffffffffffffffffffffffffffffff168173ffffffffffffffffffffffffffffffffffffffff1603620000fd576040517fb586360400000000000000000000000000000000000000000000000000000000815260040160405180910390fd5b60805173ffffffffffffffffffffffffffffffffffffffff1663ca5eb5e1826040518263ffffffff1660e01b81526004016200013a919062000308565b600060405180830381600087803b1580156200015557600080fd5b505af11580156200016a573d6000803e3d6000fd5b5050505050505050505062000325565b600033905090565b60008060009054906101000a900473ffffffffffffffffffffffffffffffffffffffff169050816000806101000a81548173ffffffffffffffffffffffffffffffffffffffff021916908373ffffffffffffffffffffffffffffffffffffffff1602179055508173ffffffffffffffffffffffffffffffffffffffff168173ffffffffffffffffffffffffffffffffffffffff167f8be0079c531659141344cd1fd0a4f28419497f9722a3daafe3b4186f6b6457e060405160405180910390a35050565b600080fd5b600073ffffffffffffffffffffffffffffffffffffffff82169050919050565b600062000278826200024b565b9050919050565b6200028a816200026b565b81146200029657600080fd5b50565b600081519050620002aa816200027f565b92915050565b60008060408385031215620002ca57620002c962000246565b5b6000620002da8582860162000299565b9250506020620002ed8582860162000299565b9150509250929050565b62000302816200026b565b82525050565b60006020820190506200031f6000830184620002f7565b92915050565b608051613b376200036b600039600081816105600152818161096c01528181610e5d0152818161157b0152818161168a01528181611af50152611bf00152613b376000f3fe6080604052600436106101355760003560e01c806382413eac116100ab578063bf3f3de91161006f578063bf3f3de914610421578063ca5eb5e11461045e578063ee7d72b414610487578063f2fde38b146104b0578063f68016b7146104d9578063ff7bd03d1461050457610135565b806382413eac146103025780638da5cb5b1461033f5780639541618c1461036a578063a6451163146103a7578063bb0b6a53146103e457610135565b80633ccfd60b116100fd5780633ccfd60b146101f257806356368126146102095780635e280f1114610246578063715018a6146102715780637954c58f146102885780637d25a05e146102c557610135565b8063067bd07a1461013a57806313137d651461016557806317442b7014610181578063306fed73146101ad5780633400288b146101c9575b600080fd5b34801561014657600080fd5b5061014f610541565b60405161015c919061201f565b60405180910390f35b61017f600480360381019061017a919061216b565b610547565b005b34801561018d57600080fd5b50610196610669565b6040516101a492919061224a565b60405180910390f35b6101c760048036038101906101c291906123b4565b610678565b005b3480156101d557600080fd5b506101f060048036038101906101eb9190612429565b610818565b005b3480156101fe57600080fd5b5061020761082e565b005b34801561021557600080fd5b50610230600480360381019061022b91906123b4565b6108ec565b60405161023d91906124b1565b60405180910390f35b34801561025257600080fd5b5061025b61096a565b604051610268919061252b565b60405180910390f35b34801561027d57600080fd5b5061028661098e565b005b34801561029457600080fd5b506102af60048036038101906102aa9190612572565b6109a2565b6040516102bc9190612631565b60405180910390f35b3480156102d157600080fd5b506102ec60048036038101906102e79190612429565b610a5b565b6040516102f99190612653565b60405180910390f35b34801561030e57600080fd5b506103296004803603810190610324919061266e565b610a63565b60405161033691906126fd565b60405180910390f35b34801561034b57600080fd5b50610354610a9e565b6040516103619190612727565b60405180910390f35b34801561037657600080fd5b50610391600480360381019061038c9190612742565b610ac7565b60405161039e919061287b565b60405180910390f35b3480156103b357600080fd5b506103ce60048036038101906103c99190612742565b610bdf565b6040516103db91906129b4565b60405180910390f35b3480156103f057600080fd5b5061040b600480360381019061040691906129d6565b610daa565b6040516104189190612a12565b60405180910390f35b34801561042d57600080fd5b50610448600480360381019061044391906123b4565b610dc2565b6040516104559190612a3c565b60405180910390f35b34801561046a57600080fd5b5061048560048036038101906104809190612742565b610e53565b005b34801561049357600080fd5b506104ae60048036038101906104a99190612a57565b610ee9565b005b3480156104bc57600080fd5b506104d760048036038101906104d29190612742565b610efb565b005b3480156104e557600080fd5b506104ee610f7e565b6040516104fb9190612a3c565b60405180910390f35b34801561051057600080fd5b5061052b60048036038101906105269190612a84565b610f84565b60405161053891906126fd565b60405180910390f35b619ce881565b3373ffffffffffffffffffffffffffffffffffffffff167f000000000000000000000000000000000000000000000000000000000000000073ffffffffffffffffffffffffffffffffffffffff16146105d757336040517f91ac5e4f0000000000000000000000000000000000000000000000000000000081526004016105ce9190612727565b60405180910390fd5b86602001356105f78860000160208101906105f291906129d6565b610fc5565b146106515786600001602081019061060f91906129d6565b87602001356040517fc26bebcc000000000000000000000000000000000000000000000000000000008152600401610648929190612ab1565b60405180910390fd5b6106608787878787878761103a565b50505050505050565b60008060016002915091509091565b600061068333611043565b905060006106904261134e565b905060008284836040516020016106a993929190612b62565b60405160208183030381529060405290506000819050600360003373ffffffffffffffffffffffffffffffffffffffff1673ffffffffffffffffffffffffffffffffffffffff168152602001908152602001600020859080600181540180825580915050600190039060005260206000200160009091909190915090816107309190612dab565b507f15b1a221748794744cd2960e23ab851c4e6b2b22fbabe81f3404e15eebf0af1633864260405161076493929190612e7d565b60405180910390a1600061078e62030d40600061077f6114ae565b6114d69092919063ffffffff16565b905060006107a1619ce884846000611571565b905080600001513410156107ea576040517f08c379a00000000000000000000000000000000000000000000000000000000081526004016107e190612f18565b60405180910390fd5b61080e619ce884846040518060400160405280348152602001600081525033611654565b5050505050505050565b610820611770565b61082a82826117ee565b5050565b610836611770565b6000610840610a9e565b73ffffffffffffffffffffffffffffffffffffffff164760405161086390612f69565b60006040518083038185875af1925050503d80600081146108a0576040519150601f19603f3d011682016040523d82523d6000602084013e6108a5565b606091505b50509050806108e9576040517f08c379a00000000000000000000000000000000000000000000000000000000081526004016108e090612fca565b60405180910390fd5b50565b6108f4611fb2565b60006108ff33611043565b9050600061090c4261134e565b9050600082858360405160200161092593929190612b62565b60405160208183030381529060405290506000819050600060405180602001604052806000815250905061095e619ce883836000611571565b95505050505050919050565b7f000000000000000000000000000000000000000000000000000000000000000081565b610996611770565b6109a0600061184f565b565b600360205281600052604060002081815481106109be57600080fd5b906000526020600020016000915091505080546109da90612bd8565b80601f0160208091040260200160405190810160405280929190818152602001828054610a0690612bd8565b8015610a535780601f10610a2857610100808354040283529160200191610a53565b820191906000526020600020905b815481529060010190602001808311610a3657829003601f168201915b505050505081565b600092915050565b60003073ffffffffffffffffffffffffffffffffffffffff168273ffffffffffffffffffffffffffffffffffffffff16149050949350505050565b60008060009054906101000a900473ffffffffffffffffffffffffffffffffffffffff16905090565b6060600360008373ffffffffffffffffffffffffffffffffffffffff1673ffffffffffffffffffffffffffffffffffffffff168152602001908152602001600020805480602002602001604051908101604052809291908181526020016000905b82821015610bd4578382906000526020600020018054610b4790612bd8565b80601f0160208091040260200160405190810160405280929190818152602001828054610b7390612bd8565b8015610bc05780601f10610b9557610100808354040283529160200191610bc0565b820191906000526020600020905b815481529060010190602001808311610ba357829003601f168201915b505050505081526020019060010190610b28565b505050509050919050565b60606000600360008473ffffffffffffffffffffffffffffffffffffffff1673ffffffffffffffffffffffffffffffffffffffff168152602001908152602001600020805480602002602001604051908101604052809291908181526020016000905b82821015610cee578382906000526020600020018054610c6190612bd8565b80601f0160208091040260200160405190810160405280929190818152602001828054610c8d90612bd8565b8015610cda5780601f10610caf57610100808354040283529160200191610cda565b820191906000526020600020905b815481529060010190602001808311610cbd57829003601f168201915b505050505081526020019060010190610c42565b5050505090506000815167ffffffffffffffff811115610d1157610d10612289565b5b604051908082528060200260200182016040528015610d4457816020015b6060815260200190600190039081610d2f5790505b50905060005b8251811015610d9f57828181518110610d6657610d65612fea565b5b6020026020010151828281518110610d8157610d80612fea565b5b60200260200101819052508080610d9790613048565b915050610d4a565b508092505050919050565b60016020528060005260406000206000915090505481565b600080610dce33611043565b90506000610ddb4261134e565b90506000828583604051602001610df493929190612b62565b604051602081830303815290604052905060008190506000610e2c62030d406000610e1d6114ae565b6114d69092919063ffffffff16565b90506000610e3f619ce884846000611571565b905080600001519650505050505050919050565b610e5b611770565b7f000000000000000000000000000000000000000000000000000000000000000073ffffffffffffffffffffffffffffffffffffffff1663ca5eb5e1826040518263ffffffff1660e01b8152600401610eb49190612727565b600060405180830381600087803b158015610ece57600080fd5b505af1158015610ee2573d6000803e3d6000fd5b5050505050565b610ef1611770565b8060028190555050565b610f03611770565b600073ffffffffffffffffffffffffffffffffffffffff168173ffffffffffffffffffffffffffffffffffffffff1603610f72576040517f08c379a0000000000000000000000000000000000000000000000000000000008152600401610f6990613102565b60405180910390fd5b610f7b8161184f565b50565b60025481565b6000816020013560016000846000016020810190610fa291906129d6565b63ffffffff1663ffffffff16815260200190815260200160002054149050919050565b600080600160008463ffffffff1663ffffffff1681526020019081526020016000205490506000801b810361103157826040517ff6ff4fb7000000000000000000000000000000000000000000000000000000008152600401611028919061201f565b60405180910390fd5b80915050919050565b50505050505050565b606060008273ffffffffffffffffffffffffffffffffffffffff1660001b905060006040518060400160405280601081526020017f303132333435363738396162636465660000000000000000000000000000000081525090506000602a67ffffffffffffffff8111156110ba576110b9612289565b5b6040519080825280601f01601f1916602001820160405280156110ec5781602001600182028036833780820191505090505b5090507f30000000000000000000000000000000000000000000000000000000000000008160008151811061112457611123612fea565b5b60200101907effffffffffffffffffffffffffffffffffffffffffffffffffffffffffffff1916908160001a9053507f78000000000000000000000000000000000000000000000000000000000000008160018151811061118857611187612fea565b5b60200101907effffffffffffffffffffffffffffffffffffffffffffffffffffffffffffff1916908160001a90535060005b60148110156113425782600485600c846111d49190613122565b602081106111e5576111e4612fea565b5b1a60f81b7effffffffffffffffffffffffffffffffffffffffffffffffffffffffffffff1916901c60f81c60ff168151811061122457611223612fea565b5b602001015160f81c60f81b8260028361123d9190613156565b60026112499190613122565b8151811061125a57611259612fea565b5b60200101907effffffffffffffffffffffffffffffffffffffffffffffffffffffffffffff1916908160001a90535082600f60f81b85600c8461129d9190613122565b602081106112ae576112ad612fea565b5b1a60f81b1660f81c60ff16815181106112ca576112c9612fea565b5b602001015160f81c60f81b826002836112e39190613156565b60036112ef9190613122565b81518110611300576112ff612fea565b5b60200101907effffffffffffffffffffffffffffffffffffffffffffffffffffffffffffff1916908160001a905350808061133a90613048565b9150506111ba565b50809350505050919050565b606060008203611395576040518060400160405280600181526020017f300000000000000000000000000000000000000000000000000000000000000081525090506114a9565b600082905060005b600082146113c75780806113b090613048565b915050600a826113c091906131c7565b915061139d565b60008167ffffffffffffffff8111156113e3576113e2612289565b5b6040519080825280601f01601f1916602001820160405280156114155781602001600182028036833780820191505090505b5090505b600085146114a25760018261142e91906131f8565b9150600a8561143d919061322c565b60306114499190613122565b60f81b81838151811061145f5761145e612fea565b5b60200101907effffffffffffffffffffffffffffffffffffffffffffffffffffffffffffff1916908160001a905350600a8561149b91906131c7565b9450611419565b8093505050505b919050565b606060036040516020016114c291906132a1565b604051602081830303815290604052905090565b606083600361ffff166114f360008361191390919063ffffffff16565b61ffff161461154c5761151060008261191390919063ffffffff16565b6040517f3a51740d00000000000000000000000000000000000000000000000000000000815260040161154391906132cb565b60405180910390fd5b6000611558858561197a565b9050611566866001836119e6565b925050509392505050565b611579611fb2565b7f000000000000000000000000000000000000000000000000000000000000000073ffffffffffffffffffffffffffffffffffffffff1663ddc28c586040518060a001604052808863ffffffff1681526020016115d589610fc5565b8152602001878152602001868152602001851515815250306040518363ffffffff1660e01b815260040161160a929190613390565b6040805180830381865afa158015611626573d6000803e3d6000fd5b505050506040513d601f19601f8201168201806040525081019061164a919061342a565b9050949350505050565b61165c611fcc565b600061166b8460000151611aa3565b9050600084602001511115611688576116878460200151611af1565b5b7f000000000000000000000000000000000000000000000000000000000000000073ffffffffffffffffffffffffffffffffffffffff16632637a450826040518060a001604052808b63ffffffff1681526020016116e58c610fc5565b81526020018a815260200189815260200160008960200151111515815250866040518463ffffffff1660e01b8152600401611721929190613390565b60806040518083038185885af115801561173f573d6000803e3d6000fd5b50505050506040513d601f19601f8201168201806040525081019061176491906134fc565b91505095945050505050565b611778611c3b565b73ffffffffffffffffffffffffffffffffffffffff16611796610a9e565b73ffffffffffffffffffffffffffffffffffffffff16146117ec576040517f08c379a00000000000000000000000000000000000000000000000000000000081526004016117e390613575565b60405180910390fd5b565b80600160008463ffffffff1663ffffffff168152602001908152602001600020819055507f238399d427b947898edb290f5ff0f9109849b1c3ba196a42e35f00c50a54b98b8282604051611843929190612ab1565b60405180910390a15050565b60008060009054906101000a900473ffffffffffffffffffffffffffffffffffffffff169050816000806101000a81548173ffffffffffffffffffffffffffffffffffffffff021916908373ffffffffffffffffffffffffffffffffffffffff1602179055508173ffffffffffffffffffffffffffffffffffffffff168173ffffffffffffffffffffffffffffffffffffffff167f8be0079c531659141344cd1fd0a4f28419497f9722a3daafe3b4186f6b6457e060405160405180910390a35050565b60006002826119229190613122565b83511015611965576040517f08c379a000000000000000000000000000000000000000000000000000000000815260040161195c906135e1565b60405180910390fd5b60008260028501015190508091505092915050565b60606000826fffffffffffffffffffffffffffffffff16146119bd5782826040516020016119a9929190613653565b6040516020818303038152906040526119de565b826040516020016119ce919061367f565b6040516020818303038152906040525b905092915050565b606083600361ffff16611a0360008361191390919063ffffffff16565b61ffff1614611a5c57611a2060008261191390919063ffffffff16565b6040517f3a51740d000000000000000000000000000000000000000000000000000000008152600401611a5391906132cb565b60405180910390fd5b84600180611a6a8651611c43565b611a74919061369a565b8686604051602001611a8a959493929190613744565b6040516020818303038152906040529150509392505050565b6000813414611ae957346040517f9f704120000000000000000000000000000000000000000000000000000000008152600401611ae09190612a3c565b60405180910390fd5b819050919050565b60007f000000000000000000000000000000000000000000000000000000000000000073ffffffffffffffffffffffffffffffffffffffff1663e4fe1d946040518163ffffffff1660e01b8152600401602060405180830381865afa158015611b5e573d6000803e3d6000fd5b505050506040513d601f19601f82011682018060405250810190611b8291906137b0565b9050600073ffffffffffffffffffffffffffffffffffffffff168173ffffffffffffffffffffffffffffffffffffffff1603611bea576040517f5373352a00000000000000000000000000000000000000000000000000000000815260040160405180910390fd5b611c37337f0000000000000000000000000000000000000000000000000000000000000000848473ffffffffffffffffffffffffffffffffffffffff16611c94909392919063ffffffff16565b5050565b600033905090565b600061ffff8016821115611c8c576040517f08c379a0000000000000000000000000000000000000000000000000000000008152600401611c839061384f565b60405180910390fd5b819050919050565b611d17846323b872dd60e01b858585604051602401611cb59392919061386f565b604051602081830303815290604052907bffffffffffffffffffffffffffffffffffffffffffffffffffffffff19166020820180517bffffffffffffffffffffffffffffffffffffffffffffffffffffffff8381831617835250505050611d1d565b50505050565b6000611d7f826040518060400160405280602081526020017f5361666545524332303a206c6f772d6c6576656c2063616c6c206661696c65648152508573ffffffffffffffffffffffffffffffffffffffff16611de59092919063ffffffff16565b9050600081511480611da1575080806020019051810190611da091906138d2565b5b611de0576040517f08c379a0000000000000000000000000000000000000000000000000000000008152600401611dd790613971565b60405180910390fd5b505050565b6060611df48484600085611dfd565b90509392505050565b606082471015611e42576040517f08c379a0000000000000000000000000000000000000000000000000000000008152600401611e3990613a03565b60405180910390fd5b6000808673ffffffffffffffffffffffffffffffffffffffff168587604051611e6b9190613a23565b60006040518083038185875af1925050503d8060008114611ea8576040519150601f19603f3d011682016040523d82523d6000602084013e611ead565b606091505b5091509150611ebe87838387611eca565b92505050949350505050565b60608315611f2c576000835103611f2457611ee485611f3f565b611f23576040517f08c379a0000000000000000000000000000000000000000000000000000000008152600401611f1a90613a86565b60405180910390fd5b5b829050611f37565b611f368383611f62565b5b949350505050565b6000808273ffffffffffffffffffffffffffffffffffffffff163b119050919050565b600082511115611f755781518083602001fd5b806040517f08c379a0000000000000000000000000000000000000000000000000000000008152600401611fa99190613adf565b60405180910390fd5b604051806040016040528060008152602001600081525090565b604051806060016040528060008019168152602001600067ffffffffffffffff168152602001611ffa611fb2565b81525090565b600063ffffffff82169050919050565b61201981612000565b82525050565b60006020820190506120346000830184612010565b92915050565b6000604051905090565b600080fd5b600080fd5b600080fd5b6000606082840312156120695761206861204e565b5b81905092915050565b6000819050919050565b61208581612072565b811461209057600080fd5b50565b6000813590506120a28161207c565b92915050565b600080fd5b600080fd5b600080fd5b60008083601f8401126120cd576120cc6120a8565b5b8235905067ffffffffffffffff8111156120ea576120e96120ad565b5b602083019150836001820283011115612106576121056120b2565b5b9250929050565b600073ffffffffffffffffffffffffffffffffffffffff82169050919050565b60006121388261210d565b9050919050565b6121488161212d565b811461215357600080fd5b50565b6000813590506121658161213f565b92915050565b600080600080600080600060e0888a03121561218a57612189612044565b5b60006121988a828b01612053565b97505060606121a98a828b01612093565b965050608088013567ffffffffffffffff8111156121ca576121c9612049565b5b6121d68a828b016120b7565b955095505060a06121e98a828b01612156565b93505060c088013567ffffffffffffffff81111561220a57612209612049565b5b6122168a828b016120b7565b925092505092959891949750929550565b600067ffffffffffffffff82169050919050565b61224481612227565b82525050565b600060408201905061225f600083018561223b565b61226c602083018461223b565b9392505050565b600080fd5b6000601f19601f8301169050919050565b7f4e487b7100000000000000000000000000000000000000000000000000000000600052604160045260246000fd5b6122c182612278565b810181811067ffffffffffffffff821117156122e0576122df612289565b5b80604052505050565b60006122f361203a565b90506122ff82826122b8565b919050565b600067ffffffffffffffff82111561231f5761231e612289565b5b61232882612278565b9050602081019050919050565b82818337600083830152505050565b600061235761235284612304565b6122e9565b90508281526020810184848401111561237357612372612273565b5b61237e848285612335565b509392505050565b600082601f83011261239b5761239a6120a8565b5b81356123ab848260208601612344565b91505092915050565b6000602082840312156123ca576123c9612044565b5b600082013567ffffffffffffffff8111156123e8576123e7612049565b5b6123f484828501612386565b91505092915050565b61240681612000565b811461241157600080fd5b50565b600081359050612423816123fd565b92915050565b600080604083850312156124405761243f612044565b5b600061244e85828601612414565b925050602061245f85828601612093565b9150509250929050565b6000819050919050565b61247c81612469565b82525050565b6040820160008201516124986000850182612473565b5060208201516124ab6020850182612473565b50505050565b60006040820190506124c66000830184612482565b92915050565b6000819050919050565b60006124f16124ec6124e78461210d565b6124cc565b61210d565b9050919050565b6000612503826124d6565b9050919050565b6000612515826124f8565b9050919050565b6125258161250a565b82525050565b6000602082019050612540600083018461251c565b92915050565b61254f81612469565b811461255a57600080fd5b50565b60008135905061256c81612546565b92915050565b6000806040838503121561258957612588612044565b5b600061259785828601612156565b92505060206125a88582860161255d565b9150509250929050565b600081519050919050565b600082825260208201905092915050565b60005b838110156125ec5780820151818401526020810190506125d1565b60008484015250505050565b6000612603826125b2565b61260d81856125bd565b935061261d8185602086016125ce565b61262681612278565b840191505092915050565b6000602082019050818103600083015261264b81846125f8565b905092915050565b6000602082019050612668600083018461223b565b92915050565b60008060008060a0858703121561268857612687612044565b5b600061269687828801612053565b945050606085013567ffffffffffffffff8111156126b7576126b6612049565b5b6126c3878288016120b7565b935093505060806126d687828801612156565b91505092959194509250565b60008115159050919050565b6126f7816126e2565b82525050565b600060208201905061271260008301846126ee565b92915050565b6127218161212d565b82525050565b600060208201905061273c6000830184612718565b92915050565b60006020828403121561275857612757612044565b5b600061276684828501612156565b91505092915050565b600081519050919050565b600082825260208201905092915050565b6000819050602082019050919050565b600082825260208201905092915050565b60006127b7826125b2565b6127c1818561279b565b93506127d18185602086016125ce565b6127da81612278565b840191505092915050565b60006127f183836127ac565b905092915050565b6000602082019050919050565b60006128118261276f565b61281b818561277a565b93508360208202850161282d8561278b565b8060005b85811015612869578484038952815161284a85826127e5565b9450612855836127f9565b925060208a01995050600181019050612831565b50829750879550505050505092915050565b600060208201905081810360008301526128958184612806565b905092915050565b600081519050919050565b600082825260208201905092915050565b6000819050602082019050919050565b600081519050919050565b600082825260208201905092915050565b60006128f0826128c9565b6128fa81856128d4565b935061290a8185602086016125ce565b61291381612278565b840191505092915050565b600061292a83836128e5565b905092915050565b6000602082019050919050565b600061294a8261289d565b61295481856128a8565b935083602082028501612966856128b9565b8060005b858110156129a25784840389528151612983858261291e565b945061298e83612932565b925060208a0199505060018101905061296a565b50829750879550505050505092915050565b600060208201905081810360008301526129ce818461293f565b905092915050565b6000602082840312156129ec576129eb612044565b5b60006129fa84828501612414565b91505092915050565b612a0c81612072565b82525050565b6000602082019050612a276000830184612a03565b92915050565b612a3681612469565b82525050565b6000602082019050612a516000830184612a2d565b92915050565b600060208284031215612a6d57612a6c612044565b5b6000612a7b8482850161255d565b91505092915050565b600060608284031215612a9a57612a99612044565b5b6000612aa884828501612053565b91505092915050565b6000604082019050612ac66000830185612010565b612ad36020830184612a03565b9392505050565b600081905092915050565b6000612af0826128c9565b612afa8185612ada565b9350612b0a8185602086016125ce565b80840191505092915050565b7f2c00000000000000000000000000000000000000000000000000000000000000600082015250565b6000612b4c600183612ada565b9150612b5782612b16565b600182019050919050565b6000612b6e8286612ae5565b9150612b7982612b3f565b9150612b858285612ae5565b9150612b9082612b3f565b9150612b9c8284612ae5565b9150819050949350505050565b7f4e487b7100000000000000000000000000000000000000000000000000000000600052602260045260246000fd5b60006002820490506001821680612bf057607f821691505b602082108103612c0357612c02612ba9565b5b50919050565b60008190508160005260206000209050919050565b60006020601f8301049050919050565b600082821b905092915050565b600060088302612c6b7fffffffffffffffffffffffffffffffffffffffffffffffffffffffffffffffff82612c2e565b612c758683612c2e565b95508019841693508086168417925050509392505050565b6000612ca8612ca3612c9e84612469565b6124cc565b612469565b9050919050565b6000819050919050565b612cc283612c8d565b612cd6612cce82612caf565b848454612c3b565b825550505050565b600090565b612ceb612cde565b612cf6818484612cb9565b505050565b5b81811015612d1a57612d0f600082612ce3565b600181019050612cfc565b5050565b601f821115612d5f57612d3081612c09565b612d3984612c1e565b81016020851015612d48578190505b612d5c612d5485612c1e565b830182612cfb565b50505b505050565b600082821c905092915050565b6000612d8260001984600802612d64565b1980831691505092915050565b6000612d9b8383612d71565b9150826002028217905092915050565b612db4826125b2565b67ffffffffffffffff811115612dcd57612dcc612289565b5b612dd78254612bd8565b612de2828285612d1e565b600060209050601f831160018114612e155760008415612e03578287015190505b612e0d8582612d8f565b865550612e75565b601f198416612e2386612c09565b60005b82811015612e4b57848901518255600182019150602085019450602081019050612e26565b86831015612e685784890151612e64601f891682612d71565b8355505b6001600288020188555050505b505050505050565b6000606082019050612e926000830186612718565b8181036020830152612ea481856125f8565b9050612eb36040830184612a2d565b949350505050565b600082825260208201905092915050565b7f496e73756666696369656e742066656500000000000000000000000000000000600082015250565b6000612f02601083612ebb565b9150612f0d82612ecc565b602082019050919050565b60006020820190508181036000830152612f3181612ef5565b9050919050565b600081905092915050565b50565b6000612f53600083612f38565b9150612f5e82612f43565b600082019050919050565b6000612f7482612f46565b9150819050919050565b7f5472616e73666572206661696c65640000000000000000000000000000000000600082015250565b6000612fb4600f83612ebb565b9150612fbf82612f7e565b602082019050919050565b60006020820190508181036000830152612fe381612fa7565b9050919050565b7f4e487b7100000000000000000000000000000000000000000000000000000000600052603260045260246000fd5b7f4e487b7100000000000000000000000000000000000000000000000000000000600052601160045260246000fd5b600061305382612469565b91507fffffffffffffffffffffffffffffffffffffffffffffffffffffffffffffffff820361308557613084613019565b5b600182019050919050565b7f4f776e61626c653a206e6577206f776e657220697320746865207a65726f206160008201527f6464726573730000000000000000000000000000000000000000000000000000602082015250565b60006130ec602683612ebb565b91506130f782613090565b604082019050919050565b6000602082019050818103600083015261311b816130df565b9050919050565b600061312d82612469565b915061313883612469565b92508282019050808211156131505761314f613019565b5b92915050565b600061316182612469565b915061316c83612469565b925082820261317a81612469565b9150828204841483151761319157613190613019565b5b5092915050565b7f4e487b7100000000000000000000000000000000000000000000000000000000600052601260045260246000fd5b60006131d282612469565b91506131dd83612469565b9250826131ed576131ec613198565b5b828204905092915050565b600061320382612469565b915061320e83612469565b925082820390508181111561322657613225613019565b5b92915050565b600061323782612469565b915061324283612469565b92508261325257613251613198565b5b828206905092915050565b600061ffff82169050919050565b60008160f01b9050919050565b60006132838261326b565b9050919050565b61329b6132968261325d565b613278565b82525050565b60006132ad828461328a565b60028201915081905092915050565b6132c58161325d565b82525050565b60006020820190506132e060008301846132bc565b92915050565b6132ef81612000565b82525050565b6132fe81612072565b82525050565b61330d816126e2565b82525050565b600060a08301600083015161332b60008601826132e6565b50602083015161333e60208601826132f5565b506040830151848203604086015261335682826127ac565b9150506060830151848203606086015261337082826127ac565b91505060808301516133856080860182613304565b508091505092915050565b600060408201905081810360008301526133aa8185613313565b90506133b96020830184612718565b9392505050565b600080fd5b6000815190506133d481612546565b92915050565b6000604082840312156133f0576133ef6133c0565b5b6133fa60406122e9565b9050600061340a848285016133c5565b600083015250602061341e848285016133c5565b60208301525092915050565b6000604082840312156134405761343f612044565b5b600061344e848285016133da565b91505092915050565b6000815190506134668161207c565b92915050565b61347581612227565b811461348057600080fd5b50565b6000815190506134928161346c565b92915050565b6000608082840312156134ae576134ad6133c0565b5b6134b860606122e9565b905060006134c884828501613457565b60008301525060206134dc84828501613483565b60208301525060406134f0848285016133da565b60408301525092915050565b60006080828403121561351257613511612044565b5b600061352084828501613498565b91505092915050565b7f4f776e61626c653a2063616c6c6572206973206e6f7420746865206f776e6572600082015250565b600061355f602083612ebb565b915061356a82613529565b602082019050919050565b6000602082019050818103600083015261358e81613552565b9050919050565b7f746f55696e7431365f6f75744f66426f756e6473000000000000000000000000600082015250565b60006135cb601483612ebb565b91506135d682613595565b602082019050919050565b600060208201905081810360008301526135fa816135be565b9050919050565b60006fffffffffffffffffffffffffffffffff82169050919050565b60008160801b9050919050565b60006136358261361d565b9050919050565b61364d61364882613601565b61362a565b82525050565b600061365f828561363c565b60108201915061366f828461363c565b6010820191508190509392505050565b600061368b828461363c565b60108201915081905092915050565b60006136a58261325d565b91506136b08361325d565b9250828201905061ffff8111156136ca576136c9613019565b5b92915050565b60006136db826125b2565b6136e58185612f38565b93506136f58185602086016125ce565b80840191505092915050565b600060ff82169050919050565b60008160f81b9050919050565b60006137268261370e565b9050919050565b61373e61373982613701565b61371b565b82525050565b600061375082886136d0565b915061375c828761372d565b60018201915061376c828661328a565b60028201915061377c828561372d565b60018201915061378c82846136d0565b91508190509695505050505050565b6000815190506137aa8161213f565b92915050565b6000602082840312156137c6576137c5612044565b5b60006137d48482850161379b565b91505092915050565b7f53616665436173743a2076616c756520646f65736e27742066697420696e203160008201527f3620626974730000000000000000000000000000000000000000000000000000602082015250565b6000613839602683612ebb565b9150613844826137dd565b604082019050919050565b600060208201905081810360008301526138688161382c565b9050919050565b60006060820190506138846000830186612718565b6138916020830185612718565b61389e6040830184612a2d565b949350505050565b6138af816126e2565b81146138ba57600080fd5b50565b6000815190506138cc816138a6565b92915050565b6000602082840312156138e8576138e7612044565b5b60006138f6848285016138bd565b91505092915050565b7f5361666545524332303a204552433230206f7065726174696f6e20646964206e60008201527f6f74207375636365656400000000000000000000000000000000000000000000602082015250565b600061395b602a83612ebb565b9150613966826138ff565b604082019050919050565b6000602082019050818103600083015261398a8161394e565b9050919050565b7f416464726573733a20696e73756666696369656e742062616c616e636520666f60008201527f722063616c6c0000000000000000000000000000000000000000000000000000602082015250565b60006139ed602683612ebb565b91506139f882613991565b604082019050919050565b60006020820190508181036000830152613a1c816139e0565b9050919050565b6000613a2f82846136d0565b915081905092915050565b7f416464726573733a2063616c6c20746f206e6f6e2d636f6e7472616374000000600082015250565b6000613a70601d83612ebb565b9150613a7b82613a3a565b602082019050919050565b60006020820190508181036000830152613a9f81613a63565b9050919050565b6000613ab1826128c9565b613abb8185612ebb565b9350613acb8185602086016125ce565b613ad481612278565b840191505092915050565b60006020820190508181036000830152613af98184613aa6565b90509291505056fea264697066735822122042b656186216a5e304a5e80e8dce671a9f4bd0cab26faa0d2ec065435915c96c64736f6c63430008140033","opcodes":"PUSH1 0xA0 PUSH1 0x40 MSTORE PUSH3 0x30D40 PUSH1 0x2 SSTORE CALLVALUE DUP1 ISZERO PUSH3 0x18 JUMPI PUSH1 0x0 DUP1 REVERT JUMPDEST POP PUSH1 0x40 MLOAD PUSH3 0x3EA2 CODESIZE SUB DUP1 PUSH3 0x3EA2 DUP4 CODECOPY DUP2 DUP2 ADD PUSH1 0x40 MSTORE DUP2 ADD SWAP1 PUSH3 0x3E SWAP2 SWAP1 PUSH3 0x2B0 JUMP JUMPDEST DUP2 DUP2 DUP2 DUP2 PUSH3 0x62 PUSH3 0x56 PUSH3 0x17A PUSH1 0x20 SHL PUSH1 0x20 SHR JUMP JUMPDEST PUSH3 0x182 PUSH1 0x20 SHL PUSH1 0x20 SHR JUMP JUMPDEST DUP2 PUSH20 0xFFFFFFFFFFFFFFFFFFFFFFFFFFFFFFFFFFFFFFFF AND PUSH1 0x80 DUP2 PUSH20 0xFFFFFFFFFFFFFFFFFFFFFFFFFFFFFFFFFFFFFFFF AND DUP2 MSTORE POP POP PUSH1 0x0 PUSH20 0xFFFFFFFFFFFFFFFFFFFFFFFFFFFFFFFFFFFFFFFF AND DUP2 PUSH20 0xFFFFFFFFFFFFFFFFFFFFFFFFFFFFFFFFFFFFFFFF AND SUB PUSH3 0xFD JUMPI PUSH1 0x40 MLOAD PUSH32 0xB586360400000000000000000000000000000000000000000000000000000000 DUP2 MSTORE PUSH1 0x4 ADD PUSH1 0x40 MLOAD DUP1 SWAP2 SUB SWAP1 REVERT JUMPDEST PUSH1 0x80 MLOAD PUSH20 0xFFFFFFFFFFFFFFFFFFFFFFFFFFFFFFFFFFFFFFFF AND PUSH4 0xCA5EB5E1 DUP3 PUSH1 0x40 MLOAD DUP3 PUSH4 0xFFFFFFFF AND PUSH1 0xE0 SHL DUP2 MSTORE PUSH1 0x4 ADD PUSH3 0x13A SWAP2 SWAP1 PUSH3 0x308 JUMP JUMPDEST PUSH1 0x0 PUSH1 0x40 MLOAD DUP1 DUP4 SUB DUP2 PUSH1 0x0 DUP8 DUP1 EXTCODESIZE ISZERO DUP1 ISZERO PUSH3 0x155 JUMPI PUSH1 0x0 DUP1 REVERT JUMPDEST POP GAS CALL ISZERO DUP1 ISZERO PUSH3 0x16A JUMPI RETURNDATASIZE PUSH1 0x0 DUP1 RETURNDATACOPY RETURNDATASIZE PUSH1 0x0 REVERT JUMPDEST POP POP POP POP POP POP POP POP POP POP PUSH3 0x325 JUMP JUMPDEST PUSH1 0x0 CALLER SWAP1 POP SWAP1 JUMP JUMPDEST PUSH1 0x0 DUP1 PUSH1 0x0 SWAP1 SLOAD SWAP1 PUSH2 0x100 EXP SWAP1 DIV PUSH20 0xFFFFFFFFFFFFFFFFFFFFFFFFFFFFFFFFFFFFFFFF AND SWAP1 POP DUP2 PUSH1 0x0 DUP1 PUSH2 0x100 EXP DUP2 SLOAD DUP2 PUSH20 0xFFFFFFFFFFFFFFFFFFFFFFFFFFFFFFFFFFFFFFFF MUL NOT AND SWAP1 DUP4 PUSH20 0xFFFFFFFFFFFFFFFFFFFFFFFFFFFFFFFFFFFFFFFF AND MUL OR SWAP1 SSTORE POP DUP2 PUSH20 0xFFFFFFFFFFFFFFFFFFFFFFFFFFFFFFFFFFFFFFFF AND DUP2 PUSH20 0xFFFFFFFFFFFFFFFFFFFFFFFFFFFFFFFFFFFFFFFF AND PUSH32 0x8BE0079C531659141344CD1FD0A4F28419497F9722A3DAAFE3B4186F6B6457E0 PUSH1 0x40 MLOAD PUSH1 0x40 MLOAD DUP1 SWAP2 SUB SWAP1 LOG3 POP POP JUMP JUMPDEST PUSH1 0x0 DUP1 REVERT JUMPDEST PUSH1 0x0 PUSH20 0xFFFFFFFFFFFFFFFFFFFFFFFFFFFFFFFFFFFFFFFF DUP3 AND SWAP1 POP SWAP2 SWAP1 POP JUMP JUMPDEST PUSH1 0x0 PUSH3 0x278 DUP3 PUSH3 0x24B JUMP JUMPDEST SWAP1 POP SWAP2 SWAP1 POP JUMP JUMPDEST PUSH3 0x28A DUP2 PUSH3 0x26B JUMP JUMPDEST DUP2 EQ PUSH3 0x296 JUMPI PUSH1 0x0 DUP1 REVERT JUMPDEST POP JUMP JUMPDEST PUSH1 0x0 DUP2 MLOAD SWAP1 POP PUSH3 0x2AA DUP2 PUSH3 0x27F JUMP JUMPDEST SWAP3 SWAP2 POP POP JUMP JUMPDEST PUSH1 0x0 DUP1 PUSH1 0x40 DUP4 DUP6 SUB SLT ISZERO PUSH3 0x2CA JUMPI PUSH3 0x2C9 PUSH3 0x246 JUMP JUMPDEST JUMPDEST PUSH1 0x0 PUSH3 0x2DA DUP6 DUP3 DUP7 ADD PUSH3 0x299 JUMP JUMPDEST SWAP3 POP POP PUSH1 0x20 PUSH3 0x2ED DUP6 DUP3 DUP7 ADD PUSH3 0x299 JUMP JUMPDEST SWAP2 POP POP SWAP3 POP SWAP3 SWAP1 POP JUMP JUMPDEST PUSH3 0x302 DUP2 PUSH3 0x26B JUMP JUMPDEST DUP3 MSTORE POP POP JUMP JUMPDEST PUSH1 0x0 PUSH1 0x20 DUP3 ADD SWAP1 POP PUSH3 0x31F PUSH1 0x0 DUP4 ADD DUP5 PUSH3 0x2F7 JUMP JUMPDEST SWAP3 SWAP2 POP POP JUMP JUMPDEST PUSH1 0x80 MLOAD PUSH2 0x3B37 PUSH3 0x36B PUSH1 0x0 CODECOPY PUSH1 0x0 DUP2 DUP2 PUSH2 0x560 ADD MSTORE DUP2 DUP2 PUSH2 0x96C ADD MSTORE DUP2 DUP2 PUSH2 0xE5D ADD MSTORE DUP2 DUP2 PUSH2 0x157B ADD MSTORE DUP2 DUP2 PUSH2 0x168A ADD MSTORE DUP2 DUP2 PUSH2 0x1AF5 ADD MSTORE PUSH2 0x1BF0 ADD MSTORE PUSH2 0x3B37 PUSH1 0x0 RETURN INVALID PUSH1 0x80 PUSH1 0x40 MSTORE PUSH1 0x4 CALLDATASIZE LT PUSH2 0x135 JUMPI PUSH1 0x0 CALLDATALOAD PUSH1 0xE0 SHR DUP1 PUSH4 0x82413EAC GT PUSH2 0xAB JUMPI DUP1 PUSH4 0xBF3F3DE9 GT PUSH2 0x6F JUMPI DUP1 PUSH4 0xBF3F3DE9 EQ PUSH2 0x421 JUMPI DUP1 PUSH4 0xCA5EB5E1 EQ PUSH2 0x45E JUMPI DUP1 PUSH4 0xEE7D72B4 EQ PUSH2 0x487 JUMPI DUP1 PUSH4 0xF2FDE38B EQ PUSH2 0x4B0 JUMPI DUP1 PUSH4 0xF68016B7 EQ PUSH2 0x4D9 JUMPI DUP1 PUSH4 0xFF7BD03D EQ PUSH2 0x504 JUMPI PUSH2 0x135 JUMP JUMPDEST DUP1 PUSH4 0x82413EAC EQ PUSH2 0x302 JUMPI DUP1 PUSH4 0x8DA5CB5B EQ PUSH2 0x33F JUMPI DUP1 PUSH4 0x9541618C EQ PUSH2 0x36A JUMPI DUP1 PUSH4 0xA6451163 EQ PUSH2 0x3A7 JUMPI DUP1 PUSH4 0xBB0B6A53 EQ PUSH2 0x3E4 JUMPI PUSH2 0x135 JUMP JUMPDEST DUP1 PUSH4 0x3CCFD60B GT PUSH2 0xFD JUMPI DUP1 PUSH4 0x3CCFD60B EQ PUSH2 0x1F2 JUMPI DUP1 PUSH4 0x56368126 EQ PUSH2 0x209 JUMPI DUP1 PUSH4 0x5E280F11 EQ PUSH2 0x246 JUMPI DUP1 PUSH4 0x715018A6 EQ PUSH2 0x271 JUMPI DUP1 PUSH4 0x7954C58F EQ PUSH2 0x288 JUMPI DUP1 PUSH4 0x7D25A05E EQ PUSH2 0x2C5 JUMPI PUSH2 0x135 JUMP JUMPDEST DUP1 PUSH4 0x67BD07A EQ PUSH2 0x13A JUMPI DUP1 PUSH4 0x13137D65 EQ PUSH2 0x165 JUMPI DUP1 PUSH4 0x17442B70 EQ PUSH2 0x181 JUMPI DUP1 PUSH4 0x306FED73 EQ PUSH2 0x1AD JUMPI DUP1 PUSH4 0x3400288B EQ PUSH2 0x1C9 JUMPI JUMPDEST PUSH1 0x0 DUP1 REVERT JUMPDEST CALLVALUE DUP1 ISZERO PUSH2 0x146 JUMPI PUSH1 0x0 DUP1 REVERT JUMPDEST POP PUSH2 0x14F PUSH2 0x541 JUMP JUMPDEST PUSH1 0x40 MLOAD PUSH2 0x15C SWAP2 SWAP1 PUSH2 0x201F JUMP JUMPDEST PUSH1 0x40 MLOAD DUP1 SWAP2 SUB SWAP1 RETURN JUMPDEST PUSH2 0x17F PUSH1 0x4 DUP1 CALLDATASIZE SUB DUP2 ADD SWAP1 PUSH2 0x17A SWAP2 SWAP1 PUSH2 0x216B JUMP JUMPDEST PUSH2 0x547 JUMP JUMPDEST STOP JUMPDEST CALLVALUE DUP1 ISZERO PUSH2 0x18D JUMPI PUSH1 0x0 DUP1 REVERT JUMPDEST POP PUSH2 0x196 PUSH2 0x669 JUMP JUMPDEST PUSH1 0x40 MLOAD PUSH2 0x1A4 SWAP3 SWAP2 SWAP1 PUSH2 0x224A JUMP JUMPDEST PUSH1 0x40 MLOAD DUP1 SWAP2 SUB SWAP1 RETURN JUMPDEST PUSH2 0x1C7 PUSH1 0x4 DUP1 CALLDATASIZE SUB DUP2 ADD SWAP1 PUSH2 0x1C2 SWAP2 SWAP1 PUSH2 0x23B4 JUMP JUMPDEST PUSH2 0x678 JUMP JUMPDEST STOP JUMPDEST CALLVALUE DUP1 ISZERO PUSH2 0x1D5 JUMPI PUSH1 0x0 DUP1 REVERT JUMPDEST POP PUSH2 0x1F0 PUSH1 0x4 DUP1 CALLDATASIZE SUB DUP2 ADD SWAP1 PUSH2 0x1EB SWAP2 SWAP1 PUSH2 0x2429 JUMP JUMPDEST PUSH2 0x818 JUMP JUMPDEST STOP JUMPDEST CALLVALUE DUP1 ISZERO PUSH2 0x1FE JUMPI PUSH1 0x0 DUP1 REVERT JUMPDEST POP PUSH2 0x207 PUSH2 0x82E JUMP JUMPDEST STOP JUMPDEST CALLVALUE DUP1 ISZERO PUSH2 0x215 JUMPI PUSH1 0x0 DUP1 REVERT JUMPDEST POP PUSH2 0x230 PUSH1 0x4 DUP1 CALLDATASIZE SUB DUP2 ADD SWAP1 PUSH2 0x22B SWAP2 SWAP1 PUSH2 0x23B4 JUMP JUMPDEST PUSH2 0x8EC JUMP JUMPDEST PUSH1 0x40 MLOAD PUSH2 0x23D SWAP2 SWAP1 PUSH2 0x24B1 JUMP JUMPDEST PUSH1 0x40 MLOAD DUP1 SWAP2 SUB SWAP1 RETURN JUMPDEST CALLVALUE DUP1 ISZERO PUSH2 0x252 JUMPI PUSH1 0x0 DUP1 REVERT JUMPDEST POP PUSH2 0x25B PUSH2 0x96A JUMP JUMPDEST PUSH1 0x40 MLOAD PUSH2 0x268 SWAP2 SWAP1 PUSH2 0x252B JUMP JUMPDEST PUSH1 0x40 MLOAD DUP1 SWAP2 SUB SWAP1 RETURN JUMPDEST CALLVALUE DUP1 ISZERO PUSH2 0x27D JUMPI PUSH1 0x0 DUP1 REVERT JUMPDEST POP PUSH2 0x286 PUSH2 0x98E JUMP JUMPDEST STOP JUMPDEST CALLVALUE DUP1 ISZERO PUSH2 0x294 JUMPI PUSH1 0x0 DUP1 REVERT JUMPDEST POP PUSH2 0x2AF PUSH1 0x4 DUP1 CALLDATASIZE SUB DUP2 ADD SWAP1 PUSH2 0x2AA SWAP2 SWAP1 PUSH2 0x2572 JUMP JUMPDEST PUSH2 0x9A2 JUMP JUMPDEST PUSH1 0x40 MLOAD PUSH2 0x2BC SWAP2 SWAP1 PUSH2 0x2631 JUMP JUMPDEST PUSH1 0x40 MLOAD DUP1 SWAP2 SUB SWAP1 RETURN JUMPDEST CALLVALUE DUP1 ISZERO PUSH2 0x2D1 JUMPI PUSH1 0x0 DUP1 REVERT JUMPDEST POP PUSH2 0x2EC PUSH1 0x4 DUP1 CALLDATASIZE SUB DUP2 ADD SWAP1 PUSH2 0x2E7 SWAP2 SWAP1 PUSH2 0x2429 JUMP JUMPDEST PUSH2 0xA5B JUMP JUMPDEST PUSH1 0x40 MLOAD PUSH2 0x2F9 SWAP2 SWAP1 PUSH2 0x2653 JUMP JUMPDEST PUSH1 0x40 MLOAD DUP1 SWAP2 SUB SWAP1 RETURN JUMPDEST CALLVALUE DUP1 ISZERO PUSH2 0x30E JUMPI PUSH1 0x0 DUP1 REVERT JUMPDEST POP PUSH2 0x329 PUSH1 0x4 DUP1 CALLDATASIZE SUB DUP2 ADD SWAP1 PUSH2 0x324 SWAP2 SWAP1 PUSH2 0x266E JUMP JUMPDEST PUSH2 0xA63 JUMP JUMPDEST PUSH1 0x40 MLOAD PUSH2 0x336 SWAP2 SWAP1 PUSH2 0x26FD JUMP JUMPDEST PUSH1 0x40 MLOAD DUP1 SWAP2 SUB SWAP1 RETURN JUMPDEST CALLVALUE DUP1 ISZERO PUSH2 0x34B JUMPI PUSH1 0x0 DUP1 REVERT JUMPDEST POP PUSH2 0x354 PUSH2 0xA9E JUMP JUMPDEST PUSH1 0x40 MLOAD PUSH2 0x361 SWAP2 SWAP1 PUSH2 0x2727 JUMP JUMPDEST PUSH1 0x40 MLOAD DUP1 SWAP2 SUB SWAP1 RETURN JUMPDEST CALLVALUE DUP1 ISZERO PUSH2 0x376 JUMPI PUSH1 0x0 DUP1 REVERT JUMPDEST POP PUSH2 0x391 PUSH1 0x4 DUP1 CALLDATASIZE SUB DUP2 ADD SWAP1 PUSH2 0x38C SWAP2 SWAP1 PUSH2 0x2742 JUMP JUMPDEST PUSH2 0xAC7 JUMP JUMPDEST PUSH1 0x40 MLOAD PUSH2 0x39E SWAP2 SWAP1 PUSH2 0x287B JUMP JUMPDEST PUSH1 0x40 MLOAD DUP1 SWAP2 SUB SWAP1 RETURN JUMPDEST CALLVALUE DUP1 ISZERO PUSH2 0x3B3 JUMPI PUSH1 0x0 DUP1 REVERT JUMPDEST POP PUSH2 0x3CE PUSH1 0x4 DUP1 CALLDATASIZE SUB DUP2 ADD SWAP1 PUSH2 0x3C9 SWAP2 SWAP1 PUSH2 0x2742 JUMP JUMPDEST PUSH2 0xBDF JUMP JUMPDEST PUSH1 0x40 MLOAD PUSH2 0x3DB SWAP2 SWAP1 PUSH2 0x29B4 JUMP JUMPDEST PUSH1 0x40 MLOAD DUP1 SWAP2 SUB SWAP1 RETURN JUMPDEST CALLVALUE DUP1 ISZERO PUSH2 0x3F0 JUMPI PUSH1 0x0 DUP1 REVERT JUMPDEST POP PUSH2 0x40B PUSH1 0x4 DUP1 CALLDATASIZE SUB DUP2 ADD SWAP1 PUSH2 0x406 SWAP2 SWAP1 PUSH2 0x29D6 JUMP JUMPDEST PUSH2 0xDAA JUMP JUMPDEST PUSH1 0x40 MLOAD PUSH2 0x418 SWAP2 SWAP1 PUSH2 0x2A12 JUMP JUMPDEST PUSH1 0x40 MLOAD DUP1 SWAP2 SUB SWAP1 RETURN JUMPDEST CALLVALUE DUP1 ISZERO PUSH2 0x42D JUMPI PUSH1 0x0 DUP1 REVERT JUMPDEST POP PUSH2 0x448 PUSH1 0x4 DUP1 CALLDATASIZE SUB DUP2 ADD SWAP1 PUSH2 0x443 SWAP2 SWAP1 PUSH2 0x23B4 JUMP JUMPDEST PUSH2 0xDC2 JUMP JUMPDEST PUSH1 0x40 MLOAD PUSH2 0x455 SWAP2 SWAP1 PUSH2 0x2A3C JUMP JUMPDEST PUSH1 0x40 MLOAD DUP1 SWAP2 SUB SWAP1 RETURN JUMPDEST CALLVALUE DUP1 ISZERO PUSH2 0x46A JUMPI PUSH1 0x0 DUP1 REVERT JUMPDEST POP PUSH2 0x485 PUSH1 0x4 DUP1 CALLDATASIZE SUB DUP2 ADD SWAP1 PUSH2 0x480 SWAP2 SWAP1 PUSH2 0x2742 JUMP JUMPDEST PUSH2 0xE53 JUMP JUMPDEST STOP JUMPDEST CALLVALUE DUP1 ISZERO PUSH2 0x493 JUMPI PUSH1 0x0 DUP1 REVERT JUMPDEST POP PUSH2 0x4AE PUSH1 0x4 DUP1 CALLDATASIZE SUB DUP2 ADD SWAP1 PUSH2 0x4A9 SWAP2 SWAP1 PUSH2 0x2A57 JUMP JUMPDEST PUSH2 0xEE9 JUMP JUMPDEST STOP JUMPDEST CALLVALUE DUP1 ISZERO PUSH2 0x4BC JUMPI PUSH1 0x0 DUP1 REVERT JUMPDEST POP PUSH2 0x4D7 PUSH1 0x4 DUP1 CALLDATASIZE SUB DUP2 ADD SWAP1 PUSH2 0x4D2 SWAP2 SWAP1 PUSH2 0x2742 JUMP JUMPDEST PUSH2 0xEFB JUMP JUMPDEST STOP JUMPDEST CALLVALUE DUP1 ISZERO PUSH2 0x4E5 JUMPI PUSH1 0x0 DUP1 REVERT JUMPDEST POP PUSH2 0x4EE PUSH2 0xF7E JUMP JUMPDEST PUSH1 0x40 MLOAD PUSH2 0x4FB SWAP2 SWAP1 PUSH2 0x2A3C JUMP JUMPDEST PUSH1 0x40 MLOAD DUP1 SWAP2 SUB SWAP1 RETURN JUMPDEST CALLVALUE DUP1 ISZERO PUSH2 0x510 JUMPI PUSH1 0x0 DUP1 REVERT JUMPDEST POP PUSH2 0x52B PUSH1 0x4 DUP1 CALLDATASIZE SUB DUP2 ADD SWAP1 PUSH2 0x526 SWAP2 SWAP1 PUSH2 0x2A84 JUMP JUMPDEST PUSH2 0xF84 JUMP JUMPDEST PUSH1 0x40 MLOAD PUSH2 0x538 SWAP2 SWAP1 PUSH2 0x26FD JUMP JUMPDEST PUSH1 0x40 MLOAD DUP1 SWAP2 SUB SWAP1 RETURN JUMPDEST PUSH2 0x9CE8 DUP2 JUMP JUMPDEST CALLER PUSH20 0xFFFFFFFFFFFFFFFFFFFFFFFFFFFFFFFFFFFFFFFF AND PUSH32 0x0 PUSH20 0xFFFFFFFFFFFFFFFFFFFFFFFFFFFFFFFFFFFFFFFF AND EQ PUSH2 0x5D7 JUMPI CALLER PUSH1 0x40 MLOAD PUSH32 0x91AC5E4F00000000000000000000000000000000000000000000000000000000 DUP2 MSTORE PUSH1 0x4 ADD PUSH2 0x5CE SWAP2 SWAP1 PUSH2 0x2727 JUMP JUMPDEST PUSH1 0x40 MLOAD DUP1 SWAP2 SUB SWAP1 REVERT JUMPDEST DUP7 PUSH1 0x20 ADD CALLDATALOAD PUSH2 0x5F7 DUP9 PUSH1 0x0 ADD PUSH1 0x20 DUP2 ADD SWAP1 PUSH2 0x5F2 SWAP2 SWAP1 PUSH2 0x29D6 JUMP JUMPDEST PUSH2 0xFC5 JUMP JUMPDEST EQ PUSH2 0x651 JUMPI DUP7 PUSH1 0x0 ADD PUSH1 0x20 DUP2 ADD SWAP1 PUSH2 0x60F SWAP2 SWAP1 PUSH2 0x29D6 JUMP JUMPDEST DUP8 PUSH1 0x20 ADD CALLDATALOAD PUSH1 0x40 MLOAD PUSH32 0xC26BEBCC00000000000000000000000000000000000000000000000000000000 DUP2 MSTORE PUSH1 0x4 ADD PUSH2 0x648 SWAP3 SWAP2 SWAP1 PUSH2 0x2AB1 JUMP JUMPDEST PUSH1 0x40 MLOAD DUP1 SWAP2 SUB SWAP1 REVERT JUMPDEST PUSH2 0x660 DUP8 DUP8 DUP8 DUP8 DUP8 DUP8 DUP8 PUSH2 0x103A JUMP JUMPDEST POP POP POP POP POP POP POP JUMP JUMPDEST PUSH1 0x0 DUP1 PUSH1 0x1 PUSH1 0x2 SWAP2 POP SWAP2 POP SWAP1 SWAP2 JUMP JUMPDEST PUSH1 0x0 PUSH2 0x683 CALLER PUSH2 0x1043 JUMP JUMPDEST SWAP1 POP PUSH1 0x0 PUSH2 0x690 TIMESTAMP PUSH2 0x134E JUMP JUMPDEST SWAP1 POP PUSH1 0x0 DUP3 DUP5 DUP4 PUSH1 0x40 MLOAD PUSH1 0x20 ADD PUSH2 0x6A9 SWAP4 SWAP3 SWAP2 SWAP1 PUSH2 0x2B62 JUMP JUMPDEST PUSH1 0x40 MLOAD PUSH1 0x20 DUP2 DUP4 SUB SUB DUP2 MSTORE SWAP1 PUSH1 0x40 MSTORE SWAP1 POP PUSH1 0x0 DUP2 SWAP1 POP PUSH1 0x3 PUSH1 0x0 CALLER PUSH20 0xFFFFFFFFFFFFFFFFFFFFFFFFFFFFFFFFFFFFFFFF AND PUSH20 0xFFFFFFFFFFFFFFFFFFFFFFFFFFFFFFFFFFFFFFFF AND DUP2 MSTORE PUSH1 0x20 ADD SWAP1 DUP2 MSTORE PUSH1 0x20 ADD PUSH1 0x0 KECCAK256 DUP6 SWAP1 DUP1 PUSH1 0x1 DUP2 SLOAD ADD DUP1 DUP3 SSTORE DUP1 SWAP2 POP POP PUSH1 0x1 SWAP1 SUB SWAP1 PUSH1 0x0 MSTORE PUSH1 0x20 PUSH1 0x0 KECCAK256 ADD PUSH1 0x0 SWAP1 SWAP2 SWAP1 SWAP2 SWAP1 SWAP2 POP SWAP1 DUP2 PUSH2 0x730 SWAP2 SWAP1 PUSH2 0x2DAB JUMP JUMPDEST POP PUSH32 0x15B1A221748794744CD2960E23AB851C4E6B2B22FBABE81F3404E15EEBF0AF16 CALLER DUP7 TIMESTAMP PUSH1 0x40 MLOAD PUSH2 0x764 SWAP4 SWAP3 SWAP2 SWAP1 PUSH2 0x2E7D JUMP JUMPDEST PUSH1 0x40 MLOAD DUP1 SWAP2 SUB SWAP1 LOG1 PUSH1 0x0 PUSH2 0x78E PUSH3 0x30D40 PUSH1 0x0 PUSH2 0x77F PUSH2 0x14AE JUMP JUMPDEST PUSH2 0x14D6 SWAP1 SWAP3 SWAP2 SWAP1 PUSH4 0xFFFFFFFF AND JUMP JUMPDEST SWAP1 POP PUSH1 0x0 PUSH2 0x7A1 PUSH2 0x9CE8 DUP5 DUP5 PUSH1 0x0 PUSH2 0x1571 JUMP JUMPDEST SWAP1 POP DUP1 PUSH1 0x0 ADD MLOAD CALLVALUE LT ISZERO PUSH2 0x7EA JUMPI PUSH1 0x40 MLOAD PUSH32 0x8C379A000000000000000000000000000000000000000000000000000000000 DUP2 MSTORE PUSH1 0x4 ADD PUSH2 0x7E1 SWAP1 PUSH2 0x2F18 JUMP JUMPDEST PUSH1 0x40 MLOAD DUP1 SWAP2 SUB SWAP1 REVERT JUMPDEST PUSH2 0x80E PUSH2 0x9CE8 DUP5 DUP5 PUSH1 0x40 MLOAD DUP1 PUSH1 0x40 ADD PUSH1 0x40 MSTORE DUP1 CALLVALUE DUP2 MSTORE PUSH1 0x20 ADD PUSH1 0x0 DUP2 MSTORE POP CALLER PUSH2 0x1654 JUMP JUMPDEST POP POP POP POP POP POP POP POP JUMP JUMPDEST PUSH2 0x820 PUSH2 0x1770 JUMP JUMPDEST PUSH2 0x82A DUP3 DUP3 PUSH2 0x17EE JUMP JUMPDEST POP POP JUMP JUMPDEST PUSH2 0x836 PUSH2 0x1770 JUMP JUMPDEST PUSH1 0x0 PUSH2 0x840 PUSH2 0xA9E JUMP JUMPDEST PUSH20 0xFFFFFFFFFFFFFFFFFFFFFFFFFFFFFFFFFFFFFFFF AND SELFBALANCE PUSH1 0x40 MLOAD PUSH2 0x863 SWAP1 PUSH2 0x2F69 JUMP JUMPDEST PUSH1 0x0 PUSH1 0x40 MLOAD DUP1 DUP4 SUB DUP2 DUP6 DUP8 GAS CALL SWAP3 POP POP POP RETURNDATASIZE DUP1 PUSH1 0x0 DUP2 EQ PUSH2 0x8A0 JUMPI PUSH1 0x40 MLOAD SWAP2 POP PUSH1 0x1F NOT PUSH1 0x3F RETURNDATASIZE ADD AND DUP3 ADD PUSH1 0x40 MSTORE RETURNDATASIZE DUP3 MSTORE RETURNDATASIZE PUSH1 0x0 PUSH1 0x20 DUP5 ADD RETURNDATACOPY PUSH2 0x8A5 JUMP JUMPDEST PUSH1 0x60 SWAP2 POP JUMPDEST POP POP SWAP1 POP DUP1 PUSH2 0x8E9 JUMPI PUSH1 0x40 MLOAD PUSH32 0x8C379A000000000000000000000000000000000000000000000000000000000 DUP2 MSTORE PUSH1 0x4 ADD PUSH2 0x8E0 SWAP1 PUSH2 0x2FCA JUMP JUMPDEST PUSH1 0x40 MLOAD DUP1 SWAP2 SUB SWAP1 REVERT JUMPDEST POP JUMP JUMPDEST PUSH2 0x8F4 PUSH2 0x1FB2 JUMP JUMPDEST PUSH1 0x0 PUSH2 0x8FF CALLER PUSH2 0x1043 JUMP JUMPDEST SWAP1 POP PUSH1 0x0 PUSH2 0x90C TIMESTAMP PUSH2 0x134E JUMP JUMPDEST SWAP1 POP PUSH1 0x0 DUP3 DUP6 DUP4 PUSH1 0x40 MLOAD PUSH1 0x20 ADD PUSH2 0x925 SWAP4 SWAP3 SWAP2 SWAP1 PUSH2 0x2B62 JUMP JUMPDEST PUSH1 0x40 MLOAD PUSH1 0x20 DUP2 DUP4 SUB SUB DUP2 MSTORE SWAP1 PUSH1 0x40 MSTORE SWAP1 POP PUSH1 0x0 DUP2 SWAP1 POP PUSH1 0x0 PUSH1 0x40 MLOAD DUP1 PUSH1 0x20 ADD PUSH1 0x40 MSTORE DUP1 PUSH1 0x0 DUP2 MSTORE POP SWAP1 POP PUSH2 0x95E PUSH2 0x9CE8 DUP4 DUP4 PUSH1 0x0 PUSH2 0x1571 JUMP JUMPDEST SWAP6 POP POP POP POP POP POP SWAP2 SWAP1 POP JUMP JUMPDEST PUSH32 0x0 DUP2 JUMP JUMPDEST PUSH2 0x996 PUSH2 0x1770 JUMP JUMPDEST PUSH2 0x9A0 PUSH1 0x0 PUSH2 0x184F JUMP JUMPDEST JUMP JUMPDEST PUSH1 0x3 PUSH1 0x20 MSTORE DUP2 PUSH1 0x0 MSTORE PUSH1 0x40 PUSH1 0x0 KECCAK256 DUP2 DUP2 SLOAD DUP2 LT PUSH2 0x9BE JUMPI PUSH1 0x0 DUP1 REVERT JUMPDEST SWAP1 PUSH1 0x0 MSTORE PUSH1 0x20 PUSH1 0x0 KECCAK256 ADD PUSH1 0x0 SWAP2 POP SWAP2 POP POP DUP1 SLOAD PUSH2 0x9DA SWAP1 PUSH2 0x2BD8 JUMP JUMPDEST DUP1 PUSH1 0x1F ADD PUSH1 0x20 DUP1 SWAP2 DIV MUL PUSH1 0x20 ADD PUSH1 0x40 MLOAD SWAP1 DUP2 ADD PUSH1 0x40 MSTORE DUP1 SWAP3 SWAP2 SWAP1 DUP2 DUP2 MSTORE PUSH1 0x20 ADD DUP3 DUP1 SLOAD PUSH2 0xA06 SWAP1 PUSH2 0x2BD8 JUMP JUMPDEST DUP1 ISZERO PUSH2 0xA53 JUMPI DUP1 PUSH1 0x1F LT PUSH2 0xA28 JUMPI PUSH2 0x100 DUP1 DUP4 SLOAD DIV MUL DUP4 MSTORE SWAP2 PUSH1 0x20 ADD SWAP2 PUSH2 0xA53 JUMP JUMPDEST DUP3 ADD SWAP2 SWAP1 PUSH1 0x0 MSTORE PUSH1 0x20 PUSH1 0x0 KECCAK256 SWAP1 JUMPDEST DUP2 SLOAD DUP2 MSTORE SWAP1 PUSH1 0x1 ADD SWAP1 PUSH1 0x20 ADD DUP1 DUP4 GT PUSH2 0xA36 JUMPI DUP3 SWAP1 SUB PUSH1 0x1F AND DUP3 ADD SWAP2 JUMPDEST POP POP POP POP POP DUP2 JUMP JUMPDEST PUSH1 0x0 SWAP3 SWAP2 POP POP JUMP JUMPDEST PUSH1 0x0 ADDRESS PUSH20 0xFFFFFFFFFFFFFFFFFFFFFFFFFFFFFFFFFFFFFFFF AND DUP3 PUSH20 0xFFFFFFFFFFFFFFFFFFFFFFFFFFFFFFFFFFFFFFFF AND EQ SWAP1 POP SWAP5 SWAP4 POP POP POP POP JUMP JUMPDEST PUSH1 0x0 DUP1 PUSH1 0x0 SWAP1 SLOAD SWAP1 PUSH2 0x100 EXP SWAP1 DIV PUSH20 0xFFFFFFFFFFFFFFFFFFFFFFFFFFFFFFFFFFFFFFFF AND SWAP1 POP SWAP1 JUMP JUMPDEST PUSH1 0x60 PUSH1 0x3 PUSH1 0x0 DUP4 PUSH20 0xFFFFFFFFFFFFFFFFFFFFFFFFFFFFFFFFFFFFFFFF AND PUSH20 0xFFFFFFFFFFFFFFFFFFFFFFFFFFFFFFFFFFFFFFFF AND DUP2 MSTORE PUSH1 0x20 ADD SWAP1 DUP2 MSTORE PUSH1 0x20 ADD PUSH1 0x0 KECCAK256 DUP1 SLOAD DUP1 PUSH1 0x20 MUL PUSH1 0x20 ADD PUSH1 0x40 MLOAD SWAP1 DUP2 ADD PUSH1 0x40 MSTORE DUP1 SWAP3 SWAP2 SWAP1 DUP2 DUP2 MSTORE PUSH1 0x20 ADD PUSH1 0x0 SWAP1 JUMPDEST DUP3 DUP3 LT ISZERO PUSH2 0xBD4 JUMPI DUP4 DUP3 SWAP1 PUSH1 0x0 MSTORE PUSH1 0x20 PUSH1 0x0 KECCAK256 ADD DUP1 SLOAD PUSH2 0xB47 SWAP1 PUSH2 0x2BD8 JUMP JUMPDEST DUP1 PUSH1 0x1F ADD PUSH1 0x20 DUP1 SWAP2 DIV MUL PUSH1 0x20 ADD PUSH1 0x40 MLOAD SWAP1 DUP2 ADD PUSH1 0x40 MSTORE DUP1 SWAP3 SWAP2 SWAP1 DUP2 DUP2 MSTORE PUSH1 0x20 ADD DUP3 DUP1 SLOAD PUSH2 0xB73 SWAP1 PUSH2 0x2BD8 JUMP JUMPDEST DUP1 ISZERO PUSH2 0xBC0 JUMPI DUP1 PUSH1 0x1F LT PUSH2 0xB95 JUMPI PUSH2 0x100 DUP1 DUP4 SLOAD DIV MUL DUP4 MSTORE SWAP2 PUSH1 0x20 ADD SWAP2 PUSH2 0xBC0 JUMP JUMPDEST DUP3 ADD SWAP2 SWAP1 PUSH1 0x0 MSTORE PUSH1 0x20 PUSH1 0x0 KECCAK256 SWAP1 JUMPDEST DUP2 SLOAD DUP2 MSTORE SWAP1 PUSH1 0x1 ADD SWAP1 PUSH1 0x20 ADD DUP1 DUP4 GT PUSH2 0xBA3 JUMPI DUP3 SWAP1 SUB PUSH1 0x1F AND DUP3 ADD SWAP2 JUMPDEST POP POP POP POP POP DUP2 MSTORE PUSH1 0x20 ADD SWAP1 PUSH1 0x1 ADD SWAP1 PUSH2 0xB28 JUMP JUMPDEST POP POP POP POP SWAP1 POP SWAP2 SWAP1 POP JUMP JUMPDEST PUSH1 0x60 PUSH1 0x0 PUSH1 0x3 PUSH1 0x0 DUP5 PUSH20 0xFFFFFFFFFFFFFFFFFFFFFFFFFFFFFFFFFFFFFFFF AND PUSH20 0xFFFFFFFFFFFFFFFFFFFFFFFFFFFFFFFFFFFFFFFF AND DUP2 MSTORE PUSH1 0x20 ADD SWAP1 DUP2 MSTORE PUSH1 0x20 ADD PUSH1 0x0 KECCAK256 DUP1 SLOAD DUP1 PUSH1 0x20 MUL PUSH1 0x20 ADD PUSH1 0x40 MLOAD SWAP1 DUP2 ADD PUSH1 0x40 MSTORE DUP1 SWAP3 SWAP2 SWAP1 DUP2 DUP2 MSTORE PUSH1 0x20 ADD PUSH1 0x0 SWAP1 JUMPDEST DUP3 DUP3 LT ISZERO PUSH2 0xCEE JUMPI DUP4 DUP3 SWAP1 PUSH1 0x0 MSTORE PUSH1 0x20 PUSH1 0x0 KECCAK256 ADD DUP1 SLOAD PUSH2 0xC61 SWAP1 PUSH2 0x2BD8 JUMP JUMPDEST DUP1 PUSH1 0x1F ADD PUSH1 0x20 DUP1 SWAP2 DIV MUL PUSH1 0x20 ADD PUSH1 0x40 MLOAD SWAP1 DUP2 ADD PUSH1 0x40 MSTORE DUP1 SWAP3 SWAP2 SWAP1 DUP2 DUP2 MSTORE PUSH1 0x20 ADD DUP3 DUP1 SLOAD PUSH2 0xC8D SWAP1 PUSH2 0x2BD8 JUMP JUMPDEST DUP1 ISZERO PUSH2 0xCDA JUMPI DUP1 PUSH1 0x1F LT PUSH2 0xCAF JUMPI PUSH2 0x100 DUP1 DUP4 SLOAD DIV MUL DUP4 MSTORE SWAP2 PUSH1 0x20 ADD SWAP2 PUSH2 0xCDA JUMP JUMPDEST DUP3 ADD SWAP2 SWAP1 PUSH1 0x0 MSTORE PUSH1 0x20 PUSH1 0x0 KECCAK256 SWAP1 JUMPDEST DUP2 SLOAD DUP2 MSTORE SWAP1 PUSH1 0x1 ADD SWAP1 PUSH1 0x20 ADD DUP1 DUP4 GT PUSH2 0xCBD JUMPI DUP3 SWAP1 SUB PUSH1 0x1F AND DUP3 ADD SWAP2 JUMPDEST POP POP POP POP POP DUP2 MSTORE PUSH1 0x20 ADD SWAP1 PUSH1 0x1 ADD SWAP1 PUSH2 0xC42 JUMP JUMPDEST POP POP POP POP SWAP1 POP PUSH1 0x0 DUP2 MLOAD PUSH8 0xFFFFFFFFFFFFFFFF DUP2 GT ISZERO PUSH2 0xD11 JUMPI PUSH2 0xD10 PUSH2 0x2289 JUMP JUMPDEST JUMPDEST PUSH1 0x40 MLOAD SWAP1 DUP1 DUP3 MSTORE DUP1 PUSH1 0x20 MUL PUSH1 0x20 ADD DUP3 ADD PUSH1 0x40 MSTORE DUP1 ISZERO PUSH2 0xD44 JUMPI DUP2 PUSH1 0x20 ADD JUMPDEST PUSH1 0x60 DUP2 MSTORE PUSH1 0x20 ADD SWAP1 PUSH1 0x1 SWAP1 SUB SWAP1 DUP2 PUSH2 0xD2F JUMPI SWAP1 POP JUMPDEST POP SWAP1 POP PUSH1 0x0 JUMPDEST DUP3 MLOAD DUP2 LT ISZERO PUSH2 0xD9F JUMPI DUP3 DUP2 DUP2 MLOAD DUP2 LT PUSH2 0xD66 JUMPI PUSH2 0xD65 PUSH2 0x2FEA JUMP JUMPDEST JUMPDEST PUSH1 0x20 MUL PUSH1 0x20 ADD ADD MLOAD DUP3 DUP3 DUP2 MLOAD DUP2 LT PUSH2 0xD81 JUMPI PUSH2 0xD80 PUSH2 0x2FEA JUMP JUMPDEST JUMPDEST PUSH1 0x20 MUL PUSH1 0x20 ADD ADD DUP2 SWAP1 MSTORE POP DUP1 DUP1 PUSH2 0xD97 SWAP1 PUSH2 0x3048 JUMP JUMPDEST SWAP2 POP POP PUSH2 0xD4A JUMP JUMPDEST POP DUP1 SWAP3 POP POP POP SWAP2 SWAP1 POP JUMP JUMPDEST PUSH1 0x1 PUSH1 0x20 MSTORE DUP1 PUSH1 0x0 MSTORE PUSH1 0x40 PUSH1 0x0 KECCAK256 PUSH1 0x0 SWAP2 POP SWAP1 POP SLOAD DUP2 JUMP JUMPDEST PUSH1 0x0 DUP1 PUSH2 0xDCE CALLER PUSH2 0x1043 JUMP JUMPDEST SWAP1 POP PUSH1 0x0 PUSH2 0xDDB TIMESTAMP PUSH2 0x134E JUMP JUMPDEST SWAP1 POP PUSH1 0x0 DUP3 DUP6 DUP4 PUSH1 0x40 MLOAD PUSH1 0x20 ADD PUSH2 0xDF4 SWAP4 SWAP3 SWAP2 SWAP1 PUSH2 0x2B62 JUMP JUMPDEST PUSH1 0x40 MLOAD PUSH1 0x20 DUP2 DUP4 SUB SUB DUP2 MSTORE SWAP1 PUSH1 0x40 MSTORE SWAP1 POP PUSH1 0x0 DUP2 SWAP1 POP PUSH1 0x0 PUSH2 0xE2C PUSH3 0x30D40 PUSH1 0x0 PUSH2 0xE1D PUSH2 0x14AE JUMP JUMPDEST PUSH2 0x14D6 SWAP1 SWAP3 SWAP2 SWAP1 PUSH4 0xFFFFFFFF AND JUMP JUMPDEST SWAP1 POP PUSH1 0x0 PUSH2 0xE3F PUSH2 0x9CE8 DUP5 DUP5 PUSH1 0x0 PUSH2 0x1571 JUMP JUMPDEST SWAP1 POP DUP1 PUSH1 0x0 ADD MLOAD SWAP7 POP POP POP POP POP POP POP SWAP2 SWAP1 POP JUMP JUMPDEST PUSH2 0xE5B PUSH2 0x1770 JUMP JUMPDEST PUSH32 0x0 PUSH20 0xFFFFFFFFFFFFFFFFFFFFFFFFFFFFFFFFFFFFFFFF AND PUSH4 0xCA5EB5E1 DUP3 PUSH1 0x40 MLOAD DUP3 PUSH4 0xFFFFFFFF AND PUSH1 0xE0 SHL DUP2 MSTORE PUSH1 0x4 ADD PUSH2 0xEB4 SWAP2 SWAP1 PUSH2 0x2727 JUMP JUMPDEST PUSH1 0x0 PUSH1 0x40 MLOAD DUP1 DUP4 SUB DUP2 PUSH1 0x0 DUP8 DUP1 EXTCODESIZE ISZERO DUP1 ISZERO PUSH2 0xECE JUMPI PUSH1 0x0 DUP1 REVERT JUMPDEST POP GAS CALL ISZERO DUP1 ISZERO PUSH2 0xEE2 JUMPI RETURNDATASIZE PUSH1 0x0 DUP1 RETURNDATACOPY RETURNDATASIZE PUSH1 0x0 REVERT JUMPDEST POP POP POP POP POP JUMP JUMPDEST PUSH2 0xEF1 PUSH2 0x1770 JUMP JUMPDEST DUP1 PUSH1 0x2 DUP2 SWAP1 SSTORE POP POP JUMP JUMPDEST PUSH2 0xF03 PUSH2 0x1770 JUMP JUMPDEST PUSH1 0x0 PUSH20 0xFFFFFFFFFFFFFFFFFFFFFFFFFFFFFFFFFFFFFFFF AND DUP2 PUSH20 0xFFFFFFFFFFFFFFFFFFFFFFFFFFFFFFFFFFFFFFFF AND SUB PUSH2 0xF72 JUMPI PUSH1 0x40 MLOAD PUSH32 0x8C379A000000000000000000000000000000000000000000000000000000000 DUP2 MSTORE PUSH1 0x4 ADD PUSH2 0xF69 SWAP1 PUSH2 0x3102 JUMP JUMPDEST PUSH1 0x40 MLOAD DUP1 SWAP2 SUB SWAP1 REVERT JUMPDEST PUSH2 0xF7B DUP2 PUSH2 0x184F JUMP JUMPDEST POP JUMP JUMPDEST PUSH1 0x2 SLOAD DUP2 JUMP JUMPDEST PUSH1 0x0 DUP2 PUSH1 0x20 ADD CALLDATALOAD PUSH1 0x1 PUSH1 0x0 DUP5 PUSH1 0x0 ADD PUSH1 0x20 DUP2 ADD SWAP1 PUSH2 0xFA2 SWAP2 SWAP1 PUSH2 0x29D6 JUMP JUMPDEST PUSH4 0xFFFFFFFF AND PUSH4 0xFFFFFFFF AND DUP2 MSTORE PUSH1 0x20 ADD SWAP1 DUP2 MSTORE PUSH1 0x20 ADD PUSH1 0x0 KECCAK256 SLOAD EQ SWAP1 POP SWAP2 SWAP1 POP JUMP JUMPDEST PUSH1 0x0 DUP1 PUSH1 0x1 PUSH1 0x0 DUP5 PUSH4 0xFFFFFFFF AND PUSH4 0xFFFFFFFF AND DUP2 MSTORE PUSH1 0x20 ADD SWAP1 DUP2 MSTORE PUSH1 0x20 ADD PUSH1 0x0 KECCAK256 SLOAD SWAP1 POP PUSH1 0x0 DUP1 SHL DUP2 SUB PUSH2 0x1031 JUMPI DUP3 PUSH1 0x40 MLOAD PUSH32 0xF6FF4FB700000000000000000000000000000000000000000000000000000000 DUP2 MSTORE PUSH1 0x4 ADD PUSH2 0x1028 SWAP2 SWAP1 PUSH2 0x201F JUMP JUMPDEST PUSH1 0x40 MLOAD DUP1 SWAP2 SUB SWAP1 REVERT JUMPDEST DUP1 SWAP2 POP POP SWAP2 SWAP1 POP JUMP JUMPDEST POP POP POP POP POP POP POP JUMP JUMPDEST PUSH1 0x60 PUSH1 0x0 DUP3 PUSH20 0xFFFFFFFFFFFFFFFFFFFFFFFFFFFFFFFFFFFFFFFF AND PUSH1 0x0 SHL SWAP1 POP PUSH1 0x0 PUSH1 0x40 MLOAD DUP1 PUSH1 0x40 ADD PUSH1 0x40 MSTORE DUP1 PUSH1 0x10 DUP2 MSTORE PUSH1 0x20 ADD PUSH32 0x3031323334353637383961626364656600000000000000000000000000000000 DUP2 MSTORE POP SWAP1 POP PUSH1 0x0 PUSH1 0x2A PUSH8 0xFFFFFFFFFFFFFFFF DUP2 GT ISZERO PUSH2 0x10BA JUMPI PUSH2 0x10B9 PUSH2 0x2289 JUMP JUMPDEST JUMPDEST PUSH1 0x40 MLOAD SWAP1 DUP1 DUP3 MSTORE DUP1 PUSH1 0x1F ADD PUSH1 0x1F NOT AND PUSH1 0x20 ADD DUP3 ADD PUSH1 0x40 MSTORE DUP1 ISZERO PUSH2 0x10EC JUMPI DUP2 PUSH1 0x20 ADD PUSH1 0x1 DUP3 MUL DUP1 CALLDATASIZE DUP4 CALLDATACOPY DUP1 DUP3 ADD SWAP2 POP POP SWAP1 POP JUMPDEST POP SWAP1 POP PUSH32 0x3000000000000000000000000000000000000000000000000000000000000000 DUP2 PUSH1 0x0 DUP2 MLOAD DUP2 LT PUSH2 0x1124 JUMPI PUSH2 0x1123 PUSH2 0x2FEA JUMP JUMPDEST JUMPDEST PUSH1 0x20 ADD ADD SWAP1 PUSH31 0xFFFFFFFFFFFFFFFFFFFFFFFFFFFFFFFFFFFFFFFFFFFFFFFFFFFFFFFFFFFFFF NOT AND SWAP1 DUP2 PUSH1 0x0 BYTE SWAP1 MSTORE8 POP PUSH32 0x7800000000000000000000000000000000000000000000000000000000000000 DUP2 PUSH1 0x1 DUP2 MLOAD DUP2 LT PUSH2 0x1188 JUMPI PUSH2 0x1187 PUSH2 0x2FEA JUMP JUMPDEST JUMPDEST PUSH1 0x20 ADD ADD SWAP1 PUSH31 0xFFFFFFFFFFFFFFFFFFFFFFFFFFFFFFFFFFFFFFFFFFFFFFFFFFFFFFFFFFFFFF NOT AND SWAP1 DUP2 PUSH1 0x0 BYTE SWAP1 MSTORE8 POP PUSH1 0x0 JUMPDEST PUSH1 0x14 DUP2 LT ISZERO PUSH2 0x1342 JUMPI DUP3 PUSH1 0x4 DUP6 PUSH1 0xC DUP5 PUSH2 0x11D4 SWAP2 SWAP1 PUSH2 0x3122 JUMP JUMPDEST PUSH1 0x20 DUP2 LT PUSH2 0x11E5 JUMPI PUSH2 0x11E4 PUSH2 0x2FEA JUMP JUMPDEST JUMPDEST BYTE PUSH1 0xF8 SHL PUSH31 0xFFFFFFFFFFFFFFFFFFFFFFFFFFFFFFFFFFFFFFFFFFFFFFFFFFFFFFFFFFFFFF NOT AND SWAP1 SHR PUSH1 0xF8 SHR PUSH1 0xFF AND DUP2 MLOAD DUP2 LT PUSH2 0x1224 JUMPI PUSH2 0x1223 PUSH2 0x2FEA JUMP JUMPDEST JUMPDEST PUSH1 0x20 ADD ADD MLOAD PUSH1 0xF8 SHR PUSH1 0xF8 SHL DUP3 PUSH1 0x2 DUP4 PUSH2 0x123D SWAP2 SWAP1 PUSH2 0x3156 JUMP JUMPDEST PUSH1 0x2 PUSH2 0x1249 SWAP2 SWAP1 PUSH2 0x3122 JUMP JUMPDEST DUP2 MLOAD DUP2 LT PUSH2 0x125A JUMPI PUSH2 0x1259 PUSH2 0x2FEA JUMP JUMPDEST JUMPDEST PUSH1 0x20 ADD ADD SWAP1 PUSH31 0xFFFFFFFFFFFFFFFFFFFFFFFFFFFFFFFFFFFFFFFFFFFFFFFFFFFFFFFFFFFFFF NOT AND SWAP1 DUP2 PUSH1 0x0 BYTE SWAP1 MSTORE8 POP DUP3 PUSH1 0xF PUSH1 0xF8 SHL DUP6 PUSH1 0xC DUP5 PUSH2 0x129D SWAP2 SWAP1 PUSH2 0x3122 JUMP JUMPDEST PUSH1 0x20 DUP2 LT PUSH2 0x12AE JUMPI PUSH2 0x12AD PUSH2 0x2FEA JUMP JUMPDEST JUMPDEST BYTE PUSH1 0xF8 SHL AND PUSH1 0xF8 SHR PUSH1 0xFF AND DUP2 MLOAD DUP2 LT PUSH2 0x12CA JUMPI PUSH2 0x12C9 PUSH2 0x2FEA JUMP JUMPDEST JUMPDEST PUSH1 0x20 ADD ADD MLOAD PUSH1 0xF8 SHR PUSH1 0xF8 SHL DUP3 PUSH1 0x2 DUP4 PUSH2 0x12E3 SWAP2 SWAP1 PUSH2 0x3156 JUMP JUMPDEST PUSH1 0x3 PUSH2 0x12EF SWAP2 SWAP1 PUSH2 0x3122 JUMP JUMPDEST DUP2 MLOAD DUP2 LT PUSH2 0x1300 JUMPI PUSH2 0x12FF PUSH2 0x2FEA JUMP JUMPDEST JUMPDEST PUSH1 0x20 ADD ADD SWAP1 PUSH31 0xFFFFFFFFFFFFFFFFFFFFFFFFFFFFFFFFFFFFFFFFFFFFFFFFFFFFFFFFFFFFFF NOT AND SWAP1 DUP2 PUSH1 0x0 BYTE SWAP1 MSTORE8 POP DUP1 DUP1 PUSH2 0x133A SWAP1 PUSH2 0x3048 JUMP JUMPDEST SWAP2 POP POP PUSH2 0x11BA JUMP JUMPDEST POP DUP1 SWAP4 POP POP POP POP SWAP2 SWAP1 POP JUMP JUMPDEST PUSH1 0x60 PUSH1 0x0 DUP3 SUB PUSH2 0x1395 JUMPI PUSH1 0x40 MLOAD DUP1 PUSH1 0x40 ADD PUSH1 0x40 MSTORE DUP1 PUSH1 0x1 DUP2 MSTORE PUSH1 0x20 ADD PUSH32 0x3000000000000000000000000000000000000000000000000000000000000000 DUP2 MSTORE POP SWAP1 POP PUSH2 0x14A9 JUMP JUMPDEST PUSH1 0x0 DUP3 SWAP1 POP PUSH1 0x0 JUMPDEST PUSH1 0x0 DUP3 EQ PUSH2 0x13C7 JUMPI DUP1 DUP1 PUSH2 0x13B0 SWAP1 PUSH2 0x3048 JUMP JUMPDEST SWAP2 POP POP PUSH1 0xA DUP3 PUSH2 0x13C0 SWAP2 SWAP1 PUSH2 0x31C7 JUMP JUMPDEST SWAP2 POP PUSH2 0x139D JUMP JUMPDEST PUSH1 0x0 DUP2 PUSH8 0xFFFFFFFFFFFFFFFF DUP2 GT ISZERO PUSH2 0x13E3 JUMPI PUSH2 0x13E2 PUSH2 0x2289 JUMP JUMPDEST JUMPDEST PUSH1 0x40 MLOAD SWAP1 DUP1 DUP3 MSTORE DUP1 PUSH1 0x1F ADD PUSH1 0x1F NOT AND PUSH1 0x20 ADD DUP3 ADD PUSH1 0x40 MSTORE DUP1 ISZERO PUSH2 0x1415 JUMPI DUP2 PUSH1 0x20 ADD PUSH1 0x1 DUP3 MUL DUP1 CALLDATASIZE DUP4 CALLDATACOPY DUP1 DUP3 ADD SWAP2 POP POP SWAP1 POP JUMPDEST POP SWAP1 POP JUMPDEST PUSH1 0x0 DUP6 EQ PUSH2 0x14A2 JUMPI PUSH1 0x1 DUP3 PUSH2 0x142E SWAP2 SWAP1 PUSH2 0x31F8 JUMP JUMPDEST SWAP2 POP PUSH1 0xA DUP6 PUSH2 0x143D SWAP2 SWAP1 PUSH2 0x322C JUMP JUMPDEST PUSH1 0x30 PUSH2 0x1449 SWAP2 SWAP1 PUSH2 0x3122 JUMP JUMPDEST PUSH1 0xF8 SHL DUP2 DUP4 DUP2 MLOAD DUP2 LT PUSH2 0x145F JUMPI PUSH2 0x145E PUSH2 0x2FEA JUMP JUMPDEST JUMPDEST PUSH1 0x20 ADD ADD SWAP1 PUSH31 0xFFFFFFFFFFFFFFFFFFFFFFFFFFFFFFFFFFFFFFFFFFFFFFFFFFFFFFFFFFFFFF NOT AND SWAP1 DUP2 PUSH1 0x0 BYTE SWAP1 MSTORE8 POP PUSH1 0xA DUP6 PUSH2 0x149B SWAP2 SWAP1 PUSH2 0x31C7 JUMP JUMPDEST SWAP5 POP PUSH2 0x1419 JUMP JUMPDEST DUP1 SWAP4 POP POP POP POP JUMPDEST SWAP2 SWAP1 POP JUMP JUMPDEST PUSH1 0x60 PUSH1 0x3 PUSH1 0x40 MLOAD PUSH1 0x20 ADD PUSH2 0x14C2 SWAP2 SWAP1 PUSH2 0x32A1 JUMP JUMPDEST PUSH1 0x40 MLOAD PUSH1 0x20 DUP2 DUP4 SUB SUB DUP2 MSTORE SWAP1 PUSH1 0x40 MSTORE SWAP1 POP SWAP1 JUMP JUMPDEST PUSH1 0x60 DUP4 PUSH1 0x3 PUSH2 0xFFFF AND PUSH2 0x14F3 PUSH1 0x0 DUP4 PUSH2 0x1913 SWAP1 SWAP2 SWAP1 PUSH4 0xFFFFFFFF AND JUMP JUMPDEST PUSH2 0xFFFF AND EQ PUSH2 0x154C JUMPI PUSH2 0x1510 PUSH1 0x0 DUP3 PUSH2 0x1913 SWAP1 SWAP2 SWAP1 PUSH4 0xFFFFFFFF AND JUMP JUMPDEST PUSH1 0x40 MLOAD PUSH32 0x3A51740D00000000000000000000000000000000000000000000000000000000 DUP2 MSTORE PUSH1 0x4 ADD PUSH2 0x1543 SWAP2 SWAP1 PUSH2 0x32CB JUMP JUMPDEST PUSH1 0x40 MLOAD DUP1 SWAP2 SUB SWAP1 REVERT JUMPDEST PUSH1 0x0 PUSH2 0x1558 DUP6 DUP6 PUSH2 0x197A JUMP JUMPDEST SWAP1 POP PUSH2 0x1566 DUP7 PUSH1 0x1 DUP4 PUSH2 0x19E6 JUMP JUMPDEST SWAP3 POP POP POP SWAP4 SWAP3 POP POP POP JUMP JUMPDEST PUSH2 0x1579 PUSH2 0x1FB2 JUMP JUMPDEST PUSH32 0x0 PUSH20 0xFFFFFFFFFFFFFFFFFFFFFFFFFFFFFFFFFFFFFFFF AND PUSH4 0xDDC28C58 PUSH1 0x40 MLOAD DUP1 PUSH1 0xA0 ADD PUSH1 0x40 MSTORE DUP1 DUP9 PUSH4 0xFFFFFFFF AND DUP2 MSTORE PUSH1 0x20 ADD PUSH2 0x15D5 DUP10 PUSH2 0xFC5 JUMP JUMPDEST DUP2 MSTORE PUSH1 0x20 ADD DUP8 DUP2 MSTORE PUSH1 0x20 ADD DUP7 DUP2 MSTORE PUSH1 0x20 ADD DUP6 ISZERO ISZERO DUP2 MSTORE POP ADDRESS PUSH1 0x40 MLOAD DUP4 PUSH4 0xFFFFFFFF AND PUSH1 0xE0 SHL DUP2 MSTORE PUSH1 0x4 ADD PUSH2 0x160A SWAP3 SWAP2 SWAP1 PUSH2 0x3390 JUMP JUMPDEST PUSH1 0x40 DUP1 MLOAD DUP1 DUP4 SUB DUP2 DUP7 GAS STATICCALL ISZERO DUP1 ISZERO PUSH2 0x1626 JUMPI RETURNDATASIZE PUSH1 0x0 DUP1 RETURNDATACOPY RETURNDATASIZE PUSH1 0x0 REVERT JUMPDEST POP POP POP POP PUSH1 0x40 MLOAD RETURNDATASIZE PUSH1 0x1F NOT PUSH1 0x1F DUP3 ADD AND DUP3 ADD DUP1 PUSH1 0x40 MSTORE POP DUP2 ADD SWAP1 PUSH2 0x164A SWAP2 SWAP1 PUSH2 0x342A JUMP JUMPDEST SWAP1 POP SWAP5 SWAP4 POP POP POP POP JUMP JUMPDEST PUSH2 0x165C PUSH2 0x1FCC JUMP JUMPDEST PUSH1 0x0 PUSH2 0x166B DUP5 PUSH1 0x0 ADD MLOAD PUSH2 0x1AA3 JUMP JUMPDEST SWAP1 POP PUSH1 0x0 DUP5 PUSH1 0x20 ADD MLOAD GT ISZERO PUSH2 0x1688 JUMPI PUSH2 0x1687 DUP5 PUSH1 0x20 ADD MLOAD PUSH2 0x1AF1 JUMP JUMPDEST JUMPDEST PUSH32 0x0 PUSH20 0xFFFFFFFFFFFFFFFFFFFFFFFFFFFFFFFFFFFFFFFF AND PUSH4 0x2637A450 DUP3 PUSH1 0x40 MLOAD DUP1 PUSH1 0xA0 ADD PUSH1 0x40 MSTORE DUP1 DUP12 PUSH4 0xFFFFFFFF AND DUP2 MSTORE PUSH1 0x20 ADD PUSH2 0x16E5 DUP13 PUSH2 0xFC5 JUMP JUMPDEST DUP2 MSTORE PUSH1 0x20 ADD DUP11 DUP2 MSTORE PUSH1 0x20 ADD DUP10 DUP2 MSTORE PUSH1 0x20 ADD PUSH1 0x0 DUP10 PUSH1 0x20 ADD MLOAD GT ISZERO ISZERO DUP2 MSTORE POP DUP7 PUSH1 0x40 MLOAD DUP5 PUSH4 0xFFFFFFFF AND PUSH1 0xE0 SHL DUP2 MSTORE PUSH1 0x4 ADD PUSH2 0x1721 SWAP3 SWAP2 SWAP1 PUSH2 0x3390 JUMP JUMPDEST PUSH1 0x80 PUSH1 0x40 MLOAD DUP1 DUP4 SUB DUP2 DUP6 DUP9 GAS CALL ISZERO DUP1 ISZERO PUSH2 0x173F JUMPI RETURNDATASIZE PUSH1 0x0 DUP1 RETURNDATACOPY RETURNDATASIZE PUSH1 0x0 REVERT JUMPDEST POP POP POP POP POP PUSH1 0x40 MLOAD RETURNDATASIZE PUSH1 0x1F NOT PUSH1 0x1F DUP3 ADD AND DUP3 ADD DUP1 PUSH1 0x40 MSTORE POP DUP2 ADD SWAP1 PUSH2 0x1764 SWAP2 SWAP1 PUSH2 0x34FC JUMP JUMPDEST SWAP2 POP POP SWAP6 SWAP5 POP POP POP POP POP JUMP JUMPDEST PUSH2 0x1778 PUSH2 0x1C3B JUMP JUMPDEST PUSH20 0xFFFFFFFFFFFFFFFFFFFFFFFFFFFFFFFFFFFFFFFF AND PUSH2 0x1796 PUSH2 0xA9E JUMP JUMPDEST PUSH20 0xFFFFFFFFFFFFFFFFFFFFFFFFFFFFFFFFFFFFFFFF AND EQ PUSH2 0x17EC JUMPI PUSH1 0x40 MLOAD PUSH32 0x8C379A000000000000000000000000000000000000000000000000000000000 DUP2 MSTORE PUSH1 0x4 ADD PUSH2 0x17E3 SWAP1 PUSH2 0x3575 JUMP JUMPDEST PUSH1 0x40 MLOAD DUP1 SWAP2 SUB SWAP1 REVERT JUMPDEST JUMP JUMPDEST DUP1 PUSH1 0x1 PUSH1 0x0 DUP5 PUSH4 0xFFFFFFFF AND PUSH4 0xFFFFFFFF AND DUP2 MSTORE PUSH1 0x20 ADD SWAP1 DUP2 MSTORE PUSH1 0x20 ADD PUSH1 0x0 KECCAK256 DUP2 SWAP1 SSTORE POP PUSH32 0x238399D427B947898EDB290F5FF0F9109849B1C3BA196A42E35F00C50A54B98B DUP3 DUP3 PUSH1 0x40 MLOAD PUSH2 0x1843 SWAP3 SWAP2 SWAP1 PUSH2 0x2AB1 JUMP JUMPDEST PUSH1 0x40 MLOAD DUP1 SWAP2 SUB SWAP1 LOG1 POP POP JUMP JUMPDEST PUSH1 0x0 DUP1 PUSH1 0x0 SWAP1 SLOAD SWAP1 PUSH2 0x100 EXP SWAP1 DIV PUSH20 0xFFFFFFFFFFFFFFFFFFFFFFFFFFFFFFFFFFFFFFFF AND SWAP1 POP DUP2 PUSH1 0x0 DUP1 PUSH2 0x100 EXP DUP2 SLOAD DUP2 PUSH20 0xFFFFFFFFFFFFFFFFFFFFFFFFFFFFFFFFFFFFFFFF MUL NOT AND SWAP1 DUP4 PUSH20 0xFFFFFFFFFFFFFFFFFFFFFFFFFFFFFFFFFFFFFFFF AND MUL OR SWAP1 SSTORE POP DUP2 PUSH20 0xFFFFFFFFFFFFFFFFFFFFFFFFFFFFFFFFFFFFFFFF AND DUP2 PUSH20 0xFFFFFFFFFFFFFFFFFFFFFFFFFFFFFFFFFFFFFFFF AND PUSH32 0x8BE0079C531659141344CD1FD0A4F28419497F9722A3DAAFE3B4186F6B6457E0 PUSH1 0x40 MLOAD PUSH1 0x40 MLOAD DUP1 SWAP2 SUB SWAP1 LOG3 POP POP JUMP JUMPDEST PUSH1 0x0 PUSH1 0x2 DUP3 PUSH2 0x1922 SWAP2 SWAP1 PUSH2 0x3122 JUMP JUMPDEST DUP4 MLOAD LT ISZERO PUSH2 0x1965 JUMPI PUSH1 0x40 MLOAD PUSH32 0x8C379A000000000000000000000000000000000000000000000000000000000 DUP2 MSTORE PUSH1 0x4 ADD PUSH2 0x195C SWAP1 PUSH2 0x35E1 JUMP JUMPDEST PUSH1 0x40 MLOAD DUP1 SWAP2 SUB SWAP1 REVERT JUMPDEST PUSH1 0x0 DUP3 PUSH1 0x2 DUP6 ADD ADD MLOAD SWAP1 POP DUP1 SWAP2 POP POP SWAP3 SWAP2 POP POP JUMP JUMPDEST PUSH1 0x60 PUSH1 0x0 DUP3 PUSH16 0xFFFFFFFFFFFFFFFFFFFFFFFFFFFFFFFF AND EQ PUSH2 0x19BD JUMPI DUP3 DUP3 PUSH1 0x40 MLOAD PUSH1 0x20 ADD PUSH2 0x19A9 SWAP3 SWAP2 SWAP1 PUSH2 0x3653 JUMP JUMPDEST PUSH1 0x40 MLOAD PUSH1 0x20 DUP2 DUP4 SUB SUB DUP2 MSTORE SWAP1 PUSH1 0x40 MSTORE PUSH2 0x19DE JUMP JUMPDEST DUP3 PUSH1 0x40 MLOAD PUSH1 0x20 ADD PUSH2 0x19CE SWAP2 SWAP1 PUSH2 0x367F JUMP JUMPDEST PUSH1 0x40 MLOAD PUSH1 0x20 DUP2 DUP4 SUB SUB DUP2 MSTORE SWAP1 PUSH1 0x40 MSTORE JUMPDEST SWAP1 POP SWAP3 SWAP2 POP POP JUMP JUMPDEST PUSH1 0x60 DUP4 PUSH1 0x3 PUSH2 0xFFFF AND PUSH2 0x1A03 PUSH1 0x0 DUP4 PUSH2 0x1913 SWAP1 SWAP2 SWAP1 PUSH4 0xFFFFFFFF AND JUMP JUMPDEST PUSH2 0xFFFF AND EQ PUSH2 0x1A5C JUMPI PUSH2 0x1A20 PUSH1 0x0 DUP3 PUSH2 0x1913 SWAP1 SWAP2 SWAP1 PUSH4 0xFFFFFFFF AND JUMP JUMPDEST PUSH1 0x40 MLOAD PUSH32 0x3A51740D00000000000000000000000000000000000000000000000000000000 DUP2 MSTORE PUSH1 0x4 ADD PUSH2 0x1A53 SWAP2 SWAP1 PUSH2 0x32CB JUMP JUMPDEST PUSH1 0x40 MLOAD DUP1 SWAP2 SUB SWAP1 REVERT JUMPDEST DUP5 PUSH1 0x1 DUP1 PUSH2 0x1A6A DUP7 MLOAD PUSH2 0x1C43 JUMP JUMPDEST PUSH2 0x1A74 SWAP2 SWAP1 PUSH2 0x369A JUMP JUMPDEST DUP7 DUP7 PUSH1 0x40 MLOAD PUSH1 0x20 ADD PUSH2 0x1A8A SWAP6 SWAP5 SWAP4 SWAP3 SWAP2 SWAP1 PUSH2 0x3744 JUMP JUMPDEST PUSH1 0x40 MLOAD PUSH1 0x20 DUP2 DUP4 SUB SUB DUP2 MSTORE SWAP1 PUSH1 0x40 MSTORE SWAP2 POP POP SWAP4 SWAP3 POP POP POP JUMP JUMPDEST PUSH1 0x0 DUP2 CALLVALUE EQ PUSH2 0x1AE9 JUMPI CALLVALUE PUSH1 0x40 MLOAD PUSH32 0x9F70412000000000000000000000000000000000000000000000000000000000 DUP2 MSTORE PUSH1 0x4 ADD PUSH2 0x1AE0 SWAP2 SWAP1 PUSH2 0x2A3C JUMP JUMPDEST PUSH1 0x40 MLOAD DUP1 SWAP2 SUB SWAP1 REVERT JUMPDEST DUP2 SWAP1 POP SWAP2 SWAP1 POP JUMP JUMPDEST PUSH1 0x0 PUSH32 0x0 PUSH20 0xFFFFFFFFFFFFFFFFFFFFFFFFFFFFFFFFFFFFFFFF AND PUSH4 0xE4FE1D94 PUSH1 0x40 MLOAD DUP2 PUSH4 0xFFFFFFFF AND PUSH1 0xE0 SHL DUP2 MSTORE PUSH1 0x4 ADD PUSH1 0x20 PUSH1 0x40 MLOAD DUP1 DUP4 SUB DUP2 DUP7 GAS STATICCALL ISZERO DUP1 ISZERO PUSH2 0x1B5E JUMPI RETURNDATASIZE PUSH1 0x0 DUP1 RETURNDATACOPY RETURNDATASIZE PUSH1 0x0 REVERT JUMPDEST POP POP POP POP PUSH1 0x40 MLOAD RETURNDATASIZE PUSH1 0x1F NOT PUSH1 0x1F DUP3 ADD AND DUP3 ADD DUP1 PUSH1 0x40 MSTORE POP DUP2 ADD SWAP1 PUSH2 0x1B82 SWAP2 SWAP1 PUSH2 0x37B0 JUMP JUMPDEST SWAP1 POP PUSH1 0x0 PUSH20 0xFFFFFFFFFFFFFFFFFFFFFFFFFFFFFFFFFFFFFFFF AND DUP2 PUSH20 0xFFFFFFFFFFFFFFFFFFFFFFFFFFFFFFFFFFFFFFFF AND SUB PUSH2 0x1BEA JUMPI PUSH1 0x40 MLOAD PUSH32 0x5373352A00000000000000000000000000000000000000000000000000000000 DUP2 MSTORE PUSH1 0x4 ADD PUSH1 0x40 MLOAD DUP1 SWAP2 SUB SWAP1 REVERT JUMPDEST PUSH2 0x1C37 CALLER PUSH32 0x0 DUP5 DUP5 PUSH20 0xFFFFFFFFFFFFFFFFFFFFFFFFFFFFFFFFFFFFFFFF AND PUSH2 0x1C94 SWAP1 SWAP4 SWAP3 SWAP2 SWAP1 PUSH4 0xFFFFFFFF AND JUMP JUMPDEST POP POP JUMP JUMPDEST PUSH1 0x0 CALLER SWAP1 POP SWAP1 JUMP JUMPDEST PUSH1 0x0 PUSH2 0xFFFF DUP1 AND DUP3 GT ISZERO PUSH2 0x1C8C JUMPI PUSH1 0x40 MLOAD PUSH32 0x8C379A000000000000000000000000000000000000000000000000000000000 DUP2 MSTORE PUSH1 0x4 ADD PUSH2 0x1C83 SWAP1 PUSH2 0x384F JUMP JUMPDEST PUSH1 0x40 MLOAD DUP1 SWAP2 SUB SWAP1 REVERT JUMPDEST DUP2 SWAP1 POP SWAP2 SWAP1 POP JUMP JUMPDEST PUSH2 0x1D17 DUP5 PUSH4 0x23B872DD PUSH1 0xE0 SHL DUP6 DUP6 DUP6 PUSH1 0x40 MLOAD PUSH1 0x24 ADD PUSH2 0x1CB5 SWAP4 SWAP3 SWAP2 SWAP1 PUSH2 0x386F JUMP JUMPDEST PUSH1 0x40 MLOAD PUSH1 0x20 DUP2 DUP4 SUB SUB DUP2 MSTORE SWAP1 PUSH1 0x40 MSTORE SWAP1 PUSH28 0xFFFFFFFFFFFFFFFFFFFFFFFFFFFFFFFFFFFFFFFFFFFFFFFFFFFFFFFF NOT AND PUSH1 0x20 DUP3 ADD DUP1 MLOAD PUSH28 0xFFFFFFFFFFFFFFFFFFFFFFFFFFFFFFFFFFFFFFFFFFFFFFFFFFFFFFFF DUP4 DUP2 DUP4 AND OR DUP4 MSTORE POP POP POP POP PUSH2 0x1D1D JUMP JUMPDEST POP POP POP POP JUMP JUMPDEST PUSH1 0x0 PUSH2 0x1D7F DUP3 PUSH1 0x40 MLOAD DUP1 PUSH1 0x40 ADD PUSH1 0x40 MSTORE DUP1 PUSH1 0x20 DUP2 MSTORE PUSH1 0x20 ADD PUSH32 0x5361666545524332303A206C6F772D6C6576656C2063616C6C206661696C6564 DUP2 MSTORE POP DUP6 PUSH20 0xFFFFFFFFFFFFFFFFFFFFFFFFFFFFFFFFFFFFFFFF AND PUSH2 0x1DE5 SWAP1 SWAP3 SWAP2 SWAP1 PUSH4 0xFFFFFFFF AND JUMP JUMPDEST SWAP1 POP PUSH1 0x0 DUP2 MLOAD EQ DUP1 PUSH2 0x1DA1 JUMPI POP DUP1 DUP1 PUSH1 0x20 ADD SWAP1 MLOAD DUP2 ADD SWAP1 PUSH2 0x1DA0 SWAP2 SWAP1 PUSH2 0x38D2 JUMP JUMPDEST JUMPDEST PUSH2 0x1DE0 JUMPI PUSH1 0x40 MLOAD PUSH32 0x8C379A000000000000000000000000000000000000000000000000000000000 DUP2 MSTORE PUSH1 0x4 ADD PUSH2 0x1DD7 SWAP1 PUSH2 0x3971 JUMP JUMPDEST PUSH1 0x40 MLOAD DUP1 SWAP2 SUB SWAP1 REVERT JUMPDEST POP POP POP JUMP JUMPDEST PUSH1 0x60 PUSH2 0x1DF4 DUP5 DUP5 PUSH1 0x0 DUP6 PUSH2 0x1DFD JUMP JUMPDEST SWAP1 POP SWAP4 SWAP3 POP POP POP JUMP JUMPDEST PUSH1 0x60 DUP3 SELFBALANCE LT ISZERO PUSH2 0x1E42 JUMPI PUSH1 0x40 MLOAD PUSH32 0x8C379A000000000000000000000000000000000000000000000000000000000 DUP2 MSTORE PUSH1 0x4 ADD PUSH2 0x1E39 SWAP1 PUSH2 0x3A03 JUMP JUMPDEST PUSH1 0x40 MLOAD DUP1 SWAP2 SUB SWAP1 REVERT JUMPDEST PUSH1 0x0 DUP1 DUP7 PUSH20 0xFFFFFFFFFFFFFFFFFFFFFFFFFFFFFFFFFFFFFFFF AND DUP6 DUP8 PUSH1 0x40 MLOAD PUSH2 0x1E6B SWAP2 SWAP1 PUSH2 0x3A23 JUMP JUMPDEST PUSH1 0x0 PUSH1 0x40 MLOAD DUP1 DUP4 SUB DUP2 DUP6 DUP8 GAS CALL SWAP3 POP POP POP RETURNDATASIZE DUP1 PUSH1 0x0 DUP2 EQ PUSH2 0x1EA8 JUMPI PUSH1 0x40 MLOAD SWAP2 POP PUSH1 0x1F NOT PUSH1 0x3F RETURNDATASIZE ADD AND DUP3 ADD PUSH1 0x40 MSTORE RETURNDATASIZE DUP3 MSTORE RETURNDATASIZE PUSH1 0x0 PUSH1 0x20 DUP5 ADD RETURNDATACOPY PUSH2 0x1EAD JUMP JUMPDEST PUSH1 0x60 SWAP2 POP JUMPDEST POP SWAP2 POP SWAP2 POP PUSH2 0x1EBE DUP8 DUP4 DUP4 DUP8 PUSH2 0x1ECA JUMP JUMPDEST SWAP3 POP POP POP SWAP5 SWAP4 POP POP POP POP JUMP JUMPDEST PUSH1 0x60 DUP4 ISZERO PUSH2 0x1F2C JUMPI PUSH1 0x0 DUP4 MLOAD SUB PUSH2 0x1F24 JUMPI PUSH2 0x1EE4 DUP6 PUSH2 0x1F3F JUMP JUMPDEST PUSH2 0x1F23 JUMPI PUSH1 0x40 MLOAD PUSH32 0x8C379A000000000000000000000000000000000000000000000000000000000 DUP2 MSTORE PUSH1 0x4 ADD PUSH2 0x1F1A SWAP1 PUSH2 0x3A86 JUMP JUMPDEST PUSH1 0x40 MLOAD DUP1 SWAP2 SUB SWAP1 REVERT JUMPDEST JUMPDEST DUP3 SWAP1 POP PUSH2 0x1F37 JUMP JUMPDEST PUSH2 0x1F36 DUP4 DUP4 PUSH2 0x1F62 JUMP JUMPDEST JUMPDEST SWAP5 SWAP4 POP POP POP POP JUMP JUMPDEST PUSH1 0x0 DUP1 DUP3 PUSH20 0xFFFFFFFFFFFFFFFFFFFFFFFFFFFFFFFFFFFFFFFF AND EXTCODESIZE GT SWAP1 POP SWAP2 SWAP1 POP JUMP JUMPDEST PUSH1 0x0 DUP3 MLOAD GT ISZERO PUSH2 0x1F75 JUMPI DUP2 MLOAD DUP1 DUP4 PUSH1 0x20 ADD REVERT JUMPDEST DUP1 PUSH1 0x40 MLOAD PUSH32 0x8C379A000000000000000000000000000000000000000000000000000000000 DUP2 MSTORE PUSH1 0x4 ADD PUSH2 0x1FA9 SWAP2 SWAP1 PUSH2 0x3ADF JUMP JUMPDEST PUSH1 0x40 MLOAD DUP1 SWAP2 SUB SWAP1 REVERT JUMPDEST PUSH1 0x40 MLOAD DUP1 PUSH1 0x40 ADD PUSH1 0x40 MSTORE DUP1 PUSH1 0x0 DUP2 MSTORE PUSH1 0x20 ADD PUSH1 0x0 DUP2 MSTORE POP SWAP1 JUMP JUMPDEST PUSH1 0x40 MLOAD DUP1 PUSH1 0x60 ADD PUSH1 0x40 MSTORE DUP1 PUSH1 0x0 DUP1 NOT AND DUP2 MSTORE PUSH1 0x20 ADD PUSH1 0x0 PUSH8 0xFFFFFFFFFFFFFFFF AND DUP2 MSTORE PUSH1 0x20 ADD PUSH2 0x1FFA PUSH2 0x1FB2 JUMP JUMPDEST DUP2 MSTORE POP SWAP1 JUMP JUMPDEST PUSH1 0x0 PUSH4 0xFFFFFFFF DUP3 AND SWAP1 POP SWAP2 SWAP1 POP JUMP JUMPDEST PUSH2 0x2019 DUP2 PUSH2 0x2000 JUMP JUMPDEST DUP3 MSTORE POP POP JUMP JUMPDEST PUSH1 0x0 PUSH1 0x20 DUP3 ADD SWAP1 POP PUSH2 0x2034 PUSH1 0x0 DUP4 ADD DUP5 PUSH2 0x2010 JUMP JUMPDEST SWAP3 SWAP2 POP POP JUMP JUMPDEST PUSH1 0x0 PUSH1 0x40 MLOAD SWAP1 POP SWAP1 JUMP JUMPDEST PUSH1 0x0 DUP1 REVERT JUMPDEST PUSH1 0x0 DUP1 REVERT JUMPDEST PUSH1 0x0 DUP1 REVERT JUMPDEST PUSH1 0x0 PUSH1 0x60 DUP3 DUP5 SUB SLT ISZERO PUSH2 0x2069 JUMPI PUSH2 0x2068 PUSH2 0x204E JUMP JUMPDEST JUMPDEST DUP2 SWAP1 POP SWAP3 SWAP2 POP POP JUMP JUMPDEST PUSH1 0x0 DUP2 SWAP1 POP SWAP2 SWAP1 POP JUMP JUMPDEST PUSH2 0x2085 DUP2 PUSH2 0x2072 JUMP JUMPDEST DUP2 EQ PUSH2 0x2090 JUMPI PUSH1 0x0 DUP1 REVERT JUMPDEST POP JUMP JUMPDEST PUSH1 0x0 DUP2 CALLDATALOAD SWAP1 POP PUSH2 0x20A2 DUP2 PUSH2 0x207C JUMP JUMPDEST SWAP3 SWAP2 POP POP JUMP JUMPDEST PUSH1 0x0 DUP1 REVERT JUMPDEST PUSH1 0x0 DUP1 REVERT JUMPDEST PUSH1 0x0 DUP1 REVERT JUMPDEST PUSH1 0x0 DUP1 DUP4 PUSH1 0x1F DUP5 ADD SLT PUSH2 0x20CD JUMPI PUSH2 0x20CC PUSH2 0x20A8 JUMP JUMPDEST JUMPDEST DUP3 CALLDATALOAD SWAP1 POP PUSH8 0xFFFFFFFFFFFFFFFF DUP2 GT ISZERO PUSH2 0x20EA JUMPI PUSH2 0x20E9 PUSH2 0x20AD JUMP JUMPDEST JUMPDEST PUSH1 0x20 DUP4 ADD SWAP2 POP DUP4 PUSH1 0x1 DUP3 MUL DUP4 ADD GT ISZERO PUSH2 0x2106 JUMPI PUSH2 0x2105 PUSH2 0x20B2 JUMP JUMPDEST JUMPDEST SWAP3 POP SWAP3 SWAP1 POP JUMP JUMPDEST PUSH1 0x0 PUSH20 0xFFFFFFFFFFFFFFFFFFFFFFFFFFFFFFFFFFFFFFFF DUP3 AND SWAP1 POP SWAP2 SWAP1 POP JUMP JUMPDEST PUSH1 0x0 PUSH2 0x2138 DUP3 PUSH2 0x210D JUMP JUMPDEST SWAP1 POP SWAP2 SWAP1 POP JUMP JUMPDEST PUSH2 0x2148 DUP2 PUSH2 0x212D JUMP JUMPDEST DUP2 EQ PUSH2 0x2153 JUMPI PUSH1 0x0 DUP1 REVERT JUMPDEST POP JUMP JUMPDEST PUSH1 0x0 DUP2 CALLDATALOAD SWAP1 POP PUSH2 0x2165 DUP2 PUSH2 0x213F JUMP JUMPDEST SWAP3 SWAP2 POP POP JUMP JUMPDEST PUSH1 0x0 DUP1 PUSH1 0x0 DUP1 PUSH1 0x0 DUP1 PUSH1 0x0 PUSH1 0xE0 DUP9 DUP11 SUB SLT ISZERO PUSH2 0x218A JUMPI PUSH2 0x2189 PUSH2 0x2044 JUMP JUMPDEST JUMPDEST PUSH1 0x0 PUSH2 0x2198 DUP11 DUP3 DUP12 ADD PUSH2 0x2053 JUMP JUMPDEST SWAP8 POP POP PUSH1 0x60 PUSH2 0x21A9 DUP11 DUP3 DUP12 ADD PUSH2 0x2093 JUMP JUMPDEST SWAP7 POP POP PUSH1 0x80 DUP9 ADD CALLDATALOAD PUSH8 0xFFFFFFFFFFFFFFFF DUP2 GT ISZERO PUSH2 0x21CA JUMPI PUSH2 0x21C9 PUSH2 0x2049 JUMP JUMPDEST JUMPDEST PUSH2 0x21D6 DUP11 DUP3 DUP12 ADD PUSH2 0x20B7 JUMP JUMPDEST SWAP6 POP SWAP6 POP POP PUSH1 0xA0 PUSH2 0x21E9 DUP11 DUP3 DUP12 ADD PUSH2 0x2156 JUMP JUMPDEST SWAP4 POP POP PUSH1 0xC0 DUP9 ADD CALLDATALOAD PUSH8 0xFFFFFFFFFFFFFFFF DUP2 GT ISZERO PUSH2 0x220A JUMPI PUSH2 0x2209 PUSH2 0x2049 JUMP JUMPDEST JUMPDEST PUSH2 0x2216 DUP11 DUP3 DUP12 ADD PUSH2 0x20B7 JUMP JUMPDEST SWAP3 POP SWAP3 POP POP SWAP3 SWAP6 SWAP9 SWAP2 SWAP5 SWAP8 POP SWAP3 SWAP6 POP JUMP JUMPDEST PUSH1 0x0 PUSH8 0xFFFFFFFFFFFFFFFF DUP3 AND SWAP1 POP SWAP2 SWAP1 POP JUMP JUMPDEST PUSH2 0x2244 DUP2 PUSH2 0x2227 JUMP JUMPDEST DUP3 MSTORE POP POP JUMP JUMPDEST PUSH1 0x0 PUSH1 0x40 DUP3 ADD SWAP1 POP PUSH2 0x225F PUSH1 0x0 DUP4 ADD DUP6 PUSH2 0x223B JUMP JUMPDEST PUSH2 0x226C PUSH1 0x20 DUP4 ADD DUP5 PUSH2 0x223B JUMP JUMPDEST SWAP4 SWAP3 POP POP POP JUMP JUMPDEST PUSH1 0x0 DUP1 REVERT JUMPDEST PUSH1 0x0 PUSH1 0x1F NOT PUSH1 0x1F DUP4 ADD AND SWAP1 POP SWAP2 SWAP1 POP JUMP JUMPDEST PUSH32 0x4E487B7100000000000000000000000000000000000000000000000000000000 PUSH1 0x0 MSTORE PUSH1 0x41 PUSH1 0x4 MSTORE PUSH1 0x24 PUSH1 0x0 REVERT JUMPDEST PUSH2 0x22C1 DUP3 PUSH2 0x2278 JUMP JUMPDEST DUP2 ADD DUP2 DUP2 LT PUSH8 0xFFFFFFFFFFFFFFFF DUP3 GT OR ISZERO PUSH2 0x22E0 JUMPI PUSH2 0x22DF PUSH2 0x2289 JUMP JUMPDEST JUMPDEST DUP1 PUSH1 0x40 MSTORE POP POP POP JUMP JUMPDEST PUSH1 0x0 PUSH2 0x22F3 PUSH2 0x203A JUMP JUMPDEST SWAP1 POP PUSH2 0x22FF DUP3 DUP3 PUSH2 0x22B8 JUMP JUMPDEST SWAP2 SWAP1 POP JUMP JUMPDEST PUSH1 0x0 PUSH8 0xFFFFFFFFFFFFFFFF DUP3 GT ISZERO PUSH2 0x231F JUMPI PUSH2 0x231E PUSH2 0x2289 JUMP JUMPDEST JUMPDEST PUSH2 0x2328 DUP3 PUSH2 0x2278 JUMP JUMPDEST SWAP1 POP PUSH1 0x20 DUP2 ADD SWAP1 POP SWAP2 SWAP1 POP JUMP JUMPDEST DUP3 DUP2 DUP4 CALLDATACOPY PUSH1 0x0 DUP4 DUP4 ADD MSTORE POP POP POP JUMP JUMPDEST PUSH1 0x0 PUSH2 0x2357 PUSH2 0x2352 DUP5 PUSH2 0x2304 JUMP JUMPDEST PUSH2 0x22E9 JUMP JUMPDEST SWAP1 POP DUP3 DUP2 MSTORE PUSH1 0x20 DUP2 ADD DUP5 DUP5 DUP5 ADD GT ISZERO PUSH2 0x2373 JUMPI PUSH2 0x2372 PUSH2 0x2273 JUMP JUMPDEST JUMPDEST PUSH2 0x237E DUP5 DUP3 DUP6 PUSH2 0x2335 JUMP JUMPDEST POP SWAP4 SWAP3 POP POP POP JUMP JUMPDEST PUSH1 0x0 DUP3 PUSH1 0x1F DUP4 ADD SLT PUSH2 0x239B JUMPI PUSH2 0x239A PUSH2 0x20A8 JUMP JUMPDEST JUMPDEST DUP2 CALLDATALOAD PUSH2 0x23AB DUP5 DUP3 PUSH1 0x20 DUP7 ADD PUSH2 0x2344 JUMP JUMPDEST SWAP2 POP POP SWAP3 SWAP2 POP POP JUMP JUMPDEST PUSH1 0x0 PUSH1 0x20 DUP3 DUP5 SUB SLT ISZERO PUSH2 0x23CA JUMPI PUSH2 0x23C9 PUSH2 0x2044 JUMP JUMPDEST JUMPDEST PUSH1 0x0 DUP3 ADD CALLDATALOAD PUSH8 0xFFFFFFFFFFFFFFFF DUP2 GT ISZERO PUSH2 0x23E8 JUMPI PUSH2 0x23E7 PUSH2 0x2049 JUMP JUMPDEST JUMPDEST PUSH2 0x23F4 DUP5 DUP3 DUP6 ADD PUSH2 0x2386 JUMP JUMPDEST SWAP2 POP POP SWAP3 SWAP2 POP POP JUMP JUMPDEST PUSH2 0x2406 DUP2 PUSH2 0x2000 JUMP JUMPDEST DUP2 EQ PUSH2 0x2411 JUMPI PUSH1 0x0 DUP1 REVERT JUMPDEST POP JUMP JUMPDEST PUSH1 0x0 DUP2 CALLDATALOAD SWAP1 POP PUSH2 0x2423 DUP2 PUSH2 0x23FD JUMP JUMPDEST SWAP3 SWAP2 POP POP JUMP JUMPDEST PUSH1 0x0 DUP1 PUSH1 0x40 DUP4 DUP6 SUB SLT ISZERO PUSH2 0x2440 JUMPI PUSH2 0x243F PUSH2 0x2044 JUMP JUMPDEST JUMPDEST PUSH1 0x0 PUSH2 0x244E DUP6 DUP3 DUP7 ADD PUSH2 0x2414 JUMP JUMPDEST SWAP3 POP POP PUSH1 0x20 PUSH2 0x245F DUP6 DUP3 DUP7 ADD PUSH2 0x2093 JUMP JUMPDEST SWAP2 POP POP SWAP3 POP SWAP3 SWAP1 POP JUMP JUMPDEST PUSH1 0x0 DUP2 SWAP1 POP SWAP2 SWAP1 POP JUMP JUMPDEST PUSH2 0x247C DUP2 PUSH2 0x2469 JUMP JUMPDEST DUP3 MSTORE POP POP JUMP JUMPDEST PUSH1 0x40 DUP3 ADD PUSH1 0x0 DUP3 ADD MLOAD PUSH2 0x2498 PUSH1 0x0 DUP6 ADD DUP3 PUSH2 0x2473 JUMP JUMPDEST POP PUSH1 0x20 DUP3 ADD MLOAD PUSH2 0x24AB PUSH1 0x20 DUP6 ADD DUP3 PUSH2 0x2473 JUMP JUMPDEST POP POP POP POP JUMP JUMPDEST PUSH1 0x0 PUSH1 0x40 DUP3 ADD SWAP1 POP PUSH2 0x24C6 PUSH1 0x0 DUP4 ADD DUP5 PUSH2 0x2482 JUMP JUMPDEST SWAP3 SWAP2 POP POP JUMP JUMPDEST PUSH1 0x0 DUP2 SWAP1 POP SWAP2 SWAP1 POP JUMP JUMPDEST PUSH1 0x0 PUSH2 0x24F1 PUSH2 0x24EC PUSH2 0x24E7 DUP5 PUSH2 0x210D JUMP JUMPDEST PUSH2 0x24CC JUMP JUMPDEST PUSH2 0x210D JUMP JUMPDEST SWAP1 POP SWAP2 SWAP1 POP JUMP JUMPDEST PUSH1 0x0 PUSH2 0x2503 DUP3 PUSH2 0x24D6 JUMP JUMPDEST SWAP1 POP SWAP2 SWAP1 POP JUMP JUMPDEST PUSH1 0x0 PUSH2 0x2515 DUP3 PUSH2 0x24F8 JUMP JUMPDEST SWAP1 POP SWAP2 SWAP1 POP JUMP JUMPDEST PUSH2 0x2525 DUP2 PUSH2 0x250A JUMP JUMPDEST DUP3 MSTORE POP POP JUMP JUMPDEST PUSH1 0x0 PUSH1 0x20 DUP3 ADD SWAP1 POP PUSH2 0x2540 PUSH1 0x0 DUP4 ADD DUP5 PUSH2 0x251C JUMP JUMPDEST SWAP3 SWAP2 POP POP JUMP JUMPDEST PUSH2 0x254F DUP2 PUSH2 0x2469 JUMP JUMPDEST DUP2 EQ PUSH2 0x255A JUMPI PUSH1 0x0 DUP1 REVERT JUMPDEST POP JUMP JUMPDEST PUSH1 0x0 DUP2 CALLDATALOAD SWAP1 POP PUSH2 0x256C DUP2 PUSH2 0x2546 JUMP JUMPDEST SWAP3 SWAP2 POP POP JUMP JUMPDEST PUSH1 0x0 DUP1 PUSH1 0x40 DUP4 DUP6 SUB SLT ISZERO PUSH2 0x2589 JUMPI PUSH2 0x2588 PUSH2 0x2044 JUMP JUMPDEST JUMPDEST PUSH1 0x0 PUSH2 0x2597 DUP6 DUP3 DUP7 ADD PUSH2 0x2156 JUMP JUMPDEST SWAP3 POP POP PUSH1 0x20 PUSH2 0x25A8 DUP6 DUP3 DUP7 ADD PUSH2 0x255D JUMP JUMPDEST SWAP2 POP POP SWAP3 POP SWAP3 SWAP1 POP JUMP JUMPDEST PUSH1 0x0 DUP2 MLOAD SWAP1 POP SWAP2 SWAP1 POP JUMP JUMPDEST PUSH1 0x0 DUP3 DUP3 MSTORE PUSH1 0x20 DUP3 ADD SWAP1 POP SWAP3 SWAP2 POP POP JUMP JUMPDEST PUSH1 0x0 JUMPDEST DUP4 DUP2 LT ISZERO PUSH2 0x25EC JUMPI DUP1 DUP3 ADD MLOAD DUP2 DUP5 ADD MSTORE PUSH1 0x20 DUP2 ADD SWAP1 POP PUSH2 0x25D1 JUMP JUMPDEST PUSH1 0x0 DUP5 DUP5 ADD MSTORE POP POP POP POP JUMP JUMPDEST PUSH1 0x0 PUSH2 0x2603 DUP3 PUSH2 0x25B2 JUMP JUMPDEST PUSH2 0x260D DUP2 DUP6 PUSH2 0x25BD JUMP JUMPDEST SWAP4 POP PUSH2 0x261D DUP2 DUP6 PUSH1 0x20 DUP7 ADD PUSH2 0x25CE JUMP JUMPDEST PUSH2 0x2626 DUP2 PUSH2 0x2278 JUMP JUMPDEST DUP5 ADD SWAP2 POP POP SWAP3 SWAP2 POP POP JUMP JUMPDEST PUSH1 0x0 PUSH1 0x20 DUP3 ADD SWAP1 POP DUP2 DUP2 SUB PUSH1 0x0 DUP4 ADD MSTORE PUSH2 0x264B DUP2 DUP5 PUSH2 0x25F8 JUMP JUMPDEST SWAP1 POP SWAP3 SWAP2 POP POP JUMP JUMPDEST PUSH1 0x0 PUSH1 0x20 DUP3 ADD SWAP1 POP PUSH2 0x2668 PUSH1 0x0 DUP4 ADD DUP5 PUSH2 0x223B JUMP JUMPDEST SWAP3 SWAP2 POP POP JUMP JUMPDEST PUSH1 0x0 DUP1 PUSH1 0x0 DUP1 PUSH1 0xA0 DUP6 DUP8 SUB SLT ISZERO PUSH2 0x2688 JUMPI PUSH2 0x2687 PUSH2 0x2044 JUMP JUMPDEST JUMPDEST PUSH1 0x0 PUSH2 0x2696 DUP8 DUP3 DUP9 ADD PUSH2 0x2053 JUMP JUMPDEST SWAP5 POP POP PUSH1 0x60 DUP6 ADD CALLDATALOAD PUSH8 0xFFFFFFFFFFFFFFFF DUP2 GT ISZERO PUSH2 0x26B7 JUMPI PUSH2 0x26B6 PUSH2 0x2049 JUMP JUMPDEST JUMPDEST PUSH2 0x26C3 DUP8 DUP3 DUP9 ADD PUSH2 0x20B7 JUMP JUMPDEST SWAP4 POP SWAP4 POP POP PUSH1 0x80 PUSH2 0x26D6 DUP8 DUP3 DUP9 ADD PUSH2 0x2156 JUMP JUMPDEST SWAP2 POP POP SWAP3 SWAP6 SWAP2 SWAP5 POP SWAP3 POP JUMP JUMPDEST PUSH1 0x0 DUP2 ISZERO ISZERO SWAP1 POP SWAP2 SWAP1 POP JUMP JUMPDEST PUSH2 0x26F7 DUP2 PUSH2 0x26E2 JUMP JUMPDEST DUP3 MSTORE POP POP JUMP JUMPDEST PUSH1 0x0 PUSH1 0x20 DUP3 ADD SWAP1 POP PUSH2 0x2712 PUSH1 0x0 DUP4 ADD DUP5 PUSH2 0x26EE JUMP JUMPDEST SWAP3 SWAP2 POP POP JUMP JUMPDEST PUSH2 0x2721 DUP2 PUSH2 0x212D JUMP JUMPDEST DUP3 MSTORE POP POP JUMP JUMPDEST PUSH1 0x0 PUSH1 0x20 DUP3 ADD SWAP1 POP PUSH2 0x273C PUSH1 0x0 DUP4 ADD DUP5 PUSH2 0x2718 JUMP JUMPDEST SWAP3 SWAP2 POP POP JUMP JUMPDEST PUSH1 0x0 PUSH1 0x20 DUP3 DUP5 SUB SLT ISZERO PUSH2 0x2758 JUMPI PUSH2 0x2757 PUSH2 0x2044 JUMP JUMPDEST JUMPDEST PUSH1 0x0 PUSH2 0x2766 DUP5 DUP3 DUP6 ADD PUSH2 0x2156 JUMP JUMPDEST SWAP2 POP POP SWAP3 SWAP2 POP POP JUMP JUMPDEST PUSH1 0x0 DUP2 MLOAD SWAP1 POP SWAP2 SWAP1 POP JUMP JUMPDEST PUSH1 0x0 DUP3 DUP3 MSTORE PUSH1 0x20 DUP3 ADD SWAP1 POP SWAP3 SWAP2 POP POP JUMP JUMPDEST PUSH1 0x0 DUP2 SWAP1 POP PUSH1 0x20 DUP3 ADD SWAP1 POP SWAP2 SWAP1 POP JUMP JUMPDEST PUSH1 0x0 DUP3 DUP3 MSTORE PUSH1 0x20 DUP3 ADD SWAP1 POP SWAP3 SWAP2 POP POP JUMP JUMPDEST PUSH1 0x0 PUSH2 0x27B7 DUP3 PUSH2 0x25B2 JUMP JUMPDEST PUSH2 0x27C1 DUP2 DUP6 PUSH2 0x279B JUMP JUMPDEST SWAP4 POP PUSH2 0x27D1 DUP2 DUP6 PUSH1 0x20 DUP7 ADD PUSH2 0x25CE JUMP JUMPDEST PUSH2 0x27DA DUP2 PUSH2 0x2278 JUMP JUMPDEST DUP5 ADD SWAP2 POP POP SWAP3 SWAP2 POP POP JUMP JUMPDEST PUSH1 0x0 PUSH2 0x27F1 DUP4 DUP4 PUSH2 0x27AC JUMP JUMPDEST SWAP1 POP SWAP3 SWAP2 POP POP JUMP JUMPDEST PUSH1 0x0 PUSH1 0x20 DUP3 ADD SWAP1 POP SWAP2 SWAP1 POP JUMP JUMPDEST PUSH1 0x0 PUSH2 0x2811 DUP3 PUSH2 0x276F JUMP JUMPDEST PUSH2 0x281B DUP2 DUP6 PUSH2 0x277A JUMP JUMPDEST SWAP4 POP DUP4 PUSH1 0x20 DUP3 MUL DUP6 ADD PUSH2 0x282D DUP6 PUSH2 0x278B JUMP JUMPDEST DUP1 PUSH1 0x0 JUMPDEST DUP6 DUP2 LT ISZERO PUSH2 0x2869 JUMPI DUP5 DUP5 SUB DUP10 MSTORE DUP2 MLOAD PUSH2 0x284A DUP6 DUP3 PUSH2 0x27E5 JUMP JUMPDEST SWAP5 POP PUSH2 0x2855 DUP4 PUSH2 0x27F9 JUMP JUMPDEST SWAP3 POP PUSH1 0x20 DUP11 ADD SWAP10 POP POP PUSH1 0x1 DUP2 ADD SWAP1 POP PUSH2 0x2831 JUMP JUMPDEST POP DUP3 SWAP8 POP DUP8 SWAP6 POP POP POP POP POP POP SWAP3 SWAP2 POP POP JUMP JUMPDEST PUSH1 0x0 PUSH1 0x20 DUP3 ADD SWAP1 POP DUP2 DUP2 SUB PUSH1 0x0 DUP4 ADD MSTORE PUSH2 0x2895 DUP2 DUP5 PUSH2 0x2806 JUMP JUMPDEST SWAP1 POP SWAP3 SWAP2 POP POP JUMP JUMPDEST PUSH1 0x0 DUP2 MLOAD SWAP1 POP SWAP2 SWAP1 POP JUMP JUMPDEST PUSH1 0x0 DUP3 DUP3 MSTORE PUSH1 0x20 DUP3 ADD SWAP1 POP SWAP3 SWAP2 POP POP JUMP JUMPDEST PUSH1 0x0 DUP2 SWAP1 POP PUSH1 0x20 DUP3 ADD SWAP1 POP SWAP2 SWAP1 POP JUMP JUMPDEST PUSH1 0x0 DUP2 MLOAD SWAP1 POP SWAP2 SWAP1 POP JUMP JUMPDEST PUSH1 0x0 DUP3 DUP3 MSTORE PUSH1 0x20 DUP3 ADD SWAP1 POP SWAP3 SWAP2 POP POP JUMP JUMPDEST PUSH1 0x0 PUSH2 0x28F0 DUP3 PUSH2 0x28C9 JUMP JUMPDEST PUSH2 0x28FA DUP2 DUP6 PUSH2 0x28D4 JUMP JUMPDEST SWAP4 POP PUSH2 0x290A DUP2 DUP6 PUSH1 0x20 DUP7 ADD PUSH2 0x25CE JUMP JUMPDEST PUSH2 0x2913 DUP2 PUSH2 0x2278 JUMP JUMPDEST DUP5 ADD SWAP2 POP POP SWAP3 SWAP2 POP POP JUMP JUMPDEST PUSH1 0x0 PUSH2 0x292A DUP4 DUP4 PUSH2 0x28E5 JUMP JUMPDEST SWAP1 POP SWAP3 SWAP2 POP POP JUMP JUMPDEST PUSH1 0x0 PUSH1 0x20 DUP3 ADD SWAP1 POP SWAP2 SWAP1 POP JUMP JUMPDEST PUSH1 0x0 PUSH2 0x294A DUP3 PUSH2 0x289D JUMP JUMPDEST PUSH2 0x2954 DUP2 DUP6 PUSH2 0x28A8 JUMP JUMPDEST SWAP4 POP DUP4 PUSH1 0x20 DUP3 MUL DUP6 ADD PUSH2 0x2966 DUP6 PUSH2 0x28B9 JUMP JUMPDEST DUP1 PUSH1 0x0 JUMPDEST DUP6 DUP2 LT ISZERO PUSH2 0x29A2 JUMPI DUP5 DUP5 SUB DUP10 MSTORE DUP2 MLOAD PUSH2 0x2983 DUP6 DUP3 PUSH2 0x291E JUMP JUMPDEST SWAP5 POP PUSH2 0x298E DUP4 PUSH2 0x2932 JUMP JUMPDEST SWAP3 POP PUSH1 0x20 DUP11 ADD SWAP10 POP POP PUSH1 0x1 DUP2 ADD SWAP1 POP PUSH2 0x296A JUMP JUMPDEST POP DUP3 SWAP8 POP DUP8 SWAP6 POP POP POP POP POP POP SWAP3 SWAP2 POP POP JUMP JUMPDEST PUSH1 0x0 PUSH1 0x20 DUP3 ADD SWAP1 POP DUP2 DUP2 SUB PUSH1 0x0 DUP4 ADD MSTORE PUSH2 0x29CE DUP2 DUP5 PUSH2 0x293F JUMP JUMPDEST SWAP1 POP SWAP3 SWAP2 POP POP JUMP JUMPDEST PUSH1 0x0 PUSH1 0x20 DUP3 DUP5 SUB SLT ISZERO PUSH2 0x29EC JUMPI PUSH2 0x29EB PUSH2 0x2044 JUMP JUMPDEST JUMPDEST PUSH1 0x0 PUSH2 0x29FA DUP5 DUP3 DUP6 ADD PUSH2 0x2414 JUMP JUMPDEST SWAP2 POP POP SWAP3 SWAP2 POP POP JUMP JUMPDEST PUSH2 0x2A0C DUP2 PUSH2 0x2072 JUMP JUMPDEST DUP3 MSTORE POP POP JUMP JUMPDEST PUSH1 0x0 PUSH1 0x20 DUP3 ADD SWAP1 POP PUSH2 0x2A27 PUSH1 0x0 DUP4 ADD DUP5 PUSH2 0x2A03 JUMP JUMPDEST SWAP3 SWAP2 POP POP JUMP JUMPDEST PUSH2 0x2A36 DUP2 PUSH2 0x2469 JUMP JUMPDEST DUP3 MSTORE POP POP JUMP JUMPDEST PUSH1 0x0 PUSH1 0x20 DUP3 ADD SWAP1 POP PUSH2 0x2A51 PUSH1 0x0 DUP4 ADD DUP5 PUSH2 0x2A2D JUMP JUMPDEST SWAP3 SWAP2 POP POP JUMP JUMPDEST PUSH1 0x0 PUSH1 0x20 DUP3 DUP5 SUB SLT ISZERO PUSH2 0x2A6D JUMPI PUSH2 0x2A6C PUSH2 0x2044 JUMP JUMPDEST JUMPDEST PUSH1 0x0 PUSH2 0x2A7B DUP5 DUP3 DUP6 ADD PUSH2 0x255D JUMP JUMPDEST SWAP2 POP POP SWAP3 SWAP2 POP POP JUMP JUMPDEST PUSH1 0x0 PUSH1 0x60 DUP3 DUP5 SUB SLT ISZERO PUSH2 0x2A9A JUMPI PUSH2 0x2A99 PUSH2 0x2044 JUMP JUMPDEST JUMPDEST PUSH1 0x0 PUSH2 0x2AA8 DUP5 DUP3 DUP6 ADD PUSH2 0x2053 JUMP JUMPDEST SWAP2 POP POP SWAP3 SWAP2 POP POP JUMP JUMPDEST PUSH1 0x0 PUSH1 0x40 DUP3 ADD SWAP1 POP PUSH2 0x2AC6 PUSH1 0x0 DUP4 ADD DUP6 PUSH2 0x2010 JUMP JUMPDEST PUSH2 0x2AD3 PUSH1 0x20 DUP4 ADD DUP5 PUSH2 0x2A03 JUMP JUMPDEST SWAP4 SWAP3 POP POP POP JUMP JUMPDEST PUSH1 0x0 DUP2 SWAP1 POP SWAP3 SWAP2 POP POP JUMP JUMPDEST PUSH1 0x0 PUSH2 0x2AF0 DUP3 PUSH2 0x28C9 JUMP JUMPDEST PUSH2 0x2AFA DUP2 DUP6 PUSH2 0x2ADA JUMP JUMPDEST SWAP4 POP PUSH2 0x2B0A DUP2 DUP6 PUSH1 0x20 DUP7 ADD PUSH2 0x25CE JUMP JUMPDEST DUP1 DUP5 ADD SWAP2 POP POP SWAP3 SWAP2 POP POP JUMP JUMPDEST PUSH32 0x2C00000000000000000000000000000000000000000000000000000000000000 PUSH1 0x0 DUP3 ADD MSTORE POP JUMP JUMPDEST PUSH1 0x0 PUSH2 0x2B4C PUSH1 0x1 DUP4 PUSH2 0x2ADA JUMP JUMPDEST SWAP2 POP PUSH2 0x2B57 DUP3 PUSH2 0x2B16 JUMP JUMPDEST PUSH1 0x1 DUP3 ADD SWAP1 POP SWAP2 SWAP1 POP JUMP JUMPDEST PUSH1 0x0 PUSH2 0x2B6E DUP3 DUP7 PUSH2 0x2AE5 JUMP JUMPDEST SWAP2 POP PUSH2 0x2B79 DUP3 PUSH2 0x2B3F JUMP JUMPDEST SWAP2 POP PUSH2 0x2B85 DUP3 DUP6 PUSH2 0x2AE5 JUMP JUMPDEST SWAP2 POP PUSH2 0x2B90 DUP3 PUSH2 0x2B3F JUMP JUMPDEST SWAP2 POP PUSH2 0x2B9C DUP3 DUP5 PUSH2 0x2AE5 JUMP JUMPDEST SWAP2 POP DUP2 SWAP1 POP SWAP5 SWAP4 POP POP POP POP JUMP JUMPDEST PUSH32 0x4E487B7100000000000000000000000000000000000000000000000000000000 PUSH1 0x0 MSTORE PUSH1 0x22 PUSH1 0x4 MSTORE PUSH1 0x24 PUSH1 0x0 REVERT JUMPDEST PUSH1 0x0 PUSH1 0x2 DUP3 DIV SWAP1 POP PUSH1 0x1 DUP3 AND DUP1 PUSH2 0x2BF0 JUMPI PUSH1 0x7F DUP3 AND SWAP2 POP JUMPDEST PUSH1 0x20 DUP3 LT DUP2 SUB PUSH2 0x2C03 JUMPI PUSH2 0x2C02 PUSH2 0x2BA9 JUMP JUMPDEST JUMPDEST POP SWAP2 SWAP1 POP JUMP JUMPDEST PUSH1 0x0 DUP2 SWAP1 POP DUP2 PUSH1 0x0 MSTORE PUSH1 0x20 PUSH1 0x0 KECCAK256 SWAP1 POP SWAP2 SWAP1 POP JUMP JUMPDEST PUSH1 0x0 PUSH1 0x20 PUSH1 0x1F DUP4 ADD DIV SWAP1 POP SWAP2 SWAP1 POP JUMP JUMPDEST PUSH1 0x0 DUP3 DUP3 SHL SWAP1 POP SWAP3 SWAP2 POP POP JUMP JUMPDEST PUSH1 0x0 PUSH1 0x8 DUP4 MUL PUSH2 0x2C6B PUSH32 0xFFFFFFFFFFFFFFFFFFFFFFFFFFFFFFFFFFFFFFFFFFFFFFFFFFFFFFFFFFFFFFFF DUP3 PUSH2 0x2C2E JUMP JUMPDEST PUSH2 0x2C75 DUP7 DUP4 PUSH2 0x2C2E JUMP JUMPDEST SWAP6 POP DUP1 NOT DUP5 AND SWAP4 POP DUP1 DUP7 AND DUP5 OR SWAP3 POP POP POP SWAP4 SWAP3 POP POP POP JUMP JUMPDEST PUSH1 0x0 PUSH2 0x2CA8 PUSH2 0x2CA3 PUSH2 0x2C9E DUP5 PUSH2 0x2469 JUMP JUMPDEST PUSH2 0x24CC JUMP JUMPDEST PUSH2 0x2469 JUMP JUMPDEST SWAP1 POP SWAP2 SWAP1 POP JUMP JUMPDEST PUSH1 0x0 DUP2 SWAP1 POP SWAP2 SWAP1 POP JUMP JUMPDEST PUSH2 0x2CC2 DUP4 PUSH2 0x2C8D JUMP JUMPDEST PUSH2 0x2CD6 PUSH2 0x2CCE DUP3 PUSH2 0x2CAF JUMP JUMPDEST DUP5 DUP5 SLOAD PUSH2 0x2C3B JUMP JUMPDEST DUP3 SSTORE POP POP POP POP JUMP JUMPDEST PUSH1 0x0 SWAP1 JUMP JUMPDEST PUSH2 0x2CEB PUSH2 0x2CDE JUMP JUMPDEST PUSH2 0x2CF6 DUP2 DUP5 DUP5 PUSH2 0x2CB9 JUMP JUMPDEST POP POP POP JUMP JUMPDEST JUMPDEST DUP2 DUP2 LT ISZERO PUSH2 0x2D1A JUMPI PUSH2 0x2D0F PUSH1 0x0 DUP3 PUSH2 0x2CE3 JUMP JUMPDEST PUSH1 0x1 DUP2 ADD SWAP1 POP PUSH2 0x2CFC JUMP JUMPDEST POP POP JUMP JUMPDEST PUSH1 0x1F DUP3 GT ISZERO PUSH2 0x2D5F JUMPI PUSH2 0x2D30 DUP2 PUSH2 0x2C09 JUMP JUMPDEST PUSH2 0x2D39 DUP5 PUSH2 0x2C1E JUMP JUMPDEST DUP2 ADD PUSH1 0x20 DUP6 LT ISZERO PUSH2 0x2D48 JUMPI DUP2 SWAP1 POP JUMPDEST PUSH2 0x2D5C PUSH2 0x2D54 DUP6 PUSH2 0x2C1E JUMP JUMPDEST DUP4 ADD DUP3 PUSH2 0x2CFB JUMP JUMPDEST POP POP JUMPDEST POP POP POP JUMP JUMPDEST PUSH1 0x0 DUP3 DUP3 SHR SWAP1 POP SWAP3 SWAP2 POP POP JUMP JUMPDEST PUSH1 0x0 PUSH2 0x2D82 PUSH1 0x0 NOT DUP5 PUSH1 0x8 MUL PUSH2 0x2D64 JUMP JUMPDEST NOT DUP1 DUP4 AND SWAP2 POP POP SWAP3 SWAP2 POP POP JUMP JUMPDEST PUSH1 0x0 PUSH2 0x2D9B DUP4 DUP4 PUSH2 0x2D71 JUMP JUMPDEST SWAP2 POP DUP3 PUSH1 0x2 MUL DUP3 OR SWAP1 POP SWAP3 SWAP2 POP POP JUMP JUMPDEST PUSH2 0x2DB4 DUP3 PUSH2 0x25B2 JUMP JUMPDEST PUSH8 0xFFFFFFFFFFFFFFFF DUP2 GT ISZERO PUSH2 0x2DCD JUMPI PUSH2 0x2DCC PUSH2 0x2289 JUMP JUMPDEST JUMPDEST PUSH2 0x2DD7 DUP3 SLOAD PUSH2 0x2BD8 JUMP JUMPDEST PUSH2 0x2DE2 DUP3 DUP3 DUP6 PUSH2 0x2D1E JUMP JUMPDEST PUSH1 0x0 PUSH1 0x20 SWAP1 POP PUSH1 0x1F DUP4 GT PUSH1 0x1 DUP2 EQ PUSH2 0x2E15 JUMPI PUSH1 0x0 DUP5 ISZERO PUSH2 0x2E03 JUMPI DUP3 DUP8 ADD MLOAD SWAP1 POP JUMPDEST PUSH2 0x2E0D DUP6 DUP3 PUSH2 0x2D8F JUMP JUMPDEST DUP7 SSTORE POP PUSH2 0x2E75 JUMP JUMPDEST PUSH1 0x1F NOT DUP5 AND PUSH2 0x2E23 DUP7 PUSH2 0x2C09 JUMP JUMPDEST PUSH1 0x0 JUMPDEST DUP3 DUP2 LT ISZERO PUSH2 0x2E4B JUMPI DUP5 DUP10 ADD MLOAD DUP3 SSTORE PUSH1 0x1 DUP3 ADD SWAP2 POP PUSH1 0x20 DUP6 ADD SWAP5 POP PUSH1 0x20 DUP2 ADD SWAP1 POP PUSH2 0x2E26 JUMP JUMPDEST DUP7 DUP4 LT ISZERO PUSH2 0x2E68 JUMPI DUP5 DUP10 ADD MLOAD PUSH2 0x2E64 PUSH1 0x1F DUP10 AND DUP3 PUSH2 0x2D71 JUMP JUMPDEST DUP4 SSTORE POP JUMPDEST PUSH1 0x1 PUSH1 0x2 DUP9 MUL ADD DUP9 SSTORE POP POP POP JUMPDEST POP POP POP POP POP POP JUMP JUMPDEST PUSH1 0x0 PUSH1 0x60 DUP3 ADD SWAP1 POP PUSH2 0x2E92 PUSH1 0x0 DUP4 ADD DUP7 PUSH2 0x2718 JUMP JUMPDEST DUP2 DUP2 SUB PUSH1 0x20 DUP4 ADD MSTORE PUSH2 0x2EA4 DUP2 DUP6 PUSH2 0x25F8 JUMP JUMPDEST SWAP1 POP PUSH2 0x2EB3 PUSH1 0x40 DUP4 ADD DUP5 PUSH2 0x2A2D JUMP JUMPDEST SWAP5 SWAP4 POP POP POP POP JUMP JUMPDEST PUSH1 0x0 DUP3 DUP3 MSTORE PUSH1 0x20 DUP3 ADD SWAP1 POP SWAP3 SWAP2 POP POP JUMP JUMPDEST PUSH32 0x496E73756666696369656E742066656500000000000000000000000000000000 PUSH1 0x0 DUP3 ADD MSTORE POP JUMP JUMPDEST PUSH1 0x0 PUSH2 0x2F02 PUSH1 0x10 DUP4 PUSH2 0x2EBB JUMP JUMPDEST SWAP2 POP PUSH2 0x2F0D DUP3 PUSH2 0x2ECC JUMP JUMPDEST PUSH1 0x20 DUP3 ADD SWAP1 POP SWAP2 SWAP1 POP JUMP JUMPDEST PUSH1 0x0 PUSH1 0x20 DUP3 ADD SWAP1 POP DUP2 DUP2 SUB PUSH1 0x0 DUP4 ADD MSTORE PUSH2 0x2F31 DUP2 PUSH2 0x2EF5 JUMP JUMPDEST SWAP1 POP SWAP2 SWAP1 POP JUMP JUMPDEST PUSH1 0x0 DUP2 SWAP1 POP SWAP3 SWAP2 POP POP JUMP JUMPDEST POP JUMP JUMPDEST PUSH1 0x0 PUSH2 0x2F53 PUSH1 0x0 DUP4 PUSH2 0x2F38 JUMP JUMPDEST SWAP2 POP PUSH2 0x2F5E DUP3 PUSH2 0x2F43 JUMP JUMPDEST PUSH1 0x0 DUP3 ADD SWAP1 POP SWAP2 SWAP1 POP JUMP JUMPDEST PUSH1 0x0 PUSH2 0x2F74 DUP3 PUSH2 0x2F46 JUMP JUMPDEST SWAP2 POP DUP2 SWAP1 POP SWAP2 SWAP1 POP JUMP JUMPDEST PUSH32 0x5472616E73666572206661696C65640000000000000000000000000000000000 PUSH1 0x0 DUP3 ADD MSTORE POP JUMP JUMPDEST PUSH1 0x0 PUSH2 0x2FB4 PUSH1 0xF DUP4 PUSH2 0x2EBB JUMP JUMPDEST SWAP2 POP PUSH2 0x2FBF DUP3 PUSH2 0x2F7E JUMP JUMPDEST PUSH1 0x20 DUP3 ADD SWAP1 POP SWAP2 SWAP1 POP JUMP JUMPDEST PUSH1 0x0 PUSH1 0x20 DUP3 ADD SWAP1 POP DUP2 DUP2 SUB PUSH1 0x0 DUP4 ADD MSTORE PUSH2 0x2FE3 DUP2 PUSH2 0x2FA7 JUMP JUMPDEST SWAP1 POP SWAP2 SWAP1 POP JUMP JUMPDEST PUSH32 0x4E487B7100000000000000000000000000000000000000000000000000000000 PUSH1 0x0 MSTORE PUSH1 0x32 PUSH1 0x4 MSTORE PUSH1 0x24 PUSH1 0x0 REVERT JUMPDEST PUSH32 0x4E487B7100000000000000000000000000000000000000000000000000000000 PUSH1 0x0 MSTORE PUSH1 0x11 PUSH1 0x4 MSTORE PUSH1 0x24 PUSH1 0x0 REVERT JUMPDEST PUSH1 0x0 PUSH2 0x3053 DUP3 PUSH2 0x2469 JUMP JUMPDEST SWAP2 POP PUSH32 0xFFFFFFFFFFFFFFFFFFFFFFFFFFFFFFFFFFFFFFFFFFFFFFFFFFFFFFFFFFFFFFFF DUP3 SUB PUSH2 0x3085 JUMPI PUSH2 0x3084 PUSH2 0x3019 JUMP JUMPDEST JUMPDEST PUSH1 0x1 DUP3 ADD SWAP1 POP SWAP2 SWAP1 POP JUMP JUMPDEST PUSH32 0x4F776E61626C653A206E6577206F776E657220697320746865207A65726F2061 PUSH1 0x0 DUP3 ADD MSTORE PUSH32 0x6464726573730000000000000000000000000000000000000000000000000000 PUSH1 0x20 DUP3 ADD MSTORE POP JUMP JUMPDEST PUSH1 0x0 PUSH2 0x30EC PUSH1 0x26 DUP4 PUSH2 0x2EBB JUMP JUMPDEST SWAP2 POP PUSH2 0x30F7 DUP3 PUSH2 0x3090 JUMP JUMPDEST PUSH1 0x40 DUP3 ADD SWAP1 POP SWAP2 SWAP1 POP JUMP JUMPDEST PUSH1 0x0 PUSH1 0x20 DUP3 ADD SWAP1 POP DUP2 DUP2 SUB PUSH1 0x0 DUP4 ADD MSTORE PUSH2 0x311B DUP2 PUSH2 0x30DF JUMP JUMPDEST SWAP1 POP SWAP2 SWAP1 POP JUMP JUMPDEST PUSH1 0x0 PUSH2 0x312D DUP3 PUSH2 0x2469 JUMP JUMPDEST SWAP2 POP PUSH2 0x3138 DUP4 PUSH2 0x2469 JUMP JUMPDEST SWAP3 POP DUP3 DUP3 ADD SWAP1 POP DUP1 DUP3 GT ISZERO PUSH2 0x3150 JUMPI PUSH2 0x314F PUSH2 0x3019 JUMP JUMPDEST JUMPDEST SWAP3 SWAP2 POP POP JUMP JUMPDEST PUSH1 0x0 PUSH2 0x3161 DUP3 PUSH2 0x2469 JUMP JUMPDEST SWAP2 POP PUSH2 0x316C DUP4 PUSH2 0x2469 JUMP JUMPDEST SWAP3 POP DUP3 DUP3 MUL PUSH2 0x317A DUP2 PUSH2 0x2469 JUMP JUMPDEST SWAP2 POP DUP3 DUP3 DIV DUP5 EQ DUP4 ISZERO OR PUSH2 0x3191 JUMPI PUSH2 0x3190 PUSH2 0x3019 JUMP JUMPDEST JUMPDEST POP SWAP3 SWAP2 POP POP JUMP JUMPDEST PUSH32 0x4E487B7100000000000000000000000000000000000000000000000000000000 PUSH1 0x0 MSTORE PUSH1 0x12 PUSH1 0x4 MSTORE PUSH1 0x24 PUSH1 0x0 REVERT JUMPDEST PUSH1 0x0 PUSH2 0x31D2 DUP3 PUSH2 0x2469 JUMP JUMPDEST SWAP2 POP PUSH2 0x31DD DUP4 PUSH2 0x2469 JUMP JUMPDEST SWAP3 POP DUP3 PUSH2 0x31ED JUMPI PUSH2 0x31EC PUSH2 0x3198 JUMP JUMPDEST JUMPDEST DUP3 DUP3 DIV SWAP1 POP SWAP3 SWAP2 POP POP JUMP JUMPDEST PUSH1 0x0 PUSH2 0x3203 DUP3 PUSH2 0x2469 JUMP JUMPDEST SWAP2 POP PUSH2 0x320E DUP4 PUSH2 0x2469 JUMP JUMPDEST SWAP3 POP DUP3 DUP3 SUB SWAP1 POP DUP2 DUP2 GT ISZERO PUSH2 0x3226 JUMPI PUSH2 0x3225 PUSH2 0x3019 JUMP JUMPDEST JUMPDEST SWAP3 SWAP2 POP POP JUMP JUMPDEST PUSH1 0x0 PUSH2 0x3237 DUP3 PUSH2 0x2469 JUMP JUMPDEST SWAP2 POP PUSH2 0x3242 DUP4 PUSH2 0x2469 JUMP JUMPDEST SWAP3 POP DUP3 PUSH2 0x3252 JUMPI PUSH2 0x3251 PUSH2 0x3198 JUMP JUMPDEST JUMPDEST DUP3 DUP3 MOD SWAP1 POP SWAP3 SWAP2 POP POP JUMP JUMPDEST PUSH1 0x0 PUSH2 0xFFFF DUP3 AND SWAP1 POP SWAP2 SWAP1 POP JUMP JUMPDEST PUSH1 0x0 DUP2 PUSH1 0xF0 SHL SWAP1 POP SWAP2 SWAP1 POP JUMP JUMPDEST PUSH1 0x0 PUSH2 0x3283 DUP3 PUSH2 0x326B JUMP JUMPDEST SWAP1 POP SWAP2 SWAP1 POP JUMP JUMPDEST PUSH2 0x329B PUSH2 0x3296 DUP3 PUSH2 0x325D JUMP JUMPDEST PUSH2 0x3278 JUMP JUMPDEST DUP3 MSTORE POP POP JUMP JUMPDEST PUSH1 0x0 PUSH2 0x32AD DUP3 DUP5 PUSH2 0x328A JUMP JUMPDEST PUSH1 0x2 DUP3 ADD SWAP2 POP DUP2 SWAP1 POP SWAP3 SWAP2 POP POP JUMP JUMPDEST PUSH2 0x32C5 DUP2 PUSH2 0x325D JUMP JUMPDEST DUP3 MSTORE POP POP JUMP JUMPDEST PUSH1 0x0 PUSH1 0x20 DUP3 ADD SWAP1 POP PUSH2 0x32E0 PUSH1 0x0 DUP4 ADD DUP5 PUSH2 0x32BC JUMP JUMPDEST SWAP3 SWAP2 POP POP JUMP JUMPDEST PUSH2 0x32EF DUP2 PUSH2 0x2000 JUMP JUMPDEST DUP3 MSTORE POP POP JUMP JUMPDEST PUSH2 0x32FE DUP2 PUSH2 0x2072 JUMP JUMPDEST DUP3 MSTORE POP POP JUMP JUMPDEST PUSH2 0x330D DUP2 PUSH2 0x26E2 JUMP JUMPDEST DUP3 MSTORE POP POP JUMP JUMPDEST PUSH1 0x0 PUSH1 0xA0 DUP4 ADD PUSH1 0x0 DUP4 ADD MLOAD PUSH2 0x332B PUSH1 0x0 DUP7 ADD DUP3 PUSH2 0x32E6 JUMP JUMPDEST POP PUSH1 0x20 DUP4 ADD MLOAD PUSH2 0x333E PUSH1 0x20 DUP7 ADD DUP3 PUSH2 0x32F5 JUMP JUMPDEST POP PUSH1 0x40 DUP4 ADD MLOAD DUP5 DUP3 SUB PUSH1 0x40 DUP7 ADD MSTORE PUSH2 0x3356 DUP3 DUP3 PUSH2 0x27AC JUMP JUMPDEST SWAP2 POP POP PUSH1 0x60 DUP4 ADD MLOAD DUP5 DUP3 SUB PUSH1 0x60 DUP7 ADD MSTORE PUSH2 0x3370 DUP3 DUP3 PUSH2 0x27AC JUMP JUMPDEST SWAP2 POP POP PUSH1 0x80 DUP4 ADD MLOAD PUSH2 0x3385 PUSH1 0x80 DUP7 ADD DUP3 PUSH2 0x3304 JUMP JUMPDEST POP DUP1 SWAP2 POP POP SWAP3 SWAP2 POP POP JUMP JUMPDEST PUSH1 0x0 PUSH1 0x40 DUP3 ADD SWAP1 POP DUP2 DUP2 SUB PUSH1 0x0 DUP4 ADD MSTORE PUSH2 0x33AA DUP2 DUP6 PUSH2 0x3313 JUMP JUMPDEST SWAP1 POP PUSH2 0x33B9 PUSH1 0x20 DUP4 ADD DUP5 PUSH2 0x2718 JUMP JUMPDEST SWAP4 SWAP3 POP POP POP JUMP JUMPDEST PUSH1 0x0 DUP1 REVERT JUMPDEST PUSH1 0x0 DUP2 MLOAD SWAP1 POP PUSH2 0x33D4 DUP2 PUSH2 0x2546 JUMP JUMPDEST SWAP3 SWAP2 POP POP JUMP JUMPDEST PUSH1 0x0 PUSH1 0x40 DUP3 DUP5 SUB SLT ISZERO PUSH2 0x33F0 JUMPI PUSH2 0x33EF PUSH2 0x33C0 JUMP JUMPDEST JUMPDEST PUSH2 0x33FA PUSH1 0x40 PUSH2 0x22E9 JUMP JUMPDEST SWAP1 POP PUSH1 0x0 PUSH2 0x340A DUP5 DUP3 DUP6 ADD PUSH2 0x33C5 JUMP JUMPDEST PUSH1 0x0 DUP4 ADD MSTORE POP PUSH1 0x20 PUSH2 0x341E DUP5 DUP3 DUP6 ADD PUSH2 0x33C5 JUMP JUMPDEST PUSH1 0x20 DUP4 ADD MSTORE POP SWAP3 SWAP2 POP POP JUMP JUMPDEST PUSH1 0x0 PUSH1 0x40 DUP3 DUP5 SUB SLT ISZERO PUSH2 0x3440 JUMPI PUSH2 0x343F PUSH2 0x2044 JUMP JUMPDEST JUMPDEST PUSH1 0x0 PUSH2 0x344E DUP5 DUP3 DUP6 ADD PUSH2 0x33DA JUMP JUMPDEST SWAP2 POP POP SWAP3 SWAP2 POP POP JUMP JUMPDEST PUSH1 0x0 DUP2 MLOAD SWAP1 POP PUSH2 0x3466 DUP2 PUSH2 0x207C JUMP JUMPDEST SWAP3 SWAP2 POP POP JUMP JUMPDEST PUSH2 0x3475 DUP2 PUSH2 0x2227 JUMP JUMPDEST DUP2 EQ PUSH2 0x3480 JUMPI PUSH1 0x0 DUP1 REVERT JUMPDEST POP JUMP JUMPDEST PUSH1 0x0 DUP2 MLOAD SWAP1 POP PUSH2 0x3492 DUP2 PUSH2 0x346C JUMP JUMPDEST SWAP3 SWAP2 POP POP JUMP JUMPDEST PUSH1 0x0 PUSH1 0x80 DUP3 DUP5 SUB SLT ISZERO PUSH2 0x34AE JUMPI PUSH2 0x34AD PUSH2 0x33C0 JUMP JUMPDEST JUMPDEST PUSH2 0x34B8 PUSH1 0x60 PUSH2 0x22E9 JUMP JUMPDEST SWAP1 POP PUSH1 0x0 PUSH2 0x34C8 DUP5 DUP3 DUP6 ADD PUSH2 0x3457 JUMP JUMPDEST PUSH1 0x0 DUP4 ADD MSTORE POP PUSH1 0x20 PUSH2 0x34DC DUP5 DUP3 DUP6 ADD PUSH2 0x3483 JUMP JUMPDEST PUSH1 0x20 DUP4 ADD MSTORE POP PUSH1 0x40 PUSH2 0x34F0 DUP5 DUP3 DUP6 ADD PUSH2 0x33DA JUMP JUMPDEST PUSH1 0x40 DUP4 ADD MSTORE POP SWAP3 SWAP2 POP POP JUMP JUMPDEST PUSH1 0x0 PUSH1 0x80 DUP3 DUP5 SUB SLT ISZERO PUSH2 0x3512 JUMPI PUSH2 0x3511 PUSH2 0x2044 JUMP JUMPDEST JUMPDEST PUSH1 0x0 PUSH2 0x3520 DUP5 DUP3 DUP6 ADD PUSH2 0x3498 JUMP JUMPDEST SWAP2 POP POP SWAP3 SWAP2 POP POP JUMP JUMPDEST PUSH32 0x4F776E61626C653A2063616C6C6572206973206E6F7420746865206F776E6572 PUSH1 0x0 DUP3 ADD MSTORE POP JUMP JUMPDEST PUSH1 0x0 PUSH2 0x355F PUSH1 0x20 DUP4 PUSH2 0x2EBB JUMP JUMPDEST SWAP2 POP PUSH2 0x356A DUP3 PUSH2 0x3529 JUMP JUMPDEST PUSH1 0x20 DUP3 ADD SWAP1 POP SWAP2 SWAP1 POP JUMP JUMPDEST PUSH1 0x0 PUSH1 0x20 DUP3 ADD SWAP1 POP DUP2 DUP2 SUB PUSH1 0x0 DUP4 ADD MSTORE PUSH2 0x358E DUP2 PUSH2 0x3552 JUMP JUMPDEST SWAP1 POP SWAP2 SWAP1 POP JUMP JUMPDEST PUSH32 0x746F55696E7431365F6F75744F66426F756E6473000000000000000000000000 PUSH1 0x0 DUP3 ADD MSTORE POP JUMP JUMPDEST PUSH1 0x0 PUSH2 0x35CB PUSH1 0x14 DUP4 PUSH2 0x2EBB JUMP JUMPDEST SWAP2 POP PUSH2 0x35D6 DUP3 PUSH2 0x3595 JUMP JUMPDEST PUSH1 0x20 DUP3 ADD SWAP1 POP SWAP2 SWAP1 POP JUMP JUMPDEST PUSH1 0x0 PUSH1 0x20 DUP3 ADD SWAP1 POP DUP2 DUP2 SUB PUSH1 0x0 DUP4 ADD MSTORE PUSH2 0x35FA DUP2 PUSH2 0x35BE JUMP JUMPDEST SWAP1 POP SWAP2 SWAP1 POP JUMP JUMPDEST PUSH1 0x0 PUSH16 0xFFFFFFFFFFFFFFFFFFFFFFFFFFFFFFFF DUP3 AND SWAP1 POP SWAP2 SWAP1 POP JUMP JUMPDEST PUSH1 0x0 DUP2 PUSH1 0x80 SHL SWAP1 POP SWAP2 SWAP1 POP JUMP JUMPDEST PUSH1 0x0 PUSH2 0x3635 DUP3 PUSH2 0x361D JUMP JUMPDEST SWAP1 POP SWAP2 SWAP1 POP JUMP JUMPDEST PUSH2 0x364D PUSH2 0x3648 DUP3 PUSH2 0x3601 JUMP JUMPDEST PUSH2 0x362A JUMP JUMPDEST DUP3 MSTORE POP POP JUMP JUMPDEST PUSH1 0x0 PUSH2 0x365F DUP3 DUP6 PUSH2 0x363C JUMP JUMPDEST PUSH1 0x10 DUP3 ADD SWAP2 POP PUSH2 0x366F DUP3 DUP5 PUSH2 0x363C JUMP JUMPDEST PUSH1 0x10 DUP3 ADD SWAP2 POP DUP2 SWAP1 POP SWAP4 SWAP3 POP POP POP JUMP JUMPDEST PUSH1 0x0 PUSH2 0x368B DUP3 DUP5 PUSH2 0x363C JUMP JUMPDEST PUSH1 0x10 DUP3 ADD SWAP2 POP DUP2 SWAP1 POP SWAP3 SWAP2 POP POP JUMP JUMPDEST PUSH1 0x0 PUSH2 0x36A5 DUP3 PUSH2 0x325D JUMP JUMPDEST SWAP2 POP PUSH2 0x36B0 DUP4 PUSH2 0x325D JUMP JUMPDEST SWAP3 POP DUP3 DUP3 ADD SWAP1 POP PUSH2 0xFFFF DUP2 GT ISZERO PUSH2 0x36CA JUMPI PUSH2 0x36C9 PUSH2 0x3019 JUMP JUMPDEST JUMPDEST SWAP3 SWAP2 POP POP JUMP JUMPDEST PUSH1 0x0 PUSH2 0x36DB DUP3 PUSH2 0x25B2 JUMP JUMPDEST PUSH2 0x36E5 DUP2 DUP6 PUSH2 0x2F38 JUMP JUMPDEST SWAP4 POP PUSH2 0x36F5 DUP2 DUP6 PUSH1 0x20 DUP7 ADD PUSH2 0x25CE JUMP JUMPDEST DUP1 DUP5 ADD SWAP2 POP POP SWAP3 SWAP2 POP POP JUMP JUMPDEST PUSH1 0x0 PUSH1 0xFF DUP3 AND SWAP1 POP SWAP2 SWAP1 POP JUMP JUMPDEST PUSH1 0x0 DUP2 PUSH1 0xF8 SHL SWAP1 POP SWAP2 SWAP1 POP JUMP JUMPDEST PUSH1 0x0 PUSH2 0x3726 DUP3 PUSH2 0x370E JUMP JUMPDEST SWAP1 POP SWAP2 SWAP1 POP JUMP JUMPDEST PUSH2 0x373E PUSH2 0x3739 DUP3 PUSH2 0x3701 JUMP JUMPDEST PUSH2 0x371B JUMP JUMPDEST DUP3 MSTORE POP POP JUMP JUMPDEST PUSH1 0x0 PUSH2 0x3750 DUP3 DUP9 PUSH2 0x36D0 JUMP JUMPDEST SWAP2 POP PUSH2 0x375C DUP3 DUP8 PUSH2 0x372D JUMP JUMPDEST PUSH1 0x1 DUP3 ADD SWAP2 POP PUSH2 0x376C DUP3 DUP7 PUSH2 0x328A JUMP JUMPDEST PUSH1 0x2 DUP3 ADD SWAP2 POP PUSH2 0x377C DUP3 DUP6 PUSH2 0x372D JUMP JUMPDEST PUSH1 0x1 DUP3 ADD SWAP2 POP PUSH2 0x378C DUP3 DUP5 PUSH2 0x36D0 JUMP JUMPDEST SWAP2 POP DUP2 SWAP1 POP SWAP7 SWAP6 POP POP POP POP POP POP JUMP JUMPDEST PUSH1 0x0 DUP2 MLOAD SWAP1 POP PUSH2 0x37AA DUP2 PUSH2 0x213F JUMP JUMPDEST SWAP3 SWAP2 POP POP JUMP JUMPDEST PUSH1 0x0 PUSH1 0x20 DUP3 DUP5 SUB SLT ISZERO PUSH2 0x37C6 JUMPI PUSH2 0x37C5 PUSH2 0x2044 JUMP JUMPDEST JUMPDEST PUSH1 0x0 PUSH2 0x37D4 DUP5 DUP3 DUP6 ADD PUSH2 0x379B JUMP JUMPDEST SWAP2 POP POP SWAP3 SWAP2 POP POP JUMP JUMPDEST PUSH32 0x53616665436173743A2076616C756520646F65736E27742066697420696E2031 PUSH1 0x0 DUP3 ADD MSTORE PUSH32 0x3620626974730000000000000000000000000000000000000000000000000000 PUSH1 0x20 DUP3 ADD MSTORE POP JUMP JUMPDEST PUSH1 0x0 PUSH2 0x3839 PUSH1 0x26 DUP4 PUSH2 0x2EBB JUMP JUMPDEST SWAP2 POP PUSH2 0x3844 DUP3 PUSH2 0x37DD JUMP JUMPDEST PUSH1 0x40 DUP3 ADD SWAP1 POP SWAP2 SWAP1 POP JUMP JUMPDEST PUSH1 0x0 PUSH1 0x20 DUP3 ADD SWAP1 POP DUP2 DUP2 SUB PUSH1 0x0 DUP4 ADD MSTORE PUSH2 0x3868 DUP2 PUSH2 0x382C JUMP JUMPDEST SWAP1 POP SWAP2 SWAP1 POP JUMP JUMPDEST PUSH1 0x0 PUSH1 0x60 DUP3 ADD SWAP1 POP PUSH2 0x3884 PUSH1 0x0 DUP4 ADD DUP7 PUSH2 0x2718 JUMP JUMPDEST PUSH2 0x3891 PUSH1 0x20 DUP4 ADD DUP6 PUSH2 0x2718 JUMP JUMPDEST PUSH2 0x389E PUSH1 0x40 DUP4 ADD DUP5 PUSH2 0x2A2D JUMP JUMPDEST SWAP5 SWAP4 POP POP POP POP JUMP JUMPDEST PUSH2 0x38AF DUP2 PUSH2 0x26E2 JUMP JUMPDEST DUP2 EQ PUSH2 0x38BA JUMPI PUSH1 0x0 DUP1 REVERT JUMPDEST POP JUMP JUMPDEST PUSH1 0x0 DUP2 MLOAD SWAP1 POP PUSH2 0x38CC DUP2 PUSH2 0x38A6 JUMP JUMPDEST SWAP3 SWAP2 POP POP JUMP JUMPDEST PUSH1 0x0 PUSH1 0x20 DUP3 DUP5 SUB SLT ISZERO PUSH2 0x38E8 JUMPI PUSH2 0x38E7 PUSH2 0x2044 JUMP JUMPDEST JUMPDEST PUSH1 0x0 PUSH2 0x38F6 DUP5 DUP3 DUP6 ADD PUSH2 0x38BD JUMP JUMPDEST SWAP2 POP POP SWAP3 SWAP2 POP POP JUMP JUMPDEST PUSH32 0x5361666545524332303A204552433230206F7065726174696F6E20646964206E PUSH1 0x0 DUP3 ADD MSTORE PUSH32 0x6F74207375636365656400000000000000000000000000000000000000000000 PUSH1 0x20 DUP3 ADD MSTORE POP JUMP JUMPDEST PUSH1 0x0 PUSH2 0x395B PUSH1 0x2A DUP4 PUSH2 0x2EBB JUMP JUMPDEST SWAP2 POP PUSH2 0x3966 DUP3 PUSH2 0x38FF JUMP JUMPDEST PUSH1 0x40 DUP3 ADD SWAP1 POP SWAP2 SWAP1 POP JUMP JUMPDEST PUSH1 0x0 PUSH1 0x20 DUP3 ADD SWAP1 POP DUP2 DUP2 SUB PUSH1 0x0 DUP4 ADD MSTORE PUSH2 0x398A DUP2 PUSH2 0x394E JUMP JUMPDEST SWAP1 POP SWAP2 SWAP1 POP JUMP JUMPDEST PUSH32 0x416464726573733A20696E73756666696369656E742062616C616E636520666F PUSH1 0x0 DUP3 ADD MSTORE PUSH32 0x722063616C6C0000000000000000000000000000000000000000000000000000 PUSH1 0x20 DUP3 ADD MSTORE POP JUMP JUMPDEST PUSH1 0x0 PUSH2 0x39ED PUSH1 0x26 DUP4 PUSH2 0x2EBB JUMP JUMPDEST SWAP2 POP PUSH2 0x39F8 DUP3 PUSH2 0x3991 JUMP JUMPDEST PUSH1 0x40 DUP3 ADD SWAP1 POP SWAP2 SWAP1 POP JUMP JUMPDEST PUSH1 0x0 PUSH1 0x20 DUP3 ADD SWAP1 POP DUP2 DUP2 SUB PUSH1 0x0 DUP4 ADD MSTORE PUSH2 0x3A1C DUP2 PUSH2 0x39E0 JUMP JUMPDEST SWAP1 POP SWAP2 SWAP1 POP JUMP JUMPDEST PUSH1 0x0 PUSH2 0x3A2F DUP3 DUP5 PUSH2 0x36D0 JUMP JUMPDEST SWAP2 POP DUP2 SWAP1 POP SWAP3 SWAP2 POP POP JUMP JUMPDEST PUSH32 0x416464726573733A2063616C6C20746F206E6F6E2D636F6E7472616374000000 PUSH1 0x0 DUP3 ADD MSTORE POP JUMP JUMPDEST PUSH1 0x0 PUSH2 0x3A70 PUSH1 0x1D DUP4 PUSH2 0x2EBB JUMP JUMPDEST SWAP2 POP PUSH2 0x3A7B DUP3 PUSH2 0x3A3A JUMP JUMPDEST PUSH1 0x20 DUP3 ADD SWAP1 POP SWAP2 SWAP1 POP JUMP JUMPDEST PUSH1 0x0 PUSH1 0x20 DUP3 ADD SWAP1 POP DUP2 DUP2 SUB PUSH1 0x0 DUP4 ADD MSTORE PUSH2 0x3A9F DUP2 PUSH2 0x3A63 JUMP JUMPDEST SWAP1 POP SWAP2 SWAP1 POP JUMP JUMPDEST PUSH1 0x0 PUSH2 0x3AB1 DUP3 PUSH2 0x28C9 JUMP JUMPDEST PUSH2 0x3ABB DUP2 DUP6 PUSH2 0x2EBB JUMP JUMPDEST SWAP4 POP PUSH2 0x3ACB DUP2 DUP6 PUSH1 0x20 DUP7 ADD PUSH2 0x25CE JUMP JUMPDEST PUSH2 0x3AD4 DUP2 PUSH2 0x2278 JUMP JUMPDEST DUP5 ADD SWAP2 POP POP SWAP3 SWAP2 POP POP JUMP JUMPDEST PUSH1 0x0 PUSH1 0x20 DUP3 ADD SWAP1 POP DUP2 DUP2 SUB PUSH1 0x0 DUP4 ADD MSTORE PUSH2 0x3AF9 DUP2 DUP5 PUSH2 0x3AA6 JUMP JUMPDEST SWAP1 POP SWAP3 SWAP2 POP POP JUMP INVALID LOG2 PUSH5 0x6970667358 0x22 SLT KECCAK256 TIMESTAMP 0xB6 JUMP XOR PUSH3 0x16A5E3 DIV 0xA5 0xE8 0xE DUP14 0xCE PUSH8 0x1A9F4BD0CAB26FAA 0xD 0x2E 0xC0 PUSH6 0x435915C96C64 PUSH20 0x6F6C634300081400330000000000000000000000 "},"gasEstimates":{"creation":{"codeDepositCost":"3031800","executionCost":"infinite","totalCost":"infinite"},"external":{"SOLANA_CHAIN_ID()":"359","allowInitializePath((uint32,bytes32,uint64))":"3143","endpoint()":"infinite","gasLimit()":"2539","getLinkedAddresses(address)":"infinite","getLinkedAddressesAsStrings(address)":"infinite","isComposeMsgSender((uint32,bytes32,uint64),bytes,address)":"1045","linkAddress(string)":"infinite","linkedSolanaAddresses(address,uint256)":"infinite","lzReceive((uint32,bytes32,uint64),bytes32,bytes,address,bytes)":"infinite","nextNonce(uint32,bytes32)":"912","oAppVersion()":"infinite","owner()":"2567","peers(uint32)":"2882","quoteLinkAddress(string)":"infinite","quoteLinkFee(string)":"infinite","renounceOwnership()":"30487","setDelegate(address)":"infinite","setGasLimit(uint256)":"24850","setPeer(uint32,bytes32)":"infinite","transferOwnership(address)":"30832","withdraw()":"infinite"},"internal":{"_lzReceive(struct Origin calldata,bytes32,bytes calldata,address,bytes calldata)":"23","addressToString(address)":"infinite","uint256ToString(uint256)":"infinite"}},"methodIdentifiers":{"SOLANA_CHAIN_ID()":"067bd07a","allowInitializePath((uint32,bytes32,uint64))":"ff7bd03d","endpoint()":"5e280f11","gasLimit()":"f68016b7","getLinkedAddresses(address)":"9541618c","getLinkedAddressesAsStrings(address)":"a6451163","isComposeMsgSender((uint32,bytes32,uint64),bytes,address)":"82413eac","linkAddress(string)":"306fed73","linkedSolanaAddresses(address,uint256)":"7954c58f","lzReceive((uint32,bytes32,uint64),bytes32,bytes,address,bytes)":"13137d65","nextNonce(uint32,bytes32)":"7d25a05e","oAppVersion()":"17442b70","owner()":"8da5cb5b","peers(uint32)":"bb0b6a53","quoteLinkAddress(string)":"bf3f3de9","quoteLinkFee(string)":"56368126","renounceOwnership()":"715018a6","setDelegate(address)":"ca5eb5e1","setGasLimit(uint256)":"ee7d72b4","setPeer(uint32,bytes32)":"3400288b","transferOwnership(address)":"f2fde38b","withdraw()":"3ccfd60b"}},"storageLayout":{"storage":[{"astId":2741,"contract":"contracts/OmnichainIdentityLinker.sol:OmnichainIdentityLinker","label":"_owner","offset":0,"slot":"0","type":"t_address"},{"astId":1825,"contract":"contracts/OmnichainIdentityLinker.sol:OmnichainIdentityLinker","label":"peers","offset":0,"slot":"1","type":"t_mapping(t_uint32,t_bytes32)"},{"astId":5253,"contract":"contracts/OmnichainIdentityLinker.sol:OmnichainIdentityLinker","label":"gasLimit","offset":0,"slot":"2","type":"t_uint256"},{"astId":5258,"contract":"contracts/OmnichainIdentityLinker.sol:OmnichainIdentityLinker","label":"linkedSolanaAddresses","offset":0,"slot":"3","type":"t_mapping(t_address,t_array(t_bytes_storage)dyn_storage)"}],"types":{"t_address":{"encoding":"inplace","label":"address","numberOfBytes":"20"},"t_array(t_bytes_storage)dyn_storage":{"base":"t_bytes_storage","encoding":"dynamic_array","label":"bytes[]","numberOfBytes":"32"},"t_bytes32":{"encoding":"inplace","label":"bytes32","numberOfBytes":"32"},"t_bytes_storage":{"encoding":"bytes","label":"bytes","numberOfBytes":"32"},"t_mapping(t_address,t_array(t_bytes_storage)dyn_storage)":{"encoding":"mapping","key":"t_address","label":"mapping(address => bytes[])","numberOfBytes":"32","value":"t_array(t_bytes_storage)dyn_storage"},"t_mapping(t_uint32,t_bytes32)":{"encoding":"mapping","key":"t_uint32","label":"mapping(uint32 => bytes32)","numberOfBytes":"32","value":"t_bytes32"},"t_uint256":{"encoding":"inplace","label":"uint256","numberOfBytes":"32"},"t_uint32":{"encoding":"inplace","label":"uint32","numberOfBytes":"4"}}},"userdoc":{"kind":"user","methods":{"allowInitializePath((uint32,bytes32,uint64))":{"notice":"Checks if the path initialization is allowed based on the provided origin."},"endpoint()":{"notice":"Retrieves the LayerZero endpoint associated with the OApp."},"isComposeMsgSender((uint32,bytes32,uint64),bytes,address)":{"notice":"Indicates whether an address is an approved composeMsg sender to the Endpoint."},"nextNonce(uint32,bytes32)":{"notice":"Retrieves the next nonce for a given source endpoint and sender address."},"oAppVersion()":{"notice":"Retrieves the OApp version information."},"peers(uint32)":{"notice":"Retrieves the peer (OApp) associated with a corresponding endpoint."},"setDelegate(address)":{"notice":"Sets the delegate address for the OApp."},"setPeer(uint32,bytes32)":{"notice":"Sets the peer address (OApp instance) for a corresponding endpoint."}},"version":1}}}}